:020000040800F2
:1000000000000320A50500089120000893200008A7
:1000100095200008972000089920000800000000A3
:10002000000000000000000000000000219F000808
:100030009B20000800000000B19F00082F980008D6
:10004000F5050008F5050008F5050008F5050008A8
:10005000F5050008F5050008F5050008F505000898
:10006000F5050008F5050008F5050008F505000888
:10007000F5050008F5050008F5050008F505000878
:10008000F5050008F5050008F5050008F505000868
:10009000F5050008F5050008F5050008F505000858
:1000A000F5050008F5050008F5050008F505000848
:1000B000F5050008F5050008F5050008F505000838
:1000C000F5050008F5050008F5050008F505000828
:1000D000F50500089D200008F5050008F505000855
:1000E000F5050008F5050008F5050008F505000808
:1000F000F5050008F5050008F5050008F5050008F8
:10010000F5050008F5050008F5050008F5050008E7
:10011000F5050008A9200008B5200008C120000846
:10012000F5050008F5050008F5050008F5050008C7
:10013000F5050008F5050008F5050008F5050008B7
:10014000F5050008F5050008F5050008F5050008A7
:10015000F5050008F5050008F5050008F505000897
:10016000F5050008F5050008F5050008F505000887
:10017000F5050008F5050008F50500080000000079
:10018000F5050008F5050008F5050008F505000867
:10019000F5050008F5050008F5050008F505000857
:0C01A000CD200008F5050008D92000085B
:1001B00010B5054C237833B9044B13B10448AFF3A1
:1001C00000800123237010BD6C010020000000009E
:1001D0000018020808B5034B1BB103490348AFF3ED
:1001E000008008BD00000000700100200018020817
:1001F00001F0FF01102A2BDB10F0070F08D010F8D8
:10020000013B013A8B422DD010F0070F42B3F6D1DB
:10021000F0B441EA012141EA014122F007047FF0F4
:1002200000070023F0E80256083C85EA010586EA4B
:10023000010685FA47F5A3FA87F586FA47F6A5FA87
:1002400087F68EB9EED1F0BC01F0FF0102F0070293
:1002500032B110F8013B013A83EA010313B1F8D13E
:100260000020704701387047002D06BF354603381F
:10027000073815F0010F07D1013015F4807F02BF58
:10028000013015F4C03F0130F0BC0138704700BFA9
:10029000034613F8012B002AFBD1181A01387047C6
:1002A00053B94AB9002908BF00281CBF4FF0FF31DD
:1002B0004FF0FF3000F074B9ADF1080C6DE904CED9
:1002C00000F006F8DDF804E0DDE9022304B0704731
:1002D0002DE9F047089D04468E46002B4DD18A42F9
:1002E000944669D9B2FA82F252B101FA02F3C2F12C
:1002F000200120FA01F10CFA02FC41EA030E9440BD
:100300004FEA1C48210CBEFBF8F61FFA8CF708FBDD
:1003100016E341EA034306FB07F199420AD91CEBB5
:10032000030306F1FF3080F01F81994240F21C81E7
:10033000023E63445B1AA4B2B3FBF8F008FB10332F
:1003400044EA034400FB07F7A7420AD91CEB040464
:1003500000F1FF3380F00A81A74240F20781644434
:10036000023840EA0640E41B00261DB1D4400023B9
:10037000C5E900433146BDE8F0878B4209D9002D1D
:1003800000F0EF800026C5E9000130463146BDE8A7
:10039000F087B3FA83F6002E4AD18B4202D3824211
:1003A00000F2F980841A61EB030301209E46002DC0
:1003B000E0D0C5E9004EDDE702B9FFDEB2FA82F215
:1003C000002A40F09280A1EB0C014FEA1C471FFA73
:1003D0008CFE0126200CB1FBF7F307FB131140EA5A
:1003E00001410EFB03F0884208D91CEB010103F127
:1003F000FF3802D2884200F2CB804346091AA4B2E9
:10040000B1FBF7F007FB101144EA01440EFB00FEBC
:10041000A64508D91CEB040400F1FF3102D2A64521
:1004200000F2BB800846A4EB0E0440EA03409CE7C0
:10043000C6F12007B34022FA07FC4CEA030C20FA6D
:1004400007F401FA06F31C43F9404FEA1C4900FA8D
:1004500006F3B1FBF9F8200C1FFA8CFE09FB18110A
:1004600040EA014108FB0EF0884202FA06F20BD97D
:100470001CEB010108F1FF3A80F08880884240F2CD
:100480008580A8F102086144091AA4B2B1FBF9F011
:1004900009FB101144EA014100FB0EFE8E4508D90C
:1004A0001CEB010100F1FF346CD28E456AD9023891
:1004B000614440EA0840A0FB0294A1EB0E01A14276
:1004C000C846A64656D353D05DB1B3EB080261EBE4
:1004D0000E0101FA07F722FA06F3F1401F43C5E9BE
:1004E000007100263146BDE8F087C2F12003D840F4
:1004F0000CFA02FC21FA03F3914001434FEA1C4736
:100500001FFA8CFEB3FBF7F007FB10360B0C43EA27
:10051000064300FB0EF69E4204FA02F408D91CEBD7
:10052000030300F1FF382FD29E422DD902386344D5
:100530009B1B89B2B3FBF7F607FB163341EA034175
:1005400006FB0EF38B4208D91CEB010106F1FF38C4
:1005500016D28B4214D9023E6144C91A46EA0046BB
:1005600038E72E46284605E70646E3E61846F8E64D
:100570004B45A9D2B9EB020864EB0C0E0138A3E796
:100580004646EAE7204694E74046D1E7D0467BE777
:10059000023B614432E7304609E76444023842E7EF
:1005A000704700BFDFF834D0002103E00C4B5B58EC
:1005B000435004310B480C4B42189A42F6D30B4A75
:1005C00002E0002342F8043B094B9A42F9D306F0BB
:1005D00001FC20F023F800F009FF70470000032021
:1005E000C0541208000000206C0100206C010020A3
:1005F000B85A0120FEE7704708B500F09BFCBDE843
:10060000084000F025BC00F097BC704710B50421ED
:1006100004461FF009FF204610BD000038B50C4B02
:100620000C4C18800C4B822019806368984740F668
:10063000110398420AD1094D23682C608220984703
:100640002B688220DB689847002038BD0120FCE73A
:10065000880100204C0000208A0100208C0100202D
:100660004FF4A071F020FFF7D9BF0000F7B5344D6B
:100670002B6804461B698220984780B2208000289E
:100680004CD02B680DF106025B6901A982209847C6
:10069000BDF8063040F67462934241D9ADF80620A9
:1006A000BDF80620C2F56762043292B20A2A3DD92B
:1006B0000B23B2FBF3F2234B1B889A4201D9013B77
:1006C0009AB2BDF8043040F6B8318B4230D8C3F549
:1006D00071630E339BB20F21B3FBF1F31A49098802
:1006E0008B4201D94B1E9BB2184E194D30682F68B2
:1006F000834281B28CBF591AC91AB8B2BA428CBFB0
:10070000101A801A89B280B201440529C8BF33602B
:100710003368C8BF2A6063802B68A38003B0F0BD34
:10072000B32B9CBFB423ADF80630B9E70022C8E76D
:10073000C3F56D6308339BB20E2BCCD80023D3E7EF
:100740008C0100208A0100208801002090010020F7
:100750009401002037B568460D461446FFF786FF22
:10076000BDF8000030B1BDF802302B60BDF8043098
:100770002360012003B030BD704770477047704759
:10078000012380F8781080F8793070470020704796
:10079000034B4164003918BF01211970704700BF35
:1007A000C34F012000207047836B0BB108461847E8
:1007B00070474FF6FF707047406803689B691847A1
:1007C000704770477047000070B5044600F082FC27
:1007D0002368D3F88850044BD4E90F122046AC4666
:1007E000BDE87040604700BF000000D008B5036856
:1007F0000446D3F880309847236820469B6F98477B
:1008000000F0ECF8236820461B6F9847292001F080
:10081000B5F800F0E3F8236820461B6F9847F8E727
:1008200010B504460CF090F923682046D3F8AC309C
:10083000BDE81040184700F03FBC00F043BC00F09A
:1008400067BC00F015BC00F06FBC00F077BC00F096
:1008500019BC0BF0E5BB10B57C2104461FF0E4FD8C
:10086000204610BD90F87A301BB1406803681B68C1
:10087000184718467047000010B590F8341090F8EB
:1008800078400C4B8C421A7809D03AB90A4A0B4985
:100890001488088810800C8001221A7010BD002A6C
:1008A000FCD0054A05491488088810800C80002275
:1008B000F3E700BFBC4F0120B84F0120BA4F012021
:1008C00070B50D46194635B9094B0A4A0A4840F237
:1008D000D2211FF059FEC0E90F52084B003A18BF51
:1008E00001221A700368BDE87040D3F88C301847B5
:1008F00070180208A8180208F6180208C24F012052
:1009000008B5094B1B888B4203D8084B1B889342C0
:1009100005D9074B074A08489E211FF035FE074BB3
:100920001980074B1A8008BDB84F0120BA4F01202B
:100930003B1902089E190208F6180208BE4F012052
:10094000C04F0120012108B50022084608F0FDFF34
:100950000A4B186028B90A4B0A4A28210A481FF096
:1009600013FE00220421012009F095F8074B1860BE
:1009700018B9074B034A2C21F0E708BD9C01002061
:10098000BC1A0208051B0208341B0208980100204B
:10099000761B0208024B4FF0FF31186809F01FB8B0
:1009A0009C010020014B186809F044B89C0100200C
:1009B000024B0021186809F012B800BF9C0100200A
:1009C000FFF7F0BF03480449006800231A4609F006
:1009D0009DB800BF980100200400002013B5084C0A
:1009E00000231A4601A9206809F0C0F820684FF0DA
:1009F000FF33002201A909F0B9F802B010BD00BF11
:100A00009801002003685B6C184701207047036859
:100A10009B6A184782B0002301930D4B1A6B42F476
:100A200000021A631A6B02F400020192019A1A6919
:100A300042F400021A611A6922F400021A61054B9D
:100A4000054A1A61054B4FF080629A6002B0704708
:100A500000380240603E0020A10A000800E100E0EA
:100A600040F2EF3070470000054B0360054B4FF03C
:100A70008062C3F88820BFF34F8FBFF36F8F70473A
:100A8000081D020800E100E010B504464FF45A6169
:100A9000FFF7EAFF20461FF0C7FC204610BD00000C
:100AA000024B1B68586803685B691847C44F0120F4
:100AB00070B5044625460A4B0C300026606026724D
:100AC000667245F8203B602229460CF07BF904F55C
:100AD0005A63EE602435AB42FBD1204670BD00BFA7
:100AE000081D020808B50B290BD8DFE801F0120633
:100AF000100A0A0A0A0808080808012008BD05208B
:100B0000FCE7054B054A064865211FF03DFD002026
:100B1000F4E70220F2E700BFB81B0208D31B02086B
:100B20001D1C020808B50A2909D8DFE801F01006E3
:100B30000E080808080606060600012008BD054B39
:100B4000054A064886211FF01FFD0020F6E7022017
:100B5000F4E700BFB81B02085D1C02081D1C020858
:100B60002DE9F8434F7F0C4639468146FFF7BAFF1F
:100B700094F81E80054641464846FFF7B3FF4146BC
:100B800006464846FFF7CEFFA18A628B424B521AB7
:100B90001A649A61228B521A1A61E28A586342EAF5
:100BA00001425A6420696268D863DA60216894F867
:100BB0001CC080294FEA0C6226D010D8202945EAB3
:100BC000020461D040295FD004295DD0324B2A4312
:100BD00042F400324745DA615AD0304A40E0B1F57C
:100BE000807F07D0B1F5007FF0D142F4003242F0AF
:100BF000090203E042F4003242F00A02DA61E268DC
:100C00001A625E6258612AE0A4682A4342F4003204
:100C1000211DD962DA6122785E62586142B1012AEF
:100C200021D01F4B1F4A20484FF488711FF0ACFCA5
:100C3000DA69618822F47F42013922F0100242EA27
:100C40000122DA610120144BDA6942F02002DA61F4
:100C5000DA699206FCD410229A600028BDD0134AAB
:100C60001A60BDE8F8836288D969541E21F47F4276
:100C700022F0100242EA0422BCF1FF0042F010020E
:100C800018BF0120DA61DEE744F40034DC61B8E724
:100C900040F20122E4E700BF00B00240010201007F
:100CA000A81C0208C21C02081D1C02080102020046
:100CB00070B50C46897FFFF735FFA68AE18A628B03
:100CC000154B2569586341EA0641921B5964DD635F
:100CD0001A642668E168082E0DD19A611A6158627B
:100CE000207F0E4A42EA0062DA610D4A19625D61B4
:100CF000DD601A6070BD0022D8611A6148090A0AD5
:100D000002F4784200F4FC600243C1F3C4010A43D8
:100D10009A63044AEDE700BF00B0024009000100F9
:100D200001020200010203000120704740207047C9
:100D300000EB81100830704700EB811008307047DD
:100D40000120704742F2B850704742F2B85303FB9B
:100D500001000830704742F2B85303FB010008302D
:100D60007047012070471020704700EB01100830D9
:100D7000704700EB011008307047084601F074BE60
:100D800010B5034B036004460AF091FE204610BDE7
:100D9000C01D020810B50446FFF7F2FF20464821A7
:100DA0001FF042FB204610BD10B5034B0360044604
:100DB0000AF07DFE204610BD8C1D020810B50446C9
:100DC000FFF7F2FF20464FF417511FF02DFB20468E
:100DD00010BD000010B5034B036004460AF067FE27
:100DE000204610BD581D020810B50446FFF7F2FF5B
:100DF000204618211FF018FB204610BD10B5094BE6
:100E00000360044600F517502C30FFF7B9FF04F1DA
:100E10002C00FFF7C9FF04F11400FFF7DBFF2046A9
:100E200010BD00BFF41D020808B50248FFF7E6FF39
:100E300008BD00BFA401002010B50446FFF7DEFF87
:100E4000204642F6E4511FF0EFFA204610BD0000A4
:100E50002DE9F34101F0BEF9054601F0BFF9002488
:100E60000146234628462246009411F071FE264B87
:100E7000264A274D1A60204604F02CF8254811F028
:100E8000CFFD2B78BFF35B8FDB0737D428461FF0ED
:100E9000CDFA98B3204C214B236004F12C0808F5BF
:100EA000175707F29C6604F114006060C4F80880CC
:100EB000E76026610AF0FCFD194B636140460AF0C9
:100EC000F7FD184BE36238460AF0F2FD04F50053D3
:100ED000154AC3F8EC2503F2346004F077FF22468C
:100EE00007F14801304604F0F1F8304601F0BCFD4E
:100EF0000E481FF067FB28461FF0A4FA0C4802B00A
:100F0000BDE8F041FFF760BC20500120A83D002063
:100F1000A001002008000020A4010020F41D020808
:100F2000581D02088C1D0208C01D0208290E000869
:100F30002C3D0020704700000148FFF757BC00BF60
:100F40002C3D002070B5224E224C234D234B2360B4
:100F50003046FFF7ADFD284616F0C6F8204B214875
:100F6000DC6000224FF48071C3E912121E491A8618
:100F7000C3E91A121D4999671D4983F858200B606F
:100F8000F02101801B485A6601801B4883F87020BD
:100F90004FF4A071C3E90422C3E90622C3E9082281
:100FA000C3E90A22C3E90E22C3E91022C3E91422CD
:100FB000C3E917225A67C3E9016501800F48018020
:100FC0000F490A70012283F834200E4A1A6070BD5E
:100FD0008C2F0020882F0020AC3D002060180208D4
:100FE0002C3D0020B84F012001000001000001014C
:100FF000C44F0120BE4F0120BA4F0120C04F012035
:10100000BC4F0120EC1902080148FFF72DBD00BFBD
:101010008C2F00200020704781807047C18070476E
:101020000181704741817047704770477047704732
:10103000704710B4C4880368121B84885B6D091B59
:1010400012B25DF8044B09B218474FF6FF73838163
:101050004FF0FF3303621368C3611060704790F86C
:1010600025201AB190F8242002B1186070470000C2
:10107000034B902283F85A2383F85823704700BF0C
:1010800000E100E0094A0A49D3680A48C3F30A03A9
:10109000013B9BB20B801169C1F30A010139018048
:1010A0001364536B43F001035363704700680140BE
:1010B000323E0020303E0020014BD3F8AC00704798
:1010C00000680140024B0122C3F8AC105A6270471D
:1010D0000068014070B504460AF0F7FF23685D6EB2
:1010E0000EF09AFC01462046A8472368054AD3F82B
:1010F00088502046AC460023BDE87040A2F516316A
:10110000604700BF00B004D00AF0C6BF0AF0D0BFED
:101110000AF08CBF0BF0EDB890F8252012B10368EF
:101120005B69184770470000034B4FF080629A607C
:101130004FF080729A60704700E100E0084B4FF07A
:101140008062C3F88820BFF34F8FBFF36F8F4FF0DB
:101150008072C3F88820BFF34F8FBFF36F8F704743
:1011600000E100E010B5144C236823B3134B144A7C
:101170001B6C11888B4213D1124B198806F0F6FEB6
:10118000226892F86A30013382F86A30FFF71AFC5D
:1011900020680BF0D9FCBDE810400020FFF7EDBA45
:1011A00006F0E4FE206803681B6A9847BDE810401B
:1011B0000020FFF7E3BA10BDC44F012000680140D2
:1011C000323E0020303E002007B5064BADF8060049
:1011D0001B68054801220DF1060107F023FC03B04E
:1011E0005DF804FB10000020D03F0020F7B5504C04
:1011F000504E0421204606F0D5F801280FD14E4D5F
:101200004C2328688DF8073008F0DFFC012806D849
:101210002868C82300220DF1070108F077FC082197
:10122000204606F0BFF801280FD1444D522328680C
:101230008DF8073008F0C9FC012806D82868C823B3
:1012400000220DF1070108F061FC1021204606F094
:10125000A9F801280FD13A4D552328688DF8073099
:1012600008F0B3FC012806D82868C82300220DF135
:10127000070108F04BFC2021204606F093F80128D6
:101280000FD1304D442328688DF8073008F09DFCBD
:10129000012806D82868C82300220DF1070108F0AC
:1012A00035FC2948012106F07DF801280FD1224D97
:1012B000532328688DF8073008F087FC012806D8EA
:1012C0002868C82300220DF1070108F01FFC042143
:1012D000304606F067F8054678B91C4F4123386858
:1012E0008DF8073008F071FC012806D83868C8234B
:1012F0002A460DF1070108F009FC0821304606F0E6
:1013000051F8054678B9124F422338688DF80730F6
:1013100008F05BFC012806D83868C8232A460DF17E
:10132000070108F0F3FB642008F003FB61E700BF4E
:1013300000100240001802403C3E0020403E0020C9
:10134000443E0020483E0020000002404C3E002069
:10135000503E002030B595B0102200210AA81FF0A1
:10136000AFF91422002103A81FF0AAF900241D4B95
:1013700001941A6C42F080521A641B6C03F0805383
:101380000193019B184B02941A6842F440421A6080
:101390001B6803F4404302930122029B4FF4803305
:1013A000CDE9082302254FF48003CDE90E5308212F
:1013B0004FF4A873CDE9101308A8042313931295D2
:1013C00006F0F2FD0F23CDE903354FF4A0504FF4A2
:1013D0008053CDE90603052103A8059406F0C2FF5A
:1013E00015B030BD00380240007000402DE9804843
:1013F0009BB005F0FDFCFFF7ADFF142200210DA806
:1014000000241FF05DF9C54B00941A6BC448C54E0B
:1014100042F010021A631A6B02F010020092009A56
:1014200001941A6B42F020021A631A6B02F0200238
:101430000192019A02941A6B42F080021A631A6BAD
:1014400002F080020292029A03941A6B42F00402A4
:101450001A631A6B02F004020392039A04941A6B43
:1014600042F001021A631A6B02F001020492049A1C
:1014700005941A6B42F002021A631A6B02F0020220
:101480000592059A06941A6B42F040021A631A6B91
:1014900002F040020692069A07941A6B42F0080284
:1014A0001A631B6B03F00803079322460421079B72
:1014B00005F07EFF22469C484FF44051012505F07F
:1014C00077FF3C2399480F950DA94FF002084FF084
:1014D000040ACDE90D3405F07FFE91480F940DA963
:1014E000CDE90DA5CDF8408005F076FE90480F942B
:1014F0000DA9CDE90D5405F06FFE4FF440538A4815
:101500000DA9CDE90D354FF00C09CDE90F4405F0DB
:1015100063FE0DA987480F95CDE90D9405F05CFE9B
:101520008548864B036005F0F5FC854A854B34629F
:10153000C6E9002330464FF48043C6E90434C6E9C7
:101540000244C6E9064406F015F91021304606F0BB
:1015500051FB2146304606F06CFB7B487B49846298
:101560004FF48273C0E900134FF400761823C0E9EA
:1015700006630A23764EC362C0E90244C0E904440C
:10158000C0E9084407F0F2F9724BCDF83480C6E99F
:10159000003510274023C6E904734FF4C073C6E931
:1015A00006344FF40063C6E908344FF400534FF09B
:1015B000030BB3620DA9072330460827CDE90E3A85
:1015C0001093C6E9024ACDE911B8CDF84C8007F076
:1015D000CDF84FF6FF7209A93046CDE90A75089497
:1015E00009950C9407F0E2F8284605F02DFC4FF61B
:1015F000FF7209A93046CDE90987CDE90B5407F000
:10160000D5F84FF6FF7209A93046CDE909B7CDE903
:101610000BA407F0CBF84FF40C730893089B0C93C2
:101620004FF6FF7209A93046CDE909A70B9507F0DF
:10163000BDF840F26A51304607F0D6F83422214610
:101640000DEB02001FF03CF8434E444BB486C6E954
:1016500000340923C6E905351D2340F20D1CC6E9F7
:10166000073B40F24313C6E909C340F2171E40F29C
:1016700047133046C6E90BE3C6E90244346186F8F5
:10168000364006F07BFBFF21F022CDE912144FF427
:10169000806A05214FF4A073CDE90E24CDE914A191
:1016A000CDE916420DA922463046CDE910382C4E20
:1016B00018930D94ADF864408DF8664006F029FC4F
:1016C000284B33601B68DFF8B8B098473368264E64
:1016D000DB689847254BC6E90A48C6E90C44304602
:1016E000C6E90034C6E9028405F07AFC2946304692
:1016F00005F02EFD1E481F4B4FF4E136C0E90036C1
:10170000C0E90244C0E90449C0E9064407F00EFEFE
:1017100019481A4BC0E9003634E000BF00380240D7
:1017200000080240A03E0020000C024000100240D1
:101730000000024000180240583E002000300240E5
:10174000005C0040A0860100D03F00200050014016
:101750009C3F0020400100A0F43E002000680140B2
:10176000383E002014000020603E002000B00240FF
:101770007040002000100140B440002000500040A4
:10178000001400402E4EC0E90244C0E90449C0E9FB
:10179000064407F0CBFD5923C6E900B330464CF2AE
:1017A0004F33F360CDE90D44B460B46107F0C6FC7B
:1017B0000DA93046CDE90D4407F0ECFCFEF71CFF07
:1017C000FEF719FF08F040F81E4A2946384608F08F
:1017D00062F91D4B1D4A18602946384608F05BF92E
:1017E0001B4B1C4A18602946384608F054F91A4B1E
:1017F0001A4A18602946384608F04DF9184B194A1C
:1018000018602946384608F046F9174B174A186001
:101810002946384608F03FF9154B164A186021460C
:10182000154808F03DF8154B154A18602146154833
:1018300008F036F8144B186008F018F8FEE700BFFF
:1018400028400020641E02083C3E00207C1E020846
:10185000403E0020941E0208443E0020AC1E0208B8
:10186000483E0020C41E02084C3E0020DC1E020838
:10187000503E0020F41E0208ED110008543E0020E6
:10188000401E020807060008343E002070477047DB
:101890007FB5094B8DF817201B6802930DF11702D5
:1018A0000123009201930A460146044806F00AF813
:1018B00007B05DF804FB00BF0C000020A03E002034
:1018C0007FB500238DF81730084B1B6802930A463A
:1018D00001230DF11701009101930146044806F020
:1018E00081F89DF8170007B05DF804FB0C0000209C
:1018F000A03E00201FB5084C24680092CDE90134B9
:101900000A4601230146054806F06CF8003818BF66
:10191000012004B010BD00BF0C000020A03E00203C
:1019200005F092BA08B506480022042105F040FDF2
:10193000BDE8084002480122042105F039BD00BF7E
:101940000008024038B50B4D044601220A484FF406
:10195000005105F02DFD00220421284605F028FD48
:101960002046FFF731FC28460122BDE8384004211B
:1019700005F01EBD00080240000C024038B50B4DBA
:10198000044600220A484FF4005105F011FD0022E0
:101990000421284605F00CFD2046FFF715FC2846DB
:1019A0000122BDE83840042105F002BD00080240D4
:1019B000000C0240F7B5144E144F05460C46304655
:1019C0000022042105F0F4FC00224FF400513846B7
:1019D00005F0EEFC2846FFF7F7FB0D4B0D481B68A2
:1019E000224601A907F0C0F9384601224FF4005100
:1019F000019C05F0DDFC30460122042105F0D8FCF5
:101A0000204603B0F0BD00BF00080240000C0240B9
:101A100010000020D03F002005F016BA0268034BEA
:101A20009A4201D105F0FEB9704700BF0010004096
:101A30007047000082B00E4B00220092596C41F4B6
:101A400080415964596C01F48041009100990192E0
:101A5000196C41F0805119641B6C03F080530193A1
:101A6000019B0F216FF0010002B005F013BA00BF17
:101A7000003802400268094B9A4282B00BD1002321
:101A80000193074B1A6B42F480521A631B6B03F4E9
:101A900080530193019B02B0704700BF00300240A9
:101AA0000038024007B50F4B02689A4216D1002257
:101AB000A3F5F0430192196B41F4000119631B6B0C
:101AC00003F40003019305215A20019B05F0E2F97C
:101AD0005A2003B05DF804EB05F00EBA03B05DF8D0
:101AE00004FB00BF00B002402DE9F043044689B07A
:101AF0001422002103A81EF0E3FD2268244B9A4221
:101B000043D1244C244800250095236B43F0040363
:101B10002363236B03F004030093009B0195236B65
:101B200043F001032363236B03F001030193019B43
:101B30004FF012094FF400734FF0010803270426F9
:101B400003A9CDE90339CDE90587079605F044FBE4
:101B50004FF480731148079603A9CDE90339CDE905
:101B6000058705F039FB0295236C43F400032364D9
:101B7000236C03F400030293029B236A43F40003E3
:101B80002362236A23F40003236209B0BDE8F083D3
:101B9000005C0040003802400008024000000240A3
:101BA000F0B599B004461422002107A81EF088FD64
:101BB00030220DEB020000211EF082FD22685E4BF8
:101BC0009A4240F0B78008230C93C023109304235B
:101BD00012930CA84FF40033159306F09DFC08B146
:101BE000FFF726FF554B5648002400945A6C42F0EC
:101BF00080625A645A6C02F080620092009A0194EA
:101C00001A6B42F020021A631A6B02F02002019252
:101C1000019A02941A6B42F001021A631A6B02F0E5
:101C200001020292029A03941A6B42F002021A63B2
:101C30001A6B02F002020392039A04941A6B42F0A8
:101C400040021A631A6B02F040020492049A05944F
:101C50001A6B42F004021A631A6B02F00402059236
:101C6000059A06941A6B42F008021A631B6B03F084
:101C70000803069302250E26069B0B964FF48063FD
:101C800007A9CDE90735CDE9094505F0A5FA41F6E3
:101C900058032C480B9607A9CDE907350927CDE94C
:101CA000094505F099FA032327480B9707A9CDE9C1
:101CB0000735CDE9094505F08FFA4FF470632248E6
:101CC0000B9607A9CDE90735CDE9094505F084FA5A
:101CD0004FF40C631D480B9607A9CDE90735CDE9F4
:101CE000094505F079FAC02319480B9607A9CDE9F3
:101CF0000735CDE9094505F06FFA082315480B961D
:101D000007A9CDE90735CDE9094505F065FA4FF496
:101D1000A0530E480B9707A9CDE90735CDE9094532
:101D200005F05AFA58202246052105F0B3F858204C
:101D300005F0E2F819B0F0BD00680140003802403B
:101D4000001402400000024000040240001802405B
:101D500000080240000C024010B5044688B014226E
:101D6000002103A81EF0ACFC2268144B9A4223D138
:101D700003F56843002101915A6C114842F4801226
:101D80005A645A6C02F480120192019A02911A6B01
:101D900042F020021A631B6B03F020030293029BA4
:101DA0004FF4607202230321CDE903230523CDE91B
:101DB000061303A905F010FA08B010BD0050014049
:101DC0000014024007B50F4B02689A4216D1002258
:101DD00003F509330192196C41F0200119641B6C61
:101DE00003F02003019305213720019B05F052F8F1
:101DF000372003B05DF804EB05F07EB803B05DF862
:101E000004FB00BF00140040F0B514228BB0044660
:101E100000210DEB02001EF053FC2368384A934268
:101E200040D1384B3848002400941A6C42F4801298
:101E30001A641A6C02F480120092009A01941A6BD0
:101E400042F004021A631A6B02F004020192019A32
:101E500002941A6B42F008021A631B6B03F008032A
:101E60000293029B02274FF480530326082505A9FD
:101E7000CDE90537CDE9086505F0AEF9042323481F
:101E8000099505A9CDE90537CDE9074605F0A4F97F
:101E900035202246052104F0FDFF352005F02CF801
:101EA0000BB0F0BD1A4A9342FAD1164B19480024E0
:101EB00003945A6C42F010025A645A6C02F01002F9
:101EC0000392039A04941A6B42F001021A631B6B8B
:101ED00003F0010304934FF4C062049B0223CDE995
:101EE000052303210723CDE9081305A905F074F99B
:101EF00025202246052104F0CDFF2520CEE700BF96
:101F0000005000400038024000080240000C02402F
:101F100000100140000002402DE9F04186B000238E
:101F200003932B4B1C68002C4FD14FF00108C3F8D2
:101F30000080284B00949A6B274842EA08029A6373
:101F40009B6B03EA08030093022703260C25009BE2
:101F500001A94FF63F03CDE90137CDE9046505F04E
:101F60003BF91E48059501A9CDE90187CDE9034656
:101F700005F032F948F233131948059501A9CDE966
:101F80000137CDE9034605F027F94FF6837315486D
:101F9000059501A9CDE90137CDE9034605F01CF906
:101FA0004CF203731048059501A9CDE90137CDE93D
:101FB000034605F011F960230C48059501A9CDE908
:101FC0000137CDE9034605F007F906B0BDE8F08119
:101FD000F84000200038024000140240000802408F
:101FE0000018024000100240000C024000040240B1
:101FF00070B588B000230293204B1A6C42F0100297
:102000001A641B6C03F010030293054601A903A890
:10201000029B06F063FA069B4BBB06F03FFA184E94
:10202000184B336040F2E733F360174BB0FBF3F328
:10203000013B7360304600233361B360B36107F046
:102040007DF8044680B9304606F032FF044658B9A0
:10205000362004F051FF0F2D0DD822462946362098
:1020600004F018FF094B1D60204608B070BD06F053
:1020700015FA4000D3E70124F6E700BF003802401C
:10208000FC4000200010004040420F007C00002077
:102090007047FEE7FEE7FEE7FEE77047014807F0FE
:1020A000D5B900BF70400020014807F0CFB900BF8C
:1020B000B4400020014806F039BF00BFFC400020BA
:1020C000014806F033BF00BF28400020014805F05A
:1020D000C3BE00BFF43E0020014804F0AFBF00BF04
:1020E000603E00200120704708B51EF07FFA1623DD
:1020F00003604FF0FF3008BD08B51EF077FA1623D5
:102100000360FEE770B50D4614460E46731B9C42F5
:1021100001DC204670BDAFF3008006F8010BF5E747
:1021200070B50D4614460E46731B9C4201DC2046DA
:1021300070BD16F8010BAFF30080F5E74FF0FF30EC
:1021400070474FF400534B600020704701207047E8
:10215000002070470A4A116808B5034609B90949C1
:1021600011601068694603448B4206D91EF03EFA9E
:102170000C2303604FF0FF3008BD1360FCE700BF85
:1021800044410020B85A0120704708B5042918D8E6
:10219000DFE801F003070B0F130002F0E7FE006811
:1021A00008BD02F0E3FE4068FAE702F0DFFE806857
:1021B000F6E702F0DBFEC068F2E702F0D7FE006946
:1021C000EEE70020ECE710B5042104461EF02CF9E0
:1021D000204610BD004870472C1F02081020704791
:1021E00013B5002451B1036801948DF8034001AA8E
:1021F0009C680DF10303A04702B010BD0846FBE741
:10220000C0897047008A7047C088704780887047CF
:10221000807A00F07F007047807AC009704770476D
:102220007047704770477047704730B50368018149
:1022300085B06D460146D3F8843004462846984759
:1022400095E807003C3484E8070005B030BD30B5A0
:102250000368418185B06D460146D3F88430044659
:102260002846984795E807003C3484E8070005B005
:1022700030BD0022028042808280C280704780F898
:102280003610704770B5036804461B6B15469847B7
:102290002368294620465B6EBDE870401847002041
:1022A0007047806C7047704770477047704730B414
:1022B000C26844685510034604EB6200D20748BF69
:1022C00062599B6830BC48BFD358184743682BB14C
:1022D00083682BB9C06800F001007047184670474A
:1022E0000120704710B5082104461EF09DF82046D5
:1022F00010BD10B54C2104461EF096F8204610BDC6
:1023000010B5102104461EF08FF8204610BD10B500
:102310004FF4CC7104461EF087F8204610BD08B576
:10232000FEF7FAFE08BD0000036870B55E6B124B45
:102330001B6804468DB22BB9104B114A6C21114811
:102340001EF022F91049828D0988914203D80F4B63
:102350000B4A6D21F3E713F812200D4B1B6853F85D
:10236000220003681B6B9847281A01B233462046A7
:10237000BDE87040184700BF145001206C200208CF
:10238000AE200208E920020818500120302102087E
:102390001C5001209830884208B505D10DF03CFB57
:1023A000BDE8084000F070BB08BD00224FF0FF31CF
:1023B000C0E900218260704770B5036804461B6B5A
:1023C000154698472368294620465B6BBDE8704058
:1023D000184770B504461D46BDF91060FFF7ECFFC5
:1023E0002368294620469B6B984723683146204640
:1023F000DB6BBDE870401847094A02604FF48071FA
:1024000000228184FF21C0E90122C0E90322C0E942
:102410000522C0E9072280F826108262704700BFBB
:10242000503202081A4B73B51B88018F8B42064647
:102430002AD9184B1B682BB9174B184A18486C211E
:102440001EF0A2F813F81120164B1B6853F8225007
:10245000154B186802F07AFD2B6801909B6B28469B
:1024600098472B6801999B6C0446284698472B682F
:1024700001995B6A14FB00F428469847A4B204440F
:10248000A6F8464002B070BD0023A0F84630F9E738
:1024900018500120145001206C200208AE200208C0
:1024A000E92002081C500120205001204FF48071C7
:1024B00081840D4901600D4981624FF6FF7181856C
:1024C0004FF47F01002241634FF0FF31C0E9012248
:1024D000C0E90322C0E90522C0E90722C0E91012C1
:1024E00002630287C2637047C0310208B421020848
:1024F0002DE9F04F04468BB0A24600250EF0CCFD2E
:102500006B4BE5634AF8403B04F16C0B504604F119
:102510009809FFF771FF5846FFF76EFF04F1E008D6
:1025200048460BF05FFD04F594774046FFF7BEFF89
:102530003846FFF7BBFF5F4BC4F828315E4BC4F849
:102540007051C4E962345D4BC4E964354FF4A07343
:102550002A46294650460093F023FFF73AFF261DEE
:102560004FF07F435146A366304609F0C2FA4FF45C
:10257000A0732A46294658460093F023FFF729FF07
:102580004FF07F43C4F894305946304609F0B1FA11
:102590004846BF222121FFF70FFF012308AA07A900
:1025A0004846ADF81C30ADF820300BF0B2FA0323EA
:1025B0004846A4F8D030FFF735FF4FF0FF3A04F556
:1025C000C473C4F8C03049463046C4E935AA09F09E
:1025D00090FA0DF10809262235214046FFF7ECFE5E
:1025E000A4F8145141464846C4F810A10AF09AFFD5
:1025F00099E8070004F58E7383E80700DFF8E0B080
:10260000CDF820B0072308A94046ADF824300BF0E0
:1026100023FA4146304609F06CFA25236D220093D7
:102620002121B9233846FFF7D4FED4F82831A4F885
:102630005C51D3F88430C4F858A1394648469847CD
:1026400099E8070004F5B27383E807001C4B1B6888
:1026500004F5BA752BB91B4B1B4A60211B481DF0B2
:1026600093FF1B4B1B88062B03D81A4B164A61217C
:10267000F4E7194B0621186802F068FC174A034674
:102680000A21284610F0BEF9042308A93846C4F8E8
:102690007051ADF82430CDF820B00BF0DDF93046A4
:1026A000394609F026FA20460BB0BDE8F08F00BF8E
:1026B0006C220208C4210208542202089523000853
:1026C000145001206C2002086E210208E920020843
:1026D000185001203021020820500120A6210208B4
:1026E000B42102087047704700F59873086849687C
:1026F00003C37047704770474160704770470000E0
:10270000064BC0F84C310023C0F8503100F5A273DD
:10271000C0F84801C0F84031704700BFA128000848
:1027200001230372704770477047704710B4C26846
:1027300041685410034601EB6200D20748BF0A59B2
:102740009B685DF8044B48BFD358184743682BB1CA
:1027500083682BB9C06800F00100704718467047C5
:102760000120704710B50C2104461DF05DFE204687
:1027700010BD10B5102104461DF056FE204610BDB8
:1027800010B54FF4AE7104461DF04EFE204610BD4C
:1027900010B5402104461DF047FE204610BD10B57F
:1027A0000DF03AF90368BDE81040DB6B18470000F4
:1027B000054B1B7801462BB1406818B103680C31FA
:1027C0005B6E1847704700BFC34F0120037A70B596
:1027D0000546BBB940680368DB69984704464CB1BD
:1027E000A1886B8FC91A236820461B6B09B29847D2
:1027F000A469F4E76868036805F10C011B6EBDE885
:102800007040184770BD70B5044690F8390094F8D0
:1028100038300130C0B2984284F8390005D901231C
:102820002372002384F8393070BDB4F93A200021B6
:102830000EF0E4FD10F0010283B206D04FF6FF71F6
:102840000028D8BF0A46981800B2238AC01AA08769
:1028500060680368DB69984705464DB1A988A38F76
:1028600019442B6828461B6B09B29847AD69F4E7F9
:1028700060680368BDE870405B69184710B504469E
:10288000D0F8400158B10368DB68984738B1D4F8F4
:10289000400103689B6898470023C4F8403110BD8D
:1028A0002DE9F14FD0E9555A0746A86803681B6A1D
:1028B0009847B0F5F47F05D2454B464AA3214648D8
:1028C0001DF062FE686803681B6A98470F2803D8EA
:1028D000424B404AA421F2E7E86803681B6A984724
:1028E0000B2803D83E4B3B4AA521E8E70DF094F8AE
:1028F000DFF8F49004300DF0B4F8D9F8000010B10E
:102900000368DB689847D9F8000010B103681B68BA
:102910009847DFF8D880D8F8000010B103685B69E9
:102920009847D7F83C0110B103685B689847D8F81E
:10293000000010B103681B689847D7F83C0110B13C
:1029400003689B689847E868036800215B6A9847BA
:102950004FF0000B234B03600446C0F804B080F82E
:1029600008B0A868036859465B6A9847064603F0B2
:1029700013FA6868036859465B6A9847314605460A
:1029800003F0E4F9C9F80040C7F83C51C8F800600A
:10299000E5B12B1DCAF800303368C5F808A03046F1
:1029A000DB68F56398472B6828461B6898472146E3
:1029B00030460EF01DFD236820461B6998472368AA
:1029C0005B69204601B0BDE8F04F18472B46E1E7B0
:1029D00098220208262302083024020877240208DD
:1029E0001A250208B42A02080450012000500120D0
:1029F000044B1B6893F858200AB1D86C00B998684A
:102A0000704700BFC44F0120F8B5044617460E4674
:102A10000DF0C4F8104B1C60104B2360104B0025C8
:102A2000C4E951350F4BC4E95355186803680121B7
:102A30009B68C4E94F55C4E955769847284602F08B
:102A400049FAFFF7D5FF16F07EF9FFF7D1FF16F030
:102A5000F5F92046F8BD00BF10500120602A020899
:102A6000482A0208C44F0120064BC0F84C3100230D
:102A7000C0F8503100F5A273C0F84801C0F84031E9
:102A8000704700BFA1280008064BC0F84C31002356
:102A9000C0F8503100F5A273C0F84801C0F84031C9
:102AA000704700BF452F0008064BC0F84C3100238B
:102AB000C0F8503100F5A273C0F84801C0F84031A9
:102AC000704700BF052E0008064BC0F84C310023AC
:102AD000C0F8503100F5A273C0F84801C0F8403189
:102AE000704700BFC52C0008064BC0F84C310023CE
:102AF000C0F8503100F5A273C0F84801C0F8403169
:102B0000704700BF852B000803685B6A1847000008
:102B10002DE9F04105460026164B4660067245F841
:102B20000C3B044628460F460AF0E8F9124B84F89D
:102B300038701B7884F83960A68723B90123237283
:102B40002046BDE8F0810D4B0D4FB3F90080E368DE
:102B5000B7F900109B6B266128469847E368414609
:102B6000DB6B2846984728460AF043F93B885B42CE
:102B70006387E5E7D82A0208C34F0120BA4F012036
:102B8000B84F01202DE9F047D0E9554A0746A06823
:102B900003681B6A9847B0F5CC7F05D2424B434A85
:102BA000A32143481DF0F0FC606803681B6A984746
:102BB0000F2803D83F4B3D4AA421F2E7E0680368A1
:102BC0001B6A98473F2803D83B4B384AA521E8E7C2
:102BD0000CF022FFDFF8E49004300CF042FFD9F84B
:102BE000000010B10368DB689847D9F8000010B105
:102BF00003681B689847DFF8C880D8F8000010B158
:102C000003685B699847D7F83C0110B103685B68BB
:102C10009847D8F8000010B103681B689847D7F8A8
:102C20003C0110B103689B689847E0680021FFF7FA
:102C30006BFF14210546FFF76BFFA06803680021B6
:102C40005B6A9847064602F0DDF960680368002178
:102C50005B6A98473146044602F0AEF9C9F8005065
:102C6000C7F83C41C8F80060DCB1231DCAF8003049
:102C70003368C4F808A03046DB68F46398472368DB
:102C800020461B689847294630460EF0B1FB2B685A
:102C900028461B6998472B6828465B69BDE8F047C2
:102CA00018472346E2E700BF98220208BD25020824
:102CB00030240208772402081A2502080450012053
:102CC000005001202DE9F047D0E9554A0746A06899
:102CD00003681B6A984741F67B63984205D8424BCC
:102CE000424AA32142481DF04FFC606803681B6AFA
:102CF00098470F2803D83F4B3C4AA421F2E7E068ED
:102D000003681B6A98473F2803D83B4B374AA521E5
:102D1000E8E70CF081FEDFF8E49004300CF0A1FE4F
:102D2000D9F8000010B10368DB689847D9F80000B3
:102D300010B103681B689847DFF8C480D8F800001A
:102D400010B103685B699847D7F83C0110B103687C
:102D50005B689847D8F8000010B103681B68984773
:102D6000D7F83C0110B103689B689847E0680021E0
:102D7000FFF7CAFE14210546FFF7CAFEA0680368E4
:102D800000215B6A9847064603F032FA60680368E0
:102D900000215B6A98473146044603F033F8C9F8CE
:102DA0000050C7F83C41C8F80060DCB1231DCAF8E8
:102DB00000303368C4F808A03046DB68F4639847F5
:102DC000236820461B689847294630460EF010FBC2
:102DD0002B6828461B6998472B6828465B69BDE825
:102DE000F04718472346E2E798220208E026020847
:102DF00030240208772402081A2502080450012012
:102E0000005001202DE9F047D0E9554A0746A06857
:102E100003681B6A984742F2B753984205D8424B61
:102E2000424AA32142481DF0AFFB606803681B6A59
:102E300098470F2803D83F4B3C4AA421F2E7E068AB
:102E400003681B6A98473F2803D83B4B374AA521A4
:102E5000E8E70CF0E1FDDFF8E49004300CF001FE4F
:102E6000D9F8000010B10368DB689847D9F8000072
:102E700010B103681B689847DFF8C480D8F80000D9
:102E800010B103685B699847D7F83C0110B103683B
:102E90005B689847D8F8000010B103681B68984732
:102EA000D7F83C0110B103689B689847E06800219F
:102EB000FFF72AFE14210546FFF72AFEA0680368E3
:102EC00000215B6A9847064602F0B4F9606803681F
:102ED00000215B6A98473146044602F00FF9C9F8B1
:102EE0000050C7F83C41C8F80060DCB1231DCAF8A7
:102EF00000303368C4F808A03046DB68F4639847B4
:102F0000236820461B689847294630460EF070FA21
:102F10002B6828461B6998472B6828465B69BDE8E3
:102F2000F04718472346E2E79822020805280208DE
:102F300030240208772402081A25020804500120D0
:102F4000005001202DE9F047D0E9554A0746A06816
:102F500003681B6A9847B0F5F47F05D2424B434A99
:102F6000A32143481DF010FB606803681B6A984763
:102F70000F2803D83F4B3D4AA421F2E7E0680368DD
:102F80001B6A98473F2803D83B4B384AA521E8E7FE
:102F90000CF042FDDFF8E49004300CF062FDD9F84B
:102FA000000010B10368DB689847D9F8000010B141
:102FB00003681B689847DFF8C880D8F8000010B194
:102FC00003685B699847D7F83C0110B103685B68F8
:102FD0009847D8F8000010B103681B689847D7F8E5
:102FE0003C0110B103689B689847E0680021FFF737
:102FF0008BFD14210546FFF78BFDA06803680021B7
:103000005B6A9847064602F0C7FE606803680021C5
:103010005B6A98473146044602F098FEC9F80050B2
:10302000C7F83C41C8F80060DCB1231DCAF8003085
:103030003368C4F808A03046DB68F4639847236817
:1030400020461B689847294630460EF0D1F92B6878
:1030500028461B6998472B6828465B69BDE8F047FE
:1030600018472346E2E700BF9822020822290208F7
:1030700030240208772402081A250208045001208F
:10308000005001207047704710B54FF4FA610446B4
:103090001DF0CAF9204610BD074A02600022C0E9AF
:1030A0000122C0E90322C0E90522C0E907224FF44A
:1030B00080728284704700BFEC33020810B504466A
:1030C000FFF7EAFF024B23600023A362204610BDF6
:1030D0001C3002082DE9F04F2DED108B054699B0FC
:1030E000AA4600240DF0D8FFDE4BEC634AF8403BC3
:1030F0005046FFF781F905F16C0305F19809184670
:103100004FF6FF7605F1C4071593FFF775F916A979
:103110004846ADF8586009F05BFF3846FFF7CEFF30
:1031200005F1F00316A918460AEE103AADF85860FA
:1031300009F04EFF05F58E7316A918460AEE903A6F
:10314000ADF8586009F044FF05F5A47316A91846B8
:103150000BEE103AADF8586009F03AFF05F5BA7376
:10316000184608EE103AFFF7A9FF05F5D07316A927
:1031700018460BEE903AADF8586009F029FF05F5B6
:10318000E67316A918460CEE103AADF8586009F02F
:103190001FFF05F5FC7316A918460CEE903AADF822
:1031A000586009F015FF05F5097305F5147816A99F
:1031B00018460DEE103AADF8586009F009FF404688
:1031C000FFF77CFF05F51F7316A918460DEE903A20
:1031D000ADF8586009F0FCFE05F52A7316A91846EB
:1031E0000EEE103AADF8586009F0F2FE05F53573B1
:1031F00016A918460EEE903AADF8586009F0E8FEB0
:1032000005F5407316A918460FEE103AADF8586050
:1032100009F0DEFE05F54B7316A918460FEE903A3D
:10322000ADF8586009F0D4FE05F5567318460293C0
:10323000FFF744FF05F5617316A918460393ADF82F
:10324000586009F0C5FE05F56C7316A9184604937D
:10325000ADF8586009F0BCFE05F57773184609EE25
:10326000103AFFF72BFF05F5816316A91846059361
:10327000ADF8586009F0ACFE05F2344316A91846C3
:103280000693ADF8586009F0A3FE05F58C6316A906
:1032900018460793ADF8586009F09AFE05F28C4382
:1032A000184608EE903AFFF709FF05F5976316A94F
:1032B00018460893ADF8586009F08AFE05F2E44319
:1032C00016A918460993ADF8586009F081FE05F576
:1032D000A26316A918460A93ADF8586009F078FE63
:1032E00005F23C5305F5AD6B16A918460B93ADF8E6
:1032F000586009F06DFE5846FFF7E0FE05F2945362
:1033000016A918460C93ADF8586009F061FE05F552
:10331000B86316A918460D93ADF8586009F058FE29
:1033200005F2EC5316A918460E93ADF8586009F053
:103330004FFE05F5C36316A918460F93ADF8586004
:1033400009F046FE05F2446316A918461093ADF83D
:10335000586009F03DFE05F5CE6318461193FFF75E
:10336000ADFE05F29C6316A918461293ADF858609D
:1033700009F02EFE05F5D96316A918461393ADF88A
:10338000586009F025FE05F2F46309EE903A262212
:10339000214618461DF094F919EE900AFFF77CFEBD
:1033A000314BC5F81C374FF47F03C5F828372F4B36
:1033B000C5F8F4364FF0FF33C5F8343705F5E86348
:1033C0001493A5F820674FF0FF3316A91498C5F899
:1033D0002447A5F82C47C5F83047C5F83847C5F845
:1033E0003C47ADF8583009F0F3FD4FF4A073224686
:1033F000504600932146F0232E1DFEF7EAFF4FF0C2
:103400007F435146AB66304608F073FB4FF4A07320
:103410002246159800932146F023FEF7DAFF4FF07D
:10342000FF331599C5F89430304608F062FB03234A
:10343000484616A9ADF858300AF09DFCE6230093E3
:10344000532248460521FEF7C4FF4846214609F0AD
:103450007AFD4946304608F04CFB44236FF04302A6
:10346000384605E0FC2A0208B4210208C4210208FB
:1034700000936FF0210117234FF017094FF0050A51
:10348000FEF7A7FF1AEE100A16A9ADF858A00AF029
:1034900072FC4B4616221AEE100A2146CDF8009017
:1034A000FEF797FF1AEE100A214609F04CFD384648
:1034B0001AEE101A08F01DFB1AEE900A16A9ADF8C4
:1034C00058A00AF058FC4B4622461AEE900A2146B4
:1034D000CDF80090FEF77DFF1AEE900A214609F024
:1034E00032FD38461AEE901A08F003FB1BEE100A64
:1034F00016A9ADF858A00AF03EFC4B462C221BEE54
:10350000100A2146CDF80090FEF763FF1BEE100A6B
:10351000214609F018FD38461BEE101A08F0E9FAAA
:103520003946304608F0E5FA5A236FF05B0218EE90
:10353000100A00936FF066014B46FEF74AFF1BEE40
:10354000900A16A9ADF858A00AF015FC4B461622B1
:103550001BEE900A2146CDF80090FEF73AFF1BEED5
:10356000900A214609F0EFFC1BEE901A18EE100AA3
:1035700008F0BFFA1CEE100A16A9ADF858A00AF020
:10358000FAFB4B4622461CEE100A2146CDF800906D
:10359000FEF71FFF1CEE100A214609F0D4FC1CEEBA
:1035A000101A18EE100A08F0A4FA1CEE900A16A9D8
:1035B000ADF858A00AF0DFFB4B462C221CEE900A17
:1035C0002146CDF80090FEF704FF1CEE900A21463C
:1035D00009F0B9FC1CEE901A18EE100A08F089FAEE
:1035E00019271DEE100A16A9ADF858A00AF0C3FB62
:1035F0004B4643221DEE100A00972146FEF7E9FED6
:103600001DEE100A214609F09EFC1DEE101A18EE60
:10361000100A08F06EFA18EE101A304608F069FA2F
:1036200071236FF07202404600936FF086014B46A3
:10363000FEF7CFFE1DEE900A16A9ADF858A00AF0CD
:103640009AFB4B4616221DEE900A2146CDF80090BB
:10365000FEF7BFFE1DEE900A214609F074FC4046BD
:103660001DEE901A08F045FA1EEE100A16A9ADF8E4
:1036700058A00AF080FB4B4622461EEE100A214657
:10368000CDF80090FEF7A5FE1EEE100A214609F0C7
:103690005AFC40461EEE101A08F02BFA1EEE900A55
:1036A00016A9ADF858A00AF066FB4B462C221EEE78
:1036B000900A2146CDF80090FEF78BFE1EEE900A90
:1036C000214609F040FC40461EEE901A08F011FA1F
:1036D0001FEE100A16A9ADF858A00AF04CFB4B4695
:1036E00043221FEE100A00972146FEF772FE1FEEDE
:1036F000100A214609F027FC40461FEE101A08F078
:10370000F8F91FEE900A16A9ADF858A00AF033FB9D
:103710004B465A221FEE900A00972146FEF759FEAB
:103720001FEE900A214609F00EFC40461FEE901A4B
:1037300008F0DFF9414630464FF02C0808F0D9F97F
:103740004B466FF02D020298CDF800806FF04301D8
:10375000FEF73FFE0398ADF858A016A90AF00BFB40
:103760004B4622460398CDF800902146FEF731FEE5
:103770000398214609F0E7FBDDE9020108F0B9F9F9
:103780000498ADF858A016A90AF0F5FA4B4616228F
:103790000498CDF800902146FEF71BFE04982146C0
:1037A00009F0D1FB0499029808F0A3F90299304678
:1037B00008F09FF94423482219EE100A6FF04E01D9
:1037C000CDF800904FF0060AFEF703FE0598ADF81D
:1037D00058A016A90AF0CFFA4B4622460598CDF814
:1037E00000904146FEF7F5FD0598214609F0ABFB38
:1037F000059919EE100A08F07CF90698ADF858A062
:1038000016A90AF0B8FA4B4622460698CDF8009061
:103810001621FEF7DEFD0698214609F094FB069975
:1038200019EE100A08F065F90798ADF858A016A926
:103830000AF0A1FA4B4622460798CDF8009021469F
:10384000FEF7C7FD0798214609F07DFB079919EEA1
:10385000100A08F04EF919EE101A304608F049F92E
:103860005A236F2218EE900A6FF06501CDF8009090
:10387000FEF7AFFD0898ADF858A016A90AF07BFA3C
:103880004B4622460898CDF800904146FEF7A1FD30
:103890000898214609F057FB089918EE900A08F09D
:1038A00028F90998ADF858A016A90AF064FA3B4621
:1038B00022460998CDF800904221FEF78AFD09982A
:1038C000214609F040FB099918EE900A08F011F919
:1038D0000A98ADF858A016A90AF04DFA4B462246B0
:1038E0000A98CDF800901621FEF773FD0A9821463C
:1038F00009F029FB0A9918EE900A08F0FAF80B98DB
:10390000ADF858A016A90AF036FA4B4622460B9895
:10391000CDF800902146FEF75CFD0B98214609F09A
:1039200012FB0B9918EE900A08F0E3F818EE901AC3
:10393000304608F0DEF8712395226FF07A01584680
:10394000CDF80090FEF745FD0C98ADF858A016A9EB
:103950000AF011FA4B4622460C98CDF800904146E9
:10396000FEF737FD0C98214609F0EDFA0C99584600
:1039700008F0BFF80D98ADF858A016A90AF0FBF9A9
:103980003B4622460D98CDF800904221FEF721FDDE
:103990000D98214609F0D7FA0D99584608F0A9F874
:1039A0000E98ADF858A016A90AF0E5F93B46224654
:1039B0000E98CDF800905A21FEF70BFD0E98214687
:1039C00009F0C1FA0E99584608F093F80F98ADF82F
:1039D00058A016A90AF0CFF94B4622460F98CDF809
:1039E00000901621FEF7F5FC0F98214609F0ABFA7E
:1039F0000F99584608F07DF81098ADF858A016A910
:103A00000AF0B9F94B4622461098CDF800902146AD
:103A1000FEF7DFFC1098214609F095FA10995846F8
:103A200008F067F85946304608F063F843465322D9
:103A30001198CDF800905146FEF7CBFC1298ADF8E6
:103A400058A016A90AF097F94B4622461298CDF8CD
:103A500000901621FEF7BDFC1298214609F073FA7A
:103A6000DDE9110108F045F81398ADF858A016A942
:103A70000AF081F94B4622461398CDF80090214672
:103A8000FEF7A7FC1398214609F05DFA13991198E7
:103A900008F02FF81199304608F02BF819EE900A2B
:103AA00036225146FEF788FC2E4BC5F824374FF0DE
:103AB000FF33C5F834372C4BA5F828471B68C5F8E9
:103AC0003047C5F8384705F26C772BB9274B284AA1
:103AD000602128481CF058FD274B1B880F2B03D86A
:103AE000264B234A6121F4E7254B0F21186801F08A
:103AF0002DFA244A0346322138460EF083FF19EE90
:103B0000900AC5F83C7709F087FF1F4B169319EE12
:103B1000900A102316A9ADF85C3009F09DFF19EE4C
:103B2000901A304607F0E5FF14980F2316A9ADF858
:103B300058300AF020F92023524614980093514639
:103B4000E523FEF746FC1498214609F0FCF93046BF
:103B5000149907F0CEFF284619B0BDEC108BBDE8D4
:103B6000F08F00BFA83414FF145001206C2002080D
:103B70006E210208E92002081850012030210208B5
:103B800020500120A6210208B4210208406A704793
:103B9000806A704770478B88C0690A68DB0A50F8F2
:103BA00023001044704710B5C2B1137BB3B1547BEE
:103BB000D27A240204F4E0641443026A98B202EB5D
:103BC000840213888B4202D192F9020010BD05D8FD
:103BD000013880B204320028F3D1F7E70020F5E77E
:103BE00010B52C2104461CF01FFC204610BD00001F
:103BF00030B58BB00446BDF860500895BDF85C50F8
:103C000007959DF8505006959DF84C5005959DF8E8
:103C1000485004959DF8445003959DF840500295F6
:103C20009DF83C500195BDF8385000950DF018F8FE
:103C3000064B2360159BE361169B2362199B63620D
:103C40001A9BA36220460BB030BD00BF302B020888
:103C500070477047704730B4C268446855100346D7
:103C600004EB6200D20748BF62599B6830BC48BF72
:103C7000D358184743682BB183682BB9C06800F04C
:103C800001007047184670470120704710B5102199
:103C900004461CF0C9FB204610BD10B54FF4F4716A
:103CA00004461CF0C1FB204610BD00F5A4708842FC
:103CB00008B505D10BF0B0FEBDE80840FEF7F4BE34
:103CC00008BD0000002310B5C0E90133C0E903338B
:103CD000C0E90733C0E905334FF480738384064B92
:103CE00003600B88C384FF23044680F828300AF061
:103CF00042F8204610BD00BFB83202082DE9F04F4F
:103D00002DED028B044685B0A0460DF0C5F90022CA
:103D1000764BE26348F8403B4046FEF76DFB04F10A
:103D20006C03184604F1980B08EE903A04F1C40AAB
:103D3000FEF762FB4FF6FF7503A9584604F1F00940
:103D4000ADF80C50FFF7BEFF03A95046ADF80C507C
:103D5000FFF7B8FF03A94846ADF80C50FFF7B2FFD4
:103D600004F58E7304F5A47703A9184608EE103AFB
:103D700004F5C876ADF80C50FFF7A4FF38460AF0FA
:103D800031F930460AF02EF9594BC4E97634594BD3
:103D9000C4F8E03100224FF4A073C4F8E4211146C6
:103DA00000934046F023251DFEF713FB4FF07F43A1
:103DB000A3664146284607F09CFE00224FF4A073FC
:103DC000114618EE900A0093F023FEF702FB4FF025
:103DD0007F43C4F8943018EE901A284607F089FE05
:103DE000302258460A21FEF7E7FA4FF0020803A9ED
:103DF0005846ADF80C8009F0BEFF5946284607F03A
:103E000078FE0E225046B621FEF7D6FA0C230DEBB3
:103E100003015046ADF80C3009F0ADFF514628467D
:103E200007F067FE642248465421FEF7C5FA0D23C9
:103E300003A94846ADF80C3009F09DFF49462846D5
:103E400007F057FED02218EE100A0521FEF7B4FA4B
:103E50000E2318EE100A03A9ADF80C3009F08BFF01
:103E600018EE101A284607F044FE3846A0222121F9
:103E7000FEF7A2FA4FF0010A03AA02A93846ADF8EC
:103E800008A0ADF80CA009F044FE1123A4F880317D
:103E90003846FEF7C7FA4FF0FF3904F5EC73C4F863
:103EA000703139462846C4E9619907F022FE304650
:103EB000E7222121FEF780FA03AA02A93046ADF8D5
:103EC00008A0ADF80CA009F024FE3046A4F8C88183
:103ED000FEF7A8FA2846C4E97399314607F009FEAF
:103EE000204605B0BDEC028BBDE8F08FA82B020880
:103EF000902B0208AB3C00087047704710B540F6A5
:103F00000C2104461CF090FA204610BD10B5262264
:103F1000044600211CF0D4FB2046FFF7BDF80A4BF5
:103F2000A3624FF6FF73A3854FF47F020023C4E919
:103F30000C32064A22604FF0FF32C4E91023238777
:103F4000E363A364204610BDB4210208C421020823
:103F50002DE9F04F2DED108B05469DB0AB460024AA
:103F60000DF09AF8DD4BEC634BF8403B5846FEF7FA
:103F700043FA05F16C0305F1980918464FF6FF76F0
:103F80001993FEF739FA1AA94846ADF8686009F0A6
:103F90001FF805F1C403184609EE903AFFF78EF8B2
:103FA00005F1F0031AA918460AEE103AADF8686058
:103FB00009F00EF805F58E7305F5A4771AA91846D1
:103FC0000AEE903AADF8686009F002F83846FFF75B
:103FD00075F805F5BA731AA918460BEE103AADF844
:103FE000686008F0F5FF05F5D0731AA918460BEEC6
:103FF000903AADF8686008F0EBFF05F5E6731AA992
:1040000018460CEE103AADF8686008F0E1FF05F5CF
:10401000FC731AA918460CEE903AADF8686008F0E7
:10402000D7FF05F5097305F5147A1AA918460DEEA0
:10403000103AADF8686008F0CBFF5046FFF73EF845
:1040400005F51F731AA918460DEE903AADF8686091
:1040500008F0BEFF05F52A731AA918460EEE103AAD
:10406000ADF8686008F0B4FF05F535731AA9184675
:104070000EEE903AADF8686008F0AAFF05F54073BF
:104080001AA918460FEE103AADF8686008F0A0FFC4
:1040900005F54B73184608EE903AFFF70FF805F553
:1040A00056731AA918460FEE903AADF8686008F0FA
:1040B0008FFF05F561731AA918460293ADF8686081
:1040C00008F086FF05F56C731AA918460393ADF83E
:1040D000686008F07DFF05F5777318460493FEF7D6
:1040E000EDFF05F581631AA918460593ADF86860E0
:1040F00008F06EFF05F2344305F58C681AA91846DE
:104100000693ADF8686008F063FF4046FEF7D6FFFF
:1041100005F28C431AA918460793ADF8686008F0B9
:1041200057FF05F597631AA918460893ADF868601C
:1041300008F04EFF05F2E4431AA918460993ADF8BA
:10414000686008F045FF05F5A2631AA918460A93AE
:10415000ADF8686008F03CFF05F23C531AA9184618
:104160000B93ADF8686008F033FF05F5AD631846B2
:1041700008EE103AFEF7A2FF05F294531AA918466A
:104180000C93ADF8686008F023FF05F5B8631AA931
:1041900018460D93ADF8686008F01AFF05F2EC536D
:1041A0001AA918460E93ADF8686008F011FF05F5DE
:1041B000C3631AA918460F93ADF8686008F008FFAA
:1041C00005F24463184609EE103AFEF777FF05F54D
:1041D000CE631AA918461093ADF8686008F0F8FE8F
:1041E00005F29C631AA918461193ADF8686008F0AF
:1041F000EFFE05F5D9631AA918461293ADF8686069
:1042000008F0E6FE05F2F4631AA918461393ADF818
:10421000686008F0DDFE05F5E46318461493FFF7C7
:1042200075FE05F26C7318461593FFF76FFE05F5E2
:10423000F76318461693FFF769FE05F60403184660
:104240001793FFF763FE05F505631AA9184618933F
:10425000ADF8686008F0BCFE4FF4A07322465846E3
:1042600000932146F0232E1DFEF7B3F84FF07F4355
:104270005946AB66304607F03CFC4FF4A0734FF054
:10428000FF32199800932146F023FEF7A2F84FF071
:10429000FF331999C5F89430304607F02AFC0423FF
:1042A00048461AA9ADF8683009F065FDE623009389
:1042B000532248460521FEF78CF84846214608F06F
:1042C00042FE494630464FF0170907F012FC2C23F6
:1042D000262219EE900A6FF0370101E0DC2B02086C
:1042E000CDF800904FF0060BFEF773F81AEE100AA7
:1042F0001AA9ADF868B009F03EFD4B4622461AEE09
:10430000100A1621CDF80090FEF763F81AEE100A95
:10431000214608F018FE1AEE101A19EE900A07F05E
:10432000E8FB1AEE900A1AA9ADF868B009F023FD6F
:104330004B4622461AEE900A2146CDF80090FEF731
:1043400048F81AEE900A214608F0FDFD1AEE901A80
:1043500019EE900A07F0CDFB19EE901A304607F0DF
:10436000C8FB7123952238466FF07A01CDF8009092
:10437000FEF72FF81BEE100A1AA9ADF868B009F085
:10438000FAFC4B4622461BEE100A2C21CDF8009079
:10439000FEF71FF81BEE100A214608F0D4FD384640
:1043A0001BEE101A07F0A5FB1BEE900A1AA9ADF838
:1043B00068B009F0E0FC192322461BEE900A422166
:1043C000CDF80090FEF705F81BEE900A214608F0A4
:1043D000BAFD38461BEE901A07F08BFB1CEE100A54
:1043E0001AA9ADF868B009F0C6FC192322461CEEE4
:1043F000100A5A21CDF80090FDF7EBFF1CEE100AD1
:10440000214608F0A0FD38461CEE101A07F071FB9B
:104410001CEE900A1AA9ADF868B009F0ACFC4B4646
:1044200022461CEE900A1621CDF80090FDF7D1FF30
:104430001CEE900A214608F086FD38461CEE901AC4
:1044400007F057FB1DEE100A1AA9ADF868B009F085
:1044500092FC4B4622461DEE100A2146CDF80090F4
:10446000FDF7B7FF1DEE100A214608F06CFD384637
:104470001DEE101A07F03DFB3946304607F039FBB8
:104480005A236F2250466FF06501CDF80090FDF77A
:10449000A0FF1DEE900A1AA9ADF868B009F06BFCF8
:1044A0004B4622461DEE900A2C21CDF80090FDF7D8
:1044B00090FF1DEE900A214608F045FD50461DEE86
:1044C000901A07F016FB1EEE100A1AA9ADF868B094
:1044D00009F051FC192322461EEE100A4221CDF8A4
:1044E0000090FDF776FF1EEE100A214608F02BFD26
:1044F00050461EEE101A07F0FCFA1EEE900A1AA99A
:10450000ADF868B009F037FC4B4622461EEE900A23
:104510001621CDF80090FDF75CFF1EEE900A2146B3
:1045200008F011FD50461EEE901A07F0E2FA1FEE59
:10453000100A1AA9ADF868B009F01DFC4B462246D6
:104540001FEE100A2146CDF80090FDF742FF1FEE46
:10455000100A214608F0F7FC50461FEE101A07F02B
:10456000C8FA5146304607F0C4FA4423482218EEF0
:10457000900A6FF04E01CDF80090FDF72AFF1FEE74
:10458000900A1AA9ADF868B009F0F5FB4B4622462F
:104590001FEE900A2C21CDF80090FDF71AFF1FEEB8
:1045A000900A214608F0CFFC1FEE901A18EE900AF0
:1045B00007F09FFA0298ADF868B01AA909F0DBFB82
:1045C0004B4622460298CDF800901621FDF701FFD8
:1045D0000298214608F0B7FC029918EE900A07F0FD
:1045E00088FA0398ADF868B01AA909F0C4FB4B46E5
:1045F00022460398CDF800902146FDF7EAFE039885
:10460000214608F0A0FC039918EE900A07F071FA11
:104610002C2718EE901A304607F06BFA4B466FF0D5
:104620002D02049800976FF043014FF0050AFDF743
:10463000D0FE0598ADF868A01AA909F09CFB4B467E
:1046400022460598CDF800902146FDF7C2FE059858
:10465000214608F078FCDDE9040107F04AFA0698E3
:10466000ADF868A01AA909F086FB4B4616220698F9
:10467000CDF800902146FDF7ACFE0698214608F0E3
:1046800062FC0699049807F034FA0499304607F062
:1046900030FA71236FF07202404600936FF086018A
:1046A0004B46FDF796FE0798ADF868A01AA909F0E9
:1046B00062FB4B4616220798CDF800902146FDF785
:1046C00088FE0798214608F03EFC4046079907F00F
:1046D00010FA0898ADF868A01AA909F04CFB4B46EF
:1046E00022460898CDF800902146FDF772FE089802
:1046F000214608F028FC4046089907F0FAF9099885
:10470000ADF868A01AA909F036FB3A464B4609985D
:10471000CDF800902146FDF75CFE0998214608F08F
:1047200012FC4046099907F0E4F90A98ADF868A030
:104730001AA909F020FB192343220A980093214665
:104740004B46FDF746FE0A98214608F0FCFB404622
:104750000A9907F0CEF90B98ADF868A01AA909F0EC
:104760000AFB19235A220B98009321464B46FDF76A
:1047700030FE0B98214608F0E6FB40460B9907F007
:10478000B8F94146304607F0B4F95A236FF05B029E
:1047900018EE100A00936FF066014B46FDF719FE04
:1047A0000C98ADF868A01AA909F0E5FA4B46162254
:1047B0000C98CDF800902146FDF70BFE0C98DFF821
:1047C000C483214608F0BFFB0C9918EE100A07F0CD
:1047D00090F90D98ADF868A01AA909F0CCFA4B46EB
:1047E00022460D98CDF800902146FDF7F2FD0D9878
:1047F000214608F0A8FB0D9918EE100A07F079F988
:104800000E98ADF868A01AA909F0B5FA3A464B46D9
:104810000E98CDF800902146FDF7DBFD0E9821465D
:1048200008F091FB0E9918EE100A07F062F90F9844
:10483000ADF868A01AA909F09EFA192343220F982F
:10484000009321464B46FDF7C4FD0F98214608F022
:104850007AFB0F9918EE100A07F04BF918EE101AB0
:10486000304607F046F944236FF0430219EE100A70
:1048700000936FF021014B46FDF7ABFD1098ADF8AA
:1048800068A01AA909F077FA4B4616221098CDF8BD
:1048900000902146FDF79DFD1098214608F053FB3E
:1048A000109919EE100A07F024F91198ADF868A0D4
:1048B0001AA909F060FA4B4622461198CDF80090EB
:1048C0002146FDF786FD1198214608F03CFB119921
:1048D00019EE100A07F00DF91298ADF868A01AA9A0
:1048E00009F049FA3A464B461298CDF80090214615
:1048F000FDF76FFD1298214608F025FB129919EE7D
:10490000100A07F0F6F819EE101A304607F0F1F821
:104910004FF00A031398ADF868301AA909F02BFA82
:1049200020235A46139800935946E523FDF751FD7D
:104930001398214608F007FB1399304607F0D9F881
:1049400014982A225946FDF737FD854BC5F8503794
:104950004FF0FF33C5F86037D8F80030A5F854475A
:10496000C5F85C47C5F8644705F67C072BB97D4B55
:104970007D4A60217D481BF007FE7D4B1B880F2B75
:1049800003D87C4B784A6121F4E77B4B0F211868F0
:1049900000F0DCFA794A0346322138460EF032F84C
:1049A0001498C5F8687709F037F8754F14981A9776
:1049B0004FF00B021AA9ADF86C2009F04DF81499CC
:1049C000304607F096F82A2282211598FDF7F4FC6C
:1049D0004FF0FF31D8F80030614AC5F8AC1705F543
:1049E0000E61C5F89C27A5F8A047C5F8A847C5F8EB
:1049F000B0470291002BBAD05D490B880D2BC0D96E
:104A00005D4B0D21186800F0A1FA5C4A0346322183
:104A100002980DF0F7FF0298C5F8B407159808F052
:104A2000FBFF1AA8092301461598ADF86C301A97B8
:104A300009F012F81599304607F05BF816983C22F9
:104A40005946FDF7B9FCD8F80030454AC5F8E827C3
:104A50004FF0FF30A5F8EC47C5F8F447C5F8F80764
:104A6000C5F8FC4705F6441B002B80D040490B8855
:104A70000E2B86D9404B0E21186800F067FA3F4A8A
:104A80000346322158460DF0BDFF1698C5F800B810
:104A900008F0C2FF4FF00A00ADF86C001AA80146FA
:104AA00016981A9708F0D8FF1699304607F021F8A3
:104AB00017983C228221FDF77FFCD8F80030284A65
:104AC000C5F834284FF0FF30A5F83848C5F84048FD
:104AD000C5F84408C5F8484805F6A81B002B3FF464
:104AE00046AF23490B880C2B7FF64BAF224B0C2192
:104AF000186800F02BFA214A0346322158460DF07F
:104B000081FF1798C5F84CB808F086FF082317985E
:104B1000ADF86C301AA91A9708F09EFF1799304625
:104B200006F0E7FF18984FF00B021AA9ADF86820BD
:104B300009F021F94B4654221898CDF800905146BF
:104B4000FDF747FC1898214608F0FDF93046189902
:104B500006F0CFFF28461DB0BDEC108BBDE8F08FEE
:104B6000A83414FF6C2002086E210208E920020814
:104B7000185001203021020820500120A6210208EF
:104B8000B4210208145001207047000030B5174DC1
:104B90002C78BFF35B8F14F001048FB022D128462C
:104BA0001BF044FCF0B13F230993114B0893114BC8
:104BB00007930123CDE9053304930423CDE9024390
:104BC0000C230D4900935F220F23CDE90B440B48C2
:104BD0000A940194FFF70CF809481BF0F3FC2846EF
:104BE0001BF030FC05480FB030BD00BF484100202D
:104BF000946F020824720208B86702084C41002032
:104C0000894B00087047000030B5174D2C78BFF372
:104C10005B8F14F001048FB022D128461BF006FCF4
:104C2000F0B13F230993114B0893114B11491248DE
:104C30000A94CDE9064301220423CDE9033214236B
:104C400000931D221923CDE90B44CDE901440594BD
:104C5000FEF7CEFF09481BF0B5FC28461BF0F2FB1F
:104C600005480FB030BD00BF784100206C710208CC
:104C700028720208EC6C02087C410020054C0008F8
:104C80007047000030B5164D2C78BFF35B8F14F0E1
:104C900001048FB021D128461BF0C8FBE8B13F23A7
:104CA0000993104B0893104B104911480A94CDE911
:104CB000064301220423CDE903321E23009311226F
:104CC000CDE90B44CDE901440594FEF791FF094875
:104CD0001BF078FC28461BF0B5FB05480FB030BD33
:104CE000A8410020E47102082C720208846E0208B8
:104CF000AC410020814C00087047000030B5164DD3
:104D00002C78BFF35B8F14F001048FB020D12846BC
:104D10001BF08CFBE0B13F230993104B0893104B21
:104D2000104911480A940122CDE906430423CDE934
:104D300003320A230093CDE90B44CDE901440594E5
:104D4000FEF756FF09481BF03DFC28461BF07AFB96
:104D500005480FB030BD00BFD84100201C720208CA
:104D600030720208746F0208DC410020F94C000820
:104D70007047000030B5164D2C78BFF35B8F14F0F0
:104D800001048FB020D128461BF050FBE0B13F2337
:104D90000993104B0893104B104911480A940122B3
:104DA000CDE906430423CDE9033228230093CDE95E
:104DB0000B44CDE901440594FEF71AFF09481BF0A6
:104DC00001FC28461BF03EFB05480FB030BD00BF7C
:104DD000084200202072020834720208846F020820
:104DE0000C420020714D00080020704700207047E1
:104DF0000EB403B503AB002153F8042B01930BF061
:104E000057FD02B05DF804EB03B070470CB407B572
:104E100004AB53F8042B01930BF04AFD03B05DF88B
:104E200004EB02B070470000436C10B5044673B346
:104E3000038F2BB9184B194AC52119481BF0A4FB45
:104E4000C38E00EB43035B8C0BB30DF032F8238F62
:104E5000012B03D8134B144ACB21EEE7E28E531CEF
:104E60009BB2092B194688BFA3F10A0104EB41014B
:104E700040F63F10498C814209D10A2B04EB4202D3
:104E800028BF002304EB4303508C588451842046F0
:104E9000BDE810400CF010BF082C0208112C0208CD
:104EA000BC2C0208062D0208142D02080CF0CBBE03
:104EB00010B586B002AC84E806001A460AAB05932A
:104EC0000193099B00932146089B0AF027F906B03D
:104ED00010BD000038B518BB124B13481B681349AE
:104EE000B3B11A689C681A4402605A681A440A608E
:104EF0001C440F4B00221A8000F038F8054600F0E1
:104F000033F80C4B1C600C4B1D600C4B188007E0F9
:104F10000B4B03600B4B0B600B4B1C68002CE8D158
:104F200038BD00BF384200203C42002040420020F3
:104F300044420020145001201C5001201850012030
:104F40008072020838720208D0730208044B1B6892
:104F500053F82100034B1B6803EB4000704700BF70
:104F6000404200203C420020122070470048704719
:104F70004842002010B5FFF709FE074C2060FFF7FC
:104F8000F9FE6060FFF7BAFEA060FFF77BFEE0600D
:104F9000FFF73AFE206110BD4842002070470438F8
:104FA0007047704710B5102104461BF03DFA2046AB
:104FB00010BDA0F10400F5E710B500228260044A9C
:104FC000C16002F1080420320460426010BD00BFDD
:104FD000E82D02087047000010B5034B036004463B
:104FE000FDF761F9204610BD182E020810B50446E1
:104FF000FFF7F2FF20464FF4CC711BF015FA204664
:1050000010BD000010B50446FDF772FA014B236095
:10501000204610BD182E020838B50446FDF744F9A5
:10502000E36B18499B68184AD3F848360968012B86
:1050300004F5BA75154B1DD129B9154B154A6021D8
:1050400015481BF0A1FA1288062A03D8134B114AFF
:105050006121F5E706211868FFF778FF104A03463B
:105060000A2128460DF0CEFCE36B9868BDE8384075
:1050700000F09FBE0029E0D01288052AE6D905215C
:10508000E9E700BF145001201850012020500120F2
:105090006C2002086E210208E92002083021020873
:1050A000A6210208704710B54FF4AE7104461BF0FC
:1050B000BBF9204610BD10B50446D0F8580100F0E9
:1050C00077FE2046BDE810400AF028BD10B5044622
:1050D000FDF79AFC014B2360204610BD4C2E0208C0
:1050E000704704387047704710B5102104461BF014
:1050F0009BF9204610BDA0F10400F5E710B5002291
:105100008260044AC16002F10804203204604260F7
:1051100010BD00BF982E020870470000094B70B503
:105120000446036042F25C2541F22C166359601973
:105130001B682C3D9847B542F8D12046FDF7A2FFE9
:10514000204670BDD02E020810B50446FFF7E6FFDA
:10515000204642F2B8511BF067F9204610BD10B549
:105160000C468168E4B04FF4C87201F54A71684694
:105170001BF098FA4FF4C872694620461BF092FA69
:1051800064B010BD30B50546ADF5497D4FF44872A9
:105190000C46684600211BF093FAAA686B4602F59C
:1051A0004870194655680D6052F8085F4D6082429C
:1051B00001F10801F6D10022211D186844F83200DF
:1051C000586841F832000132642A03F10803F4D12F
:1051D0000DF5497D30BD82B002AB03E90600D0E990
:1051E000C8231AB9632B06D102B07047013204BF3D
:1051F0000022C0F820235A1CC0F8242300EBC3006F
:10520000009B8360019BC360EEE701F1240301F57D
:10521000DA71A3F1280252F8040F002807DC9A4241
:10522000F9D102F128038B42F3D10120704700200D
:10523000704700002DE9F3410546FDF74BFF1C4B7D
:105240002B6005F2DC7001F007FB4FF4487200217F
:1052500005F694401BF034FA05F58A544FF0FF33FD
:1052600005F50A56C5F8B43FC5F8B83F18340836F6
:105270004FF6FF7704F5DC78204601A92C34ADF811
:10528000047007F0A5FE4445F6D1A642F2D105F51B
:1052900000544FF44872002104F524701BF010FAFA
:1052A00000232846C4E9A23302B0BDE8F08100BF64
:1052B000D02E0208F8B506460D4600F6C871C06B40
:1052C0001F461446FFF74BFF96F8BE3F2BB1EB1974
:1052D000092BCCBF00200120F8BDE0190928F8E710
:1052E000F8B504460F4600F6C871C06B15461E4659
:1052F000FFF735FF94F8BE0F0A2170B101FB07518B
:1053000004EB810400239E4217DBD4F8C82F002A47
:1053100004F1280412DC0133F5E705F2F23201FB57
:10532000072504EB850403469E4205DB54F8042B55
:10533000002A02DC0133F7E70120F8BD0020FCE77A
:1053400030B5254D00F563740246116852F8043FEC
:1053500001F0004123F000430B43D2F8301681EAFC
:10536000530113F0010318BF2B464B40944242F8FF
:10537000043CEAD1184D021F00F22C64D2F890339D
:10538000D2F8941303F0004321F000410B4352F88C
:10539000041F81EA530113F0010318BF2B464B4051
:1053A0009442C2F88C33E9D1D0F8BC3902680A497A
:1053B00022F0004203F000431343D0F8302682EA83
:1053C000530213F0010318BF0B465340C0F8BC3919
:1053D0000023C0F8C03930BDDFB00899D0F8C0391B
:1053E000B3F51C7F10B5044601D3FFF7A9FFD4F82D
:1053F000C03909485A1C54F82330C4F8C02983EA3C
:10540000D32300EAC3104340044800EAC3305840A5
:1054100080EA904010BD00BF80562C9D0000C6EF72
:10542000F8B5D1E900239B1A5A1C07460D4610D047
:1054300001334FF0FF36B6FBF3F606FB03F43846B4
:10544000FFF7CCFF8442FAD9B0FBF6F02B68184482
:10545000F8BDFFF7C3FFF9E72DE9F04F2DED028B03
:10546000ADF59D5D85B0604A0DF6EC1705468946A1
:105470000DF6F410D11F38601BF04FF807237B6046
:105480003B680022DA7139460AA81BF023F8384637
:105490001BF02FF80AA81BF01FF838605348394654
:1054A00001220B6883EA937300FB03230132B2F5F8
:1054B0001C7F41F8043FF4D16B46C7F8C029002196
:1054C0000922C3E9001205F50A5808EE103A08F15E
:1054D00010080DF1100A49462846FFF796FE0028ED
:1054E0007BD1D5F8B43F5A1C14D14FF0280B18EEDD
:1054F000101A3846FFF794FF18EE101A0646384681
:10550000FFF78EFF0BFB0692044652F82020013273
:10551000EDD013E005EBC302D2F8946CD2F8984CAE
:10552000D5F8B82F9342A9BF4FF0FF330133C5F828
:10553000B43FC5F8B83FB8BFC5F8B43F282303FB54
:10554000069B5BF82420002A3EDD082E0DDC0BEBC9
:105550008402926A002A08DD02AA711CC2E90014C2
:1055600005F6944006CAFFF736FE082C0CDC621CD8
:105570005BF82210002907DDCAE9006205F69440B5
:105580009AE80600FFF727FE002E0EDD0BEB8402E3
:1055900052F8282C002A08DD06AA711EC2E9001460
:1055A00005F6944006CAFFF716FE002C0CDD611EBE
:1055B0005BF82120002A07DD08AAC2E9006105F690
:1055C000944006CAFFF707FE4FF0FF334BF8243034
:1055D000C8E9006408F108087DE70DF59D5D05B098
:1055E000BDEC028BBDE8F08FC72E02086589076C01
:1055F0002DE9F04F00F50056DFF8B8A1D6F8883253
:10560000DFF8B4918BB001330446C6F88832DAF87B
:1056100000004FF0000B8DF823B004F0D6FA80465E
:10562000D9F8000004F0D1FA564B0390186804F042
:10563000CCFA554B0490186804F0C7FA534B059008
:10564000186804F0C2FA524B069004F2DC7718682E
:1056500004F0BBFA384601F01AF994F8D037054641
:10566000002B40F04B82831E032B21D8DFE803F090
:105670000254606C474B1B6804F26C7B2BB9464BA1
:10568000464A602146481AF07FFF464B1B880F2B85
:1056900003D8454B414A6121F4E70F21434B186879
:1056A000FFF754FC424A0346322158460DF0AAF94E
:1056B000B8F1000F00F0B7804FF0FF33DAF80000C8
:1056C00000220DF1230104F051FA9DF82330532BF1
:1056D00040F08D80D4F8D427D4F8D8172BB22046C8
:1056E000FFF7FEFD002800F0828094F8BE3F002BFB
:1056F00036D000220A20AA4260DAE36B9968D4F817
:10570000D83702EB030CD4F8D43700FB0C33CA3380
:10571000013241F82350EEE71E4B1B6804F26C7B0C
:10572000002BACD01F4B1B880E2BB2D90E21B5E736
:10573000184B1B6804F26C7B002BA0D0194B1B8804
:105740000D2BA6D90D21A9E7124B1B6804F26C7B27
:10575000002B94D0134B1B880C2B9AD90C219DE75E
:105760004FF00A0CAB4229DAE26BD4F8D807916803
:10577000D4F8D4270CFB00221A44CA32013341F872
:105780002250EFE7443E0020483E00204C3E0020DF
:10579000503E0020145001206C2002086E210208A7
:1057A000E920020818500120302102082050012071
:1057B000A62102083C3E0020403E0020022D40F081
:1057C000E980002304F57778C4F8D437C4F8D837D3
:1057D000052153224046FCF7EFFD04F1C403C4F851
:1057E000C08FC4F8C43F0321384601F04DF894F847
:1057F000BE2F9DF82330002A40F01A814C2B12D185
:10580000D4F8D437D4F8C00F013B48BFC5F10A0320
:10581000C4F8D437D4F8D417172359430368053193
:105820001B6B09B29847039B23B34FF0FF330DF175
:105830002301D9F80000002204F098F994F8BE1F63
:105840009DF82330002940F00081522B12D1D4F86A
:10585000D437D4F8C00F0133C5F10A029342D8BF40
:105860001946C4F8D41717235943036805311B6B35
:1058700009B29847049B1BB39D484FF0FF330022A9
:1058800000680DF1230104F071F994F8BE2F9DF822
:105890002330002A40F0E980552B11D1D4F8D837B5
:1058A000D4F8C00F013B48BF0923C4F8D837D4F857
:1058B000D81717235943036853315B6B09B29847D4
:1058C000059B13B38B484FF0FF330DF123010068A4
:1058D000002204F04BF994F8BE1F9DF823300029F4
:1058E00040F0D180442B10D1D4F8D837D4F8C00F71
:1058F0000133092BD8BF1946C4F8D81717235943C9
:10590000036853315B6B09B29847069B83B37A48AF
:105910004FF0FF33002200680DF1230104F026F957
:1059200094F8BE2F9DF82330002A40F0BE80412B12
:105930001ED16B1ED4F8D827D4F8D4171BB220463A
:10594000FFF7B8FCA0B1D4F8C03FD4F8C40FB3F946
:105950000620B3F90410FCF72FFDD4F8C00F6FF048
:1059600043026FF01F01FCF727FD012384F8BE3FBF
:10597000D6F88C3243B1D6F888220F339A4203D935
:105980000AF04AF8FDF7A0F8201D0BF0BBF80BB0A9
:10599000BDE8F08F032D13D1002304F28C48C4F826
:1059A000D437C4F8D837052153224046FCF704FD0C
:1059B00004F5BA73C4F8C08FC4F8C43F042113E7D8
:1059C000042D13D1002304F5AD68C4F8D437C4F80E
:1059D000D837052153224046FCF7EEFC04F514733A
:1059E000C4F8C08FC4F8C43F0521FDE6052D7FF43F
:1059F000FEAE04F6C871E06B0791FFF7B0FB0799A4
:105A00002046FFF729FDE36B9B6804F50A52143228
:105A100003F5487152F8040C586052F8080B43F82B
:105A2000080F9942F6D109F0F7FFFDF74DF8DEE6D1
:105A30004C2B7FF4F8AED4F8D437D4F8C40F013B24
:105A400048BF0923C4F8D437E4E6522B7FF412AFE1
:105A5000D4F8D437D4F8C40F0133092BC8BF0023BE
:105A6000C4F8D437D4F8D417FDE6552B7FF428AF0B
:105A7000D4F8D837D4F8C40F013B48BFC5F10A03A6
:105A8000C4F8D83713E7442B7FF43FAFD4F8D837A6
:105A9000D4F8C40F0133C5F10A029342C8BF0023F2
:105AA000C4F8D837D4F8D81728E7412B7FF460AF73
:105AB0006B1ED4F8D827D4F8D4171BB22046FFF7B2
:105AC000F9FB00283FF454AFD4F8C43FD4F8C00F1A
:105AD000B3F90620B3F90410FCF76EFCD4F8C40F38
