:020000040800F2
:1000000000000320A50500082D2100082F2100086D
:1000100031210008332100083521000800000000CC
:1000200000000000000000000000000051890008EE
:100030003721000800000000E1890008578200080D
:10004000F5050008F5050008F5050008F5050008A8
:10005000F5050008F5050008F5050008F505000898
:10006000F5050008F5050008F5050008F505000888
:10007000F5050008F5050008F5050008F505000878
:10008000F5050008F5050008F5050008F505000868
:10009000F5050008F5050008F5050008F505000858
:1000A000F5050008F5050008F5050008F505000848
:1000B000F5050008F5050008F5050008F505000838
:1000C000F5050008F5050008F5050008F505000828
:1000D000F505000839210008F5050008F5050008B8
:1000E000F5050008F5050008F5050008F505000808
:1000F000F5050008F5050008F5050008F5050008F8
:10010000F5050008F5050008F5050008F5050008E7
:10011000F50500084521000851210008F5050008F3
:10012000F5050008F5050008F5050008F5050008C7
:10013000F5050008F5050008F5050008F5050008B7
:10014000F5050008F5050008F5050008F5050008A7
:10015000F5050008F5050008F5050008F505000897
:10016000F5050008F5050008F5050008F505000887
:10017000F5050008F5050008F50500080000000079
:10018000F5050008F5050008F5050008F505000867
:10019000F5050008F5050008F5050008F505000857
:0C01A0005D210008F50500086921000839
:1001B00010B5054C237833B9044B13B10448AFF3A1
:1001C00000800123237010BD6C010020000000009E
:1001D00004FD010808B5034B1BB103490348AFF305
:1001E000008008BD000000007001002004FD01082F
:1001F00001F0FF01102A2BDB10F0070F08D010F8D8
:10020000013B013A8B422DD010F0070F42B3F6D1DB
:10021000F0B441EA012141EA014122F007047FF0F4
:1002200000070023F0E80256083C85EA010586EA4B
:10023000010685FA47F5A3FA87F586FA47F6A5FA87
:1002400087F68EB9EED1F0BC01F0FF0102F0070293
:1002500032B110F8013B013A83EA010313B1F8D13E
:100260000020704701387047002D06BF354603381F
:10027000073815F0010F07D1013015F4807F02BF58
:10028000013015F4C03F0130F0BC0138704700BFA9
:10029000034613F8012B002AFBD1181A01387047C6
:1002A00053B94AB9002908BF00281CBF4FF0FF31DD
:1002B0004FF0FF3000F074B9ADF1080C6DE904CED9
:1002C00000F006F8DDF804E0DDE9022304B0704731
:1002D0002DE9F047089D04468E46002B4DD18A42F9
:1002E000944669D9B2FA82F252B101FA02F3C2F12C
:1002F000200120FA01F10CFA02FC41EA030E9440BD
:100300004FEA1C48210CBEFBF8F61FFA8CF708FBDD
:1003100016E341EA034306FB07F199420AD91CEBB5
:10032000030306F1FF3080F01F81994240F21C81E7
:10033000023E63445B1AA4B2B3FBF8F008FB10332F
:1003400044EA034400FB07F7A7420AD91CEB040464
:1003500000F1FF3380F00A81A74240F20781644434
:10036000023840EA0640E41B00261DB1D4400023B9
:10037000C5E900433146BDE8F0878B4209D9002D1D
:1003800000F0EF800026C5E9000130463146BDE8A7
:10039000F087B3FA83F6002E4AD18B4202D3824211
:1003A00000F2F980841A61EB030301209E46002DC0
:1003B000E0D0C5E9004EDDE702B9FFDEB2FA82F215
:1003C000002A40F09280A1EB0C014FEA1C471FFA73
:1003D0008CFE0126200CB1FBF7F307FB131140EA5A
:1003E00001410EFB03F0884208D91CEB010103F127
:1003F000FF3802D2884200F2CB804346091AA4B2E9
:10040000B1FBF7F007FB101144EA01440EFB00FEBC
:10041000A64508D91CEB040400F1FF3102D2A64521
:1004200000F2BB800846A4EB0E0440EA03409CE7C0
:10043000C6F12007B34022FA07FC4CEA030C20FA6D
:1004400007F401FA06F31C43F9404FEA1C4900FA8D
:1004500006F3B1FBF9F8200C1FFA8CFE09FB18110A
:1004600040EA014108FB0EF0884202FA06F20BD97D
:100470001CEB010108F1FF3A80F08880884240F2CD
:100480008580A8F102086144091AA4B2B1FBF9F011
:1004900009FB101144EA014100FB0EFE8E4508D90C
:1004A0001CEB010100F1FF346CD28E456AD9023891
:1004B000614440EA0840A0FB0294A1EB0E01A14276
:1004C000C846A64656D353D05DB1B3EB080261EBE4
:1004D0000E0101FA07F722FA06F3F1401F43C5E9BE
:1004E000007100263146BDE8F087C2F12003D840F4
:1004F0000CFA02FC21FA03F3914001434FEA1C4736
:100500001FFA8CFEB3FBF7F007FB10360B0C43EA27
:10051000064300FB0EF69E4204FA02F408D91CEBD7
:10052000030300F1FF382FD29E422DD902386344D5
:100530009B1B89B2B3FBF7F607FB163341EA034175
:1005400006FB0EF38B4208D91CEB010106F1FF38C4
:1005500016D28B4214D9023E6144C91A46EA0046BB
:1005600038E72E46284605E70646E3E61846F8E64D
:100570004B45A9D2B9EB020864EB0C0E0138A3E796
:100580004646EAE7204694E74046D1E7D0467BE777
:10059000023B614432E7304609E76444023842E7EF
:1005A000704700BFDFF834D0002103E00C4B5B58EC
:1005B000435004310B480C4B42189A42F6D30B4A75
:1005C00002E0002342F8043B094B9A42F9D305F0BC
:1005D00051F91EF0A5FA00F093FF704700000320C8
:1005E000E8081208000000206C0100206C010020C7
:1005F0001C370120FEE7000030B5254D00F563747F
:100600000246116852F8043F01F0004123F0004314
:100610000B43D2F8301681EA530113F0010318BFDF
:100620002B464B40944242F8043CEAD1184D021F3D
:1006300000F22C64D2F89033D2F8941303F0004304
:1006400021F000410B4352F8041F81EA530113F0DB
:10065000010318BF2B464B409442C2F88C33E9D1BA
:10066000D0F8BC3902680A4922F0004203F0004386
:100670001343D0F8302682EA530213F0010318BF67
:100680000B465340C0F8BC390023C0F8C03930BD18
:10069000DFB00899D0F8C039B3F51C7F10B5044617
:1006A00001D3FFF7A9FFD4F8C03909485A1C54F800
:1006B0002330C4F8C02983EAD32300EAC31043409F
:1006C000044800EAC330584080EA904010BD00BFA3
:1006D00080562C9D0000C6EFF8B5D0E900239B1A88
:1006E0005A1C05460E4610D001334FF0FF30B0FBC8
:1006F000F3F707FB03F43046FFF7CCFF8442FAD947
:10070000B0FBF7F02B681844F8BD0846FFF7C2FFAE
:10071000F8E7704708B500F097FCBDE8084000F026
:1007200023BC00F093BC704710B5042104461EF0B2
:10073000FDF8204610BD000038B50C4B0C4C18805D
:100740000C4B822019806368984740F61103984249
:100750000AD1094D23682C60822098472B6882209B
:10076000DB689847002038BD0120FCE788010020A5
:100770004C0000208A0100208C0100204FF4A07161
:10078000F020FFF7D9BF0000F7B5344D2B680446C1
:100790001B698220984780B2208000284CD02B68AB
:1007A0000DF106025B6901A982209847BDF8063069
:1007B00040F67462934241D9ADF80620BDF8062098
:1007C000C2F56762043292B20A2A3DD90B23B2FB0A
:1007D000F3F2234B1B889A4201D9013B9AB2BDF830
:1007E000043040F6B8318B4230D8C3F571630E3314
:1007F0009BB20F21B3FBF1F31A4909888B4201D94F
:100800004B1E9BB2184E194D30682F68834281B23F
:100810008CBF591AC91AB8B2BA428CBF101A801AC2
:1008200089B280B201440529C8BF33603368C8BFAC
:100830002A6063802B68A38003B0F0BDB32B9CBFFC
:10084000B423ADF80630B9E70022C8E7C3F56D63FD
:1008500008339BB20E2BCCD80023D3E78C010020A9
:100860008A010020880100209001002094010020CE
:1008700037B568460D461446FFF786FFBDF8000001
:1008800030B1BDF802302B60BDF804302360012088
:1008900003B030BD7047704770477047012380F840
:1008A000781080F87930704700207047034B41641E
:1008B000003918BF01211970704700BF272C012093
:1008C00000207047836B0BB10846184770474FF6FE
:1008D000FF707047406803689B691847704770470E
:1008E0007047000070B5044600F07EFC2368D3F822
:1008F0008850044BD4E90F122046AC46BDE8704046
:10090000604700BF000000D008B503680446D3F874
:1009100080309847236820469B6F984700F0ECF89A
:10092000236820461B6F9847292001F097F800F0B4
:10093000E3F8236820461B6F9847F8E710B5044694
:100940000AF00CFE23682046D3F8AC30BDE8104016
:10095000184700F03BBC00F03FBC00F063BC00F067
:1009600011BC00F06BBC00F073BC00F015BC0AF0C9
:1009700061B810B57C2104461DF0D8FF204610BD9B
:1009800090F87A301BB1406803681B681847184616
:100990007047000010B590F8341090F878400C4B78
:1009A0008C421A7809D03AB90A4A0B491488088847
:1009B00010800C8001221A7010BD002AFCD0054A5C
:1009C00005491488088810800C800022F3E700BFD6
:1009D000202C01201C2C01201E2C012070B50D465E
:1009E000194635B9094B0A4A0A4840F2D2211EF08D
:1009F0004DF8C0E90F52084B003A18BF01221A7097
:100A00000368BDE87040D3F88C3018477CFD0108BE
:100A1000B4FD010802FE0108262C012008B5094B8F
:100A20001B888B4203D8084B1B88934205D9074B80
:100A3000074A08489E211EF029F8074B1980074BEA
:100A40001A8008BD1C2C01201E2C012047FE010825
:100A5000AAFE010802FE0108222C0120242C0120FC
:100A6000012108B50022084607F083FC0A4B1860F4
:100A700028B90A4B0A4A28210A481EF007F8002222
:100A80000421012007F01BFD074B186018B9074B24
:100A9000034A2C21F0E708BD9C010020C8FF010893
:100AA0001100020840000208980100207B000208A3
:100AB000024B4FF0FF31186807F0A5BC9C010020E5
:100AC000014B186807F0CABC9C010020024B0021B2
:100AD000186807F098BC00BF9C010020FFF7F0BF2A
:100AE00003480449006800231A4607F023BD00BFED
:100AF000980100200400002013B5084C00231A467A
:100B000001A9206807F046FD20684FF0FF3300225E
:100B100001A907F03FFD02B010BD00BF9801002001
:100B200003685B6C18470120704703689B6A18478D
:100B300082B0002301930D4B1A6B42F400021A633A
:100B40001A6B02F400020192019A1A6942F400023F
:100B50001A611A6922F400021A61054B054A1A61EA
:100B6000054B4FF080629A6002B070470038024037
:100B7000401B0020BD0B000800E100E040F2EF3018
:100B800070470000054B0360054B4FF08062C3F8CF
:100B90008820BFF34F8FBFF36F8F704708020208A2
:100BA00000E100E010B504464FF45A61FFF7EAFF98
:100BB00020461DF0BBFE204610BD0000024B1B6806
:100BC000586803685B691847282C012070B50446F3
:100BD00025460A4B0C30002660602672667245F886
:100BE000203B602229460AF0F7FD04F55A63EE60C7
:100BF0002435AB42FBD1204670BD00BF080202087D
:100C000008B50B290BD8DFE801F01206100A0A0A12
:100C10000A0808080808012008BD0520FCE7054B64
:100C2000054A064865211DF031FF0020F4E7022047
:100C3000F2E700BFBD000208D80002082201020846
:100C400008B50A2909D8DFE801F010060E080808DF
:100C5000080606060600012008BD054B054A0648A1
:100C600086211DF013FF0020F6E70220F4E700BF05
:100C7000BD0002085B010208220102082DE9F843C9
:100C80004F7F0C4639468146FFF7BAFF94F81E8025
:100C9000054641464846FFF7B3FF414606464846EB
:100CA000FFF7CEFFA18A628B424B521A1A649A61F7
:100CB000228B521A1A61E28A586342EA01425A644C
:100CC00020696268D863DA60216894F81CC08029C2
:100CD0004FEA0C6226D010D8202945EA020461D0E0
:100CE00040295FD004295DD0324B2A4342F40032C0
:100CF0004745DA615AD0304A40E0B1F5807F07D0ED
:100D0000B1F5007FF0D142F4003242F0090203E075
:100D100042F4003242F00A02DA61E2681A625E626C
:100D200058612AE0A4682A4342F40032211DD962A6
:100D3000DA6122785E62586142B1012A21D01F4BEC
:100D40001F4A20484FF488711DF0A0FEDA696188BF
:100D500022F47F42013922F0100242EA0122DA61D4
:100D60000120144BDA6942F02002DA61DA69920656
:100D7000FCD410229A600028BDD0134A1A60BDE846
:100D8000F8836288D969541E21F47F4222F0100250
:100D900042EA0422BCF1FF0042F0100218BF012019
:100DA000DA61DEE744F40034DC61B8E740F20122A6
:100DB000E4E700BF00B0024001020100A601020802
:100DC000C0010208220102080102020070B50C46AF
:100DD000897FFFF735FFA68AE18A628B154B25696B
:100DE000586341EA0641921B5964DD631A64266820
:100DF000E168082E0DD19A611A615862207F0E4A6F
:100E000042EA0062DA610D4A19625D61DD601A60D2
:100E100070BD0022D8611A6148090A0A02F47842BA
:100E200000F4FC600243C1F3C4010A439A63044A1C
:100E3000EDE700BF00B0024009000100010202001E
:100E400001020300012070474020704700EB811031
:100E50000830704700EB8110083070470120704760
:100E60004FF40E6070474FF40E6303FB010008302F
:100E700070474FF40E6303FB0100083070470120F8
:100E800070471020704700EB01100830704700EBEE
:100E9000011008307047084601F0CEBB10B5034B77
:100EA0000360044609F01BFB204610BDC002020887
:100EB00010B50446FFF7F2FF204648211DF036FD2D
:100EC000204610BD10B5034B0360044609F007FB34
:100ED000204610BD8C02020810B50446FFF7F2FF51
:100EE000204640F6E8011DF021FD204610BD00001F
:100EF00010B5034B0360044609F0F1FA204610BD1B
:100F00005802020810B50446FFF7F2FF20461821E8
:100F10001DF00CFD204610BD10B5084B03600446C3
:100F200000F61410FFF7BAFF04F12C00FFF7CAFF18
:100F300004F11400FFF7DCFF204610BDF4020208A4
:100F400008B50248FFF7E8FF08BD00BFA401002074
:100F500010B50446FFF7E0FF204640F6C4211DF01F
:100F6000E5FC204610BD00002DE9F34101F076F9C3
:100F7000054601F077F9002401462346284622461B
:100F8000009410F067F8254B254A264D1A6020463C
:100F900003F088FB24480FF0C5FF2B78BFF35B8F6D
:100FA000DB0735D428461DF0C3FC88B31F4C204B0B
:100FB000236004F6681604F1140004F12C0804F60A
:100FC00014176060C4F80880E760266109F088FAA9
:100FD000184B6361404609F083FA174BE3623846C9
:100FE00009F07EFA154BC4F8143904F65C1003F0CE
:100FF00001FF224604F65C11304603F0C9FB30467F
:1010000001F01AFB0E481DF05FFD28461DF09CFC08
:101010000C4802B0BDE8F041FFF764BC842C01200D
:10102000881A0020A001002008000020A401002050
:10103000F4020208580202088C020208C0020208E8
:10104000410F00080C1A0020704700000148FFF70C
:101050005BBC00BF0C1A002070B5224E224C234D01
:10106000234B23603046FFF7B1FD284614F0BEFA4B
:10107000204B2148DC6000224FF48071C3E912123A
:101080001E491A86C3E91A121D4999671D4983F83A
:1010900058200B60F02101801B485A6601801B48D4
:1010A00083F870204FF4A071C3E90422C3E906223B
:1010B000C3E90822C3E90A22C3E90E22C3E91022C8
:1010C000C3E91422C3E917225A67C3E90165018005
:1010D0000F4801800F490A70012283F834200E4A1C
:1010E0001A6070BD6C0C0020680C00208C1A002067
:1010F0006CFD01080C1A00201C2C012001000001CD
:1011000000000101282C0120222C01201E2C01208E
:10111000242C0120202C0120F8FE01080148FFF7B3
:1011200031BD00BF6C0C00200020704781807047EB
:10113000C180704701817047418170477047704797
:1011400070477047704710B4C4880368121B8488C6
:101150005B6D091B12B25DF8044B09B218474FF6DC
:10116000FF7383814FF0FF3303621368C361106024
:10117000704790F825201AB190F8242002B1186029
:1011800070470000034B902283F85A2383F85823BA
:10119000704700BF00E100E0094A0A49D3680A48E5
:1011A000C3F30A03013B9BB20B801169C1F30A012F
:1011B000013901801364536B43F00103536370479B
:1011C00000680140121B0020101B0020014BD3F8C7
:1011D000AC00704700680140024B0122C3F8AC101C
:1011E0005A6270470068014070B5044609F077FC08
:1011F00023685D6E0CF0AAFE01462046A8472368CE
:10120000054AD3F888502046AC460023BDE870401C
:10121000A2F51631604700BF00B004D009F046BC0B
:1012200009F050BC09F00CBC09F06DBD90F8252008
:1012300012B103685B69184770470000034B4FF019
:1012400080629A604FF080729A60704700E100E01F
:10125000084B4FF08062C3F88820BFF34F8FBFF375
:101260006F8F4FF08072C3F88820BFF34F8FBFF3AA
:101270006F8F704700E100E010B5144C236823B372
:10128000134B144A1B6C11888B4213D1124B1988D3
:1012900005F0BCFB226892F86A30013382F86A30AC
:1012A000FFF71EFC20680AF059F9BDE81040002045
:1012B000FFF7F1BA05F0AAFB206803681B6A98479C
:1012C000BDE810400020FFF7E7BA10BD282C012030
:1012D00000680140121B0020101B002007B5064BC0
:1012E000ADF806001B68054801220DF1060106F065
:1012F000E9F803B05DF804FB10000020B01C0020EA
:10130000F7B5504C504E0421204604F09BFD0128B7
:101310000FD14E4D4C2328688DF8073007F069F93E
:10132000012806D82868C82300220DF1070107F01C
:1013300001F90821204604F085FD01280FD1444D14
:10134000522328688DF8073007F053F9012806D892
:101350002868C82300220DF1070107F0EBF81021DF
:10136000204604F06FFD01280FD13A4D552328681F
:101370008DF8073007F03DF9012806D82868C82302
:1013800000220DF1070107F0D5F82021204604F0D6
:1013900059FD01280FD1304D442328688DF80730BE
:1013A00007F027F9012806D82868C82300220DF184
:1013B000070107F0BFF82948012104F043FD012887
:1013C0000FD1224D532328688DF8073007F011F90B
:1013D000012806D82868C82300220DF1070107F06C
:1013E000A9F80421304604F02DFD054678B91C4FBC
:1013F000412338688DF8073007F0FBF8012806D83C
:101400003868C8232A460DF1070107F093F8082130
:10141000304604F017FD054678B9124F422338686C
:101420008DF8073007F0E5F8012806D83868C8239A
:101430002A460DF1070107F07DF8642006F08DFFC4
:1014400061E700BF00100240001802401C1B002092
:10145000201B0020241B0020281B0020000002402D
:101460002C1B0020301B002030B595B0102200212D
:101470000AA81DF0A7FB1422002103A81DF0A2FB5F
:1014800000241D4B01941A6C42F080521A641B6CAC
:1014900003F080530193019B184B02941A6842F4A5
:1014A00040421A601B6803F4404302930122029BEE
:1014B0004FF48033CDE9082302254FF48003CDE9B2
:1014C0000E5308214FF4A873CDE9101308A8042384
:1014D0001393129505F0B8FA0F23CDE903354FF4B5
:1014E000A0504FF48053CDE90603052103A80594CD
:1014F00005F088FC15B030BD003802400070004097
:101500002DE980489BB004F0C3F9FFF7ADFF14222A
:1015100000210DA800241DF055FBC64B00941A6B4A
:10152000C548C64E42F010021A631A6B02F0100250
:101530000092009A01941A6B42F020021A631A6B0F
:1015400002F020020192019A02941A6B42F080028A
:101550001A631A6B02F080020292029A03941A6BC9
:1015600042F004021A631A6B02F004020392039A17
:1015700004941A6B42F001021A631A6B02F0010222
:101580000492049A05941A6B42F002021A631A6BD1
:1015900002F002020592059A06941A6B42F040028C
:1015A0001A631A6B02F040020692069A07941A6BAD
:1015B00042F008021A631B6B03F0080307932246EC
:1015C0000421079B04F044FC22469D484FF44051FF
:1015D000012504F03DFC3C239A480F950DA94FF0DE
:1015E00002084FF0040ACDE90D3404F045FB92489F
:1015F0000F940DA9CDE90DA5CDF8408004F03CFB7A
:1016000091480F940DA9CDE90D5404F035FB4FF42A
:1016100040538B480DA9CDE90D354FF00C09CDE9AC
:101620000F4404F029FB0DA988480F95CDE90D94CE
:1016300004F022FB8648874B036004F0BBF9864A1E
:10164000864B3462C6E9002330464FF48043C6E936
:101650000434C6E90244C6E9064404F0DBFD102167
:10166000304605F017F82146304605F032F87C4840
:101670007C4984624FF48273C0E900134FF4007612
:101680001823C0E906630A23774EC362C0E9024407
:10169000C0E90444C0E9084405F0B8FE734BCDF836
:1016A0003480C6E9003510274023C6E904734FF49F
:1016B000C073C6E906344FF40063C6E908344FF43A
:1016C0000053B3624FF0030B07230DA930460827E0
:1016D000CDE90E3A1093C6E9024ACDE911B8CDF82A
:1016E0004C8005F093FD4FF6FF7209A93046CDE915
:1016F0000A75089409950C9405F0A8FD284604F095
:10170000F3F84FF6FF7209A93046CDE90987CDE914
:101710000B5405F09BFD4FF6FF7209A93046CDE949
:101720000BA4CDE909B705F091FD4FF40C730893B4
:10173000089B0C934FF6FF7209A93046CDE909A723
:101740000B9505F083FD40F26A51304605F09CFD93
:10175000342221460DEB02001DF034FA444E454B75
:10176000B486C6E900340923C6E905351D2340F2D5
:101770000D1CC6E9073B40F24313C6E909C340F21A
:10178000171E40F247133046C6E90BE3C6E9024490
:10179000346186F8364005F041F8FF21F022CDE9AA
:1017A00012144FF4806A05214FF4A073CDE90E2482
:1017B000CDE914A1CDE916420DA922463046CDE966
:1017C00010382D4E18930D94ADF864408DF8664096
:1017D00005F0EFF8294B33601B6898473368284EB3
:1017E000DB689847274BC6E90A48C6E90C443046EF
:1017F000C6E90034C6E9028404F042F929463046BD
:1018000004F0F6F92048214B4FF4E136C0E90036E8
:10181000C0E90244C0E90449C0E9064406F09AFA66
:101820001B4B1C48C0E90036C0E90244C0E904492A
:1018300032E000BF0038024000080240801B002058
:10184000000C02400010024000000240001802405C
:10185000381B002000300240005C0040A0860100E0
:10186000B01C0020005001407C1C0020400100A062
:10187000D41B002000680140181B00201400002029
:10188000401B002000B00240081D00200010014055
:10189000005000404C1D0020C0E9064406F05AFAF2
:1018A000FEF738FFFEF735FF06F0E2FC1D4A294639
:1018B000384606F004FE1C4B1C4A18602946384680
:1018C00006F0FDFD1A4B1B4A18602946384606F003
:1018D000F6FD194B194A18602946384606F0EFFD07
:1018E000174B184A18602946384606F0E8FD164B93
:1018F000164A18602946384606F0E1FD144B154A91
:1019000018602146144806F0DFFC144B144A186096
:101910002146144806F0D8FC134B186006F0BAFCB8
:10192000FEE700BF640302081C1B00207C030208C2
:10193000201B002094030208241B0020AC03020893
:10194000281B0020C40302082C1B0020DC03020813
:10195000301B0020F403020801130008341B002090
:101960004003020823070008141B0020704770473B
:101970007FB5094B8DF817201B6802930DF11702F4
:101980000123009201930A460146044804F0EAFC50
:1019900007B05DF804FB00BF0C000020801B002096
:1019A0007FB500238DF81730084B1B6802930A4659
:1019B00001230DF11701009101930146044804F041
:1019C00061FD9DF8170007B05DF804FB0C000020D6
:1019D000801B00201FB5084C24680092CDE901341B
:1019E0000A4601230146054804F04CFD003818BFA3
:1019F000012004B010BD00BF0C000020801B00209F
:101A000003F072BF08B506480022042104F020FA52
:101A1000BDE8084002480122042104F019BA00BFC1
:101A20000008024038B50B4D044601220A484FF425
:101A3000005104F00DFA00220421284604F008FAAF
:101A40002046FFF74BFC28460122BDE83840042120
:101A500004F0FEB900080240000C024038B50B4DFE
:101A6000044600220A484FF4005104F0F1F9002224
:101A70000421284604F0ECF92046FFF72FFC284605
:101A80000122BDE83840042104F0E2B90008024018
:101A9000000C0240F7B5144E144F05460C46304674
:101AA0000022042104F0D4F900224FF400513846FA
:101AB00004F0CEF92846FFF711FC0D4B0D481B68CA
:101AC000224601A905F0A0FE384601224FF400513C
:101AD000019C04F0BDF930460122042104F0B8F95C
:101AE000204603B0F0BD00BF00080240000C0240D9
:101AF00010000020B01C002003F0F6BE0268034B6B
:101B00009A4201D103F0DEBE704700BF00100040D2
:101B10007047000082B00E4B00220092596C41F4D5
:101B200080415964596C01F48041009100990192FF
:101B3000196C41F0805119641B6C03F080530193C0
:101B4000019B0F216FF0010002B003F0F3BE00BF54
:101B5000003802400268094B9A4282B00BD1002340
:101B60000193074B1A6B42F480521A631B6B03F408
:101B700080530193019B02B0704700BF00300240C8
:101B80000038024007B50F4B02689A4216D1002276
:101B9000A3F5F0430192196B41F4000119631B6B2B
:101BA00003F40003019305215A20019B03F0C2FEB8
:101BB0005A2003B05DF804EB03F0EEBE03B05DF80D
:101BC00004FB00BF00B002402DE9F043044689B099
:101BD0001422002103A81CF0F5FF2268244B9A422E
:101BE00043D1244C244800250095236B43F0040383
:101BF0002363236B03F004030093009B0195236B85
:101C000043F001032363236B03F001030193019B62
:101C10004FF012094FF400734FF001080327042618
:101C200003A9CDE90339CDE90587079604F024F827
:101C30004FF480731148079603A9CDE90339CDE924
:101C4000058704F019F80295236C43F4000323641C
:101C5000236C03F400030293029B236A43F4000302
:101C60002362236A23F40003236209B0BDE8F083F2
:101C7000005C0040003802400008024000000240C2
:101C8000F0B599B004461422002107A81CF09AFF71
:101C900030220DEB020000211CF094FF22685E4B05
:101CA0009A4240F0B78008230C93C023109304237A
:101CB00012930CA84FF40033159305F07DF908B189
:101CC000FFF726FF554B5648002400945A6C42F00B
:101CD00080625A645A6C02F080620092009A019409
:101CE0001A6B42F020021A631A6B02F02002019272
:101CF000019A02941A6B42F001021A631A6B02F005
:101D000001020292029A03941A6B42F002021A63D1
:101D10001A6B02F002020392039A04941A6B42F0C7
:101D200040021A631A6B02F040020492049A05946E
:101D30001A6B42F004021A631A6B02F00402059255
:101D4000059A06941A6B42F008021A631B6B03F0A3
:101D50000803069302250E26069B0B964FF480631C
:101D600007A9CDE90735CDE9094503F085FF41F61F
:101D700058032C480B9607A9CDE907350927CDE96B
:101D8000094503F079FF032327480B9707A9CDE9FD
:101D90000735CDE9094503F06FFF4FF47063224822
:101DA0000B9607A9CDE90735CDE9094503F064FF96
:101DB0004FF40C631D480B9607A9CDE90735CDE913
:101DC000094503F059FFC02319480B9607A9CDE92F
:101DD0000735CDE9094503F04FFF082315480B9659
:101DE00007A9CDE90735CDE9094503F045FF4FF4D3
:101DF000A0530E480B9707A9CDE90735CDE9094552
:101E000003F03AFF58202246052103F093FD5820A5
:101E100003F0C2FD19B0F0BD006801400038024077
:101E2000001402400000024000040240001802407A
:101E300000080240000C024010B5044688B014228D
:101E4000002103A81CF0BEFE2268144B9A4223D145
:101E500003F56843002101915A6C114842F4801245
:101E60005A645A6C02F480120192019A02911A6B20
:101E700042F020021A631B6B03F020030293029BC3
:101E80004FF4607202230321CDE903230523CDE93A
:101E9000061303A903F0F0FE08B010BD0050014086
:101EA00000140240F0B514228BB0044600210DEB63
:101EB00002001CF087FE2368384A934240D1384B19
:101EC0003848002400941A6C42F480121A641A6C88
:101ED00002F480120092009A01941A6B42F00402FC
:101EE0001A631A6B02F004020192019A02941A6BAF
:101EF00042F008021A631B6B03F008030293029B73
:101F000002274FF480530326082505A9CDE905379C
:101F1000CDE9086503F0B0FE04232348099505A91F
:101F2000CDE90537CDE9074603F0A6FE3520224668
:101F3000052103F0FFFC352003F02EFD0BB0F0BDB2
:101F40001A4A9342FAD1164B1948002403945A6C4A
:101F500042F010025A645A6C02F010020392039A83
:101F600004941A6B42F001021A631B6B03F0010325
:101F700004934FF4C062049B0223CDE9052303219F
:101F80000723CDE9081305A903F076FE2520224694
:101F9000052103F0CFFC2520CEE700BF0050004014
:101FA0000038024000080240000C024000100140CE
:101FB000000002402DE9F04186B0002303932B4B33
:101FC0001C68002C4FD14FF00108C3F80080284B4B
:101FD00000949A6B274842EA08029A639B6B03EAD3
:101FE00008030093022703260C25009B01A94FF646
:101FF0003F03CDE90137CDE9046503F03DFE1E48FE
:10200000059501A9CDE90187CDE9034603F034FE2A
:1020100048F233131948059501A9CDE90137CDE9F7
:10202000034603F029FE4FF683731548059501A971
:10203000CDE90137CDE9034603F01EFE4CF20373F0
:102040001048059501A9CDE90137CDE9034603F014
:1020500013FE60230C48059501A9CDE90137CDE9B0
:10206000034603F009FE06B0BDE8F081901D002094
:1020700000380240001402400008024000180240EC
:1020800000100240000C02400004024070B588B00D
:1020900000230293204B1A6C42F010021A641B6C4E
:1020A00003F010030293054601A903A8029B04F064
:1020B00065FF069B4BBB04F041FF184E184B336085
:1020C00040F2E733F360174BB0FBF3F3013B73606F
:1020D000304600233361B360B36105F081FD0446EF
:1020E00080B9304605F036FC044658B9362003F076
:1020F00053FC0F2D0DD822462946362003F01AFC3A
:10210000094B1D60204608B070BD04F017FF400069
:10211000D3E70124F6E700BF00380240941D0020F9
:102120000010004040420F007C0000207047FEE796
:10213000FEE7FEE7FEE77047014805F09BBE00BFE3
:10214000081D0020014805F095BE00BF4C1D002071
:10215000014805F03DBC00BF941D0020014804F07B
:10216000CBBB00BFD41B0020014803F0B7BC00BFAD
:10217000401B00200120704708B51CF0B9FC162355
:1021800003604FF0FF3008BD08B51CF0B1FC16230A
:102190000360FEE770B50D4614460E46731B9C4265
:1021A00001DC204670BDAFF3008006F8010BF5E7B7
:1021B00070B50D4614460E46731B9C4201DC20464A
:1021C00070BD16F8010BAFF30080F5E74FF0FF305C
:1021D00070474FF400534B60002070470120704758
:1021E000002070470A4A116808B5034609B9094931
:1021F00011601068694603448B4206D91CF078FCD4
:102200000C2303604FF0FF3008BD1360FCE700BFF4
:10221000DC1D002020370120704710B50421044642
:102220001CF084FB204610BD08B5032913D8DFE855
:1022300001F002060A0E02F081FA006808BD02F001
:102240007DFA4068FAE702F079FA8068F6E702F072
:1022500075FAC068F2E70020F0E700000048704718
:102260002C0402080F20704713B5002451B10368F5
:1022700001948DF8034001AA9C680DF10303A04767
:1022800002B010BD0846FBE7C0897047008A70475E
:10229000C088704780887047807A00F07F00704760
:1022A000807AC0097047704710B5082104461CF0B9
:1022B0003DFB204610BD7047704700F598730868D5
:1022C000496803C370477047704741607047704763
:1022D000064BC0F84C310023C0F8503100F5A27312
:1022E000C0F84801C0F84031704700BF71240008B1
:1022F00001230372704770477047704710B4C2687B
:1023000041685410034601EB6200D20748BF0A59E6
:102310009B685DF8044B48BFD358184743682BB1FE
:1023200083682BB9C06800F00100704718467047F9
:102330000120704710B50C2104461CF0F7FA204626
:1023400010BD10B5102104461CF0F0FA204610BD57
:1023500010B54FF4AE7104461CF0E8FA204610BDEB
:1023600010B5402104461CF0E1FA204610BD10B51E
:102370000BF0ECFD0368BDE81040DB6B1847000074
:10238000054B1B7801462BB1406818B103680C312E
:102390005B6E1847704700BF272C0120037A70B589
:1023A0000546BBB940680368DB69984704464CB1F1
:1023B000A1886B8FC91A236820461B6B09B2984706
:1023C000A469F4E76868036805F10C011B6EBDE8B9
:1023D0007040184770BD70B5044690F8390094F805
:1023E00038300130C0B2984284F8390005D9012351
:1023F0002372002384F8393070BDB4F93A200021EB
:102400000DF096FA10F0010283B206D04FF6FF717C
:102410000028D8BF0A46981800B2238AC01AA0879D
:1024200060680368DB69984705464DB1A988A38FAA
:1024300019442B6828461B6B09B29847AD69F4E72D
:1024400060680368BDE870405B69184710B50446D2
:10245000D0F8400158B10368DB68984738B1D4F828
:10246000400103689B6898470023C4F8403110BDC1
:102470002DE9F14FD0E9555A0746A86803681B6A51
:102480009847B0F5D07F05D2454B464AA321464830
:102490001CF0FCFA686803681B6A98470F2803D889
:1024A000424B404AA421F2E7E86803681B6A984758
:1024B0000B2803D83E4B3B4AA521E8E70BF046FD2D
:1024C000DFF8F49004300BF066FDD9F8000010B18D
:1024D0000368DB689847D9F8000010B103681B68EF
:1024E0009847DFF8D880D8F8000010B103685B691E
:1024F0009847D7F83C0110B103685B689847D8F853
:10250000000010B103681B689847D7F83C0110B170
:1025100003689B689847E868036800215B6A9847EE
:102520004FF0000B234B03600446C0F804B080F862
:1025300008B0A868036859465B6A9847064602F0E7
:102540004DFC6868036859465B6A98473146054602
:1025500002F01EFCC9F80040C7F83C51C8F8006002
:10256000E5B12B1DCAF800303368C5F808A0304625
:10257000DB68F56398472B6828461B689847214617
:1025800030460DF0CFF9236820461B699847236831
:102590005B69204601B0BDE8F04F18472B46E1E7E4
:1025A00068050208F6050208000702084707020846
:1025B000EA070208440B0208682C0120642C012061
:1025C000044B1B6893F858200AB1D86C00B998687E
:1025D000704700BF282C0120F8B5044617460E4668
:1025E0000BF076FD104B1C60104B2360104B002548
:1025F000C4E951350F4BC4E95355186803680121EC
:102600009B68C4E94F55C4E955769847284602F0BF
:1026100049F8FFF7D5FF14F018FEFFF7D1FF14F0CB
:102620008FFE2046F8BD00BF742C0120F00A02087E
:10263000D80A0208282C0120064BC0F84C31002390
:10264000C0F8503100F5A273C0F84801C0F840311D
:10265000704700BF71240008064BC0F84C310023BE
:10266000C0F8503100F5A273C0F84801C0F84031FD
:10267000704700BF4D280008064BC0F84C310023BE
:10268000C0F8503100F5A273C0F84801C0F84031DD
:10269000704700BF0D2700082DE9F04105460026D0
:1026A000164B4660067245F80C3B044628460F461A
:1026B00009F02EF9124B84F838701B7884F83960D1
:1026C000A68723B9012323722046BDE8F0810D4B74
:1026D0000D4FB3F90080E368B7F900109B6B2661DA
:1026E00028469847E3684146DB6B284698472846CA
:1026F00009F089F83B885B426387E5E7680B0208CD
:10270000272C01201E2C01201C2C01202DE9F04734
:10271000D0E9554A0746A06803681B6A9847B0F598
:102720000E6F05D2424B434AA32143481CF0AEF939
:10273000606803681B6A98470F2803D83F4B3D4ADF
:10274000A421F2E7E06803681B6A98473F2803D892
:102750003B4B384AA521E8E70BF0F8FBDFF8E490A3
:1027600004300BF018FCD9F8000010B10368DB68E6
:102770009847D9F8000010B103681B689847DFF844
:10278000C880D8F8000010B103685B699847D7F893
:102790003C0110B103685B689847D8F8000010B19D
:1027A00003681B689847D7F83C0110B103689B6821
:1027B0009847E068036800215B6A98471421054642
:1027C000FFF76AFFA068036800215B6A9847064626
:1027D00002F054FB6068036800215B6A9847314649
:1027E000044602F025FBC9F80050C7F83C41C8F880
:1027F0000060DCB1231DCAF800303368C4F808A0BB
:102800003046DB68F4639847236820461B68984786
:10281000294630460DF086F82B6828461B699847F4
:102820002B6828465B69BDE8F04718472346E2E776
:10283000680502088D080208000702084707020819
:10284000EA070208682C0120642C01202DE9F047DA
:10285000D0E9554A0746A06803681B6A984740F6C6
:102860004B03984205D8434B434AA32143481CF0ED
:102870000DF9606803681B6A98470F2803D8404B1E
:102880003D4AA421F2E7E06803681B6A98473F28A5
:1028900003D83C4B384AA521E8E70BF057FBDFF89B
:1028A000E89004300BF077FBD9F8000010B1036812
:1028B000DB689847D9F8000010B103681B68984797
:1028C000DFF8C880D8F8000010B103685B6998474A
:1028D000D7F83C0110B103685B689847D8F800004E
:1028E00010B103681B689847D7F83C0110B1036822
:1028F0009B689847E068036800215B6A9847142149
:102900000546FFF7C9FEA068036800215B6A984787
:10291000064601F07BFF6068036800215B6A984708
:102920003146044601F04CFFC9F80050C7F83C415D
:10293000C8F80060DCB1231DCAF800303368C4F861
:1029400008A03046DB68F4639847236820461B687C
:102950009847294630460CF0E5FF2B6828461B694E
:1029600098472B6828465B69BDE8F047184723461F
:10297000E2E700BF68050208B20902080007020882
:1029800047070208EA070208682C0120642C01208E
:102990007047704770477047704730B503680181D2
:1029A00085B06D460146D3F88430044628469847E2
:1029B00095E807003C3484E8070005B030BD30B529
:1029C0000368418185B06D460146D3F884300446E2
:1029D0002846984795E807003C3484E8070005B08E
:1029E00030BD0022028042808280C280704780F821
:1029F0003610704770B5036804461B6B1546984740
:102A00002368294620465B6EBDE8704018470020C9
:102A1000704700224FF0FF31C0E90021826070470B
:102A2000806C704770477047704710B54C21044662
:102A30001BF07CFF204610BD10B54FF4FA61044630
:102A40001BF074FF204610BD08B5FEF7EFFB08BD74
:102A5000036870B55E6B124B1B6804468DB22BB9D0
:102A6000104B114A6C2111481CF010F81049828D4E
:102A70000988914203D80F4B0B4A6D21F3E713F8F5
:102A800012200D4B1B6853F8220003681B6B9847FC
:102A9000281A01B233462046BDE87040184700BFEF
:102AA000782C0120840B0208C60B0208010C0208D6
:102AB0007C2C0120480C0208802C0120074A02606F
:102AC0000022C0E90122C0E90322C0E90522C0E9D1
:102AD00007224FF480728284704700BF601502089D
:102AE00070B5036804461B6B154698472368294652
:102AF00020465B6BBDE87040184770B504461D4624
:102B0000BDF91060FFF7ECFF2368294620469B6B58
:102B10009847236831462046DB6BBDE87040184774
:102B200010B50446FFF7CAFF024B23600023A362DF
:102B3000204610BD2012020810B5262204460021AE
:102B40001CF040F82046FFF7B9FF044B2360FF2339
:102B500084F826300023A362204610BDC413020867
:102B60002DE9F04F2DED108B054699B0AA460024B3
:102B70000CF02CFDDE4BEC634AF8403B5046FFF76F
:102B8000DBFF05F16C0305F1980918464FF6FF7657
:102B900005F1C4071593FFF7CFFF16A94846ADF816
:102BA000586008F01FFF3846FFF7BAFF05F1F00341
:102BB00016A918460AEE103AADF8586008F012FF50
:102BC00005F58E7316A918460AEE903AADF85860CE
:102BD00008F008FF05F5A47305F5BA7B16A9184699
:102BE0000BEE103AADF8586008F0FCFE5846FFF7BF
:102BF00097FF05F5D07316A918460BEE903AADF87D
:102C0000586008F0EFFE05F5E67316A918460CEEBD
:102C1000103AADF8586008F0E5FE05F5FC7316A90A
:102C200018460CEE903AADF8586008F0DBFE05F55A
:102C3000097305F5147816A918460DEE103AADF88B
:102C4000586008F0CFFE4046FFF76AFF05F51F7396
:102C500016A918460DEE903AADF8586008F0C2FE7D
:102C600005F52A7316A918460EEE103AADF858600D
:102C700008F0B8FE05F5357316A918460EEE903A21
:102C8000ADF8586008F0AEFE05F5407316A9184679
:102C90000FEE103AADF8586008F0A4FE05F54B733E
:102CA00016A918460FEE903AADF8586008F09AFE53
:102CB00005F5567318460293FFF732FF05F5617369
:102CC00016A918460393ADF8586008F08BFE05F579
:102CD0006C7316A918460493ADF8586008F082FE8C
:102CE00005F57773184609EE103AFFF719FF05F559
:102CF000816316A918460593ADF8586008F072FE76
:102D000005F2344316A918460693ADF8586008F04A
:102D100069FE05F58C6316A918460793ADF858604F
:102D200008F060FE05F28C43184608EE903AFFF773
:102D3000F7FE05F5976316A918460893ADF8586095
:102D400008F050FE05F2E44316A918460993ADF8C1
:102D5000586008F047FE05F5A26316A918460A93C5
:102D6000ADF8586008F03EFE05F23C5316A918462F
:102D70000B93ADF8586008F035FE05F5AD631846C5
:102D800008EE103AFFF7CCFE05F2945316A9184648
:102D90000C93ADF8586008F025FE05F5B86316A948
:102DA00018460D93ADF8586008F01CFE05F2EC5380
:102DB00016A918460E93ADF8586008F013FE05F5F5
:102DC000C36316A918460F93ADF8586008F00AFEC1
:102DD00005F2446316A918461093ADF8586008F040
:102DE00001FE05F5CE6318461193FFF799FE05F233
:102DF0009C6316A918461293ADF8586008F0F2FDCE
:102E000005F5D96316A918461393ADF8586008F074
:102E1000E9FD05F2F46309EE903A262221461846B0
:102E20001BF0D0FE19EE900AFFF748FE314BC5F8B3
:102E30001C374FF47F03C5F828372F4BC5F8F436FD
:102E40004FF0FF33C5F8343705F5E8631493A5F860
:102E500020674FF0FF3316A91498C5F82447A5F84A
:102E60002C47C5F83047C5F83847C5F83C47ADF89A
:102E7000583008F0B7FD4FF4A07322465046009337
:102E80002146F0232E1DFFF738FE4FF07F435146B9
:102E9000AB66304607F038FB4FF4A0732246159816
:102EA00000932146F023FFF728FE4FF0FF331599DA
:102EB000C5F89430304607F027FB0223484616A990
:102EC000ADF8583009F0F1F9E62300935322484653
:102ED0000521FFF712FE4846214608F03EFD49460F
:102EE000304607F011FB44236FF04302384605E0FB
:102EF0005C0D020860050208CC0C020800936FF01C
:102F0000210117234FF017094FF0040AFFF7F5FDD1
:102F10001AEE100A16A9ADF858A009F0C6F94B46EA
:102F200016221AEE100A2146CDF80090FFF7E5FDB3
:102F30001AEE100A214608F010FD38461AEE101A53
:102F400007F0E2FA1AEE900A16A9ADF858A009F0B7
:102F5000ACF94B4622461AEE900A2146CDF8009075
:102F6000FFF7CBFD1AEE900A214608F0F6FC384632
:102F70001AEE901A07F0C8FA1BEE100A16A9ADF85F
:102F800058A009F092F94B462C221BEE100A21465C
:102F9000CDF80090FFF7B1FD1BEE100A214608F0B6
:102FA000DCFC38461BEE101A07F0AEFA3946304604
:102FB00007F0AAFA5A236FF05B02584600936FF0AD
:102FC00066014B46FFF799FD1BEE900A16A9ADF876
:102FD00058A009F06AF94B4616221BEE900A2146CA
:102FE000CDF80090FFF789FD1BEE900A214608F00E
:102FF000B4FC58461BEE901A07F086FA1CEE100A35
:1030000016A9ADF858A009F050F94B4622461CEE1F
:10301000100A2146CDF80090FFF76FFD1CEE100A54
:10302000214608F09AFC58461CEE101A07F06CFA7C
:103030001CEE900A16A9ADF858A009F036F94B46D7
:103040002C221CEE900A2146CDF80090FFF755FD8A
:103050001CEE900A214608F080FC58461CEE901A9F
:1030600007F052FA19271DEE100A16A9ADF858A05C
:1030700009F01BF94B4643221DEE100A009721462A
:10308000FFF73BFD1DEE100A214608F066FC58468E
:103090001DEE101A07F038FA5946304607F034FA98
:1030A00071236FF07202404600936FF086014B4629
:1030B000FFF723FD1DEE900A16A9ADF858A009F000
:1030C000F4F84B4616221DEE900A2146CDF80090EA
:1030D000FFF713FD1DEE900A214608F03EFC404626
:1030E0001DEE901A07F010FA1EEE100A16A9ADF8A0
:1030F00058A009F0DAF84B4622461EEE100A214687
:10310000CDF80090FFF7F9FC1EEE100A214608F0FA
:1031100024FC40461EEE101A07F0F6F91EEE900A47
:1031200016A9ADF858A009F0C0F84B462C221EEEA7
:10313000900A2146CDF80090FFF7DFFC1EEE900AC2
:10314000214608F00AFC40461EEE901A07F0DCF912
:103150001FEE100A16A9ADF858A009F0A6F84B46C4
:1031600043221FEE100A00972146FFF7C6FC1FEE10
:10317000100A214608F0F1FB40461FEE101A07F036
:10318000C3F91FEE900A16A9ADF858A009F08DF802
:103190004B465A221FEE900A00972146FFF7ADFCDE
:1031A0001FEE900A214608F0D8FB40461FEE901A09
:1031B00007F0AAF9414630464FF02C0807F0A4F971
:1031C0004B466FF02D020298CDF800806FF043015E
:1031D000FFF793FC0398ADF858A016A909F065F81D
:1031E0004B4622460398CDF800902146FFF785FC18
:1031F0000398214608F0B1FBDDE9020107F084F9EC
:103200000498ADF858A016A909F04FF84B461622BD
:103210000498CDF800902146FFF76FFC04982146F2
:1032200008F09BFB0499029807F06EF9029930466A
:1032300007F06AF94423482219EE100A6FF04E0194
:10324000CDF800904FF0050BFFF757FC0598ADF84F
:1032500058B016A909F029F84B4622460598CDF832
:1032600000904146FFF749FC0598214608F075FBA0
:10327000059919EE100A07F047F90698ADF858B00D
:1032800016A909F012F84B4622460698CDF8009090
:103290001621FFF732FC0698214608F05EFB0699DE
:1032A00019EE100A07F030F90798ADF858B016A9D2
:1032B00008F0FBFF4B4622460798CDF800902146C8
:1032C000FFF71BFC0798214608F047FB079919EE0A
:1032D000100A07F019F919EE101A304607F014F920
:1032E0005A236F2218EE900A6FF06501CDF8009016
:1032F000FFF703FC0898ADF858B016A908F0D5FF01
:103300004B4622460898CDF800904146FFF7F5FB62
:103310000898214608F021FB089918EE900A07F05A
:10332000F3F80998ADF858B016A908F0BEFF3B466F
:1033300022460998CDF800904221FFF7DEFB09985C
:10334000214608F00AFB099918EE900A07F0DCF80C
:103350000A98ADF858B016A908F0A7FF4B462246C8
:103360000A98CDF800901621FFF7C7FB0A9821466E
:1033700008F0F3FA0A9918EE900A07F0C5F80B98CE
:10338000ADF858B016A908F090FF4B4622460B98AE
:10339000CDF800902146FFF7B0FB0B98214608F0CE
:1033A000DCFA0B9918EE900A07F0AEF818EE901AB6
:1033B000304607F0A9F87123952218EE100A6FF035
:1033C0007A01CDF80090FFF798FB0C98ADF858B053
:1033D00016A908F06AFF4B4622460C98CDF80090DB
:1033E0004146FFF78AFB0C98214608F0B6FA0C9983
:1033F00018EE100A07F088F80D98ADF858B016A925
:1034000008F053FF3B4622460D98CDF8009042212C
:10341000FFF773FB0D98214608F09FFA0D9918EEFF
:10342000100A07F071F80E98ADF858B016A908F018
:103430003CFF3B4622460E98CDF800905A21FFF7FC
:103440005CFB0E98214608F088FA0E9918EE100AD7
:1034500007F05AF80F98ADF858B016A908F025FFF4
:103460004B4622460F98CDF800901621FFF745FBFA
:103470000F98214608F071FA0F9918EE100A07F01C
:1034800043F81098ADF858B016A908F00EFF4B4657
:1034900022461098CDF800902146FFF72EFB109899
:1034A000214608F05AFA109918EE100A07F02CF885
:1034B00018EE101A304607F027F8434653221198A9
:1034C000CDF800900621FFF718FB1298ADF858B020
:1034D00016A908F0EAFE4B4622461298CDF8009055
:1034E0001621FFF70AFB1298214608F036FADDE9AB
:1034F000110107F009F81398ADF858B016A908F0B3
:10350000D4FE4B4622461398CDF800902146FFF793
:10351000F4FA1398214608F020FA1399119806F04E
:10352000F3FF1199304606F0EFFF19EE900A3622AC
:103530000621FFF7D5FA2E4BC5F824374FF0FF339D
:10354000C5F834372B4BA5F828471B68C5F830471A
:10355000C5F8384705F26C772BB9274B274A60210D
:1035600027481BF093FA274B1B88032B03D8264BC5
:10357000224A6121F4E7254B0321186801F0CEF8B7
:10358000234A0346322138460DF0BEFC19EE900A5C
:10359000C5F83C7708F0DAFC1E4B169319EE900A3A
:1035A00016A9ADF85CA008F0F1FC19EE901A3046AF
:1035B00006F0AAFF14980E2316A9ADF8583008F0AB
:1035C00074FE06222023114614980093E523FFF78A
:1035D00094FA1498214608F0C0F93046149906F080
:1035E00093FF284619B0BDEC108BBDE8F08F00BFEB
:1035F000A83414FF782C0120840B0208860C0208E2
:10360000010C02087C2C0120480C0208842C0120AB
:10361000BE0C020860050208406A7047806A704765
:1036200070478B88C0690A68DB0A50F82300104491
:10363000704710B5C2B1137BB3B1547BD27A240268
:1036400004F4E0641443026A98B202EB8402138823
:103650008B4202D192F9020010BD05D8013880B228
:1036600004320028F3D1F7E70020F5E710B52C214C
:1036700004461BF05BF9204610BD000030B58BB04E
:103680000446BDF860500895BDF85C5007959DF85C
:10369000505006959DF84C5005959DF8485004955E
:1036A0009DF8445003959DF8405002959DF83C507C
:1036B0000195BDF8385000950BF06CFD064B23606A
:1036C000159BE361169B2362199B63621A9BA3629D
:1036D00020460BB030BD00BF900D02087047704708
:1036E000704730B4C26844685510034604EB62006A
:1036F000D20748BF62599B6830BC48BFD3581847AF
:1037000043682BB183682BB9C06800F00100704793
:10371000184670470120704710B5102104461BF071
:1037200005F9204610BD10B54FF4D07104461BF0CA
:10373000FDF8204610BD00F5A470884208B505D1FB
:103740000AF004FCBDE80840FEF786BF08BD000093
:10375000002310B5C0E90133C0E90333C0E90733E2
:10376000C0E905334FF480738384064B03600B88F4
:10377000C384FF23044680F8283008F096FD2046D5
:1037800010BD00BF2C1402081A4B73B51B88018FA3
:103790008B4206462AD9184B1B682BB9174B184A7F
:1037A00018486C211BF072F913F81120164B1B6896
:1037B00053F82250154B186800F0B0FF2B680190A9
:1037C0009B6B284698472B6801999B6C04462846BA
:1037D00098472B6801995B6A14FB00F428469847C8
:1037E000A4B20444A6F8464002B070BD0023A0F87D
:1037F0004630F9E77C2C0120782C0120840B02084C
:10380000C60B0208010C0208802C0120842C012028
:103810002DE9F04F2DED028B044685B0A046002522
:103820000BF0D4FE654BE56348F8403B4046FFF79C
:1038300083F904F16C03184604F1980B08EE903AF2
:103840004FF6FF76FFF778F904F1C40A03A958464A
:1038500004F1F009ADF80C60FFF77AFF03A95046B8
:10386000ADF80C60FFF774FF03A94846ADF80C6093
:10387000FFF76EFF04F58E7304F5A47703A91846CD
:1038800008EE103AADF80C60FFF762FF384608F01A
:1038900043FE4B4BC4E964344A4BC4E966354FF4EC
:1038A000A0732A46009329464046F023261DFFF7C1
:1038B00024F94FF07F43A3664146304606F024FECC
:1038C0004FF4A0732A4618EE900A00932946F0237D
:1038D000FFF713F94FF07F43C4F8943018EE901AB5
:1038E000304606F011FE302258460A21FFF7F8F85C
:1038F000012303A95846ADF80C3008F0D6FC594610
:10390000304606F001FE0E225046B621FFF7E8F8D9
:103910000B2303A95046ADF80C3008F0C6FC514605
:10392000304606F0F1FD642248465421FFF7D8F8EE
:103930000C230DEB03014846ADF80C3008F0B5FC44
:103940004946304606F0E0FD892218EE100A0921AA
:10395000FFF7C6F80D2318EE100A03A9ADF80C30D6
:1039600008F0A3FC18EE101A304606F0CDFD3846DC
:10397000D0222121FFF7B4F803AA02A93846ADF8F6
:103980000850ADF80C5008F05EFB0523A4F8803118
:103990003846FFF7F9FE4FF0FF33C4E9613304F511
:1039A000C8733046C4F87031394606F0ADFD204684
:1039B00005B0BDEC028BBDE8F08F00BF080E020819
:1039C000F00D0208373700087047704710B540F215
:1039D0004C7104461AF0AAFF204610BD2DE9F04FA5
:1039E0002DED108B054699B0AA4600240BF0EEFD94
:1039F000DF4BEC634AF8403B5046FFF79DF805F17A
:103A00006C0305F1980918464FF6FF761593FFF7FA
:103A100093F817A94846ADF85C6007F0E3FF05F19D
:103A2000C403184609EE903AFFF77AF805F1F0035F
:103A300017A918460AEE103AADF85C6007F0D2FFFD
:103A400005F58E7305F5A47717A918460AEE903A86
:103A5000ADF85C6007F0C6FF3846FFF761F805F582
:103A6000BA7317A918460BEE103AADF85C6007F070
:103A7000B9FF05F5D07317A918460BEE903AADF8CB
:103A80005C6007F0AFFF05F5E67317A918460CEE6A
:103A9000103AADF85C6007F0A5FF05F5FC7317A9B7
:103AA00018460CEE903AADF85C6007F09BFF05F508
:103AB000097305F5147817A918460DEE103AADF8FC
:103AC0005C6007F08FFF4046FFF72AF805F51F738B
:103AD00017A918460DEE903AADF85C6007F082FF2A
:103AE00005F52A7317A918460EEE103AADF85C607A
:103AF00007F078FF05F5357317A918460EEE903AD2
:103B0000ADF85C6007F06EFF05F5407317A9184625
:103B10000FEE103AADF85C6007F064FF05F54B73EB
:103B2000184608EE903AFEF7FBFF05F5567317A905
:103B300018460FEE903AADF85C6007F053FF05F5BC
:103B4000617317A918460293ADF85C6007F04AFF4D
:103B500005F56C7317A918460393ADF85C6007F080
:103B600041FF05F5777318460493FEF7D9FF05F575
:103B7000816317A918460593ADF85C6007F032FF22
:103B800005F2344305F58C6B17A918460693ADF87A
:103B90005C6007F027FF5846FEF7C2FF05F28C4332
:103BA00017A918460793ADF85C6007F01BFF05F5F1
:103BB000976317A918460893ADF85C6007F012FFE9
:103BC00005F2E44317A918460993ADF85C6007F0C5
:103BD00009FF05F5A26317A918460A93ADF85C60C2
:103BE00007F000FF05F23C5317A918460B93ADF8F8
:103BF0005C6007F0F7FE05F5AD63184608EE103A75
:103C0000FEF78EFF05F2945317A918460C93ADF8F2
:103C10005C6007F0E7FE05F5B86317A918460D9339
:103C2000ADF85C6007F0DEFE05F2EC5317A918460C
:103C30000E93ADF85C6007F0D5FE05F5C36317A9D8
:103C400018460F93ADF85C6007F0CCFE05F24463B4
:103C5000184609EE103AFEF763FF05F5CE6317A983
:103C600018461093ADF85C6007F0BCFE05F29C634B
:103C700017A918461193ADF85C6007F0B3FE05F57F
:103C8000D96317A918461293ADF85C6007F0AAFE35
:103C900005F2F46317A918461393ADF85C6007F0BA
:103CA000A1FE05F5E46317A918461493ADF85C600E
:103CB00007F098FE4FF4A073224600932146504629
:103CC000F0232E1DFEF719FF4FF07F43AB665146E0
:103CD000304606F019FC4FF4A07322461598009365
:103CE0002146F023FEF709FF4FF0FF331599C5F881
:103CF0009430304606F008FC032317A94846ADF877
:103D00005C3008F0D2FAE62300935322484605219E
:103D1000FEF7F3FE2146484607F01FFE49463046AF
:103D20004FF0170906F0F0FB19EE900A2C2326221B
:103D3000CDF800906FF037014FF0050AFEF7DDFE79
:103D40001AEE100A17A9ADF85CA008F0AEFA4B46BF
:103D500022461AEE100ACDF800901621FEF7CDFE8D
:103D60001AEE100A214607F0F8FD1AEE101A01E0CB
:103D70003C0E020819EE900A06F0C6FB1AEE900AF5
:103D800017A9ADF85CA008F090FA4B4622461AEE4F
:103D9000900A2146CDF80090FEF7AFFE1AEE900A89
:103DA000214607F0DAFD1AEE901A19EE900A06F095
:103DB000ABFB19EE901A304606F0A6FB7123952254
:103DC0003846CDF800906FF07A01FEF796FE1BEEB4
:103DD000100A17A9ADF85CA008F067FA4B46224616
:103DE0001BEE100ACDF800902C21FEF786FE1BEE8C
:103DF000100A214607F0B1FD1BEE101A384606F0F6
:103E000083FB1BEE900A17A9ADF85CA008F04DFAF1
:103E1000224619231BEE900ACDF800904221FEF7AE
:103E20006CFE1BEE900A214607F097FD1BEE901AE0
:103E3000384606F069FB1CEE100A17A9ADF85CA025
:103E400008F033FA224619231CEE100ACDF8009030
:103E50005A21FEF752FE1CEE100A214607F07DFDA6
:103E60001CEE101A384606F04FFB1CEE900A17A9FC
:103E7000ADF85CA008F019FA4B4622461CEE900AF9
:103E8000CDF800901621FEF738FE1CEE900A214670
:103E900007F063FD1CEE901A384606F035FB1DEE68
:103EA000100A17A9ADF85CA008F0FFF94B462246AE
:103EB0001DEE100A2146CDF80090FEF71EFE1DEE05
:103EC000100A214607F049FD1DEE101A384606F08B
:103ED0001BFB3946304606F017FB5A236F2240463B
:103EE000CDF800906FF06501FEF707FE1DEE900A19
:103EF00017A9ADF85CA008F0D8F94B4622461DEE94
:103F0000900ACDF800902C21FEF7F7FD1DEE900AE7
:103F1000214607F022FD1DEE901A404606F0F4FA05
:103F20001EEE100A17A9ADF85CA008F0BEF92246F3
:103F300019231EEE100ACDF800904221FEF7DDFD98
:103F40001EEE100A214607F008FD1EEE101A40462C
:103F500006F0DAFA1EEE900A17A9ADF85CA008F098
:103F6000A4F94B4622461EEE900ACDF80090162189
:103F7000FEF7C3FD1EEE900A214607F0EEFC1EEE92
:103F8000901A404606F0C0FA1FEE100A17A9ADF8C5
:103F90005CA008F08AF94B4622461FEE100A214623
:103FA000CDF80090FEF7A9FD1FEE100A214607F09C
:103FB000D4FC1FEE101A404606F0A6FA41463046E1
:103FC00006F0A2FA18EE900A44234822CDF8009099
:103FD0006FF04E01FEF791FD1FEE900A17A9ADF8A4
:103FE0005CA008F062F94B4622461FEE900ACDF81D
:103FF00000902C21FEF781FD1FEE900A214607F06C
:10400000ACFC1FEE901A18EE900A06F07DFA0298AA
:10401000ADF85CA017A908F048F94B462246029873
:10402000CDF800901621FEF768FD0298214607F0B2
:1040300094FC029918EE900A06F066FA0398ADF81F
:104040005CA017A908F031F94B4622460398CDF839
:1040500000902146FEF751FD0398214607F07DFCB4
:10406000039918EE900A06F04FFA4FF02C0818EE5C
:10407000901A304606F048FA4B460498CDF8008076
:104080006FF02D026FF043010427FEF736FD05980F
:10409000ADF85C7017A908F008F94B462246059860
:1040A000CDF800902146FEF728FD0598214607F03F
:1040B00054FCDDE9040106F027FA0698ADF85C70BF
:1040C00017A908F0F2F84B4616220698CDF8009092
:1040D0002146FEF712FD0698214607F03EFC0699A0
:1040E000049806F011FA0499304606F00DFA71238F
:1040F00000936FF072024B4658466FF08601FEF750
:10410000FCFC0798ADF85C7017A908F0CEF84B4698
:1041100016220798CDF800902146FEF7EEFC07988E
:10412000214607F01AFC0799584606F0EDF9089861
:10413000ADF85C7017A908F0B8F84B46224608980D
:10414000CDF800902146FEF7D8FC0898214607F0EC
:1041500004FC0899584606F0D7F90998ADF85C7048
:1041600017A908F0A2F84B4642460998CDF80090EE
:104170002146FEF7C2FC0998214607F0EEFB09999B
:10418000584606F0C1F90A98ADF85C7017A908F016
:104190008CF8192343220A98009321464B46FEF7D8
:1041A000ACFC0A98214607F0D8FB0A99584606F05D
:1041B000ABF90B98ADF85C7017A908F076F81923E5
:1041C0005A220B98009321464B46FEF796FC0B981B
:1041D000214607F0C2FB0B99584606F095F959465F
:1041E000304606F091F95A2318EE100A00936FF04A
:1041F0005B024B466FF06601FEF77FFC0C98ADF852
:104200005C7017A908F051F84B4616220C98CDF8AF
:1042100000902146FEF771FC0C98214607F09DFBAB
:104220000C9918EE100A06F06FF90D98ADF85C7055
:1042300017A908F03AF84B4622460D98CDF80090A1
:104240002146FEF75AFC0D98214607F086FB0D9992
:1042500018EE100A06F058F90E98ADF85C7017A920
:1042600008F023F84B4642460E98CDF800902146C0
:10427000FEF743FC0E98214607F06FFB0E9918EEEF
:10428000100A06F041F90F98ADF85C7017A908F014
:104290000CF8192343220F98009321464B46FEF752
:1042A0002CFC0F98214607F058FB0F9918EE100AC6
:1042B00006F02AF918EE101A304606F025F94423C4
:1042C00019EE100A00936FF043024B466FF0210184
:1042D000FEF713FC1098ADF85C7017A907F0E5FF26
:1042E0004B4616221098CDF800902146FEF705FCAB
:1042F0001098214607F031FB109919EE100A06F0CC
:1043000003F91198ADF85C7017A907F0CEFF4B4682
:1043100022461198CDF800902146FEF7EEFB119849
:10432000214607F01AFB119919EE100A06F0ECF875
:104330001298ADF85C7017A907F0B7FF42464B46DC
:104340001298CDF800902146FEF7D7FB129821462F
:1043500007F003FB129919EE100A06F0D5F819EED2
:10436000101A304606F0D0F81398092317A9ADF8B3
:104370005C3007F09AFF0622202311461398009321
:10438000E523FEF7BAFB1398214607F0E6FA1399E6
:10439000304606F0B9F814980A2317A9ADF85C3036
:1043A00007F083FF4B4654221498CDF800905146F5
:1043B000FEF7A3FB1498214607F0CFFA3046149974
:1043C00006F0A2F8284619B0BDEC108BBDE8F08FBE
:1043D0007047000030B5174D2C78BFF35B8F14F099
:1043E00001048FB022D128461AF0A2FAF0B13F237F
:1043F0000993114B0893114B07930123CDE9053322
:1044000004930423CDE902430C230D4900935F225A
:104410000F23CDE90B440B480A940194FFF72EF9C2
:1044200009481AF051FB28461AF08EFA05480FB0D9
:1044300030BD00BFE01D0020E4340208C836020889
:10444000482F0208E41D0020D143000870470000F7
:1044500030B5174D2C78BFF35B8F14F001048FB08B
:1044600022D128461AF064FAF0B13F230993114B88
:104470000893114B114912480A94CDE906430122D1
:104480000423CDE903321E23009305222523CDE921
:104490000B44CDE901440594FFF7F0F809481AF000
:1044A00013FB28461AF050FA05480FB030BD00BF84
:1044B000101E0020BC360208CC3602087C340208EC
:1044C000141E00204D4400087047000030B5164D02
:1044D0002C78BFF35B8F14F001048FB020D12846F5
:1044E0001AF026FAE0B13F230993104B0893104BC2
:1044F000104911480A940122CDE906430423CDE96D
:1045000003320A230093CDE90B44CDE9014405941D
:10451000FFF7B4F809481AF0D7FA28461AF014FA47
:1045200005480FB030BD00BF401E0020C036020855
:10453000D0360208C4340208441E0020C9440008D2
:104540007047000030B5164D2C78BFF35B8F14F028
:1045500001048FB020D128461AF0EAF9E0B13F23D8
:104560000993104B0893104B104911480A940122EB
:10457000CDE906430423CDE9033228230093CDE996
:104580000B44CDE901440594FFF778F809481AF087
:104590009BFA28461AF0D8F905480FB030BD00BF85
:1045A000701E0020C4360208D4360208D434020833
:1045B000741E00204145000800207047002070470D
:1045C0000EB403B503AB002153F8042B01930AF09A
:1045D00009FC02B05DF804EB03B070470CB407B5FA
:1045E00004AB53F8042B01930AF0FCFB03B05DF815
:1045F00004EB02B070470000436C10B5044673B37F
:10460000038F2BB9184B194AC52119481AF03EFAE5
:10461000C38E00EB43035B8C0BB30BF0CCFE238FFC
:10462000012B03D8134B144ACB21EEE7E28E531C27
:104630009BB2092B194688BFA3F10A0104EB410183
:1046400040F63F10498C814209D10A2B04EB42020B
:1046500028BF002304EB4303508C58845184204628
:10466000BDE810400BF0AABD680E0208710E0208EA
:104670001C0F0208660F0208740F02080BF065BDDC
:1046800010B586B002AC84E806001A460AAB059362
:104690000193099B00932146089B08F0D9FF06B0BF
:1046A00010BD000038B518BB124B13481B681349E6
:1046B000B3B11A689C681A4402605A681A440A60C6
:1046C0001C440F4B00221A8000F038F8054600F019
:1046D00033F80C4B1C600C4B1D600C4B188007E032
:1046E0000B4B03600B4B0B600B4B1C68002CE8D191
:1046F00038BD00BFA01E0020A41E0020A81E002060
:10470000AC1E0020782C0120802C01207C2C012064
:10471000F0360208D836020898370208044B1B68A6
:1047200053F82100034B1B6803EB4000704700BFA8
:10473000A81E0020A41E00200620704700487047D5
:10474000B01E002010B5FFF745FE064C2060FFF7B5
:10475000F9FE6060FFF7BAFEA060FFF779FEE06047
:1047600010BD00BFB01E0020704710B54FF4AE71F1
:1047700004461AF0DBF8204610BD10B50446D0F808
:10478000580100F045FB2046BDE8104009F060BC30
:1047900010B50446FDF720FF014B2360204610BDF5
:1047A00050100208704704387047704710B5102148
:1047B00004461AF0BBF8204610BDA0F10400F5E74E
:1047C00010B500228260044AC16002F10804203260
:1047D0000460426010BD00BF9C10020870470000DA
:1047E00010B5034B03600446FEF71CF9204610BDCC
:1047F000CC10020810B50446FFF7F2FF204640F641
:104800004C011AF093F8204610BD000010B5044684
:10481000FEF7A6F9044B23606422002104F5FD6035
:104820001AF0D0F9204610BDCC10020890F8DE072F
:1048300028B10B44092BCCBF002001207047D018B1
:104840000928F8E730B590F8DE470A255CB905FB82
:104850000122024421468B4215DB92F8E8070A3216
:1048600078B90131F7E702F5FD6205FB0122024448
:1048700000218B4205DB12F8010B08B90131F8E782
:104880000024204630BD0124FBE710B50446FEF7A6
:10489000CAF804F5CE62C4F8E02704F55672002386
:1048A000C4F8E427012284F8DE37A4F8DC27C4F832
:1048B000D437C4F8D83784F8D03710BD2DE9F04F7D
:1048C000DFF894A1DFF89491DFF89481574F87B017
:1048D00000230446DAF800008DF8173003F089FE53
:1048E0000646D9F8000003F084FE0546D8F800001B
:1048F00003F07FFE0190386803F07BFE4C4B029082
:10490000186803F076FE4B4B0390186803F071FEB5
:1049100094F8D037002B40F02482B4F9DC37013B07
:10492000032B21D8DFE803F002505C68424B1B6880
:1049300004F26C7B2BB9414B414A602141481AF08B
:10494000A5F8414B1B88032B03D8404B3C4A6121FF
:10495000F4E703213E4B1868FFF7E0FE3D4A0346AB
:10496000322158460CF0D0FA002E00F0E4804FF0CF
:10497000FF33DAF8000000220DF1170103F00AFE00
:104980009DF81730532B40F0B580D4F8D4A7D4F855
:10499000D867B4F9DC37324651462046FFF752FF5C
:1049A000002800F0A78094F8DE070A2100282FD104
:1049B00001FB0A6626445A1C834206F10A0651DBB3
:1049C00086F8DE270130F7E71B4B1B6804F26C7B8F
:1049D000002BB0D01C4B1B88022BB6D90221B9E7A3
:1049E000154B1B6804F26C7B002BA4D0164B1B8864
:1049F000012BAAD90121ADE70F4B1B6804F26C7B98
:104A0000002B98D0104B1B88002B9ED00021A1E7D3
:104A100006F5FD6601FB0A66A1190022581C9342A7
:104A200020DB01F8010B0132F9E700BF281B002051
:104A30002C1B0020301B0020782C0120840B020846
:104A4000860C0208010C02087C2C0120480C02088C
:104A5000842C0120BE0C02081C1B0020201B0020FF
:104A6000241B0020012B11D1002304F57776C4F814
:104A7000D437C4F8D837532205213046FEF730F832
:104A800004F1C403C4F8E067C4F8E437B4F9DC37D0
:104A9000022B11D1002304F28C46C4F8D437C4F899
:104AA000D837532205213046FEF71AF804F5BA73B9
:104AB000C4F8E067C4F8E437B4F9DC37032B11D14C
:104AC000002304F5AD66C4F8D437C4F8D8375322B0
:104AD00005213046FEF704F804F51473C4F8E067C6
:104AE000C4F8E437B4F9DC37042B40F0CE8001235E
:104AF00084F8D03794F8DE279DF81730002A40F06C
:104B0000CA804C2B17D1D4F8D437D4F8E007013B36
:104B1000002BC4F8D437BEBFB4F9DC37C3F10903A6
:104B2000C4F8D437D4F8D417172359430368053190
:104B30001B6B09B2984735B34FF0FF330DF11701E6
:104B4000D9F80000002203F025FD94F8DE179DF847
:104B50001730002940F0AC80522B14D1D4F8D43750
:104B6000B4F9DC27D4F8E0070133C2F1090293421B
:104B7000D8BF1946C4F8D417172359430368053121
:104B80001B6B09B29847019B1BB34FF0FF33002208
:104B9000D8F800000DF1170103F0FCFC94F8DE27B3
:104BA0009DF81730002A40F09380552B11D1D4F88E
:104BB000D837D4F8E007013B48BF0923C4F8D837F9
:104BC000D4F8D81717235943036853315B6B09B2E4
:104BD0009847029B0BB34FF0FF330DF11701386874
:104BE000002203F0D7FC94F8DE179DF81730002957
:104BF00040F08180442B10D1D4F8D837D4F8E007A6
:104C00000133092BD8BF1946C4F8D81717235943C5
:104C1000036853315B6B09B29847039B7BB35448DD
:104C20004FF0FF33002200680DF1170103F0B2FCD2
:104C300094F8DE279DF81730002A71D1412B1ED140
:104C4000B4F9DC37D4F8D827D4F8D4172046FFF7C6
:104C5000EDFDA0B1D4F8E037D4F8E407B3F90620AD
:104C6000B3F90410FDF73CFFD4F8E0076FF04302FE
:104C70006FF01F01FDF734FF012384F8DE37201D9C
:104C80000AF0DAF907B0BDE8F08F032BDCBF01337F
:104C9000A4F8DC372EE74C2B7FF44DAFD4F8D43793
:104CA000D4F8E407013B48BF0923C4F8D43739E7F7
:104CB000522B7FF468AFD4F8D437D4F8E40701332B
:104CC000092BC8BF0023C4F8D437D4F8D41753E74E
:104CD000552B7FF47EAFD4F8D837D4F8E407013BE6
:104CE000002BC4F8D837BEBFB4F9DC37C3F10903D1
:104CF000C4F8D83764E7442B8FD1D4F8D837B4F947
:104D0000DC27D4F8E4070133C2F109029342C4F866
:104D1000D837C4BF0023C4F8D837D4F8D81775E7FC
:104D2000412BACD1B4F9DC37D4F8D827D4F8D41758
:104D30002046FFF77BFD0028A1D0D4F8E437D4F853
:104D4000E007B3F90620B3F90410FDF7C9FED4F863
:104D5000E4076FF043026FF01F01FDF7C1FE00236F
:104D60008BE7012B8BD109F0F1F8FDF785FC86E785
:104D70002C1B0020704704387047704710B5102175
:104D8000044619F0D3FD204610BDA0F10400F5E75C
:104D900010B500228260044AC16002F1080420328A
:104DA0000460426010BD00BFF810020870470000A8
:104DB00010B5034B03600446FEF790FC204610BD7F
:104DC0002811020810B50446FFF7F2FF20464FF401
:104DD000D07119F0ABFD204610BD000010B504469F
:104DE000FEF716FD014B2360204610BD2811020876
:104DF000FEF775BC0246002142F8041B0349034636
:104E000003C982E803001846704700BF1CFD010873
:104E10007047704704387047704710B5102104463A
:104E200019F084FD204610BDA0F10400F5E7000054
:104E300010B500228260044AC16002F108042032E9
:104E40000460426010BD00BF5411020870470000AA
:104E500010B5034B03600446FEF7B6FD204610BDB7
:104E60008C11020810B50446FFF7F2FF20464FF4FC
:104E70000E6119F05BFD204610BD000010B5044620
:104E8000FEF7ACFD054B23604FF4C872002104F21D
:104E90004C7019F097FE204610BD00BF8C1102081F
:104EA0002DE9F047ADF59C5D86B091463D4A0DF683
:104EB000D414054688460DF6DC10D11F206019F089
:104EC000AEFD0723636023680022DA71214604A83F
:104ED00019F082FD204619F08EFD04A819F07EFD20
:104EE00020603148214601220B6883EA937300FB5E
:104EF00003230132B2F51C7F41F8043FF4D16B4625
:104F0000C4F8C02909210022C3E90021029201222C
:104F100002AB4FF0280A5A6021466846FBF7DCFBDB
:104F2000214606466846FBF7D7FB2146074602A8FE
:104F3000FBF7D2FB002800F0010319460AFB06F23A
:104F4000B8BF5942A3B10129E6D106EB0903092BE9
:104F5000E2DC0A2303FB067308EB830300224A45C5
:104F600016DA0AFB02F018580028D5D10132F6E70C
:104F700007EB09010929CFDC02EB870242444B45CC
:104F800005DA52F8041B0029C6D10133F7E70021E6
:104F90002846C5E90017AE600DF59C5D06B0BDE87A
:104FA000F08700BF831102086589076CF0B50446DD
:104FB00085B0FEF70AFD0023A4F8DC38022504F2D0
:104FC0004C760A272A46314601A8FFF769FF022DD1
:104FD000DDE90212019B31D1F3B1012B17D107FB9F
:104FE000021304EB830304F57770C3F84C5702FBFC
:104FF00007730B4404EB8303C3F84C5717235A433E
:1050000059435332053112B209B2FDF769FD01353A
:10501000062DD7D105B0F0BD07FB021304EB8300CA
:1050200017235A43594353320531C0F84C57C0F83F
:10503000505712B209B204F1C400E6E7032D34D18F
:10504000FBB1012BE3D107FB021304EB830304F252
:105050004460C3F84C5702FB07730B4404EB830313
:10506000C3F84C57931C07FB031304EB8303C3F8EB
:105070004C5717235A4359435332053112B209B2E0
:10508000C3E707FB021304EB830017235A4359437A
:1050900053320531C0F84C57C0F85057C0F8545738
:1050A00012B209B204F54B70AFE7042D3DD133B312
:1050B000012BACD107FB021304EB830304F5AD60B5
:1050C000C3F84C5702FB07730B4404EB8303C3F88C
:1050D0004C57931C07FB031304EB8303C3F84C5793
:1050E000D31C07FB031304EB8303C3F84C571723AC
:1050F0005A4359435332053112B209B285E707FBCF
:10510000021304EB830017235A43594353320531EA
:10511000C0F84C57C0F85057C0F85457C0F858570B
:1051200012B209B204F514706FE77BB3012B7FF460
:105130006EAF07FB021304EB83030520C3F84C0793
:1051400002FB07730B4404EB8303C3F84C07931C67
:1051500007FB031304EB8303C3F84C07D31C07FBC3
:10516000031304EB8303C3F84C07131D07FB03135E
:1051700004EB8303C3F84C0717235A4359430144F4
:10518000533212B209B204F58C603EE707FB0213FA
:1051900004EB830C172305205A435943014453322F
:1051A000CCF84C07CCF85007CCF85407CCF858078B
:1051B000CCF85C0712B209B204F5A47025E7000030
:1051C0002DE9F04FDFF860B1DFF860A1DFF8608112
:1051D000524E85B000220446DBF800008DF80F2007
:1051E00003F007FA0190DAF8000003F002FA8146B2
:1051F000D8F8000003F0FDF90746306803F0F9F92C
:1052000047490546086803F0F4F94649086803F081
:10521000F0F9019B0022E3B14FF0FF33DBF800000F
:105220000DF10F0103F0B6F99DF80F304C2B10D1A2
:1052300094F8DC38013B5BB2002BB8BF092384F83B
:10524000DC3894F9DC181723052213FB0123A4F89A
:105250002437B9F1000F1DD04FF0FF33DAF800000A
:1052600000220DF10F0103F095F99DF80F30522B3C
:1052700010D194F8DC3801335BB2092BC8BF00238E
:1052800084F8DC3894F9DC181723052213FB01237A
:10529000A4F82437EFB14FF0FF33D8F80000002214
:1052A0000DF10F0103F076F99DF80F30552B10D159
:1052B00094F8DD38013B5BB2002BB8BF092384F8BA
:1052C000DD3894F9DD181723532213FB0123A4F8CA
:1052D0002637E5B14FF0FF33306800220DF10F01A2
:1052E00003F058F99DF80F30442B10D194F8DD38B5
:1052F00001335BB2092BC8BF002384F8DD3894F971
:10530000DD181723532213FB0123A4F82637201D91
:1053100009F092FE05B0BDE8F08F00BF281B002009
:105320002C1B0020301B00201C1B0020201B0020F9
:10533000241B0020F02070474FF4A07070472920F4
:10534000FCF78CBB2820FCF789BB08B5FCF75AFB9F
:10535000CA20FCF783FBC320FCF764FB0820FCF7A2
:1053600061FB5020FCF75EFBCF20FCF777FB0020B1
:10537000FCF758FBC120FCF755FB3020FCF752FB33
:10538000ED20FCF76BFB6420FCF74CFB0320FCF7E3
:1053900049FB1220FCF746FB8120FCF743FBE82089
:1053A000FCF75CFB8520FCF73DFB0020FCF73AFB9B
:1053B0007820FCF737FBCB20FCF750FB3920FCF7BB
:1053C00031FB2C20FCF72EFB0020FCF72BFB3420BC
:1053D000FCF728FB0220FCF725FBF720FCF73EFB3F
:1053E0002020FCF71FFBEA20FCF738FB0020FCF72D
:1053F00019FB0020FCF716FBB120FCF72FFB002067
:10540000FCF710FB1B20FCF70DFBB620FCF726FB7E
:105410000A20FCF707FBA220FCF704FBC020FCF7E6
:105420001DFB1020FCF7FEFAC120FCF717FB102033
:10543000FCF7F8FAC520FCF711FB4520FCF7F2FA5F
:105440001520FCF7EFFAC720FCF708FB9020FCF7CB
:10545000E9FA3620FCF702FBC820FCF7E3FAF22059
:10546000FCF7FCFA0020FCF7DDFAB020FCF7F6FAB6
:10547000C220FCF7D7FAB620FCF7F0FA0A20FCF7B6
:10548000D1FAA720FCF7CEFA2720FCF7CBFA0420AC
:10549000FCF7C8FA2A20FCF7E1FA0020FCF7C2FA70
:1054A0000020FCF7BFFA0020FCF7BCFAEF20FCF765
:1054B000B9FA2B20FCF7D2FA0020FCF7B3FA00204F
:1054C000FCF7B0FA0120FCF7ADFA3F20FCF7AAFA8E
:1054D000F620FCF7C3FA0120FCF7A4FA0020FCF741
:1054E000A1FA0620FCF79EFA2C20FCF7B7FAC82098
:1054F000FCF702FB2620FCF7B1FA0120FCF792FA38
:10550000E020FCF7ABFA0F20FCF78CFA2920FCF71F
:1055100089FA2420FCF786FA0C20FCF783FA0E2087
:10552000FCF780FA0920FCF77DFA4E20FCF77AFAA6
:105530007820FCF777FA3C20FCF774FA0920FCF796
:1055400071FA1320FCF76EFA0520FCF76BFA1720AE
:10555000FCF768FA1120FCF765FA0020FCF762FA04
:10556000E120FCF77BFA0020FCF75CFA1620FCF740
:1055700059FA1B20FCF756FA0420FCF753FA1120C5
:10558000FCF750FA0720FCF74DFA3120FCF74AFAF5
:105590003320FCF747FA4220FCF744FA0520FCF7D9
:1055A00041FA0C20FCF73EFA0A20FCF73BFA2820CF
:1055B000FCF738FA2F20FCF735FA0F20FCF732FA07
:1055C0001120FCF74BFAC820FCF796FA2920FCF7CB
:1055D00045FABDE808402C20FCF740BA08B5FCF7B6
:1055E00011FA0321D320FCF755FA80B208BD10B59B
:1055F000C4B2022203212046FCF7BAF90A20FCF7C4
:10560000FFF9204600220321FCF7B2F9BDE8104063
:105610000220FCF7F5B938B50446E4B2FCF7A6F968
:1056200000212046FCF7BCF9012105462046FCF785
:10563000B7F940EA052080B238BD10B5C4B24021A8
:105640002046FCF7ADF9030607D54C212046FCF7B0
:10565000A7F9003818BF012010BD01224B212046B8
:10566000FCF786F9204600224B21FCF781F9002047
:10567000F2E773B50423C4B20E461546D7210DEBED
:1056800003022046FCF7A6F9019B1BBA1A0DC3F3CF
:105690000B23328020462B8001224B21FCF768F936
:1056A00000224B212046FCF763F902B070BD0000D8
:1056B00010B50A4B1A78904204460DD059788842AA
:1056C0000AD00AB141B901229C54FCF74FF9204697
:1056D000BDE81040FFF78BBF10BD00BFC01E00200B
:1056E00010B5C4B209212046FCF75AF940F0010078
:1056F000C2B209212046BDE81040FCF739B910B507
:10570000C4B209212046FCF74BF9092100F0FE0242
:105710002046BDE81040FCF72BB938B5C4B20D46A1
:1057200020460A21FCF73CF92843C2B20A21204650
:10573000BDE83840FCF71CB907B50190FCF717F934
:1057400001981F21FFF7E9FF019803B05DF804EB12
:10575000FFF7C6BF38B5C4B20D4620460A21FCF794
:105760001FF920EA0500C2B20A212046BDE83840F0
:10577000FCF7FEB810B50446FFF7C1FF20461F2115
:10578000BDE81040FFF7E6BF10B5C0B20C460B21D4
:10579000FCF706F9204010BD1F21FFF7F5BF0A46B0
:1057A000C0B20B21FCF7E4B81F21FFF7F8BF38B5F2
:1057B000C4B20D4620461721FCF7F2F820EA050096
:1057C000C2B217212046BDE83840FCF7D1B870B509
:1057D000C4B2064604212046FCF7E2F8042100F09A
:1057E000FB0205462046FCF7C3F83046F021FFF7E0
:1057F000DEFF05F0F80220460421FCF7B9F8492243
:1058000020212046FCF7B4F80220FCF7F9F82046E6
:1058100001222121FCF7ACF820469A224121FCF715
:10582000A7F8204601224A21FCF7A2F820460122CF
:105830004B21FCF79DF8204600224B21FCF798F8FD
:10584000204601225621FCF793F8204601225821D8
:10585000FCF78EF8204601224021FCF789F820460B
:10586000FF220B21FCF784F8BDE870400220FCF712
:10587000C7B80000054BD3F8882042F47002C3F883
:1058800088204FF000629A60704700BF00ED00E092
:1058900008B50B4B1A6842F400721A601A6842F499
:1058A00080621A601A6842F480721A60032000F065
:1058B0002FF80020FCF7EAFBFCF72CF9002008BDCC
:1058C000003C0240034A044B11681B780B441360F0
:1058D000704700BFC41E002078000020014B1868EC
:1058E000704700BFC41E002038B50446FFF7F6FF1E
:1058F000631C1CBF054B1B78054618BFE418FFF757
:10590000EDFF431BA342FAD338BD00BF780000204F
:105910000749CA6822F4E0620302120403F4E06358
:10592000120C134343F0BF6343F40033CB60704762
:1059300000ED00E0164B30B5DC68C4F30224C4F17E
:105940000705231D042D28BF0425062B4FF0FF3328
:105950008CBF033C002403FA05F521EA0501A340AE
:1059600022EA0302A140002841EA0203ACBF00F191
:105970006040084A4FEA0313B8BF00F00F00DBB2E3
:10598000AABF00F56140135480F8003330BD00BF5A
:1059900000ED00E014ED00E0002808DB42090123DF
:1059A00000F01F0003FA00F0014B43F8220070479B
:1059B00000E100E010B5044650B1437903F0FF0266
:1059C00013B90271FCF7C6F801236371002010BD02
:1059D0000120FCE770B50446866DFFF77FFF94F861
:1059E0003530022B054606D080236365002384F8FA
:1059F0003430012070BD23681A6822F016021A6044
:105A00005A6922F080025A61226C0AB9A26C1AB15A
:105A10001A6822F008021A601A6822F001021A605D
:105A200023681B6813F001030AD1E16D3F228A400D
:105A3000B260012284F8352084F834301846D9E762
:105A4000FFF74CFF401B0528EAD92023636503209C
:105A5000002384F8350084F83430CBE790F83530F3
:105A6000022B03D080234365012070470268052381
:105A700080F83530136823F001031360002070476D
:105A800010B5044630B390F8393003F0FF021BB96B
:105A900080F83820FCF776F822686168022384F8E1
:105AA0003930136823F440330B431360536BA16800
:105AB00023F007030B435363136CE16823F47F5314
:105AC00023F03F030B43136400200123E06384F8B9
:105AD000393010BD0120FCE770477047036870B58E
