:020000040800F2
:1000000000000320A50500084D2000084F2000082F
:10001000512000085320000855200008000000006F
:10002000000000000000000000000000018E000839
:100030005720000800000000918E00080B87000880
:10004000F5050008F5050008F5050008F5050008A8
:10005000F5050008F5050008F5050008F505000898
:10006000F5050008F5050008F5050008F505000888
:10007000F5050008F5050008F5050008F505000878
:10008000F5050008F5050008F5050008F505000868
:10009000F5050008F5050008F5050008F505000858
:1000A000F5050008F5050008F5050008F505000848
:1000B000F5050008F5050008F5050008F505000838
:1000C000F5050008F5050008F5050008F505000828
:1000D000F505000859200008F5050008F505000899
:1000E000F5050008F5050008F5050008F505000808
:1000F000F5050008F5050008F5050008F5050008F8
:10010000F5050008F5050008F5050008F5050008E7
:10011000F50500086520000871200008F5050008B5
:10012000F5050008F5050008F5050008F5050008C7
:10013000F5050008F5050008F5050008F5050008B7
:10014000F5050008F5050008F5050008F5050008A7
:10015000F5050008F5050008F5050008F505000897
:10016000F5050008F5050008F5050008F505000887
:10017000F5050008F5050008F50500080000000079
:10018000F5050008F5050008F5050008F505000867
:10019000F5050008F5050008F5050008F505000857
:0C01A0007D200008F505000889200008FB
:1001B00010B5054C237833B9044B13B10448AFF3A1
:1001C00000800123237010BD6C010020000000009E
:1001D0002802020808B5034B1BB103490348AFF3DB
:1001E000008008BD00000000700100202802020805
:1001F00001F0FF01102A2BDB10F0070F08D010F8D8
:10020000013B013A8B422DD010F0070F42B3F6D1DB
:10021000F0B441EA012141EA014122F007047FF0F4
:1002200000070023F0E80256083C85EA010586EA4B
:10023000010685FA47F5A3FA87F586FA47F6A5FA87
:1002400087F68EB9EED1F0BC01F0FF0102F0070293
:1002500032B110F8013B013A83EA010313B1F8D13E
:100260000020704701387047002D06BF354603381F
:10027000073815F0010F07D1013015F4807F02BF58
:10028000013015F4C03F0130F0BC0138704700BFA9
:10029000034613F8012B002AFBD1181A01387047C6
:1002A00053B94AB9002908BF00281CBF4FF0FF31DD
:1002B0004FF0FF3000F074B9ADF1080C6DE904CED9
:1002C00000F006F8DDF804E0DDE9022304B0704731
:1002D0002DE9F047089D04468E46002B4DD18A42F9
:1002E000944669D9B2FA82F252B101FA02F3C2F12C
:1002F000200120FA01F10CFA02FC41EA030E9440BD
:100300004FEA1C48210CBEFBF8F61FFA8CF708FBDD
:1003100016E341EA034306FB07F199420AD91CEBB5
:10032000030306F1FF3080F01F81994240F21C81E7
:10033000023E63445B1AA4B2B3FBF8F008FB10332F
:1003400044EA034400FB07F7A7420AD91CEB040464
:1003500000F1FF3380F00A81A74240F20781644434
:10036000023840EA0640E41B00261DB1D4400023B9
:10037000C5E900433146BDE8F0878B4209D9002D1D
:1003800000F0EF800026C5E9000130463146BDE8A7
:10039000F087B3FA83F6002E4AD18B4202D3824211
:1003A00000F2F980841A61EB030301209E46002DC0
:1003B000E0D0C5E9004EDDE702B9FFDEB2FA82F215
:1003C000002A40F09280A1EB0C014FEA1C471FFA73
:1003D0008CFE0126200CB1FBF7F307FB131140EA5A
:1003E00001410EFB03F0884208D91CEB010103F127
:1003F000FF3802D2884200F2CB804346091AA4B2E9
:10040000B1FBF7F007FB101144EA01440EFB00FEBC
:10041000A64508D91CEB040400F1FF3102D2A64521
:1004200000F2BB800846A4EB0E0440EA03409CE7C0
:10043000C6F12007B34022FA07FC4CEA030C20FA6D
:1004400007F401FA06F31C43F9404FEA1C4900FA8D
:1004500006F3B1FBF9F8200C1FFA8CFE09FB18110A
:1004600040EA014108FB0EF0884202FA06F20BD97D
:100470001CEB010108F1FF3A80F08880884240F2CD
:100480008580A8F102086144091AA4B2B1FBF9F011
:1004900009FB101144EA014100FB0EFE8E4508D90C
:1004A0001CEB010100F1FF346CD28E456AD9023891
:1004B000614440EA0840A0FB0294A1EB0E01A14276
:1004C000C846A64656D353D05DB1B3EB080261EBE4
:1004D0000E0101FA07F722FA06F3F1401F43C5E9BE
:1004E000007100263146BDE8F087C2F12003D840F4
:1004F0000CFA02FC21FA03F3914001434FEA1C4736
:100500001FFA8CFEB3FBF7F007FB10360B0C43EA27
:10051000064300FB0EF69E4204FA02F408D91CEBD7
:10052000030300F1FF382FD29E422DD902386344D5
:100530009B1B89B2B3FBF7F607FB163341EA034175
:1005400006FB0EF38B4208D91CEB010106F1FF38C4
:1005500016D28B4214D9023E6144C91A46EA0046BB
:1005600038E72E46284605E70646E3E61846F8E64D
:100570004B45A9D2B9EB020864EB0C0E0138A3E796
:100580004646EAE7204694E74046D1E7D0467BE777
:10059000023B614432E7304609E76444023842E7EF
:1005A000704700BFDFF834D0002103E00C4B5B58EC
:1005B000435004310B480C4B42189A42F6D30B4A75
:1005C00002E0002342F8043B094B9A42F9D305F0BC
:1005D000ABFB1EF01DFD00F023FF70470000032061
:1005E000400E1208000000206C0100206C01002069
:1005F00068480120FEE7704708B500F0B5FCBDE88B
:10060000084000F03DBC00F0B1BC704710B50421BB
:1006100004461EF0E3FB204610BD000038B50C4B2D
:100620000C4C18800C4B822019806368984740F668
:10063000110398420AD1094D23682C608220984703
:100640002B688220DB689847002038BD0120FCE73A
:10065000880100204C0000208A0100208C0100202D
:100660004FF4A071F020FFF7D9BF0000F7B5344D6B
:100670002B6804461B698220984780B2208000289E
:100680004CD02B680DF106025B6901A982209847C6
:10069000BDF8063040F67462934241D9ADF80620A9
:1006A000BDF80620C2F56762043292B20A2A3DD92B
:1006B0000B23B2FBF3F2234B1B889A4201D9013B77
:1006C0009AB2BDF8043040F6B8318B4230D8C3F549
:1006D00071630E339BB20F21B3FBF1F31A49098802
:1006E0008B4201D94B1E9BB2184E194D30682F68B2
:1006F000834281B28CBF591AC91AB8B2BA428CBFB0
:10070000101A801A89B280B201440529C8BF33602B
:100710003368C8BF2A6063802B68A38003B0F0BD34
:10072000B32B9CBFB423ADF80630B9E70022C8E76D
:10073000C3F56D6308339BB20E2BCCD80023D3E7EF
:100740008C0100208A0100208801002090010020F7
:100750009401002037B568460D461446FFF786FF22
:10076000BDF8000030B1BDF802302B60BDF8043098
:100770002360012003B030BD704770477047704759
:10078000012380F8781080F8793070470020704796
:10079000034B4164003918BF01211970704700BF35
:1007A0006F3D012000207047836B0BB1084618474E
:1007B00070474FF6FF707047406803689B691847A1
:1007C000704770477047000070B5044600F09CFC0D
:1007D0002368D3F88850044BD4E90F122046AC4666
:1007E000BDE87040604700BF000000D008B5036856
:1007F0000446D3F880309847236820469B6F98477B
:1008000000F0ECF8236820461B6F9847292001F080
:10081000B5F800F0E3F8236820461B6F9847F8E727
:1008200010B504460BF0F2F823682046D3F8AC303C
:10083000BDE81040184700F059BC00F05DBC00F066
:1008400081BC00F02FBC00F089BC00F091BC00F02E
:1008500033BC0AF047BB10B57C2104461EF0BEFA3B
:10086000204610BD90F87A301BB1406803681B68C1
:10087000184718467047000010B590F8341090F8EB
:1008800078400C4B8C421A7809D03AB90A4A0B4985
:100890001488088810800C8001221A7010BD002A6C
:1008A000FCD0054A05491488088810800C80002275
:1008B000F3E700BF683D0120643D0120663D012053
:1008C00070B50D46194635B9094B0A4A0A4840F237
:1008D000D2211EF053FBC0E90F52084B003A18BF5B
:1008E00001221A700368BDE87040D3F88C301847B5
:1008F000A0020208D8020208260302086E3D012069
:1009000008B5094B1B888B4203D8084B1B889342C0
:1009100005D9074B074A08489E211EF02FFB074BBD
:100920001980074B1A8008BD643D0120663D0120F7
:100930006B030208CE030208260302086A3D012069
:100940006C3D0120012108B50022084607F06BFF2D
:100950000A4B186028B90A4B0A4A28210A481EF097
:100960000DFB00220421012008F003F8074B18605A
:1009700018B9074B034A2C21F0E708BD9C01002061
:10098000EC040208350502086405020898010020FD
:10099000AC050208024B4FF0FF31186807F08DBF1D
:1009A0009C010020014B186807F0B2BF9C01002099
:1009B000024B0021186807F080BF00BF9C01002097
:1009C000FFF7F0BF03480449006800231A4608F007
:1009D0000BB800BF980100200400002013B5084C9C
:1009E00000231A4601A9206808F02EF820684FF06D
:1009F000FF33002201A908F027F802B010BD00BFA4
:100A00009801002003685B6C184701207047036859
:100A10009B6A184782B0002301930D4B1A6B42F476
:100A200000021A631A6B02F400020192019A1A6919
:100A300042F400021A611A6922F400021A61054B9D
:100A4000054A1A61054B4FF080629A6002B0704708
:100A500000380240882C0020A10A000800E100E0D4
:100A600040F2EF3070470000054B0360054B4FF03C
:100A70008062C3F88820BFF34F8FBFF36F8F70473A
:100A80004407020800E100E010B504464FF45A6143
:100A9000FFF7EAFF20461EF0A1F9204610BD000036
:100AA000024B1B68586803685B691847703D01205A
:100AB00070B5044625460A4B0C300026606026724D
:100AC000667245F8203B602229460BF0DDF804F5FC
:100AD0005A63EE602435AB42FBD1204670BD00BFA7
:100AE0004407020808B50B290BD8DFE801F012060D
:100AF000100A0A0A0A0808080808012008BD05208B
:100B0000FCE7054B054A064865211EF037FA002030
:100B1000F4E70220F2E700BFEE050208090602082A
:100B20005306020808B50A2909D8DFE801F01006C3
:100B30000E080808080606060600012008BD054B39
:100B4000054A064886211EF019FA0020F6E7022021
:100B5000F4E700BFEE0502089906020853060208F2
:100B60002DE9F8434F7F0C4639468146FFF7BAFF1F
:100B700094F81E80054641464846FFF7B3FF4146BC
:100B800006464846FFF7CEFFA18A628B424B521AB7
:100B90001A649A61228B521A1A61E28A586342EAF5
:100BA00001425A6420696268D863DA60216894F867
:100BB0001CC080294FEA0C6226D010D8202945EAB3
:100BC000020461D040295FD004295DD0324B2A4312
:100BD00042F400324745DA615AD0304A40E0B1F57C
:100BE000807F07D0B1F5007FF0D142F4003242F0AF
:100BF000090203E042F4003242F00A02DA61E268DC
:100C00001A625E6258612AE0A4682A4342F4003204
:100C1000211DD962DA6122785E62586142B1012AEF
:100C200021D01F4B1F4A20484FF488711EF0A6F9AF
:100C3000DA69618822F47F42013922F0100242EA27
:100C40000122DA610120144BDA6942F02002DA61F4
:100C5000DA699206FCD410229A600028BDD0134AAB
:100C60001A60BDE8F8836288D969541E21F47F4276
:100C700022F0100242EA0422BCF1FF0042F010020E
:100C800018BF0120DA61DEE744F40034DC61B8E724
:100C900040F20122E4E700BF00B00240010201007F
:100CA000E4060208FE0602085306020801020200DA
:100CB00070B50C46897FFFF735FFA68AE18A628B03
:100CC000154B2569586341EA0641921B5964DD635F
:100CD0001A642668E168082E0DD19A611A6158627B
:100CE000207F0E4A42EA0062DA610D4A19625D61B4
:100CF000DD601A6070BD0022D8611A6148090A0AD5
:100D000002F4784200F4FC600243C1F3C4010A43D8
:100D10009A63044AEDE700BF00B0024009000100F9
:100D200001020200010203000120704740207047C9
:100D300000EB81100830704700EB811008307047DD
:100D40000120704741F61C20704741F61C2303FB2D
:100D500001000830704741F61C2303FB01000830F6
:100D60007047012070471020704700EB01100830D9
:100D7000704700EB011008307047084601F0ECBBEB
:100D800010B5034B0360044609F001FE204610BD78
:100D9000FC07020810B50446FFF7F2FF2046482181
:100DA0001EF01CF8204610BD10B5034B036004462E
:100DB00009F0EDFD204610BDC807020810B5044635
:100DC000FFF7F2FF204641F624211EF007F82046E7
:100DD00010BD000010B5034B0360044609F0D7FDB9
:100DE000204610BD9407020810B50446FFF7F2FF35
:100DF000204618211DF0F2FF204610BDF8B500F581
:100E00008056144BD6F8A45AD6F8A87A0360044644
:100E1000AF4207D0286818B1A968091A1DF0DEFF93
:100E20000C35F5E7D6F8A40A20B1D6F8AC1A091AA1
:100E30001DF0D4FF04F5D2501030FFF7A1FF04F1EC
:100E40002C00FFF7B1FF04F11400FFF7C3FF2046A9
:100E5000F8BD00BF3008020808B50248FFF7CEFF12
:100E600008BD00BFA401002010B50446FFF7C6FF6F
:100E7000204641F60C411DF0B1FF204610BD000098
:100E80002DE9F34101F07AF9054601F07BF90024E0
:100E90000146234628462246009410F033FB264B99
:100EA000264A274D1A60204603F050FB254810F0D3
:100EB00091FA2B78BFF35B8FDB0736D428461DF001
:100EC0008FFF90B3204C214F214B236007F1600628
:100ED00004F1140004F12C086060C4F80880E76095
:100EE000266109F055FD1B4B6361404609F050FD3A
:100EF000194BE362384609F04BFD04F58053174A5D
:100F0000C3F8502A03F6982004F06EF8224607F141
:100F10004801304603F090FB304601F01DFB1048BD
:100F20001EF04AF828461DF067FF0E4802B0BDE8E3
:100F3000F041FFF749BC00BFCC3D0120D02B002081
:100F4000A001002008000020A4010020F41B0020C4
:100F50003008020894070208C8070208FC070208C4
:100F6000590E0008542B0020704700000148FFF77D
:100F70003DBC00BF542B002070B5224E224C234DA7
:100F8000234B23603046FFF793FD284614F086FD7F
:100F9000204B2148DC6000224FF48071C3E912121B
:100FA0001E491A86C3E91A121D4999671D4983F81B
:100FB00058200B60F02101801B485A6601801B48B5
:100FC00083F870204FF4A071C3E90422C3E906221C
:100FD000C3E90822C3E90A22C3E90E22C3E91022A9
:100FE000C3E91422C3E917225A67C3E901650180E6
:100FF0000F4801800F490A70012283F834200E4AFD
:101000001A6070BDB41D0020B01D0020D42B00203C
:1010100090020208542B0020643D012001000001D1
:1010200000000101703D01206A3D0120663D012064
:101030006C3D0120683D01201C0402080148FFF7B7
:1010400013BD00BFB41D0020002070478180704791
:10105000C180704701817047418170477047704778
:1010600070477047704710B4C4880368121B8488A7
:101070005B6D091B12B25DF8044B09B218474FF6BD
:10108000FF7383814FF0FF3303621368C361106005
:10109000704790F825201AB190F8242002B118600A
:1010A00070470000034B902283F85A2383F858239B
:1010B000704700BF00E100E0094A0A49D3680A48C6
:1010C000C3F30A03013B9BB20B801169C1F30A0110
:1010D000013901801364536B43F00103536370477C
:1010E000006801405A2C0020582C0020014BD3F8F6
:1010F000AC00704700680140024B0122C3F8AC10FD
:101100005A6270470068014070B5044609F03FFF1D
:1011100023685D6E0DF072F901462046A8472368EA
:10112000054AD3F888502046AC460023BDE87040FD
:10113000A2F51631604700BF00B004D009F00EBF21
:1011400009F018BF09F0D4BE0AF035B890F8252090
:1011500012B103685B69184770470000034B4FF0FA
:1011600080629A604FF080729A60704700E100E000
:10117000084B4FF08062C3F88820BFF34F8FBFF356
:101180006F8F4FF08072C3F88820BFF34F8FBFF38B
:101190006F8F704700E100E010B5144C236823B353
:1011A000134B144A1B6C11888B4213D1124B1988B4
:1011B00005F086FE226892F86A30013382F86A30C0
:1011C000FFF700FC20680AF021FCBDE81040002079
:1011D000FFF7D3BA05F074FE206803681B6A9847CE
:1011E000BDE810400020FFF7C9BA10BD703D0120D6
:1011F000006801405A2C0020582C002007B5064BEF
:10120000ADF806001B68054801220DF1060106F045
:10121000B3FB03B05DF804FB10000020F82D0020A4
:10122000F7B5504C504E0421204605F065F80128D2
:101230000FD14E4D4C2328688DF8073007F033FC52
:10124000012806D82868C82300220DF1070107F0FD
:10125000CBFB0821204605F04FF801280FD1444D63
:10126000522328688DF8073007F01DFC012806D8A6
:101270002868C82300220DF1070107F0B5FB1021F3
:10128000204605F039F801280FD13A4D552328683A
:101290008DF8073007F007FC012806D82868C82316
:1012A00000220DF1070107F09FFB2021204605F0E9
:1012B00023F801280FD1304D442328688DF80730DA
:1012C00007F0F1FB012806D82868C82300220DF199
:1012D000070107F089FB2948012105F00DF80128D5
:1012E0000FD1224D532328688DF8073007F0DBFB20
:1012F000012806D82868C82300220DF1070107F04D
:1013000073FB0421304604F0F7FF054678B91C4F03
:10131000412338688DF8073007F0C5FB012806D84F
:101320003868C8232A460DF1070107F05DFB082144
:10133000304604F0E1FF054678B9124F4223386881
:101340008DF8073007F0AFFB012806D83868C823AE
:101350002A460DF1070107F047FB642007F057FA12
:1013600061E700BF0010024000180240642C00201A
:10137000682C00206C2C0020702C00200000024003
:10138000742C0020782C002030B595B0102200215C
:101390000AA81DF0A9FE1422002103A81DF0A4FE36
:1013A00000241D4B01941A6C42F080521A641B6C8D
:1013B00003F080530193019B184B02941A6842F486
:1013C00040421A601B6803F4404302930122029BCF
:1013D0004FF48033CDE9082302254FF48003CDE993
:1013E0000E5308214FF4A873CDE9101308A8042365
:1013F0001393129505F082FD0F23CDE903354FF4C9
:10140000A0504FF48053CDE90603052103A80594AD
:1014100005F052FF15B030BD0038024000700040AA
:101420002DE980489BB004F08DFCFFF7ADFF14223E
:1014300000210DA800241DF057FEC64B00941A6B26
:10144000C548C64E42F010021A631A6B02F0100231
:101450000092009A01941A6B42F020021A631A6BF0
:1014600002F020020192019A02941A6B42F080026B
:101470001A631A6B02F080020292029A03941A6BAA
:1014800042F004021A631A6B02F004020392039AF8
:1014900004941A6B42F001021A631A6B02F0010203
:1014A0000492049A05941A6B42F002021A631A6BB2
:1014B00002F002020592059A06941A6B42F040026D
:1014C0001A631A6B02F040020692069A07941A6B8E
:1014D00042F008021A631B6B03F0080307932246CD
:1014E0000421079B04F00EFF22469D484FF4405113
:1014F000012504F007FF3C239A480F950DA94FF0F2
:1015000002084FF0040ACDE90D3404F00FFE9248B2
:101510000F940DA9CDE90DA5CDF8408004F006FE8D
:1015200091480F940DA9CDE90D5404F0FFFD4FF43F
:1015300040538B480DA9CDE90D354FF00C09CDE98D
:101540000F4404F0F3FD0DA988480F95CDE90D94E3
:1015500004F0ECFD8648874B036004F085FC864A66
:10156000864B3462C6E9002330464FF48043C6E917
:101570000434C6E90244C6E9064405F0A5F8102182
:10158000304605F0E1FA2146304605F0FCFA7C4889
:101590007C4984624FF48273C0E900134FF40076F3
:1015A0001823C0E906630A23774EC362C0E90244E8
:1015B000C0E90444C0E9084406F082F9734BCDF851
:1015C0003480C6E9003510274023C6E904734FF480
:1015D000C073C6E906344FF40063C6E908344FF41B
:1015E0000053B3624FF0030B07230DA930460827C1
:1015F000CDE90E3A1093C6E9024ACDE911B8CDF80B
:101600004C8006F05DF84FF6FF7209A93046CDE92F
:101610000A75089409950C9406F072F8284604F0AF
:10162000BDFB4FF6FF7209A93046CDE90987CDE928
:101630000B5406F065F84FF6FF7209A93046CDE964
:101640000BA4CDE909B706F05BF84FF40C730893CF
:10165000089B0C934FF6FF7209A93046CDE909A704
:101660000B9506F04DF840F26A51304606F066F8E8
:10167000342221460DEB02001DF036FD444E454B51
:10168000B486C6E900340923C6E905351D2340F2B6
:101690000D1CC6E9073B40F24313C6E909C340F2FB
:1016A000171E40F247133046C6E90BE3C6E9024471
:1016B000346186F8364005F00BFBFF21F022CDE9BE
:1016C00012144FF4806A05214FF4A073CDE90E2463
:1016D000CDE914A1CDE916420DA922463046CDE947
:1016E00010382D4E18930D94ADF864408DF8664077
:1016F00005F0B9FB294B33601B6898473368284EC7
:10170000DB689847274BC6E90A48C6E90C443046CF
:10171000C6E90034C6E9028404F00CFC29463046D0
:1017200004F0C0FC2048214B4FF4E136C0E90036FC
:10173000C0E90244C0E90449C0E9064406F064FD7A
:101740001B4B1C48C0E90036C0E90244C0E904490B
:1017500032E000BF0038024000080240C82C0020E0
:10176000000C02400010024000000240001802403D
:10177000802C002000300240005C0040A086010068
:10178000F82D002000500140C42D0020400100A091
:101790001C2D002000680140602C00201400002057
:1017A000882C002000B00240502E00200010014084
:1017B00000500040942E0020C0E9064406F024FDAD
:1017C000FEF71AFFFEF717FF06F0ACFF1D4A294689
:1017D000384607F0CEF81C4B1C4A1860294638469C
:1017E00007F0C7F81A4B1B4A18602946384607F01D
:1017F000C0F8194B194A18602946384607F0B9F85D
:10180000174B184A18602946384607F0B2F8164BAD
:10181000164A18602946384607F0ABF8144B154AAB
:1018200018602146144806F0A9FF144B144A1860AA
:101830002146144806F0A2FF134B186006F084FFFF
:10184000FEE700BFA0080208642C0020B8080208C8
:10185000682C0020D00802086C2C0020E808020840
:10186000702C002000090208742C002018090208BE
:10187000782C002030090208211200087C2C00205E
:101880007C080208070600085C2C0020704770479F
:101890007FB5094B8DF817201B6802930DF11702D5
:1018A0000123009201930A460146044804F0B4FF64
:1018B00007B05DF804FB00BF0C000020C82C00201E
:1018C0007FB500238DF81730084B1B6802930A463A
:1018D00001230DF11701009101930146044805F021
:1018E0002BF89DF8170007B05DF804FB0C000020F2
:1018F000C82C00201FB5084C24680092CDE90134A3
:101900000A4601230146054805F016F8003818BFBD
:10191000012004B010BD00BF0C000020C82C002026
:1019200004F03CBA08B506480022042104F0EAFCA1
:10193000BDE8084002480122042104F0E3BC00BFD6
:101940000008024038B50B4D044601220A484FF406
:10195000005104F0D7FC00220421284604F0D2FCF8
:101960002046FFF74BFC28460122BDE83840042101
:1019700004F0C8BC00080240000C024038B50B4D12
:10198000044600220A484FF4005104F0BBFC002238
:101990000421284604F0B6FC2046FFF72FFC284619
:1019A0000122BDE83840042104F0ACBC000802402C
:1019B000000C0240F7B5144E144F05460C46304655
:1019C0000022042104F09EFC00224FF4005138460E
:1019D00004F098FC2846FFF711FC0D4B0D481B68DE
:1019E000224601A906F06AF9384601224FF4005157
:1019F000019C04F087FC30460122042104F082FCA3
:101A0000204603B0F0BD00BF00080240000C0240B9
:101A100010000020F82D002004F0C0B90268034B2C
:101A20009A4201D104F0A8B9704700BF00100040ED
:101A30007047000082B00E4B00220092596C41F4B6
:101A400080415964596C01F48041009100990192E0
:101A5000196C41F0805119641B6C03F080530193A1
:101A6000019B0F216FF0010002B004F0BDB900BF6F
:101A7000003802400268094B9A4282B00BD1002321
:101A80000193074B1A6B42F480521A631B6B03F4E9
:101A900080530193019B02B0704700BF00300240A9
:101AA0000038024007B50F4B02689A4216D1002257
:101AB000A3F5F0430192196B41F4000119631B6B0C
:101AC00003F40003019305215A20019B04F08CF9D3
:101AD0005A2003B05DF804EB04F0B8B903B05DF828
:101AE00004FB00BF00B002402DE9F043044689B07A
:101AF0001422002103A81DF0F7FA2268244B9A4211
:101B000043D1244C244800250095236B43F0040363
:101B10002363236B03F004030093009B0195236B65
:101B200043F001032363236B03F001030193019B43
:101B30004FF012094FF400734FF0010803270426F9
:101B400003A9CDE90339CDE90587079604F0EEFA3C
:101B50004FF480731148079603A9CDE90339CDE905
:101B6000058704F0E3FA0295236C43F40003236431
:101B7000236C03F400030293029B236A43F40003E3
:101B80002362236A23F40003236209B0BDE8F083D3
:101B9000005C0040003802400008024000000240A3
:101BA000F0B599B004461422002107A81DF09CFA54
:101BB00030220DEB020000211DF096FA22685E4BE8
:101BC0009A4240F0B78008230C93C023109304235B
:101BD00012930CA84FF40033159305F047FC08B19D
:101BE000FFF726FF554B5648002400945A6C42F0EC
:101BF00080625A645A6C02F080620092009A0194EA
:101C00001A6B42F020021A631A6B02F02002019252
:101C1000019A02941A6B42F001021A631A6B02F0E5
:101C200001020292029A03941A6B42F002021A63B2
:101C30001A6B02F002020392039A04941A6B42F0A8
:101C400040021A631A6B02F040020492049A05944F
:101C50001A6B42F004021A631A6B02F00402059236
:101C6000059A06941A6B42F008021A631B6B03F084
:101C70000803069302250E26069B0B964FF48063FD
:101C800007A9CDE90735CDE9094504F04FFA41F63A
:101C900058032C480B9607A9CDE907350927CDE94C
:101CA000094504F043FA032327480B9707A9CDE918
:101CB0000735CDE9094504F039FA4FF4706322483D
:101CC0000B9607A9CDE90735CDE9094504F02EFAB1
:101CD0004FF40C631D480B9607A9CDE90735CDE9F4
:101CE000094504F023FAC02319480B9607A9CDE94A
:101CF0000735CDE9094504F019FA082315480B9674
:101D000007A9CDE90735CDE9094504F00FFA4FF4ED
:101D1000A0530E480B9707A9CDE90735CDE9094532
:101D200004F004FA58202246052104F05DF85820FA
:101D300004F08CF819B0F0BD006801400038024092
:101D4000001402400000024000040240001802405B
:101D500000080240000C024010B5044688B014226E
:101D6000002103A81DF0C0F92268144B9A4223D128
:101D700003F56843002101915A6C114842F4801226
:101D80005A645A6C02F480120192019A02911A6B01
:101D900042F020021A631B6B03F020030293029BA4
:101DA0004FF4607202230321CDE903230523CDE91B
:101DB000061303A904F0BAF908B010BD00500140A1
:101DC00000140240F0B514228BB0044600210DEB44
:101DD00002001DF089F92368384A934240D1384BFC
:101DE0003848002400941A6C42F480121A641A6C69
:101DF00002F480120092009A01941A6B42F00402DD
:101E00001A631A6B02F004020192019A02941A6B8F
:101E100042F008021A631B6B03F008030293029B53
:101E200002274FF480530326082505A9CDE905377D
:101E3000CDE9086504F07AF904232348099505A93A
:101E4000CDE90537CDE9074604F070F93520224683
:101E5000052103F0C9FF352003F0F8FF0BB0F0BDFA
:101E60001A4A9342FAD1164B1948002403945A6C2B
:101E700042F010025A645A6C02F010020392039A64
:101E800004941A6B42F001021A631B6B03F0010306
:101E900004934FF4C062049B0223CDE90523032180
:101EA0000723CDE9081305A904F040F925202246AF
:101EB000052103F099FF2520CEE700BF0050004028
:101EC0000038024000080240000C024000100140AF
:101ED000000002402DE9F04186B0002303932B4B14
:101EE0001C68002C4FD14FF00108C3F80080284B2C
:101EF00000949A6B274842EA08029A639B6B03EAB4
:101F000008030093022703260C25009B01A94FF626
:101F10003F03CDE90137CDE9046504F007F91E4818
:101F2000059501A9CDE90187CDE9034604F0FEF846
:101F300048F233131948059501A9CDE90137CDE9D8
:101F4000034604F0F3F84FF683731548059501A98D
:101F5000CDE90137CDE9034604F0E8F84CF203730C
:101F60001048059501A9CDE90137CDE9034604F0F4
:101F7000DDF860230C48059501A9CDE90137CDE9CD
:101F8000034604F0D3F806B0BDE8F081D82E002057
:101F900000380240001402400008024000180240CD
:101FA00000100240000C02400004024070B588B0EE
:101FB00000230293204B1A6C42F010021A641B6C2F
:101FC00003F010030293054601A903A8029B05F044
:101FD0002FFA069B4BBB05F00BFA184E184B3360DB
:101FE00040F2E733F360174BB0FBF3F3013B736050
:101FF000304600233361B360B36106F04BF804460A
:1020000080B9304605F000FF044658B9362003F089
:102010001DFF0F2D0DD822462946362003F0E4FE81
:10202000094B1D60204608B070BD05F0E1F9400085
:10203000D3E70124F6E700BF00380240DC2E002081
:102040000010004040420F007C0000207047FEE777
:10205000FEE7FEE7FEE77047014806F065B900BFFE
:10206000502E0020014806F05FB900BF942E0020DA
:10207000014805F007BF00BFDC2E0020014804F036
:1020800095BE00BF1C2D0020014803F081BF00BF9A
:10209000882C00200120704708B51CF0A1FF1623F2
:1020A00003604FF0FF3008BD08B51CF099FF162300
:1020B0000360FEE770B50D4614460E46731B9C4246
:1020C00001DC204670BDAFF3008006F8010BF5E798
:1020D00070B50D4614460E46731B9C4201DC20462B
:1020E00070BD16F8010BAFF30080F5E74FF0FF303D
:1020F00070474FF400534B60002070470120704739
:10210000002070470A4A116808B5034609B9094911
:1021100011601068694603448B4206D91CF060FFC9
:102120000C2303604FF0FF3008BD1360FCE700BFD5
:10213000242F002068480120704710B50421044670
:102140001CF04CFE204610BD08B5032913D8DFE86B
:1021500001F002060A0E02F045FA006808BD02F01E
:1021600041FA4068FAE702F03DFA8068F6E702F0CB
:1021700039FAC068F2E70020F0E700000048704735
:10218000680902080F20704713B5002451B1036895
:1021900001948DF8034001AA9C680DF10303A04748
:1021A00002B010BD0846FBE7C0897047008A70473F
:1021B000C088704780887047807A00F07F00704741
:1021C000807AC0097047704710B5082104461CF09A
:1021D00005FE204610BD7047704700F598730868EB
:1021E000496803C370477047704741607047704744
:1021F000064BC0F84C310023C0F8503100F5A273F3
:10220000C0F84801C0F84031704700BF9123000872
:1022100001230372704770477047704710B4C2685B
:1022200041685410034601EB6200D20748BF0A59C7
:102230009B685DF8044B48BFD358184743682BB1DF
:1022400083682BB9C06800F00100704718467047DA
:102250000120704710B50C2104461CF0BFFD20463C
:1022600010BD10B5102104461CF0B8FD204610BD6D
:1022700010B54FF4AE7104461CF0B0FD204610BD01
:1022800010B5402104461CF0A9FD204610BD10B534
:102290000CF0B4F80368BDE81040DB6B1847000091
:1022A000054B1B7801462BB1406818B103680C310F
:1022B0005B6E1847704700BF6F3D0120037A70B511
:1022C0000546BBB940680368DB69984704464CB1D2
:1022D000A1886B8FC91A236820461B6B09B29847E7
:1022E000A469F4E76868036805F10C011B6EBDE89A
:1022F0007040184770BD70B5044690F8390094F8E6
:1023000038300130C0B2984284F8390005D9012331
:102310002372002384F8393070BDB4F93A200021CB
:102320000DF05EFD10F0010283B206D04FF6FF7192
:102330000028D8BF0A46981800B2238AC01AA0877E
:1023400060680368DB69984705464DB1A988A38F8B
:1023500019442B6828461B6B09B29847AD69F4E70E
:1023600060680368BDE870405B69184710B50446B3
:10237000D0F8400158B10368DB68984738B1D4F809
:10238000400103689B6898470023C4F8403110BDA2
:102390002DE9F14FD0E9555A0746A86803681B6A32
:1023A0009847B0F5C87F05D2454B464AA321464819
:1023B0001CF0E4FD686803681B6A98470F2803D87F
:1023C000424B404AA421F2E7E86803681B6A984739
:1023D0000B2803D83E4B3B4AA521E8E70CF00EF84A
:1023E000DFF8F49004300CF02EF8D9F8000010B1AA
:1023F0000368DB689847D9F8000010B103681B68D0
:102400009847DFF8D880D8F8000010B103685B69FE
:102410009847D7F83C0110B103685B689847D8F833
:10242000000010B103681B689847D7F83C0110B151
:1024300003689B689847E868036800215B6A9847CF
:102440004FF0000B234B03600446C0F804B080F843
:1024500008B0A868036859465B6A9847064602F0C8
:1024600095FD6868036859465B6A9847314605469A
:1024700002F066FDC9F80040C7F83C51C8F800609A
:10248000E5B12B1DCAF800303368C5F808A0304606
:10249000DB68F56398472B6828461B6898472146F8
:1024A00030460DF097FC236820461B699847236847
:1024B0005B69204601B0BDE8F04F18472B46E1E7C5
:1024C000A40A0208320B02083C0C0208830C020822
:1024D000260D020880100208B03D0120AC3D01200D
:1024E000044B1B6893F858200AB1D86C00B998685F
:1024F000704700BF703D0120F8B5044617460E46F0
:102500000CF03EF8104B1C60104B2360104B002564
:10251000C4E951350F4BC4E95355186803680121CC
:102520009B68C4E94F55C4E955769847284602F0A0
:102530000DF8FFF7D5FF15F0E0F8FFF7D1FF15F024
:1025400057F92046F8BD00BFBC3D01202C10020801
:1025500014100208703D0120064BC0F84C310023D6
:10256000C0F8503100F5A273C0F84801C0F84031FE
:10257000704700BF91230008064BC0F84C31002380
:10258000C0F8503100F5A273C0F84801C0F84031DE
:10259000704700BF71270008064BC0F84C3100237C
:1025A000C0F8503100F5A273C0F84801C0F84031BE
:1025B000704700BF2D2600082DE9F0410546002692
:1025C000164B4660067245F80C3B044628460F46FB
:1025D00009F0F6FB124B84F838701B7884F83960E8
:1025E000A68723B9012323722046BDE8F0810D4B55
:1025F0000D4FB3F90080E368B7F900109B6B2661BB
:1026000028469847E3684146DB6B284698472846AA
:1026100009F051FB3B885B426387E5E7A4100208A1
:102620006F3D0120663D0120643D01202DE9F0470A
:10263000D0E9554A0746A06803681B6A984741F6E7
:102640001B23984205D8434B434AA32143481CF01F
:1026500095FC606803681B6A98470F2803D8404BB5
:102660003D4AA421F2E7E06803681B6A98473F28C7
:1026700003D83C4B384AA521E8E70BF0BFFEDFF852
:10268000E89004300BF0DFFED9F8000010B10368C9
:10269000DB689847D9F8000010B103681B689847B9
:1026A000DFF8C880D8F8000010B103685B6998476C
:1026B000D7F83C0110B103685B689847D8F8000070
:1026C00010B103681B689847D7F83C0110B1036844
:1026D0009B689847E068036800215B6A984714216B
:1026E0000546FFF769FFA068036800215B6A984709
:1026F000064602F077FD6068036800215B6A984730
:102700003146044602F092FCC9F80050C7F83C413B
:10271000C8F80060DCB1231DCAF800303368C4F883
:1027200008A03046DB68F4639847236820461B689E
:102730009847294630460DF04DFB2B6828461B690B
:1027400098472B6828465B69BDE8F0471847234641
:10275000E2E700BFA40A0208C90D02083C0C020807
:10276000830C0208260D0208B03D0120AC3D01207B
:102770002DE9F047D0E9554A0746A06803681B6A6F
:10278000984740F2F373984205D8434B434AA3213C
:1027900043481CF0F3FB606803681B6A98470F28E6
:1027A00003D8404B3D4AA421F2E7E06803681B6A66
:1027B00098473F2803D83C4B384AA521E8E70BF05F
:1027C0001DFEDFF8E89004300BF03DFED9F8000064
:1027D00010B10368DB689847D9F8000010B10368AE
:1027E0001B689847DFF8C880D8F8000010B103686C
:1027F0005B699847D7F83C0110B103685B6898475C
:10280000D8F8000010B103681B689847D7F83C015E
:1028100010B103689B689847E068036800215B6A11
:10282000984714210546FFF7C7FEA06803680021FA
:102830005B6A9847064601F0CDFF60680368002197
:102840005B6A98473146044601F00EFFC9F8005014
:10285000C7F83C41C8F80060DCB1231DCAF800305D
:102860003368C4F808A03046DB68F46398472368EF
:1028700020461B689847294630460DF0ABFA2B6876
:1028800028461B6998472B6828465B69BDE8F047D6
:1028900018472346E2E700BFA40A0208EE0E02082A
:1028A0003C0C0208830C0208260D0208B03D0120F2
:1028B000AC3D01207047704770477047704730B596
:1028C0000368018185B06D460146D3F88430044623
:1028D0002846984795E807003C3484E8070005B08F
:1028E00030BD30B50368418185B06D460146D3F8EF
:1028F000843004462846984795E807003C3484E82D
:10290000070005B030BD0022028042808280C28074
:10291000704780F83610704770B5036804461B6B2B
:10292000154698472368294620465B6EBDE87040EF
:1029300018470020704700224FF0FF31C0E9002106
:1029400082607047806C704770477047704710B561
:102950004C2104461CF042FA204610BD10B54FF43D
:10296000FA6104461CF03AFA204610BD08B5FEF79D
:10297000EDFB08BD036870B55E6B124B1B68044627
:102980008DB22BB9104B114A6C2111481CF0F6FA8C
:102990001049828D0988914203D80F4B0B4A6D2153
:1029A000F3E713F812200D4B1B6853F8220003685D
:1029B0001B6B9847281A01B233462046BDE8704089
:1029C000184700BFC03D0120C010020802110208D4
:1029D0003D110208C43D012084110208C83D0120B8
:1029E000074A02600022C0E90122C0E90322C0E9CF
:1029F0000522C0E907224FF480728284704700BF2D
:102A0000B81A020870B5036804461B6B1546984750
:102A10002368294620465B6BBDE87040184770B5B7
:102A200004461D46BDF91060FFF7ECFF23682946F8
:102A300020469B6B9847236831462046DB6BBDE8F8
:102A40007040184710B50446FFF7CAFF024B2360D9
:102A50000023A362204610BD7817020810B5262275
:102A6000044600211CF040FB2046FFF7B9FF044B51
:102A70002360FF2384F826300023A362204610BD84
:102A80001C1902082DE9F04F2DED108B054699B069
:102A9000AA4600240CF0F2FFDE4BEC634AF8403B00
:102AA0005046FFF7DBFF05F16C0305F19809184666
:102AB0004FF6FF7605F1C4071593FFF7CFFF16A970
:102AC0004846ADF8586009F0E5F93846FFF7BAFF17
:102AD00005F1F00316A918460AEE103AADF8586051
:102AE00009F0D8F905F58E7316A918460AEE903A42
:102AF000ADF8586009F0CEF905F5A47305F5BA7B79
:102B000016A918460BEE103AADF8586009F0C2F954
:102B10005846FFF797FF05F5D07316A918460BEE38
:102B2000903AADF8586009F0B5F905F5E67316A9C5
:102B300018460CEE103AADF8586009F0ABF905F5FF
:102B4000FC7316A918460CEE903AADF8586009F0DF
:102B5000A1F905F5097305F5147816A918460DEEC7
:102B6000103AADF8586009F095F94046FFF76AFF52
:102B700005F51F7316A918460DEE903AADF858608A
:102B800009F088F905F52A7316A918460EEE103AD1
:102B9000ADF8586009F07EF905F5357316A91846A9
:102BA0000EEE903AADF8586009F074F905F54073EF
:102BB00016A918460FEE103AADF8586009F06AF9F8
:102BC00005F54B7316A918460FEE903AADF858600C
:102BD00009F060F905F5567318460293FFF732FFC6
:102BE00005F5617316A918460393ADF8586009F00E
:102BF00051F905F56C7316A918460493ADF85860A1
:102C000009F048F905F57773184609EE103AFFF711
:102C100019FF05F5816316A918460593ADF85860AC
:102C200009F038F905F2344316A918460693ADF8B1
:102C3000586009F02FF905F58C6316A9184607931B
:102C4000ADF8586009F026F905F28C43184608EEF5
:102C5000903AFFF7F7FE05F5976316A91846089313
:102C6000ADF8586009F016F905F2E44316A91846C4
:102C70000993ADF8586009F00DF905F5A26316A99E
:102C800018460A93ADF8586009F004F905F23C5370
:102C900016A918460B93ADF8586009F0FBF805F536
:102CA000AD63184608EE103AFFF7CCFE05F29453D8
:102CB00016A918460C93ADF8586009F0EBF805F525
:102CC000B86316A918460D93ADF8586009F0E2F8FC
:102CD00005F2EC5316A918460E93ADF8586009F0AA
:102CE000D9F805F5C36316A918460F93ADF85860D7
:102CF00009F0D0F805F2446316A918461093ADF810
:102D0000586009F0C7F805F5CE6318461193FFF730
:102D100099FE05F29C6316A918461293ADF8586007
:102D200009F0B8F805F5D96316A918461393ADF85C
:102D3000586009F0AFF805F2F46309EE903A2622E4
:102D4000214618461CF0D0F919EE900AFFF748FE0C
:102D5000314BC5F81C374FF47F03C5F828372F4B8C
:102D6000C5F8F4364FF0FF33C5F8343705F5E8639E
:102D70001493A5F820674FF0FF3316A91498C5F8EF
:102D80002447A5F82C47C5F83047C5F83847C5F89B
:102D90003C47ADF8583009F07DF84FF4A073224657
:102DA000504600932146F0232E1DFFF738FE4FF0CA
:102DB0007F435146AB66304607F0FEFD4FF4A073EB
:102DC0002246159800932146F023FFF728FE4FF086
:102DD000FF331599C5F89430304607F0EDFD022316
:102DE000484616A9ADF8583009F0B7FCE623009321
:102DF000532248460521FFF712FE4846214609F0B6
:102E000004F84946304607F0D7FD44236FF04302EB
:102E1000384605E0981202089C0A020808120208C7
:102E200000936FF0210117234FF017094FF0040AA8
:102E3000FFF7F5FD1AEE100A16A9ADF858A009F033
:102E40008CFC4B4616221AEE100A2146CDF8009053
:102E5000FFF7E5FD1AEE100A214608F0D6FF3846C6
:102E60001AEE101A07F0A8FD1AEE900A16A9ADF88E
:102E700058A009F072FC4B4622461AEE900A2146F1
:102E8000CDF80090FFF7CBFD1AEE900A214608F02E
:102E9000BCFF38461AEE901A07F08EFD1BEE100AA2
:102EA00016A9ADF858A009F058FC4B462C221BEE91
:102EB000100A2146CDF80090FFF7B1FD1BEE100A75
:102EC000214608F0A2FF38461BEE101A07F074FDE9
:102ED0003946304607F070FD5A236FF05B025846C2
:102EE00000936FF066014B46FFF799FD1BEE900AC9
:102EF00016A9ADF858A009F030FC4B4616221BEE7F
:102F0000900A2146CDF80090FFF789FD1BEE900A4C
:102F1000214608F07AFF58461BEE901A07F04CFD48
:102F20001CEE100A16A9ADF858A009F016FC4B4685
:102F300022461CEE100A2146CDF80090FFF76FFDE7
:102F40001CEE100A214608F060FF58461CEE101ACD
:102F500007F032FD1CEE900A16A9ADF858A009F052
:102F6000FCFB4B462C221CEE900A2146CDF800902B
:102F7000FFF755FD1CEE900A214608F046FF584623
:102F80001CEE901A07F018FD19271DEE100A16A95D
:102F9000ADF858A009F0E1FB4B4643221DEE100AA4
:102FA00000972146FFF73BFD1DEE100A214608F071
:102FB0002CFF58461DEE101A07F0FEFC594630460D
:102FC00007F0FAFC71236FF07202404600936FF035
:102FD00086014B46FFF723FD1DEE900A16A9ADF8BA
:102FE00058A009F0BAFB4B4616221DEE900A214666
:102FF000CDF80090FFF713FD1DEE900A214608F072
:1030000004FF40461DEE901A07F0D6FC1EEE100A93
:1030100016A9ADF858A009F0A0FB4B4622461EEEBB
:10302000100A2146CDF80090FFF7F9FC1EEE100AB9
:10303000214608F0EAFE40461EEE101A07F0BCFCDE
:103040001EEE900A16A9ADF858A009F086FB4B4673
:103050002C221EEE900A2146CDF80090FFF7DFFCEF
:103060001EEE900A214608F0D0FE40461EEE901A51
:1030700007F0A2FC1FEE100A16A9ADF858A009F03F
:103080006CFB4B4643221FEE100A00972146FFF7C8
:10309000C6FC1FEE100A214608F0B7FE40461FEEA0
:1030A000101A07F089FC1FEE900A16A9ADF858A077
:1030B00009F053FB4B465A221FEE900A0097214617
:1030C000FFF7ADFC1FEE900A214608F09EFE404639
:1030D0001FEE901A07F070FC414630464FF02C0866
:1030E00007F06AFC4B466FF02D020298CDF8008085
:1030F0006FF04301FFF793FC0398ADF858A016A9B1
:1031000009F02BFB4B4622460398CDF80090214650
:10311000FFF785FC0398214608F077FEDDE9020100
:1031200007F04AFC0498ADF858A016A909F015FB61
:103130004B4616220498CDF800902146FFF76FFC0D
:103140000498214608F061FE0499029807F034FCC7
:103150000299304607F030FC4423482219EE100A49
:103160006FF04E01CDF800904FF0050BFFF757FCC4
:103170000598ADF858B016A909F0EFFA4B4622466B
:103180000598CDF800904146FFF749FC0598214687
:1031900008F03BFE059919EE100A07F00DFC0698A1
:1031A000ADF858B016A909F0D8FA4B462246069851
:1031B000CDF800901621FFF732FC0698214608F062
:1031C00024FE069919EE100A07F0F6FB0798ADF8F1
:1031D00058B016A909F0C1FA4B4622460798CDF817
:1031E00000902146FFF71BFC0798214608F00DFED2
:1031F000079919EE100A07F0DFFB19EE101A304696
:1032000007F0DAFB5A236F2218EE900A6FF065017F
:10321000CDF80090FFF703FC0898ADF858B016A958
:1032200009F09BFA4B4622460898CDF8009041469B
:10323000FFF7F5FB0898214608F0E7FD089918EE1E
:10324000900A07F0B9FB0998ADF858B016A909F033
:1032500084FA3B4622460998CDF800904221FFF7B8
:10326000DEFB0998214608F0D0FD099918EE900A76
:1032700007F0A2FB0A98ADF858B016A909F06DFA4C
:103280004B4622460A98CDF800901621FFF7C7FB5F
:103290000A98214608F0B9FD0A9918EE900A07F03D
:1032A0008BFB0B98ADF858B016A909F056FA4B46AF
:1032B00022460B98CDF800902146FFF7B0FB0B9803
:1032C000214608F0A2FD0B9918EE900A07F074FB56
:1032D00018EE901A304607F06FFB7123952218EE16
:1032E000100A6FF07A01CDF80090FFF798FB0C9868
:1032F000ADF858B016A909F030FA4B4622460C98A2
:10330000CDF800904146FFF78AFB0C98214608F063
:103310007CFD0C9918EE100A07F04EFB0D98ADF8E5
:1033200058B016A909F019FA3B4622460D98CDF877
:1033300000904221FFF773FB0D98214608F065FDD0
:103340000D9918EE100A07F037FB0E98ADF858B03B
:1033500016A909F002FA3B4622460E98CDF80090D5
:103360005A21FFF75CFB0E98214608F04EFD0E999E
:1033700018EE100A07F020FB0F98ADF858B016A908
:1033800009F0EBF94B4622460F98CDF80090162134
:10339000FFF745FB0F98214608F037FD0F9918EE0F
:1033A000100A07F009FB1098ADF858B016A909F0FB
:1033B000D4F94B4622461098CDF800902146FFF7ED
:1033C0002EFB1098214608F020FD109918EE100AE7
:1033D00007F0F2FA18EE101A304607F0EDFA4346FD
:1033E00053221198CDF800900621FFF718FB129890
:1033F000ADF858B016A909F0B0F94B46224612981C
:10340000CDF800901621FFF70AFB1298214608F02C
:10341000FCFCDDE9110107F0CFFA1398ADF858B0C4
:1034200016A909F09AF94B4622461398CDF8009058
:103430002146FFF7F4FA1398214608F0E6FC1399A9
:10344000119807F0B9FA1199304607F0B5FA19EE5C
:10345000900A36220621FFF7D5FA2E4BC5F82437FD
:103460004FF0FF33C5F834372B4BA5F828471B68BE
:10347000C5F83047C5F8384705F26C772BB9274BAC
:10348000274A602127481BF079FD274B1B88032B17
:1034900003D8264B224A6121F4E7254B0321186803
:1034A00001F090F8234A0346322138460DF084FF9C
:1034B00019EE900AC5F83C7708F0A0FF1E4B169352
:1034C00019EE900A16A9ADF85CA008F0B7FF19EE46
:1034D000901A304607F070FA14980E2316A9ADF82A
:1034E000583009F03AF90622202311461498009327
:1034F000E523FFF794FA1498214608F086FC30463D
:10350000149907F059FA284619B0BDEC108BBDE8A4
:10351000F08F00BFA83414FFC03D0120C010020886
:10352000C21102083D110208C43D012084110208A5
:10353000CC3D0120FA1102089C0A0208406A70473B
:10354000806A704770478B88C0690A68DB0A50F848
:1035500023001044704710B5C2B1137BB3B1547B44
:10356000D27A240204F4E0641443026A98B202EBB3
:10357000840213888B4202D192F9020010BD05D853
:10358000013880B204320028F3D1F7E70020F5E7D4
:1035900010B52C2104461BF021FC204610BD000074
:1035A00030B58BB00446BDF860500895BDF85C504E
:1035B00007959DF8505006959DF84C5005959DF83F
:1035C000485004959DF8445003959DF8405002954D
:1035D0009DF83C500195BDF8385000950CF032F83C
:1035E000064B2360159BE361169B2362199B636264
:1035F0001A9BA36220460BB030BD00BFCC1202085C
:103600007047704710B54FF4C87104461BF0E6FBD5
:10361000204610BD002310B5C0E90133C0E90333D3
:10362000C0E90733C0E905334FF480738384064B48
:1036300003600B88C384FF23044680F8283009F018
:103640008CF8204610BD00BF841902081A4B73B5D0
:103650001B88018F8B4206462AD9184B1B682BB951
:10366000174B184A18486C211BF088FC13F81120DE
:10367000164B1B6853F82250154B186800F0A2FF38
:103680002B6801909B6B284698472B6801999B6C8F
:103690000446284698472B6801995B6A14FB00F49E
:1036A00028469847A4B20444A6F8464002B070BD2C
:1036B0000023A0F84630F9E7C43D0120C03D0120B9
:1036C000C0100208021102083D110208C83D012085
:1036D000CC3D01202DE9F04F2DED028B044685B045
:1036E000A0460CF0CBF90027604BE76348F8403B5D
:1036F0004046FFF7B3F904F16C03184604F1980B48
:1037000008EE903A4FF6FF75FFF7A8F904F1C40AE6
:1037100003A9584604F1F009ADF80C50FFF77AFF01
:1037200003A95046ADF80C50FFF774FF03A94846B3
:10373000ADF80C50FFF76EFF04F58E7304F5A47618
:1037400003A9184608EE103AADF80C50FFF762FFD7
:10375000304609F039F94FF4A0733A4600933946E0
:103760004046F023251DFFF75AF94FF07F43A3662B
:103770004146284607F020F94FF4A0733A4618EE68
:10378000900A00933946F023FFF749F94FF07F4341
:10379000C4F8943018EE901A284607F00DF930223C
:1037A00058460A21FFF72EF9012303A95846ADF820
:1037B0000C3008F0D2FF5946284607F0FDF80E22DB
:1037C0005046B621FFF71EF90B2303A95046ADF86A
:1037D0000C3008F0C2FF5146284607F0EDF864228D
:1037E00048465421FFF70EF90C230DEB0301484620
:1037F000ADF80C3008F0B1FF4946284607F0DCF878
:10380000892218EE100A0921FFF7FCF80D2318EEA3
:10381000100A03A9ADF80C3008F09FFF18EE101A3B
:10382000284607F0C9F83046D0222121FFF7EAF8F0
:1038300003AA02A93046ADF80870ADF80C7008F084
:103840005AFE0523A4F880313046FFF7FFFE4FF003
:10385000FF332846C4E96133314607F0ADF820460E
:1038600005B0BDEC028BBDE8F08F00BF2C13020841
:103870007047704710B540F24C7104461BF0AEFA29
:10388000204610BD2DE9F04F2DED108B054699B067
:10389000AA4600240CF0F2F8DF4BEC634AF8403BF8
:1038A0005046FFF7DBF805F16C0305F1980918465F
:1038B0004FF6FF761593FFF7D1F817A94846ADF8F4
:1038C0005C6008F0E7FA05F1C403184609EE903A87
:1038D000FFF7B8F805F1F00317A918460AEE103AF9
:1038E000ADF85C6008F0D6FA05F58E7305F5A4779F
:1038F00017A918460AEE903AADF85C6008F0CAFACB
:103900003846FFF79FF805F5BA7317A918460BEE6E
:10391000103AADF85C6008F0BDFA05F5D07317A950
:1039200018460BEE903AADF85C6008F0B3FA05F576
:10393000E67317A918460CEE103AADF85C6008F073
:10394000A9FA05F5FC7317A918460CEE903AADF8E4
:103950005C6008F09FFA05F5097305F5147817A95E
:1039600018460DEE103AADF85C6008F093FA404648
:10397000FFF768F805F51F7317A918460DEE903A82
:10398000ADF85C6008F086FA05F52A7317A91846A9
:103990000EEE103AADF85C6008F07CFA05F5357370
:1039A00017A918460EEE903AADF85C6008F072FA6E
:1039B00005F5407317A918460FEE103AADF85C6094
:1039C00008F068FA05F54B73184608EE903AFFF7D1
:1039D00039F805F5567317A918460FEE903AADF869
:1039E0005C6008F057FA05F5617317A91846029351
:1039F000ADF85C6008F04EFA05F56C7317A918462F
:103A00000393ADF85C6008F045FA05F57773184646
:103A10000493FFF717F805F5816317A91846059376
:103A2000ADF85C6008F036FA05F2344305F58C6BAE
:103A300017A918460693ADF85C6008F02BFA5846B3
:103A4000FFF700F805F28C4317A918460793ADF865
:103A50005C6008F01FFA05F5976317A918460893EC
:103A6000ADF85C6008F016FA05F2E44317A91846B1
:103A70000993ADF85C6008F00DFA05F5A26317A98B
:103A800018460A93ADF85C6008F004FA05F23C535E
:103A900017A918460B93ADF85C6008F0FBF905F523
:103AA000AD63184608EE103AFEF7CCFF05F29453CA
:103AB00017A918460C93ADF85C6008F0EBF905F512
:103AC000B86317A918460D93ADF85C6008F0E2F9E9
:103AD00005F2EC5317A918460E93ADF85C6008F098
:103AE000D9F905F5C36317A918460F93ADF85C60C3
:103AF00008F0D0F905F24463184609EE103AFEF7D3
:103B0000A1FF05F5CE6317A918461093ADF85C60C8
:103B100008F0C0F905F29C6317A918461193ADF897
:103B20005C6008F0B7F905F5D96317A91846129338
:103B3000ADF85C6008F0AEF905F2F46317A9184619
:103B40001393ADF85C6008F0A5F905F5E46317A9D7
:103B500018461493ADF85C6008F09CF94FF4A0731C
:103B60002246009321465046F0232E1DFEF757FFB4
:103B70004FF07F43AB665146304606F01DFF4FF4D1
:103B8000A0732246159800932146F023FEF747FFC5
:103B90004FF0FF331599C5F89430304606F00CFF0E
:103BA000032317A94846ADF85C3008F0D6FDE6239C
:103BB0000093532248460521FEF731FF214648462F
:103BC00008F023F9494630464FF0170906F0F4FE95
:103BD00019EE900A2C232622CDF800906FF03701C1
:103BE0004FF0050AFEF71BFF1AEE100A17A9ADF8F1
:103BF0005CA008F0B2FD4B4622461AEE100ACDF842
:103C000000901621FEF70BFF1AEE100A214608F06D
:103C1000FCF81AEE101A01E06013020819EE900A7F
:103C200006F0CAFE1AEE900A17A9ADF85CA008F0DB
:103C300094FD4B4622461AEE900A2146CDF800909C
:103C4000FEF7EDFE1AEE900A214608F0DEF81AEEB5
:103C5000901A19EE900A06F0AFFE19EE901A30464F
:103C600006F0AAFE712395223846CDF800906FF039
:103C70007A01FEF7D4FE1BEE100A17A9ADF85CA07E
:103C800008F06BFD4B4622461BEE100ACDF8009063
:103C90002C21FEF7C4FE1BEE100A214608F0B5F8F1
:103CA0001BEE101A384606F087FE1BEE900A17A985
:103CB000ADF85CA008F051FD224619231BEE900AD6
:103CC000CDF800904221FEF7AAFE1BEE900A214695
:103CD00008F09BF81BEE901A384606F06DFE1CEEBD
:103CE000100A17A9ADF85CA008F037FD2246192389
:103CF0001CEE100ACDF800905A21FEF790FE1CEE43
:103D0000100A214608F081F81CEE101A384606F019
:103D100053FE1CEE900A17A9ADF85CA008F01DFD3B
:103D20004B4622461CEE900ACDF800901621FEF775
:103D300076FE1CEE900A214608F067F81CEE901AF9
:103D4000384606F039FE1DEE100A17A9ADF85CA042
:103D500008F003FD4B4622461DEE100A2146CDF821
:103D60000090FEF75CFE1DEE100A214608F04DF8AB
:103D70001DEE101A384606F01FFE3946304606F092
:103D80001BFE5A236F224046CDF800906FF065016C
:103D9000FEF745FE1DEE900A17A9ADF85CA008F0ED
:103DA000DCFC4B4622461DEE900ACDF800902C21FB
:103DB000FEF735FE1DEE900A214608F026F81DEEAE
:103DC000901A404606F0F8FD1EEE100A17A9ADF84D
:103DD0005CA008F0C2FC224619231EEE100ACDF8A2
:103DE00000904221FEF71BFE1EEE100A214608F04D
:103DF0000CF81EEE101A404606F0DEFD1EEE900A8C
:103E000017A9ADF85CA008F0A8FC4B4622461EEEB0
:103E1000900ACDF800901621FEF701FE1EEE900AE2
:103E2000214607F0F2FF1EEE901A404606F0C4FD50
:103E30001FEE100A17A9ADF85CA008F08EFC4B46E7
:103E400022461FEE100A2146CDF80090FEF7E7FD4E
:103E50001FEE100A214607F0D8FF1FEE101A404649
:103E600006F0AAFD4146304606F0A6FD18EE900A7F
:103E700044234822CDF800906FF04E01FEF7CFFDAD
:103E80001FEE900A17A9ADF85CA008F066FC4B463F
:103E900022461FEE900ACDF800902C21FEF7BFFDC0
:103EA0001FEE900A214607F0B0FF1FEE901A18EEA1
:103EB000900A06F081FD0298ADF85CA017A908F001
:103EC0004CFC4B4622460298CDF800901621FEF796
:103ED000A6FD0298214607F098FF029918EE900A75
:103EE00006F06AFD0398ADF85CA017A908F035FC50
:103EF0004B4622460398CDF800902146FEF78FFDF1
:103F00000398214607F081FF039918EE900A06F006
:103F100053FD4FF02C0818EE901A304606F04CFD79
:103F20004B460498CDF800806FF02D026FF04301EE
:103F30000427FEF774FD0598ADF85C7017A908F02A
:103F40000CFC4B4622460598CDF800902146FEF722
:103F500066FD0598214607F058FFDDE9040106F0EB
:103F60002BFD0698ADF85C7017A908F0F6FB4B46E0
:103F700016220698CDF800902146FEF750FD0698CF
:103F8000214607F042FF0699049806F015FD0499B2
:103F9000304606F011FD712300936FF072024B461C
:103FA00058466FF08601FEF73AFD0798ADF85C7051
:103FB00017A908F0D2FB4B4616220798CDF80090BF
:103FC0002146FEF72CFD0798214607F01EFF0799B2
:103FD000584606F0F1FC0898ADF85C7017A908F097
:103FE000BCFB4B4622460898CDF800902146FEF7D0
:103FF00016FD0898214607F008FF0899584606F074
:10400000DBFC0998ADF85C7017A908F0A6FB4B46DD
:1040100042460998CDF800902146FEF700FD099828
:10402000214607F0F2FE0999584606F0C5FC0A98A9
:10403000ADF85C7017A908F090FB192343220A9889
:10404000009321464B46FEF7EAFC0A98214607F00A
:10405000DCFE0A99584606F0AFFC0B98ADF85C7090
:1040600017A908F07AFB19235A220B9800932146CE
:104070004B46FEF7D4FC0B98214607F0C6FE0B9981
:10408000584606F099FC5946304606F095FC5A23EE
:1040900018EE100A00936FF05B024B466FF066015A
:1040A000FEF7BDFC0C98ADF85C7017A908F055FB45
:1040B0004B4616220C98CDF800902146FEF7AFFC37
:1040C0000C98214607F0A1FE0C9918EE100A06F094
:1040D00073FC0D98ADF85C7017A908F03EFB4B46D9
:1040E00022460D98CDF800902146FEF798FC0D98D9
:1040F000214607F08AFE0D9918EE100A06F05CFCC6
:104100000E98ADF85C7017A908F027FB4B464246A5
:104110000E98CDF800902146FEF781FC0E982146BE
:1041200007F073FE0E9918EE100A06F045FC0F9882
:10413000ADF85C7017A908F010FB192343220F9803
:10414000009321464B46FEF76AFC0F98214607F084
:104150005CFE0F9918EE100A06F02EFC18EE101AED
:10416000304606F029FC442319EE100A00936FF044
:1041700043024B466FF02101FEF751FC1098ADF859
:104180005C7017A908F0E9FA4B4616221098CDF892
:1041900000902146FEF743FC1098214607F035FEBB
:1041A000109919EE100A06F007FC1198ADF85C7032
:1041B00017A908F0D2FA4B4622461198CDF8009084
:1041C0002146FEF72CFC1198214607F01EFE11999E
:1041D00019EE100A06F0F0FB1298ADF85C7017A902
:1041E00008F0BBFA42464B461298CDF800902146A3
:1041F000FEF715FC1298214607F007FE129919EEFA
:10420000100A06F0D9FB19EE101A304606F0D4FB5E
:104210001398092317A9ADF85C3008F09EFA06221E
:104220002023114613980093E523FEF7F8FB13981B
:10423000214607F0EAFD1399304606F0BDFB1498BD
:104240000A2317A9ADF85C3008F087FA4B465422D0
:104250001498CDF800905146FEF7E1FB14982146E2
:1042600007F0D3FD3046149906F0A6FB284619B096
:10427000BDEC108BBDE8F08F7047000030B5174DD6
:104280002C78BFF35B8F14F001048FB022D1284645
:104290001AF0A6FDF0B13F230993114B0893114B7F
:1042A00007930123CDE9053304930423CDE90243A9
:1042B0000C230D4900935F220F23CDE90B440B48DB
:1042C0000A940194FFF76CF909481AF075FE284624
:1042D0001AF092FD05480FB030BD00BF282F002016
:1042E0003C3A0208203C0208A03402082C2F00208F
:1042F000794200087047000030B5174D2C78BFF3A5
:104300005B8F14F001048FB022D128461AF068FDAB
:10431000F0B13F230993114B0893114B11491248F7
:104320000A94CDE9064301220423CDE903321E237A
:10433000009305222523CDE90B44CDE901440594E2
:10434000FFF72EF909481AF037FE28461AF054FDF7
:1043500005480FB030BD00BF582F0020143C0208A4
:10436000243C0208D43902085C2F0020F5420008E2
:104370007047000030B5164D2C78BFF35B8F14F0FA
:1043800001048FB020D128461AF02AFDE0B13F2366
:104390000993104B0893104B104911480A940122BD
:1043A000CDE906430423CDE903320A230093CDE986
:1043B0000B44CDE901440594FFF7F2F809481AF0DF
:1043C000FBFD28461AF018FD05480FB030BD00BFB0
:1043D000882F0020183C0208283C02081C3A0208DA
:1043E0008C2F0020714300087047000030B5164D37
:1043F0002C78BFF35B8F14F001048FB020D12846D6
:104400001AF0EEFCE0B13F230993104B0893104BD8
:10441000104911480A940122CDE906430423CDE94D
:10442000033228230093CDE90B44CDE901440594E0
:10443000FFF7B6F809481AF0BFFD28461AF0DCFC71
:1044400005480FB030BD00BFB82F00201C3C02084B
:104450002C3C02082C3A0208BC2F0020E94300083B
:1044600000207047002070470EB403B503AB002155
:1044700053F8042B01930AF00DFF02B05DF804EB32
:1044800003B070470CB407B504AB53F8042B019389
:104490000AF000FF03B05DF804EB02B070470000C3
:1044A000436C10B5044673B3038F2BB9184B194AEC
:1044B000C52119481AF062FDC38E00EB43035B8CE3
:1044C0000BB30CF0D0F9238F012B03D8134B144AF4
:1044D000CB21EEE7E28E531C9BB2092B194688BF15
:1044E000A3F10A0104EB410140F63F10498C8142DF
:1044F00009D10A2B04EB420228BF002304EB43033B
:10450000508C588451842046BDE810400CF0AEB861
:104510008C13020895130208401402088A1402083A
:10452000981402080CF069B810B586B002AC84E8A3
:1045300006001A460AAB05930193099B0093214696
:10454000089B09F0DDFA06B010BD000038B518BBB5
:10455000124B13481B681349B3B11A689C681A447C
:1045600002605A681A440A601C440F4B00221A80E9
:1045700000F038F8054600F033F80C4B1C600C4B8B
:104580001D600C4B188007E00B4B03600B4B0B605E
:104590000B4B1C68002CE8D138BD00BFE82F002071
:1045A000EC2F0020F02F0020F42F0020C03D012030
:1045B000C83D0120C43D0120483C0208303C0208AF
:1045C000F03C0208044B1B6853F82100034B1B68A6
:1045D00003EB4000704700BFF02F0020EC2F0020BD
:1045E0000620704700487047F82F002010B5FFF7ED
:1045F00045FE064C2060FFF7F9FE6060FFF7BAFE4B
:10460000A060FFF779FEE06010BD00BFF82F00202A
:10461000704710B54FF4AE7104461AF0DFFB204628
:1046200010BD10B50446D0F8580100F0EFFC20464C
:10463000BDE8104009F064BF10B50446FDF75CFF0B
:10464000014B2360204610BD7415020870470438E2
:104650007047704710B5102104461AF0BFFB204682
:1046600010BDA0F10400F5E710B500228260044AF5
:10467000C16002F1080420320460426010BD00BF36
:10468000C0150208704790F8DE0728B10B44092BCB
:10469000CCBF002001207047D0180928F8E700009F
:1046A0007FB504AB03E9060000239A42C0E900335A
:1046B00004468360154602DA0A481AF0B7FB0FD0A9
:1046C000104601911AF09BFB019920604619A660E3
:1046D00015B12A461AF0E0FC2046666004B070BDB1
:1046E0001046F2E7E815020810B50446006818B154
:1046F000A168091A1AF072FB204610BD70B5D0E906
:1047000000560446AE4204D02846FFF7EDFF0C35B4
:10471000F8E7206818B1A168091A1AF05FFB204673
:1047200070BD000010B5064B0360044600F5FD6047
:10473000FFF7E4FF2046FEF707F9204610BD00BF53
:104740002416020810B50446FFF7ECFF204640F29D
:10475000F4711AF043FB204610BD30B50D68836834
:1047600085B0D0E9004205604D68456003938D68CF
:1047700085600023C1E900338B6001A8CDE90142C7
:10478000FFF7BCFF05B030BD70B5D1E90035ED1ABB
:1047900000239D42C0E9003304460E46836017D0D3
:1047A00001DA1AF040FB28461AF029FB0346C4E957
:1047B00000331D44A560D6E900156D1A04D01846D3
:1047C0002A461AF077FC03462B446360204670BDEE
:1047D0002B46ECE72DE9F0410546DAB0FEF752F939
:1047E000554B2B6009261EAB0A930B960AAA3CAFC9
:1047F000002406CA6B463846CDE91E448DF8804039
:10480000FFF74EFF21ABCDE90C360CAA06CA01AB6F
:104810003FA8CDE921448DF88C40FFF741FF24AB40
:10482000CDE90E360EAA06CA02AB42A8CDE9244451
:104830008DF89840FFF734FF27ABCDE9103610AA6A
:1048400006CA03AB45A8CDE927448DF8A440FFF77D
:1048500027FF2AABCDE9123612AA06CA04AB48A834
:10486000CDE92A448DF8B040FFF71AFF2DABCDE912
:10487000143614AA06CA05AB4BA8CDE92D448DF811
:10488000BC40FFF70DFF30ABCDE9163616AA06CABD
:1048900006AB4EA8CDE930448DF8C840FFF700FFC5
:1048A00033ABCDE9183618AA06CA07AB51A8CDE933
:1048B00033448DF8D440FFF7F3FE36ABCDE91A361A
:1048C0001AAA06CA08AB54A8CDE936448DF8E040D0
:1048D000FFF7E6FE39ABCDE91C3632461C998DF860
:1048E000EC4009AB57A8CDE93944FFF7D9FEC5F82C
:1048F000E847C5F8EC47C5F8F04778201AF07FFA8A
:1049000000F178080646C5F8E807C5F8F0873919B8
:1049100030190C34FFF738FF782CF8D1C5F8EC8744
:104920005AAC0C3C2046FFF7DFFEBC42F9D12846CA
:104930005AB0BDE8F08100BF241602082DE9F0410D
:10494000D1E900260023B61AC0E9003304460F4619
:10495000836017D00E4B9E4201D91AF064FA30469C
:104960001AF04DFA0546C4E900552E44A660D7E971
:104970000068B04508D031462846FFF705FF0C35E2
:104980000C36F6E73546EEE765602046BDE8F08177
:10499000F8FFFF7FF0B51F46C36B0C46996885B0E2
:1049A00005460C3101A81646FFF7C8FF01A905F519
:1049B000FD60FFF7D2FE01A8FFF7A0FE95F8DE0725
:1049C0000C21614360B903469F4218DBD5F8E82704
:1049D00052589257002A01F10C010EDC0133F3E723
:1049E00000239F4209DBD5F8E82752581A44925712
:1049F000002A01DC0133F4E7002005B0F0BD0120FE
:104A0000FBE71FB50446FDF7A0FF002384F8D0376D
:104A100084F8DE37C4F8D437C4F8D837E36B04F52C
:104A2000CE629968C4F8E02704F55672C4F8E4270A
:104A30000122A4F8DC270C3101A8FFF77FFF01A9B0
:104A400004F5FD60FFF789FE01A8FFF757FE04B0EB
:104A500010BD00002DE9F04FDFF8B0A1DFF8B091F4
:104A6000DFF8B0815E4F5F4E87B000230446DAF86E
:104A700000008DF8173004F016F80546D9F800004C
:104A800004F011F80090D8F8000004F00CF8019040
:104A9000386804F008F80290306804F004F8524BCB
:104AA0000390186803F0FFFF94F8D037002B40F014
:104AB0003282B4F9DC37013B032B21D8DFE803F065
:104AC0000257636F494B1B6804F26C7B2BB9484B50
:104AD000484A602148481AF051FA484B1B88032B7A
:104AE00003D8474B434A6121F4E70321454B18683B
:104AF000FFF768FD444A0346322158460CF05CFC3F
:104B0000002D00F0F4804FF0FF33DAF800000022AF
:104B10000DF1170103F098FF9DF81730532B40F06B
:104B2000C580B4F9DC37D4F8D827D4F8D417204698
:104B3000FFF730FF002800F0B98094F8DE27002A44
:104B400039D00020B4F9DC27824265DBE36B94F9AD
:104B5000D4179B68DD68D4F8D83701EB41010133E5
:104B600055F821105BB20132CA540130EAE71F4BFD
:104B70001B6804F26C7B002BA9D0204B1B88022BF6
:104B8000AFD90221B2E7194B1B6804F26C7B002BF2
:104B90009DD01A4B1B88012BA3D90121A6E7134BEB
:104BA0001B6804F26C7B002B91D0144B1B88002BEC
:104BB00097D000219AE7B4F9DC1791422CDBE36B24
:104BC0009868D4F8D437C56894F9D80701335BB234
:104BD00003EB4303013155F8233001321954EAE75E
:104BE000702C0020742C0020782C0020C03D012067
:104BF000C0100208C21102083D110208C43D012084
:104C000084110208CC3D0120FA110208642C002016
:104C1000682C00206C2C0020B4F9DC37012B11D15A
:104C2000002304F57775C4F8D437C4F8D837532275
:104C300005212846FDF7E6FE04F1C403C4F8E05759
:104C4000C4F8E437B4F9DC37022B11D1002304F2A5
:104C50008C45C4F8D437C4F8D837532205212846E8
:104C6000FDF7D0FE04F5BA73C4F8E057C4F8E43792
:104C7000B4F9DC37032B11D1002304F5AD65C4F87A
:104C8000D437C4F8D837532205212846FDF7BAFE99
:104C900004F51473C4F8E057C4F8E437B4F9DC370A
:104CA000042B40F0CD80012384F8D03794F8DE2720
:104CB0009DF81730002A40F0C9804C2B17D1D4F84A
:104CC000D437D4F8E007013B002BC4F8D437BEBF7B
:104CD000B4F9DC37C3F10903C4F8D437D4F8D417D6
:104CE00017235943036805311B6B09B29847009B92
:104CF00033B34FF0FF330DF11701D9F80000002254
:104D000003F0A2FE94F8DE179DF81730002940F05A
:104D1000AA80522B14D1D4F8D437B4F9DC27D4F8B4
:104D2000E0070133C2F109029342D8BF1946C4F823
:104D3000D41717235943036805311B6B09B29847F1
:104D4000019B1BB34FF0FF330022D8F800000DF198
:104D5000170103F079FE94F8DE279DF81730002A3A
:104D600040F09180552B11D1D4F8D837D4F8E00712
:104D7000013B48BF0923C4F8D837D4F8D817172304
:104D80005943036853315B6B09B29847029B03B3E5
:104D90004FF0FF330DF117013868002203F054FE85
:104DA00094F8DE179DF8173000297ED1442B10D1DE
:104DB000D4F8D837D4F8E0070133092BD8BF194607
:104DC000C4F8D81717235943036853315B6B09B2F2
:104DD0009847039B73B34FF0FF33002230680DF107
:104DE000170103F031FE94F8DE279DF81730002AF2
:104DF00070D1412B1ED1B4F9DC37D4F8D827D4F8C0
:104E0000D4172046FFF73FFCA0B1D4F8E037D4F820
:104E1000E407B3F90620B3F90410FDF7F3FDD4F865
:104E2000E0076FF043026FF01F01FDF7EBFD012378
:104E300084F8DE37201D0AF057FB07B0BDE8F08F7D
:104E4000032BDCBF0133A4F8DC372FE74C2B7FF4B6
:104E50004EAFD4F8D437D4F8E407013B48BF092358
:104E6000C4F8D4373AE7522B7FF46AAFD4F8D4377A
:104E7000D4F8E4070133092BC8BF0023C4F8D437A2
:104E8000D4F8D41755E7552B80D1D4F8D837D4F8B7
:104E9000E407013B002BC4F8D837BEBFB4F9DC37B8
:104EA000C3F10903C4F8D83767E7442B91D1D4F88C
:104EB000D837B4F9DC27D4F8E4070133C2F109028A
:104EC0009342C4F8D837C4BF0023C4F8D837D4F805
:104ED000D81777E7412BADD1B4F9DC37D4F8D82710
:104EE000D4F8D4172046FFF7CEFB0028A2D0D4F880
:104EF000E437D4F8E007B3F90620B3F90410FDF75E
:104F000081FDD4F8E4076FF043026FF01F01FDF755
:104F100079FD00238CE7012B8CD109F06FFAFDF7A6
:104F20003BFB87E7704704387047704710B5102186
:104F3000044619F053FF204610BDA0F10400F5E728
:104F400010B500228260044AC16002F108042032D8
:104F50000460426010BD00BF501602087047000098
:104F600010B5034B03600446FEF74AFB204610BD14
:104F70008016020810B50446FFF7F2FF20464FF4F2
:104F8000C87119F02BFF204610BD000010B5044673
:104F9000FEF7A0FB014B2360204610BD80160208DF
:104FA000FEF72FBB73B50F4D0446002628688DF819
:104FB000076003F078FD78B14FF0FF332868324680
:104FC0000DF1070103F040FD9DF80730532B03D18D
:104FD00009F014FAFDF7D0FA201D0AF085FA02B0A4
:104FE00070BD00BF642C002010B50749044603467D
:104FF000002203C944F8042B84E80300C3E9042217
:10500000DA60184610BD00BF4002020870477047C2
:1050100004387047704710B51021044619F0DEFEC1
:10502000204610BDA0F10400F5E7000010B50022F5
:105030008260044AC16002F10804203204604260C8
:1050400010BD00BFAC160208704700002DE9F04FFC
:10505000DFF880B1DFF880A1DFF88091DFF8808190
:1050600085B000220446DBF800008DF80F2003F025
:105070001AFD0190DAF8000003F015FD0746D9F893
:10508000000003F010FD0646D8F8000003F00BFD09
:105090004E490546086803F006FD4D49086803F0CF
:1050A00002FD019B0022E3B14FF0FF33DBF800006B
:1050B0000DF10F0103F0C8FC9DF80F304C2B73D19C
:1050C00094F8DC38013B5BB2002BB8BF092384F8AD
:1050D000DC3894F9DC181723052213FB0123A4F80C
:1050E0002437EFB14FF0FF33DAF8000000220DF162
:1050F0000F0103F0A9FC9DF80F30522B10D194F84A
:10510000DC3801335BB2092BC8BF002384F8DC38DC
:1051100094F9DC181723052213FB0123A4F8243784
:10512000EEB14FF0FF33D9F8000000220DF10F016E
:1051300003F08AFC9DF80F30552B10D194F8DD3820
:10514000013B5BB2002BB8BF092384F8DD3894F92A
:10515000DD181723532213FB0123A4F82637EDB1E2
:105160004FF0FF33D8F8000000220DF10F0103F0DB
:105170006BFC9DF80F30442B10D194F8DD380133CF
:105180005BB2092BC8BF002384F8DD3894F9DD1821
:105190001723532213FB0123A4F82637201D0AF0FE
:1051A000A3F905B0BDE8F08F532B9AD194F9DD38FF
:1051B00094F9DC284FF4DC714B432C2101FB0233C2
:1051C0002344012283F805298BE700BF742C0020BB
:1051D000782C0020642C0020682C00206C2C0020EF
:1051E000702C00202DE9F3410546FEF74BFB154BD3
:1051F0002B604FF4C872002105F24C7019F074FF57
:1052000005F5D05605F50E6410364FF6FF7704F518
:10521000DC78204601A92C34ADF8047006F03AFE83
:105220004445F6D1B442F2D105F580530022284618
:10523000C3F8102AC3F8142AC3F8182A02B0BDE82C
:10524000F08100BFE416020870B500F5D0550B4B95
:105250000360103504462846FFF750FA04F50E6641
:10526000B54205D055F82C3D1B6828469847F7E70E
:105270002046FEF7FDFA204670BD00BFE416020886
:1052800010B50446FFF7E0FF204641F61C2119F057
:10529000A5FD204610BD000030B5254D00F5637416
:1052A0000246116852F8043F01F0004123F0004328
:1052B0000B43D2F8301681EA530113F0010318BFF3
:1052C0002B464B40944242F8043CEAD1184D021F51
:1052D00000F22C64D2F89033D2F8941303F0004318
:1052E00021F000410B4352F8041F81EA530113F0EF
:1052F000010318BF2B464B409442C2F88C33E9D1CE
:10530000D0F8BC3902680A4922F0004203F0004399
:105310001343D0F8302682EA530213F0010318BF7A
:105320000B465340C0F8BC390023C0F8C03930BD2B
:10533000DFB00899D0F8C039B3F51C7F10B504462A
:1053400001D3FFF7A9FFD4F8C03909485A1C54F813
:105350002330C4F8C02983EAD32300EAC3104340B2
:10536000044800EAC330584080EA904010BD00BFB6
:1053700080562C9D0000C6EFF8B5D0E900239B1A9B
:105380005A1C05460E4610D001334FF0FF30B0FBDB
:10539000F3F707FB03F43046FFF7CCFF8442FAD95A
:1053A000B0FBF7F02B681844F8BD0846FFF7C2FFC2
:1053B000F8E700002DE9F047ADF59C5D86B0914619
:1053C0003D4A0DF6D414054688460DF6DC10D11F73
:1053D000206019F096FD0723636023680022DA71CC
:1053E000214604A819F06AFD204619F076FD04A8AC
:1053F00019F066FD20603148214601220B6883EADE
:10540000937300FB03230132B2F51C7F41F8043F84
:10541000F4D16B46C4F8C02909210022C3E9002158
:105420000292012202AB4FF0280A5A6021466846D8
:10543000FFF7A2FF214606466846FFF79DFF21467B
:10544000074602A8FFF798FF002800F0010319465D
:105450000AFB06F2B8BF5942A3B10129E6D106EB17
:105460000903092BE2DC0A2303FB067308EB830321
:1054700000224A4516DA0AFB02F018580028D5D156
:105480000132F6E707EB09010929CFDC02EB8702BD
:1054900042444B4505DA52F8041B0029C6D10133BA
:1054A000F7E700212846C5E90017AE600DF59C5DC1
:1054B00006B0BDE8F08700BFDB1602086589076CFF
:1054C0002DE9F04F2DED028B044689B0FEF7D1F99E
:1054D0000025E36BA4F8DC58996804F580560C317C
:1054E00002A8FFF72BFA06F521610EC90298C6F84B
:1054F000100A0398C6F8140A0498C6F8180A05A8F2
:10550000CDE90512CDE9025507930495FFF7F6F8AA
:1055100002A8FFF7F3F8022504F24C784FF00A09CD
:1055200005272A46414605A8FFF744FF022DDDE97D
:105530000612059B40F09480002B7FD0012B17D1E1
:1055400009FB021304EB830304F57770C3F84C578F
:1055500002FB09930B4404EB8303C3F84C57172356
:105560005A4359435332053112B209B2FDF74AFA90
:105570000135062DD5D1A2464FF053084FF0000952
:1055800001950C2303FB09F300930FFA88F308EE4F
:10559000103A0AF50E6557464FF0000BD6F8101A70
:1055A000009BD7F8E028C958126E11F90B1000299A
:1055B00040F016810821ADF81410284605A990473F
:1055C0000BEB4B01CBEBC1010531284618EE102A3D
:1055D00009B2FDF717FAD7F8E0282846926B172191
:1055E0009047D7F8E0282846D26B17219047D7F884
:1055F000E0282846526E002190474FF0000387F8BC
:1056000005392946201D0BF1010B05F0D5F9BBF139
:105610000A0F07F12C0705F12C05BFD109F101098B
:1056200008F11708B9F10A0F1FFA88F80AF5DC7AB1
:10563000A7D109B0BDEC028BBDE8F08F09FB0213C6
:1056400004EB830017235A43594353320531C0F802
:105650004C57C0F8505712B209B204F1C40085E7A4
:10566000032D34D1FBB1012B82D109FB021304EBD2
:10567000830304F24460C3F84C5702FB09930B44C4
:1056800004EB8303C3F84C57931C09FB031304EB8F
:105690008303C3F84C5717235A43594353320531F8
:1056A00012B209B262E709FB021304EB830017236D
:1056B0005A43594353320531C0F84C57C0F850573C
:1056C000C0F8545712B209B204F54B704EE7042DDE
:1056D0003ED13BB3012B7FF44BAF09FB021304EB2C
:1056E000830304F5AD60C3F84C5702FB09930B44E8
:1056F00004EB8303C3F84C57931C09FB031304EB1F
:105700008303C3F84C57D31C09FB031304EB830337
:10571000C3F84C5717235A4359435332053112B239
:1057200009B223E709FB021304EB830017235A4352
:10573000594353320531C0F84C57C0F85057C0F8A0
:105740005457C0F8585712B209B204F514700DE757
:1057500073B3012B7FF40CAF09FB021304EB83033B
:1057600004F58C60C3F84C7702FB09930B4404EBFF
:105770008303C3F84C77931C09FB031304EB8303E7
:10578000C3F84C77D31C09FB031304EB8303C3F862
:105790004C77131D09FB031304EB8303C3F84C7709
:1057A00017235A4359435332053112B209B2DDE689
:1057B00009FB021304EB830017235A435943533266
:1057C0000531C0F84C77C0F85077C0F85477C0F86E
:1057D0005877C0F85C7712B209B204F5A470C5E638
:1057E000019BADF81430E8E6F02070474FF4A0704C
:1057F00070472920FCF7C2B82820FCF7BFB808B5CD
:10580000FCF790F8CA20FCF7B9F8C320FCF79AF827
:105810000820FCF797F85020FCF794F8CF20FCF70D
:10582000ADF80020FCF78EF8C120FCF78BF8302093
:10583000FCF788F8ED20FCF7A1F86420FCF782F86B
:105840000320FCF77FF81220FCF77CF88120FCF79E
:1058500079F8E820FCF792F88520FCF773F800202F
:10586000FCF770F87820FCF76DF8CB20FCF786F891
:105870003920FCF767F82C20FCF764F80020FCF7CF
:1058800061F83420FCF75EF80220FCF75BF8F720A3
:10589000FCF774F82020FCF755F8EA20FCF76EF8C6
:1058A0000020FCF74FF80020FCF74CF8B120FCF783
:1058B00065F80020FCF746F81B20FCF743F8B620FB
:1058C000FCF75CF80A20FCF73DF8A220FCF73AF858
:1058D000C020FCF753F81020FCF734F8C120FCF787
:1058E0004DF81020FCF72EF8C520FCF747F84520AE
:1058F000FCF728F81520FCF725F8C720FCF73EF840
:105900009020FCF71FF83620FCF738F8C820FCF789
:1059100019F8F220FCF732F80020FCF713F8B02059
:10592000FCF72CF8C220FCF70DF8B620FCF726F89F
:105930000A20FCF707F8A720FCF704F82720FCF75B
:1059400001F80420FBF7FEFF2A20FCF717F80020DF
:10595000FBF7F8FF0020FBF7F5FF0020FBF7F2FF55
:10596000EF20FBF7EFFF2B20FCF708F80020FBF7F8
:10597000E9FF0020FBF7E6FF0120FBF7E3FF3F20F4
:10598000FBF7E0FFF620FBF7F9FF0120FBF7DAFF5A
:105990000020FBF7D7FF0620FBF7D4FF2C20FBF7F6
:1059A000EDFFC820FCF738F82620FBF7E7FF0120C1
:1059B000FBF7C8FFE020FBF7E1FF0F20FBF7C2FF7A
:1059C0002920FBF7BFFF2420FBF7BCFF0C20FBF7CF
:1059D000B9FF0E20FBF7B6FF0920FBF7B3FF4E20FF
:1059E000FBF7B0FF7820FBF7ADFF3C20FBF7AAFFE9
:1059F0000920FBF7A7FF1320FBF7A4FF0520FBF707
:105A0000A1FF1720FBF79EFF1120FBF79BFF002053
:105A1000FBF798FFE120FBF7B1FF0020FBF792FFB7
:105A20001620FBF78FFF1B20FBF78CFF0420FBF7F2
:105A300089FF1120FBF786FF0720FBF783FF31204A
:105A4000FBF780FF3320FBF77DFF4220FBF77AFF57
:105A50000520FBF777FF0C20FBF774FF0A20FBF70C
:105A600071FF2820FBF76EFF2F20FBF76BFF0F2045
:105A7000FBF768FF1120FBF781FFC820FBF7CCFF85
:105A80002920FBF77BFFBDE808402C20FBF776BF01
:105A900008B5FBF747FF0321D320FBF78BFF80B24C
:105AA00008BD10B5C4B2022203212046FBF7F0FE68
:105AB0000A20FBF735FF204600220321FBF7E8FE12
:105AC000BDE810400220FBF72BBF38B50446E4B216
:105AD000FBF7DCFE00212046FBF7F2FE0121054624
