:020000040800F2
:1000000000000320A50500085D2100085F2100080D
:10001000612100086321000865210008000000003C
:1000200000000000000000000000000001AA00081D
:10003000672100080000000091AA000805A300083D
:10004000F5050008F5050008F5050008F5050008A8
:10005000F5050008F5050008F5050008F505000898
:10006000F5050008F5050008F5050008F505000888
:10007000F5050008F5050008F5050008F505000878
:10008000F5050008F5050008F5050008F505000868
:10009000F5050008F5050008F5050008F505000858
:1000A000F5050008F5050008F5050008F505000848
:1000B000F5050008F5050008F5050008F505000838
:1000C000F5050008F5050008F5050008F505000828
:1000D000F505000869210008F5050008F505000888
:1000E000F5050008F5050008F5050008F505000808
:1000F000F5050008F5050008F5050008F5050008F8
:10010000F5050008F5050008F5050008F5050008E7
:10011000F505000875210008812100088D210008DF
:10012000F5050008F5050008F5050008F5050008C7
:10013000F5050008F5050008F5050008F5050008B7
:10014000F5050008F5050008F5050008F5050008A7
:10015000F5050008F5050008F5050008F505000897
:10016000F5050008F5050008F5050008F505000887
:10017000F5050008F5050008F50500080000000079
:10018000F5050008F5050008F5050008F505000867
:10019000F5050008F5050008F5050008F505000857
:0C01A00099210008F5050008A5210008C1
:1001B00010B5054C237833B9044B13B10448AFF3A1
:1001C00000800123237010BD6C010020000000009E
:1001D000C82B020808B5034B1BB103490348AFF312
:1001E000008008BD0000000070010020C82B02083C
:1001F00001F0FF01102A2BDB10F0070F08D010F8D8
:10020000013B013A8B422DD010F0070F42B3F6D1DB
:10021000F0B441EA012141EA014122F007047FF0F4
:1002200000070023F0E80256083C85EA010586EA4B
:10023000010685FA47F5A3FA87F586FA47F6A5FA87
:1002400087F68EB9EED1F0BC01F0FF0102F0070293
:1002500032B110F8013B013A83EA010313B1F8D13E
:100260000020704701387047002D06BF354603381F
:10027000073815F0010F07D1013015F4807F02BF58
:10028000013015F4C03F0130F0BC0138704700BFA9
:10029000034613F8012B002AFBD1181A01387047C6
:1002A00053B94AB9002908BF00281CBF4FF0FF31DD
:1002B0004FF0FF3000F074B9ADF1080C6DE904CED9
:1002C00000F006F8DDF804E0DDE9022304B0704731
:1002D0002DE9F047089D04468E46002B4DD18A42F9
:1002E000944669D9B2FA82F252B101FA02F3C2F12C
:1002F000200120FA01F10CFA02FC41EA030E9440BD
:100300004FEA1C48210CBEFBF8F61FFA8CF708FBDD
:1003100016E341EA034306FB07F199420AD91CEBB5
:10032000030306F1FF3080F01F81994240F21C81E7
:10033000023E63445B1AA4B2B3FBF8F008FB10332F
:1003400044EA034400FB07F7A7420AD91CEB040464
:1003500000F1FF3380F00A81A74240F20781644434
:10036000023840EA0640E41B00261DB1D4400023B9
:10037000C5E900433146BDE8F0878B4209D9002D1D
:1003800000F0EF800026C5E9000130463146BDE8A7
:10039000F087B3FA83F6002E4AD18B4202D3824211
:1003A00000F2F980841A61EB030301209E46002DC0
:1003B000E0D0C5E9004EDDE702B9FFDEB2FA82F215
:1003C000002A40F09280A1EB0C014FEA1C471FFA73
:1003D0008CFE0126200CB1FBF7F307FB131140EA5A
:1003E00001410EFB03F0884208D91CEB010103F127
:1003F000FF3802D2884200F2CB804346091AA4B2E9
:10040000B1FBF7F007FB101144EA01440EFB00FEBC
:10041000A64508D91CEB040400F1FF3102D2A64521
:1004200000F2BB800846A4EB0E0440EA03409CE7C0
:10043000C6F12007B34022FA07FC4CEA030C20FA6D
:1004400007F401FA06F31C43F9404FEA1C4900FA8D
:1004500006F3B1FBF9F8200C1FFA8CFE09FB18110A
:1004600040EA014108FB0EF0884202FA06F20BD97D
:100470001CEB010108F1FF3A80F08880884240F2CD
:100480008580A8F102086144091AA4B2B1FBF9F011
:1004900009FB101144EA014100FB0EFE8E4508D90C
:1004A0001CEB010100F1FF346CD28E456AD9023891
:1004B000614440EA0840A0FB0294A1EB0E01A14276
:1004C000C846A64656D353D05DB1B3EB080261EBE4
:1004D0000E0101FA07F722FA06F3F1401F43C5E9BE
:1004E000007100263146BDE8F087C2F12003D840F4
:1004F0000CFA02FC21FA03F3914001434FEA1C4736
:100500001FFA8CFEB3FBF7F007FB10360B0C43EA27
:10051000064300FB0EF69E4204FA02F408D91CEBD7
:10052000030300F1FF382FD29E422DD902386344D5
:100530009B1B89B2B3FBF7F607FB163341EA034175
:1005400006FB0EF38B4208D91CEB010106F1FF38C4
:1005500016D28B4214D9023E6144C91A46EA0046BB
:1005600038E72E46284605E70646E3E61846F8E64D
:100570004B45A9D2B9EB020864EB0C0E0138A3E796
:100580004646EAE7204694E74046D1E7D0467BE777
:10059000023B614432E7304609E76444023842E7EF
:1005A000704700BFDFF834D0002103E00C4B5B58EC
:1005B000435004310B480C4B42189A42F6D30B4A75
:1005C00002E0002342F8043B094B9A42F9D307F0BA
:1005D000AFF821F065F900F057FF704700000320E5
:1005E00078AA1308000000206C0100206C01002094
:1005F000C85A0120FEE7704708B500F09BFCBDE833
:10060000084000F025BC00F097BC704710B50421ED
:10061000044621F04BF8204610BD000038B50C4BC5
:100620000C4C18800C4B822019806368984740F668
:10063000110398420AD1094D23682C608220984703
:100640002B688220DB689847002038BD0120FCE73A
:10065000880100204C0000208A0100208C0100202D
:100660004FF4A071F020FFF7D9BF0000F7B5344D6B
:100670002B6804461B698220984780B2208000289E
:100680004CD02B680DF106025B6901A982209847C6
:10069000BDF8063040F67462934241D9ADF80620A9
:1006A000BDF80620C2F56762043292B20A2A3DD92B
:1006B0000B23B2FBF3F2234B1B889A4201D9013B77
:1006C0009AB2BDF8043040F6B8318B4230D8C3F549
:1006D00071630E339BB20F21B3FBF1F31A49098802
:1006E0008B4201D94B1E9BB2184E194D30682F68B2
:1006F000834281B28CBF591AC91AB8B2BA428CBFB0
:10070000101A801A89B280B201440529C8BF33602B
:100710003368C8BF2A6063802B68A38003B0F0BD34
:10072000B32B9CBFB423ADF80630B9E70022C8E76D
:10073000C3F56D6308339BB20E2BCCD80023D3E7EF
:100740008C0100208A0100208801002090010020F7
:100750009401002037B568460D461446FFF786FF22
:10076000BDF8000030B1BDF802302B60BDF8043098
:100770002360012003B030BD704770477047704759
:10078000012380F8781080F8793070470020704796
:10079000034B4164003918BF01211970704700BF35
:1007A000D34F012000207047836B0BB108461847D8
:1007B00070474FF6FF707047406803689B691847A1
:1007C000704770477047000070B5044600F082FC27
:1007D0002368D3F88850044BD4E90F122046AC4666
:1007E000BDE87040604700BF000000D008B5036856
:1007F0000446D3F880309847236820469B6F98477B
:1008000000F0ECF8236820461B6F9847292001F080
:100810001BF900F0E3F8236820461B6F9847F8E7C0
:1008200010B504460DF0CEF923682046D3F8AC305D
:10083000BDE81040184700F03FBC00F043BC00F09A
:1008400067BC00F015BC00F06FBC00F077BC00F096
:1008500019BC0CF023BC10B57C21044620F026FF07
:10086000204610BD90F87A301BB1406803681B68C1
:10087000184718467047000010B590F8341090F8EB
:1008800078400C4B8C421A7809D03AB90A4A0B4985
:100890001488088810800C8001221A7010BD002A6C
:1008A000FCD0054A05491488088810800C80002275
:1008B000F3E700BFCC4F0120C84F0120CA4F0120F1
:1008C00070B50D46194635B9094B0A4A0A4840F237
:1008D000D22120F09BFFC0E90F52084B003A18BF0D
:1008E00001221A700368BDE87040D3F88C301847B5
:1008F000382C0208702C0208BE2C0208D24F0120AE
:1009000008B5094B1B888B4203D8084B1B889342C0
:1009100005D9074B074A08489E2120F077FF074B6F
:100920001980074B1A8008BDC84F0120CA4F01200B
:10093000032D0208662D0208BE2C0208CE4F0120AE
:10094000D04F0120012108B50022084609F069FDB9
:100950000A4B186028B90A4B0A4A28210A4820F095
:1009600055FF00220421012009F001FE074B186009
:1009700018B9074B034A2C21F0E708BD9C01002061
:10098000842E0208CD2E0208FC2E020898010020B9
:100990003E2F0208024B4FF0FF31186809F08BBD63
:1009A0009C010020014B186809F0B0BD9C0100209B
:1009B000024B0021186809F07EBD00BF9C01002099
:1009C000FFF7F0BF03480449006800231A4609F006
:1009D00009BE00BF980100200400002013B5084C98
:1009E00000231A4601A9206809F02CFE20684FF068
:1009F000FF33002201A909F025FE02B010BD00BF9F
:100A00009801002003685B6C184701207047036859
:100A10009B6A184782B0002301930D4B1A6B42F476
:100A200000021A631A6B02F400020192019A1A6919
:100A300042F400021A611A6922F400021A61054B9D
:100A4000054A1A61054B4FF080629A6002B0704708
:100A5000003802406C3E0020A10A000800E100E0DE
:100A600040F2EF3070470000054B0360054B4FF03C
:100A70008062C3F88820BFF34F8FBFF36F8F70473A
:100A8000D030020800E100E010B504464FF45A618E
:100A9000FFF7EAFF204620F009FE204610BD0000C7
:100AA000024B1B68586803685B691847D44F0120E4
:100AB00070B5044625460A4B0C300026606026724D
:100AC000667245F8203B602229460DF0B9F904F51D
:100AD0005A63EE602435AB42FBD1204670BD00BFA7
:100AE000D030020808B50B290BD8DFE801F0120658
:100AF000100A0A0A0A0808080808012008BD05208B
:100B0000FCE7054B054A0648652120F07FFE0020E2
:100B1000F4E70220F2E700BF802F02089B2F0208B3
:100B2000E52F020808B50A2909D8DFE801F0100608
:100B30000E080808080606060600012008BD054B39
:100B4000054A0648862120F061FE0020F6E70220D3
:100B5000F4E700BF802F020825300208E52F0208C5
:100B60002DE9F8434F7F0C4639468146FFF7BAFF1F
:100B700094F81E80054641464846FFF7B3FF4146BC
:100B800006464846FFF7CEFFA18A628B424B521AB7
:100B90001A649A61228B521A1A61E28A586342EAF5
:100BA00001425A6420696268D863DA60216894F867
:100BB0001CC080294FEA0C6226D010D8202945EAB3
:100BC000020461D040295FD004295DD0324B2A4312
:100BD00042F400324745DA615AD0304A40E0B1F57C
:100BE000807F07D0B1F5007FF0D142F4003242F0AF
:100BF000090203E042F4003242F00A02DA61E268DC
:100C00001A625E6258612AE0A4682A4342F4003204
:100C1000211DD962DA6122785E62586142B1012AEF
:100C200021D01F4B1F4A20484FF4887120F0EEFD61
:100C3000DA69618822F47F42013922F0100242EA27
:100C40000122DA610120144BDA6942F02002DA61F4
:100C5000DA699206FCD410229A600028BDD0134AAB
:100C60001A60BDE8F8836288D969541E21F47F4276
:100C700022F0100242EA0422BCF1FF0042F010020E
:100C800018BF0120DA61DEE744F40034DC61B8E724
:100C900040F20122E4E700BF00B00240010201007F
:100CA000703002088A300208E52F020801020200B3
:100CB00070B50C46897FFFF735FFA68AE18A628B03
:100CC000154B2569586341EA0641921B5964DD635F
:100CD0001A642668E168082E0DD19A611A6158627B
:100CE000207F0E4A42EA0062DA610D4A19625D61B4
:100CF000DD601A6070BD0022D8611A6148090A0AD5
:100D000002F4784200F4FC600243C1F3C4010A43D8
:100D10009A63044AEDE700BF00B0024009000100F9
:100D200001020200010203000120704740207047C9
:100D300000EB81100830704700EB811008307047DD
:100D40000120704742F2B850704742F2B85303FB9B
:100D500001000830704742F2B85303FB010008302D
:100D60007047012070471020704700EB01100830D9
:100D7000704700EB011008307047084601F0FABFD9
:100D800010B5034B036004460BF001FC204610BD78
:100D90008831020810B50446FFF7F2FF20464821CB
:100DA00020F084FC204610BD10B5034B03600446C0
:100DB0000BF0EDFB204610BD5431020810B504467F
:100DC000FFF7F2FF20464FF4175120F06FFC20464A
:100DD00010BD000010B5034B036004460BF0D7FBB9
:100DE000204610BD2031020810B50446FFF7F2FF7F
:100DF0002046182120F05AFC204610BD10B5094BA2
:100E00000360044600F517502C30FFF7B9FF04F1DA
:100E10002C00FFF7C9FF04F11400FFF7DBFF2046A9
:100E200010BD00BFBC31020808B50248FFF7E6FF5D
:100E300008BD00BFA401002010B50446FFF7DEFF87
:100E4000204642F6E45120F031FC204610BD00005F
:100E50002DE9F34101F024FA054601F025FA0024BA
:100E60000146234628462246009412F0B3FF264B43
:100E7000264A274D1A60204604F0CAFB254812F086
:100E800011FF2B78BFF35B8FDB0737D4284620F0A8
:100E90000FFC98B3204C214B236004F12C0808F57B
:100EA000175707F29C6604F114006060C4F80880CC
:100EB000E76026610BF06CFB194B636140460BF059
:100EC00067FB184BE36238460BF062FB04F50053F6
:100ED000154AC3F8EC2503F2346005F025FC2246E0
:100EE00007F14801304604F0E7FC304601F042FFCC
:100EF0000E4820F0A9FC284620F0E6FB0C4802B082
:100F0000BDE8F041FFF760BC30500120A83D002053
:100F1000A001002008000020A4010020BC3102082C
:100F2000203102085431020888310208290E0008D5
:100F30002C3D0020704700000148FFF757BC00BF60
:100F40002C3D002070B5224E224C234D234B2360B4
:100F50003046FFF7ADFD284617F008FA204B214830
:100F6000DC6000224FF48071C3E912121E491A8618
:100F7000C3E91A121D4999671D4983F858200B606F
:100F8000F02101801B485A6601801B4883F87020BD
:100F90004FF4A071C3E90422C3E90622C3E9082281
:100FA000C3E90A22C3E90E22C3E91022C3E91422CD
:100FB000C3E917225A67C3E9016501800F48018020
:100FC0000F490A70012283F834200E4A1A6070BD5E
:100FD0008C2F0020882F0020AC3D0020282C0208F8
:100FE0002C3D0020C84F012001000001000001013C
:100FF000D44F0120CE4F0120CA4F0120D04F0120F5
:10100000CC4F0120B42D02080148FFF72DBD00BFD1
:101010008C2F00200020704781807047C18070476E
:101020000181704741817047704770477047704732
:10103000704710B4C4880368121B84885B6D091B59
:1010400012B25DF8044B09B218474FF6FF73838163
:101050004FF0FF3303621368C3611060704790F86C
:1010600025201AB190F8242002B1186070470000C2
:10107000034B902283F85A2383F85823704700BF0C
:1010800000E100E0094A0A49D3680A48C3F30A03A9
:10109000013B9BB20B801169C1F30A010139018048
:1010A0001364536B43F001035363704700680140BE
:1010B000323E0020303E0020014BD3F8AC00704798
:1010C00000680140024B0122C3F8AC105A6270471D
:1010D0000068014070B504460CF035F823685D6E79
:1010E0000FF0D8FC01462046A8472368054AD3F8EC
:1010F00088502046AC460023BDE87040A2F516316A
:10110000604700BF00B004D00CF004B80CF00EB87B
:101110000BF0CABF0CF02BB990F8252012B1036870
:101120005B69184770470000034B4FF080629A607C
:101130004FF080729A60704700E100E0084B4FF07A
:101140008062C3F88820BFF34F8FBFF36F8F4FF0DB
:101150008072C3F88820BFF34F8FBFF36F8F704743
:1011600000E100E010B5144C236823B3134B144A7C
:101170001B6C11888B4213D1124B198807F0A4FB0A
:10118000226892F86A30013382F86A30FFF71AFC5D
:1011900020680CF017FDBDE810400020FFF7EDBA05
:1011A00007F092FB206803681B6A9847BDE810406F
:1011B0000020FFF7E3BA10BDD44F012000680140C2
:1011C000323E0020303E002007B5064BADF8060049
:1011D0001B68054801220DF1060108F0D1F803B0A3
:1011E0005DF804FB10000020DC3F00202DE9F341F6
:1011F000664C674D674F684B1B78002B40F0AF8003
:1012000041232370654B1B786370642302222146BF
:10121000634808F09DFD0421284606F071FD012871
:101220000FD1604E4C2330688DF8073009F039FA41
:10123000012806D83068C82300220DF1070109F003
:10124000D1F90821284606F05BFD01280FD1564E42
:10125000522330688DF8073009F023FA012806D8A8
:101260003068C82300220DF1070109F0BBF91021F5
:10127000284606F045FD01280FD14C4E5523306815
:101280008DF8073009F00DFA012806D83068C82318
:1012900000220DF1070109F0A5F92021284606F0EA
:1012A0002FFD01280FD1424E442330688DF80730BE
:1012B00009F0F7F9012806D83068C82300220DF19B
:1012C000070109F08FF93B48012106F019FD0128BB
:1012D0000FD1344E532330688DF8073009F0E1F90F
:1012E000012806D83068C82300220DF1070109F053
:1012F00079F90421384606F003FD064690B9DFF877
:10130000BC804123D8F800008DF8073009F0C9F9F6
:10131000012807D8D8F80000C82332460DF107018C
:1013200009F060F90821384606F0EAFC064690B953
:10133000DFF884804223D8F800008DF8073009F0E8
:10134000B0F9012807D8D8F80000C82332460DF1BB
:10135000070109F047F9642009F057F84BE7012B22
:101360007FF453AF144E53232370306831238DF82C
:10137000073009F096F901283FF647AF3068C823D7
:1013800000220DF1070109F02DF93EE7543E00203F
:1013900000100240001802400541002004410020D6
:1013A000C04000203C3E0020403E0020443E002043
:1013B000483E002000000240503E00204C3E0020ED
:1013C000084B02681B689A420BD1074B06491B78F1
:1013D0000448412B02BF054B01221A70042208F079
:1013E000D8BE7047C0400020543E00200541002078
:1013F00030B595B0102200210AA820F0A3FA1422DB
:10140000002103A820F09EFA00241D4B01941A6CC1
:1014100042F080521A641B6C03F080530193019BCD
:10142000184B02941A6842F440421A601B6803F495
:10143000404302930122029B4FF48033CDE90823FD
:1014400002254FF48003CDE90E5308214FF4A87311
:10145000CDE9101308A804231393129507F052FA4C
:101460000F23CDE903354FF4A0504FF48053CDE95D
:101470000603052103A8059407F022FC15B030BD32
:1014800000380240007000402DE980489BB006F013
:101490005DF9002020F068FF20F02AFEFFF7A8FF8A
:1014A000142200210DA8002420F04CFAC44B009413
:1014B0001A6BC448C44E42F010021A631A6B02F051
:1014C00010020092009A01941A6B42F020021A63F3
:1014D0001A6B02F020020192019A02941A6B42F0F8
:1014E00080021A631A6B02F080020292029A03943D
:1014F0001A6B42F004021A631A6B02F004020392A0
:10150000039A04941A6B42F001021A631A6B02F0F8
:1015100001020492049A05941A6B42F002021A63C3
:101520001A6B02F002020592059A06941A6B42F0B9
:1015300040021A631A6B02F040020692069A079460
:101540001A6B42F008021A631B6B03F0080307933F
:1015500022460421079B06F0D9FB22469B484FF404
:101560004051012506F0D2FB3C2399480F950DA967
:1015700002274FF00408CDE90D3406F0DBFA91485C
:1015800010970DA9CDE90D850F9406F0D3FA914877
:101590000F940DA9CDE90D5406F0CCFA4FF4405349
:1015A0008A480DA9CDE90D354FF00C09CDE90F445E
:1015B00006F0C0FA0DA988480F95CDE90D9406F004
:1015C000B9FA8648864B036006F052F9854A864B85
:1015D0003462C6E9002330464FF48043C6E9043440
:1015E000C6E90244C6E9064406F072FD1021304601
:1015F00006F0AEFF2146304606F0C9FF7B487C4925
:1016000084624FF48273C0E900134FF4007618230C
:10161000C0E906630A23774EC362C0E90244C0E909
:101620000444C0E9084407F04FFE734B0D974FF098
:10163000100CC6E900354023C6E904C34FF4C0735B
:10164000C6E906344FF40063C6E908344FF400538A
:101650004FF0030BB3620DA9072330464FF0080A81
:10166000CDE90E381093CDE911B7C6E902481397BA
:1016700007F02AFD4FF6FF7209A93046CDE90AA509
:10168000089409950C9407F03FFD284606F08AF867
:101690004FF6FF7209A93046CDE9097ACDE90B541E
:1016A00007F032FD4FF6FF7209A93046CDE909BABD
:1016B000CDE90B8407F028FD4FF40C730893089BC9
:1016C0000C934FF6FF7209A93046CDE9098A0B95B4
:1016D00007F01AFD40F26A51304607F033FD34221C
:1016E000464E21460DEB020020F02CF9444BB48607
:1016F0001D2240F20D1EC6E9072B40F24312C6E937
:1017000009E2C6E9003440F247120923304640F2AC
:10171000171BC6E90535C6E90BB2C6E902443461B8
:1017200086F8364006F0D8FFFF204FF48063F021A2
:101730004FF4A072CDE912040520CDE91430CDE9B3
:101740001027CDE90E14CDE9164118920DA92246B5
:1017500030460D942B4EADF864408DF8664007F08E
:1017600086F8294A3260126890473268274ED2685C
:101770009047274AC6E90A47C6E90C443046C6E9FD
:101780000024C6E9027406F0D9F82946304606F06E
:101790008DF92048204A214E4FF4E137C0E9002757
:1017A000C0E90244C0E90449C0E9064408F0A2FACD
:1017B0001B4A3046C6E90027C6E9024432E000BFB2
:1017C0000038024000080240AC3E0020000C0240FD
:1017D000001002400000024000180240643E002059
:1017E00000300240005C0040A0860100DC3F002089
:1017F00000500140A83F0020400100A0003F002011
:1018000000680140383E0020140000206C3E00209B
:1018100000B002407C40002000100140C040002089
:1018200000500040364FC6E90449C6E9064408F0B6
:1018300061FA3449BC605922C7E9001238464CF2BB
:101840004F32FA60CDE90D44BC6108F025F90DA9CD
:101850003846CDE90D4408F04BF9FEF7CDFEFEF712
:10186000CAFE294957220A703046424608F091FCC8
:1018700020F06CFC254A092390FBF3F303EBC30330
:10188000C31A137008F04CFD214A2946504608F04F
:101890006EFE204B204A18602946504608F067FE2D
:1018A0001E4B1F4A18602946504608F060FE1D4B2B
:1018B0001D4A18602946504608F059FE1B4B1C4A29
:1018C00018602946504608F052FE1A4B1A4A186012
:1018D0002946504608F04BFE184B194A186021461D
:1018E000184808F049FD184B184A18602146184856
:1018F00008F042FD174B186008F024FDFEE700BF1A
:101900003440002000140040543E002004410020D8
:101910002C3202083C3E002044320208403E0020A7
:101920005C320208443E002074320208483E002027
:101930008C3202084C3E0020A4320208503E0020A7
:10194000BC320208ED110008603E00200832020897
:1019500007060008343E0020704770477FB5094BEA
:101960008DF817201B6802930DF1170201230092D6
:1019700001930A460146044806F052FC07B05DF8A0
:1019800004FB00BF0C000020AC3E00207FB500230C
:101990008DF81730084B1B6802930A4601230DF19E
:1019A0001701009101930146044806F0C9FC9DF817
:1019B000170007B05DF804FB0C000020AC3E0020CF
:1019C0001FB5084C24680092CDE901340A46012372
:1019D0000146054806F0B4FC003818BF012004B0E9
:1019E00010BD00BF0C000020AC3E002005F0DABEA8
:1019F00008B506480022042106F088F9BDE8084031
:101A000002480122042106F081B900BF000802400B
:101A100038B50B4D044601220A484FF4005106F038
:101A200075F900220421284606F070F92046FFF7D8
:101A3000CBFB28460122BDE83840042106F066B9F8
:101A400000080240000C024038B50B4D044600224D
:101A50000A484FF4005106F059F9002204212846A3
:101A600006F054F92046FFF7AFFB28460122BDE8F7
:101A70003840042106F04AB900080240000C024038
:101A8000F7B5144E144F05460C463046002204218B
:101A900006F03CF900224FF40051384606F036F9C2
:101AA0002846FFF791FB0D4B0D481B68224601A904
:101AB00007F008FE384601224FF40051019C06F061
:101AC00025F930460122042106F020F9204603B012
:101AD000F0BD00BF00080240000C024010000020D2
:101AE000DC3F002005F05EBE0268034B9A4201D144
:101AF00005F046BE704700BF001000407047000070
:101B000082B00E4B00220092596C41F4804159641E
:101B1000596C01F48041009100990192196C41F0D7
:101B2000805119641B6C03F080530193019B0F21BA
:101B30006FF0010002B005F05BBE00BF003802404C
:101B40000268094B9A4282B00BD100230193074BE4
:101B50001A6B42F480521A631B6B03F48053019397
:101B6000019B02B0704700BF0030024000380240C5
:101B700007B50F4B02689A4216D10022A3F5F04335
:101B80000192196B41F4000119631B6B03F400030C
:101B9000019305215A20019B05F02AFE5A2003B02B
:101BA0005DF804EB05F056BE03B05DF804FB00BF22
:101BB00000B002402DE9F043044689B01422002110
:101BC00003A81FF0BFFE2268244B9A4243D1244C45
:101BD000244800250095236B43F004032363236B03
:101BE00003F004030093009B0195236B43F0010372
:101BF0002363236B03F001030193019B4FF0120950
:101C00004FF400734FF001080327042603A9CDE920
:101C10000339CDE90587079605F08CFF4FF48073F3
:101C20001148079603A9CDE90339CDE9058705F0E9
:101C300081FF0295236C43F400032364236C03F4B7
:101C400000030293029B236A43F400032362236A86
:101C500023F40003236209B0BDE8F083005C004078
:101C6000003802400008024000000240F0B599B080
:101C700004461422002107A81FF064FE30220DEB59
:101C8000020000211FF05EFE22685E4B9A4240F087
:101C9000B78008230C93C0231093042312930CA83D
:101CA0004FF40033159307F0E5F808B1FFF726FF6E
:101CB000554B5648002400945A6C42F080625A6496
:101CC0005A6C02F080620092009A01941A6B42F002
:101CD00020021A631A6B02F020020192019A029408
:101CE0001A6B42F001021A631A6B02F001020292AF
:101CF000029A03941A6B42F002021A631A6B02F002
:101D000002020392039A04941A6B42F040021A638F
:101D10001A6B02F040020492049A05941A6B42F086
:101D200004021A631A6B02F004020592059A0694E3
:101D30001A6B42F008021A631B6B03F00803069348
:101D400002250E26069B0B964FF4806307A9CDE96A
:101D50000735CDE9094505F0EDFE41F658032C485D
:101D60000B9607A9CDE907350927CDE9094505F007
:101D7000E1FE032327480B9707A9CDE90735CDE9F5
:101D8000094505F0D7FE4FF4706322480B9607A96A
:101D9000CDE90735CDE9094505F0CCFE4FF40C63DC
:101DA0001D480B9607A9CDE90735CDE9094505F092
:101DB000C1FEC02319480B9607A9CDE90735CDE927
:101DC000094505F0B7FE082315480B9607A9CDE98C
:101DD0000735CDE9094505F0ADFE4FF4A0530E4897
:101DE0000B9707A9CDE90735CDE9094505F0A2FE16
:101DF00058202246052105F0FBFC582005F02AFD5D
:101E000019B0F0BD006801400038024000140240E3
:101E10000000024000040240001802400008024096
:101E2000000C024010B5044688B01422002103A81B
:101E30001FF088FD2268144B9A4223D103F56843B2
:101E4000002101915A6C114842F480125A645A6C74
:101E500002F480120192019A02911A6B42F0200260
:101E60001A631B6B03F020030293029B4FF4607212
:101E700002230321CDE903230523CDE9061303A99A
:101E800005F058FE08B010BD00500140001402409B
:101E900007B50F4B02689A4216D1002203F50933A9
:101EA0000192196C41F0200119641B6C03F02003AE
:101EB000019305213720019B05F09AFC372003B0E0
:101EC0005DF804EB05F0C6BC03B05DF804FB00BF91
:101ED00000140040F0B514228BB0044600210DEB35
:101EE00002001FF02FFD2368384A934240D1384B3F
:101EF0003848002400941A6C42F480121A641A6C58
:101F000002F480120092009A01941A6B42F00402CB
:101F10001A631A6B02F004020192019A02941A6B7E
:101F200042F008021A631B6B03F008030293029B42
:101F300002274FF480530326082505A9CDE905376C
:101F4000CDE9086505F0F6FD04232348099505A9A8
:101F5000CDE90537CDE9074605F0ECFD35202246F1
:101F6000052105F045FC352005F074FC0BB0F0BDF3
:101F70001A4A9342FAD1164B1948002403945A6C1A
:101F800042F010025A645A6C02F010020392039A53
:101F900004941A6B42F001021A631B6B03F00103F5
:101FA00004934FF4C062049B0223CDE9052303216F
:101FB0000723CDE9081305A905F0BCFD252022461D
:101FC000052105F015FC2520CEE700BF005000409C
:101FD0000038024000080240000C0240001001409E
:101FE000000002402DE9F04186B0002303932B4B03
:101FF0001C68002C4FD14FF00108C3F80080284B1B
:1020000000949A6B274842EA08029A639B6B03EAA2
:1020100008030093022703260C25009B01A94FF615
:102020003F03CDE90137CDE9046505F083FD1E4886
:10203000059501A9CDE90187CDE9034605F07AFDB3
:1020400048F233131948059501A9CDE90137CDE9C7
:10205000034605F06FFD4FF683731548059501A9FA
:10206000CDE90137CDE9034605F064FD4CF2037379
:102070001048059501A9CDE90137CDE9034605F0E2
:1020800059FD60230C48059501A9CDE90137CDE93B
:10209000034605F04FFD06B0BDE8F0810841002081
:1020A00000380240001402400008024000180240BC
:1020B00000100240000C02400004024070B588B0DD
:1020C00000230293204B1A6C42F010021A641B6C1E
:1020D00003F010030293054601A903A8029B06F032
:1020E000ABFE069B4BBB06F087FE184E184B3360C9
:1020F00040F2E733F360174BB0FBF3F3013B73603F
:10210000304600233361B360B36107F0C5FC044679
:1021100080B9304607F07AFB044658B9362005F0FE
:1021200099FB0F2D0DD822462946362005F060FB7D
:10213000094B1D60204608B070BD06F05DFE4000F2
:10214000D3E70124F6E700BF003802400C4100202D
:102150000010004040420F007C0000207047FEE766
:10216000FEE7FEE7FEE77047014807F0A7BE00BFA5
:102170007C400020014807F0A1BE00BFC040002005
:10218000014807F081BB00BF0C410020014807F067
:102190007BBB00BF34400020014806F00BBB00BFF2
:1021A000003F0020014805F0F7BB00BF6C3E002057
:1021B0000120704708B51FF05BFB162303604FF04A
:1021C000FF3008BD08B51FF053FB16230360FEE780
:1021D00070B50D4614460E46731B9C4201DC20462A
:1021E00070BDAFF3008006F8010BF5E770B50D4642
:1021F00014460E46731B9C4201DC204670BD16F847
:10220000010BAFF30080F5E74FF0FF3070474FF45C
:1022100000534B600020704701207047002070473A
:102220000A4A116808B5034609B9094911601068DE
:10223000694603448B4206D91FF01AFB0C23036046
:102240004FF0FF3008BD1360FCE700BF5441002091
:10225000C85A0120704708B5042918D8DFE801F0F2
:1022600003070B0F130003F01FFA006808BD03F00B
:102270001BFA4068FAE703F017FA8068F6E703F004
:1022800013FAC068F2E703F00FFA0069EEE70020E6
:10229000ECE710B5042104461FF008FA204610BDF3
:1022A00000487047F43202081220704713B500242A
:1022B00051B1036801948DF8034001AA9C680DF1A7
:1022C0000303A04702B010BD0846FBE7C089704772
:1022D000008A7047C088704780887047807A00F015
:1022E0007F007047807AC009704770477047704719
:1022F0007047704770477047704770477047704726
:1023000030B4C26844685510034604EB6200D2073B
:1023100048BF62599B6830BC48BFD35818474368D0
:102320002BB183682BB9C06800F0010070471846D4
:1023300070470120704710B5082104461FF0B6F918
:10234000204610BD10B5102104461FF0AFF92046FD
:1023500010BD10B54FF4C07104461FF0A7F9204618
:1023600010BD00F1E003994270B504460D4602D15C
:102370000368DB6A984704F594739D4205D123688E
:1023800020461B6BBDE87040184770BD70B50368F0
:1023900004461B6B154698472368294620465B6B0D
:1023A000BDE87040184770B504461D46BDF9106081
:1023B000FFF7ECFF2368294620469B6B984723686C
:1023C00031462046DB6BBDE870401847094A026081
:1023D0004FF4807100228184FF21C0E90122C0E90D
:1023E0000322C0E90522C0E9072280F82610826294
:1023F000704700BF704C02081A4B73B51B88018FE1
:102400008B4206462AD9184B1B682BB9174B184A22
:1024100018486C211FF0FAF913F81120164B1B68AD
:1024200053F82250154B186803F02EF92B680190D1
:102430009B6B284698472B6801999B6C044628465D
:1024400098472B6801995B6A14FB00F4284698476B
:10245000A4B20444A6F8464002B070BD0023A0F820
:102460004630F9E728500120245001205C3402084E
:102470009E340208D93402082C500120305001202B
:102480002DE9F04F04468BB0A14600250FF018FF50
:10249000654BE56349F8403B04F16C0B4846FFF798
:1024A00095FF5846FFF792FF4FF48073A4F8BC30B5
:1024B0005E4BC4F898305E4BC4F8C0304FF6FF73E3
:1024C00004F1E0084FF0FF32A4F8C4304FF47F036A
:1024D00004F59477C4E93625C4F8CC30C4E927550F
:1024E000C4E92955C4E92B55C4E92D55C4F8C85091
:1024F000A4F8D050C4F8D45040460CF0B1FD384692
:102500000CF0AEFD4B4BC4E95C344B4B4FF4A07266
:10251000C4E95E350092F0232A4629464846FFF773
:1025200042FF261D4FF07F42A266494630460AF020
:102530001FFB4FF4A072F023009229462A4658460A
:10254000FFF731FF4FF07F4204F1980AC4F894205E
:10255000594630460AF00CFB504632224421FFF720
:1025600015FF0DF108094FF0FF32C4F8C82051469D
:102570004846A4F8CC500CF013F899E8070004F191
:10258000D40383E807004FF00209294B089308A9F8
:102590005046ADF824900CF09DFA514630460AF0B2
:1025A000E7FA40468E220D21FFF7F0FE4FF0010AB8
:1025B00008AA07A94046ADF81CA0ADF820900CF081
:1025C000E6FA4046A4F818A1FFF716FF04F5B87B19
:1025D0004FF0FF33C4E9473341463046C4F808B1F1
:1025E0000AF0C6FA38468E228421FFF7CFFE08AAE9
:1025F00007A93846ADF81CA0ADF820900CF0C7FA3A
:102600003846A4F86051FFF7F7FE4FF0FF3330462D
:10261000C4E95933C4F850B139460AF0A9FA204642
:102620000BB0BDE8F08F00BF50350208E04B020848
:1026300028350208383502086323000830B50368DE
:10264000018185B06D460146D3F8843004462846A2
:10265000984795E807003C3484E8070005B030BD92
:1026600030B50368418185B06D460146D3F88430AA
:1026700004462846984795E807003C3484E807005C
:1026800005B030BD0022028042808280C280704747
:1026900080F83610704770B5036804461B6B15460A
:1026A00098472368294620465B6EBDE8704018476E
:1026B00000207047806C70477047704770477047C4
:1026C00030B4C26844685510034604EB6200D20778
:1026D00048BF62599B6830BC48BFD358184743680D
:1026E0002BB183682BB9C06800F001007047184611
:1026F00070470120704710B54C2104461EF0D6FFEC
:10270000204610BD10B5102104461EF0CFFF204614
:1027100010BD10B54FF4CC7104461EF0C7FF204623
:1027200010BD08B5FEF7F8FC08BD0000036870B5E1
:102730005E6B124B1B6804468DB22BB9104B114ACD
:102740006C2111481FF062F81049828D098891426E
:1027500003D80F4B0B4A6D21F3E713F812200D4BF2
:102760001B6853F8220003681B6B9847281A01B2B4
:1027700033462046BDE87040184700BF2450012072
:102780005C3402089E340208D93402082850012023
:10279000843502082C5001209830884208B505D1B4
:1027A0000EF078F9BDE8084000F0F4BA08BD002248
:1027B0004FF0FF31C0E90021826070474FF4807113
:1027C00081840D4901600D4981624FF6FF71818559
:1027D0004FF47F01002241634FF0FF31C0E9012235
:1027E000C0E90322C0E90522C0E90722C0E91012AE
:1027F00002630287C2637047E04B02082835020873
:102800002DE9F04F04468BB0A24600250FF058FD8D
:102810006A4BE5634AF8403B04F16C0B504604F107
:102820009809FFF7D3FD5846FFF7D0FD04F1E00803
:1028300048460CF015FC04F594774046FFF7BEFFC0
:102840003846FFF7BBFF5E4BC4F828315D4BC4F838
:102850007051C4E962345C4BC4E964354FF4A07331
:102860002A46294650460093F023FFF79CFD261D7B
:102870004FF07F435146A36630460AF079F94FF492
:10288000A0732A46294658460093F023FFF78BFD94
:102890004FF07F43C4F89430594630460AF068F947
:1028A0004846BF222121FFF771FD032308AA07A98B
:1028B0004846ADF81C30ADF820300CF068F906231E
:1028C0004846A4F8D030FFF797FD4FF0FF3A04F5E3
:1028D000C473C4F8C03049463046C4E935AA0AF08A
:1028E00047F90DF10809262235214046FFF74EFD34
:1028F000A4F8145141464846C4F810A10BF050FE0C
:1029000099E8070004F58E7383E807004FF00A0B7F
:102910002E4B089308A94046ADF824B00CF0DAF825
:10292000414630460AF024F925236D2200932121E7
:10293000B9233846FFF737FDD4F82831A4F85C51A5
:10294000D3F88430C4F858A139464846984799E8E6
:10295000070004F5B27383E807001D4B1B6804F5FC
:10296000BA752BB91B4B1C4A60211C481EF04EFF48
:102970001B4B1B88092B03D81A4B174A6121F4E71C
:10298000194B0921186802F07FFE184A0346594680
:10299000284611F079F90D4B089308A9072338460A
:1029A000C4F87051ADF824300CF094F83046394634
:1029B0000AF0DEF820460BB0BDE8F08FB036020812
:1029C00008360208983602089927000828350208B8
:1029D000245001205C340208C2350208D9340208B0
:1029E000285001208435020830500120FA350208B1
:1029F0007047704700F598730868496803C37047CB
:102A0000704770474160704770470000064BC0F840
:102A10004C310023C0F8503100F5A273C0F84801D2
:102A2000C0F84031704700BFAD2B0008012303728E
:102A3000704770477047704710B4C26841685410BF
:102A4000034601EB6200D20748BF0A599B685DF854
:102A5000044B48BFD358184743682BB183682BB940
:102A6000C06800F0010070471846704701207047A9
:102A700010B50C2104461EF019FE204610BD10B5FD
:102A8000102104461EF012FE204610BD10B54FF472
:102A9000AE7104461EF00AFE204610BD10B540215E
:102AA00004461EF003FE204610BD10B50DF0F2FFE7
:102AB0000368BDE81040DB6B18470000054B1B782E
:102AC00001462BB1406818B103680C315B6E1847A2
:102AD000704700BFD34F0120037A70B50546BBB9DC
:102AE00040680368DB69984704464CB1A1886B8F46
:102AF000C91A236820461B6B09B29847A469F4E7FA
:102B00006868036805F10C011B6EBDE8704018474A
:102B100070BD70B5044690F8390094F83830013033
:102B2000C0B2984284F8390005D9012323720023EA
:102B300084F8393070BDB4F93A2000210FF072FDED
:102B400010F0010283B206D04FF6FF710028D8BF03
:102B50000A46981800B2238AC01AA08760680368E2
:102B6000DB69984705464DB1A988A38F19442B68A6
:102B700028461B6B09B29847AD69F4E760680368A3
:102B8000BDE870405B69184710B50446D0F84001B5
:102B900058B10368DB68984738B1D4F8400103683E
:102BA0009B6898470023C4F8403110BD2DE9F14FD0
:102BB000D0E9555A0746A86803681B6A9847B0F5DC
:102BC000F47F05D2454B464AA32146481EF01EFE1F
:102BD000686803681B6A98470F2803D8424B404A2D
:102BE000A421F2E7E86803681B6A98470B2803D81A
:102BF0003E4B3B4AA521E8E70DF04CFFDFF8F4908F
:102C000004300DF085FFD9F8000010B10368DB68CF
:102C10009847D9F8000010B103681B689847DFF89F
:102C2000D880D8F8000010B103685B699847D7F8DE
:102C30003C0110B103685B689847D8F8000010B1F8
:102C400003681B689847D7F83C0110B103689B687C
:102C50009847E868036800215B6A98474FF0000BCB
:102C6000234B03600446C0F804B080F808B0A8689D
:102C7000036859465B6A9847064603F0B3FC6868E8
:102C8000036859465B6A98473146054603F078FC6D
:102C9000C9F80040C7F83C51C8F80060E5B12B1DE9
:102CA000CAF800303368C5F808A03046DB68F56321
:102CB00098472B6828461B689847214630460FF0F6
:102CC000ABFC236820461B69984723685B69204654
:102CD00001B0BDE8F04F18472B46E1E7DC360208AB
:102CE0006A37020874380208BB3802085E390208E5
:102CF000444102081450012010500120044B1B686D
:102D000093F858200AB1D86C00B99868704700BF92
:102D1000D44F0120F8B5044617460E460DF0C6FF05
:102D2000104B1C60104B2360104B0025C4E951353B
:102D30000F4BC4E953551868036801219B68C4E927
:102D40004F55C4E955769847284602F061FCFFF7D5
:102D5000D5FF17F03AF9FFF7D1FF17F0B1F9204688
:102D6000F8BD00BF20500120F0400208D840020802
:102D7000D44F0120064BC0F84C310023C0F850312D
:102D800000F5A273C0F84801C0F84031704700BF99
:102D9000AD2B0008064BC0F84C310023C0F8503171
:102DA00000F5A273C0F84801C0F84031704700BF79
:102DB00011350008064BC0F84C310023C0F85031E3
:102DC00000F5A273C0F84801C0F84031704700BF59
:102DD000D1330008064BC0F84C310023C0F8503105
:102DE00000F5A273C0F84801C0F84031704700BF39
:102DF00091320008064BC0F84C310023C0F8503126
:102E000000F5A273C0F84801C0F84031704700BF18
:102E100051310008064BC0F84C310023C0F8503146
:102E200000F5A273C0F84801C0F84031704700BFF8
:102E300011300008064BC0F84C310023C0F8503167
:102E400000F5A273C0F84801C0F84031704700BFD8
:102E5000D12E000803685B6A184700002DE9F04195
:102E600005460026164B4660067245F80C3B0446A4
:102E700028460F460BF080F8124B84F838701B7808
:102E800084F83960A68723B9012323722046BDE860
:102E9000F0810D4B0D4FB3F90080E368B7F90010D6
:102EA0009B6B266128469847E3684146DB6B2846C2
:102EB000984728460AF0DBFF3B885B426387E5E7DB
:102EC00068410208D34F0120CA4F0120C84F01209A
:102ED0002DE9F047D0E9554A0746A06803681B6A08
:102EE0009847B0F5CC7F05D2424B434AA3214348D3
:102EF0001EF08CFC606803681B6A98470F2803D893
:102F00003F4B3D4AA421F2E7E06803681B6A9847FB
:102F10003F2803D83B4B384AA521E8E70DF0BAFD1E
:102F2000DFF8E49004300DF0F3FDD9F8000010B1A3
:102F30000368DB689847D9F8000010B103681B6884
:102F40009847DFF8C880D8F8000010B103685B69C3
:102F50009847D7F83C0110B103685B689847D8F8E8
:102F6000000010B103681B689847D7F83C0110B106
:102F700003689B689847E0680021FFF76BFF142106
:102F80000546FFF76BFFA068036800215B6A98475E
:102F9000064602F02DFC6068036800215B6A9847D2
:102FA0003146044602F0FEFBC9F80050C7F83C4128
:102FB000C8F80060DCB1231DCAF800303368C4F8DB
:102FC00008A03046DB68F4639847236820461B68F6
:102FD0009847294630460FF01FFB2B6828461B698F
:102FE00098472B6828465B69BDE8F0471847234699
:102FF000E2E700BFDC360208013A02087438020832
:10300000BB3802085E39020814500120105001201C
:103010002DE9F047D0E9554A0746A06803681B6AC6
:10302000984741F67B63984205D8424B424AA32118
:1030300042481EF0EBFB606803681B6A98470F2844
:1030400003D83F4B3C4AA421F2E7E06803681B6ABF
:1030500098473F2803D83B4B374AA521E8E70DF0B6
:1030600019FDDFF8E49004300DF052FDD9F80000AE
:1030700010B10368DB689847D9F8000010B1036805
:103080001B689847DFF8C480D8F8000010B10368C7
:103090005B699847D7F83C0110B103685B689847B3
:1030A000D8F8000010B103681B689847D7F83C01B6
:1030B00010B103689B689847E0680021FFF7CAFEDB
:1030C00014210546FFF7CAFEA068036800215B6A69
:1030D0009847064603F03AFD6068036800215B6A82
:1030E00098473146044603F03BFBC9F80050C7F847
:1030F0003C41C8F80060DCB1231DCAF800303368D9
:10310000C4F808A03046DB68F4639847236820467B
:103110001B689847294630460FF07EFA2B682846F0
:103120001B6998472B6828465B69BDE8F04718473C
:103130002346E2E7DC360208243B02087438020822
:10314000BB3802085E3902081450012010500120DB
:103150002DE9F047D0E9554A0746A06803681B6A85
:10316000984742F2B753984205D8424B424AA321AE
:1031700042481EF04BFB606803681B6A98470F28A3
:1031800003D83F4B3C4AA421F2E7E06803681B6A7E
:1031900098473F2803D83B4B374AA521E8E70DF075
:1031A00079FCDFF8E49004300DF0B2FCD9F80000AF
:1031B00010B10368DB689847D9F8000010B10368C4
:1031C0001B689847DFF8C480D8F8000010B1036886
:1031D0005B699847D7F83C0110B103685B68984772
:1031E000D8F8000010B103681B689847D7F83C0175
:1031F00010B103689B689847E0680021FFF72AFE3A
:1032000014210546FFF72AFEA068036800215B6AC7
:103210009847064602F004FC6068036800215B6A78
:1032200098473146044602F05FFBC9F80050C7F8E2
:103230003C41C8F80060DCB1231DCAF80030336897
:10324000C4F808A03046DB68F4639847236820463A
:103250001B689847294630460FF0DEF92B68284650
:103260001B6998472B6828465B69BDE8F0471847FB
:103270002346E2E7DC360208493C020874380208BB
:10328000BB3802085E39020814500120105001209A
:103290002DE9F047D0E9554A0746A06803681B6A44
:1032A0009847B0F5C07F05D2424B434AA32143481B
:1032B0001EF0ACFA606803681B6A98470F2803D8B1
:1032C0003F4B3D4AA421F2E7E06803681B6A984738
:1032D0003F2803D83B4B384AA521E8E70DF0DAFB3D
:1032E000DFF8E49004300DF013FCD9F8000010B1C1
:1032F0000368DB689847D9F8000010B103681B68C1
:103300009847DFF8C880D8F8000010B103685B69FF
:103310009847D7F83C0110B103685B689847D8F824
:10332000000010B103681B689847D7F83C0110B142
:1033300003689B689847E0680021FFF78BFD142124
:103340000546FFF78BFDA068036800215B6A98477C
:10335000064602F00DFA6068036800215B6A984730
:103360003146044602F0C6F9C9F80050C7F83C419E
:10337000C8F80060DCB1231DCAF800303368C4F817
:1033800008A03046DB68F4639847236820461B6832
:103390009847294630460FF03FF92B6828461B69AD
:1033A00098472B6828465B69BDE8F04718472346D5
:1033B000E2E700BFDC360208663D02087438020806
:1033C000BB3802085E390208145001201050012059
:1033D0002DE9F047D0E9554A0746A06803681B6A03
:1033E0009847B0F5047F05D2424B434AA321434896
:1033F0001EF00CFA606803681B6A98470F2803D810
:103400003F4B3D4AA421F2E7E06803681B6A9847F6
:103410003F2803D83B4B384AA521E8E70DF03AFB9B
:10342000DFF8E49004300DF073FBD9F8000010B120
:103430000368DB689847D9F8000010B103681B687F
:103440009847DFF8C880D8F8000010B103685B69BE
:103450009847D7F83C0110B103685B689847D8F8E3
:10346000000010B103681B689847D7F83C0110B101
:1034700003689B689847E0680021FFF7EBFC142184
:103480000546FFF7EBFCA068036800215B6A9847DC
:10349000064603F0E7F86068036800215B6A984716
:1034A0003146044603F0B8F8C9F80050C7F83C416B
:1034B000C8F80060DCB1231DCAF800303368C4F8D6
:1034C00008A03046DB68F4639847236820461B68F1
:1034D0009847294630460FF09FF82B6828461B690D
:1034E00098472B6828465B69BDE8F0471847234694
:1034F000E2E700BFDC3602088F3E0208743802089B
:10350000BB3802085E390208145001201050012017
:103510002DE9F047D0E9554A0746A06803681B6AC1
:103520009847B0F5F47F05D2424B434AA321434864
:103530001EF06CF9606803681B6A98470F2803D86F
:103540003F4B3D4AA421F2E7E06803681B6A9847B5
:103550003F2803D83B4B384AA521E8E70DF09AFAFB
:10356000DFF8E49004300DF0D3FAD9F8000010B180
:103570000368DB689847D9F8000010B103681B683E
:103580009847DFF8C880D8F8000010B103685B697D
:103590009847D7F83C0110B103685B689847D8F8A2
:1035A000000010B103681B689847D7F83C0110B1C0
:1035B00003689B689847E0680021FFF74BFC1421E3
:1035C0000546FFF74BFCA068036800215B6A98473B
:1035D000064603F007F86068036800215B6A9847B5
:1035E0003146044602F0CCFFC9F80050C7F83C4110
:1035F000C8F80060DCB1231DCAF800303368C4F895
:1036000008A03046DB68F4639847236820461B68AF
:103610009847294630460EF0FFFF2B6828461B6965
:1036200098472B6828465B69BDE8F0471847234652
:10363000E2E700BFDC360208B23F02087438020835
:10364000BB3802085E3902081450012010500120D6
:103650007047704710B54FF4FA6104461EF026F823
:10366000204610BD074A02600022C0E90122C0E9DD
:103670000322C0E90522C0E907224FF48072828448
:10368000704700BF0C4E020810B50446FFF7EAFF72
:10369000024B23600023A362204610BD3C4A02086F
:1036A0002DE9F04F2DED108B054699B0AA46002468
:1036B0000EF006FEDF4BEC634AF8403B5046FEF747
:1036C00085FE05F16C0305F1980918464FF6FF7663
:1036D00005F1C4071593FEF779FE16A94846ADF823
:1036E00058600AF0B3FC3846FFF7CEFF05F1F0034F
:1036F00016A918460AEE103AADF858600AF0A6FC72
:1037000005F58E7316A918460AEE903AADF8586082
:103710000AF09CFC05F5A47316A918460BEE103AA6
:10372000ADF858600AF092FC05F5BA73184608EE39
:10373000103AFFF7A9FF05F5D07316A918460BEE4E
:10374000903AADF858600AF081FC05F5E67316A9C9
:1037500018460CEE103AADF858600AF077FC05F503
:10376000FC7316A918460CEE903AADF858600AF0B2
:103770006DFC05F5097305F5147816A918460DEECC
:10378000103AADF858600AF061FC4046FFF77CFF44
:1037900005F51F7316A918460DEE903AADF858605E
:1037A0000AF054FC05F52A7316A918460EEE103AD5
:1037B000ADF858600AF04AFC05F5357316A91846AD
:1037C0000EEE903AADF858600AF040FC05F54073F3
:1037D00016A918460FEE103AADF858600AF036FCFC
:1037E00005F54B7316A918460FEE903AADF85860E0
:1037F0000AF02CFC05F5567318460293FFF744FFB8
:1038000005F5617316A918460393ADF858600AF0E0
:103810001DFC05F56C7316A918460493ADF85860A5
:103820000AF014FC05F57773184609EE103AFFF715
:103830002BFF05F5816316A918460593ADF858606E
:103840000AF004FC05F2344316A918460693ADF8B5
:1038500058600AF0FBFB05F58C6316A91846079320
:10386000ADF858600AF0F2FB05F28C43184608EEFA
:10387000903AFFF709FF05F5976316A918460893D4
:10388000ADF858600AF0E2FB05F2E44316A91846C9
:103890000993ADF858600AF0D9FB05F5A26316A9A3
:1038A00018460A93ADF858600AF0D0FB05F23C5375
:1038B00005F5AD6B16A918460B93ADF858600AF0E4
:1038C000C5FB5846FFF7E0FE05F2945316A91846CB
:1038D0000C93ADF858600AF0B9FB05F5B86316A96A
:1038E00018460D93ADF858600AF0B0FB05F2EC53A2
:1038F00016A918460E93ADF858600AF0A7FB05F517
:10390000C36316A918460F93ADF858600AF09EFBE2
:1039100005F2446316A918461093ADF858600AF0F2
:1039200095FB05F5CE6318461193FFF7ADFE05F242
:103930009C6316A918461293ADF858600AF086FBEE
:1039400005F5D96316A918461393ADF858600AF027
:103950007DFB05F2F46309EE903A262221461846D3
:103960001DF0F0FF19EE900AFFF77CFE324BC5F810
:103970001C374FF47F03C5F82837304BC5F8F436B1
:103980004FF0FF33C5F8343705F5E8631493A5F815
:1039900020674FF0FF3316A91498C5F82447A5F8FF
:1039A0002C47C5F83047C5F83847C5F83C47ADF84F
:1039B00058300AF04BFB4FF4A07322465046009358
:1039C0002146F0232E1DFEF7EEFC4FF07F435146BB
:1039D000AB66304609F0CCF84FF4A0732246159838
:1039E00000932146F023FEF7DEFC4FF0FF33C5F8CD
:1039F00094301599304609F0BBF84FF0050A484657
:103A000016A9ADF858A00BF0F4F9E6230093532261
:103A100051464846FEF7C7FC484621460AF0D1FA0F
:103A20004946304609F0A4F844236FF04302384673
:103A300006E000BF8C41020828350208083602085B
:103A400000936FF0210117234FF017094FF0070A79
:103A5000FEF7A9FC1AEE100A16A9ADF858A00BF053
:103A6000C8F94B4616221AEE100A2146CDF80090EE
:103A7000FEF799FC1AEE100A21460AF0A2FA38461F
:103A80001AEE101A09F074F81AEE900A16A9ADF899
:103A900058A00BF0AEF94B4622461AEE900A21468A
:103AA000CDF80090FEF77FFC1AEE900A21460AF04E
:103AB00088FA38461AEE901A09F05AF81BEE100AE6
:103AC00016A9ADF858A00BF094F94B462C221BEE2A
:103AD000100A2146CDF80090FEF765FC1BEE100A97
:103AE00021460AF06EFA38461BEE101A09F040F82B
:103AF0003946304609F03CF85A236FF05B0218EE65
:103B0000100A00936FF066014B46FEF74CFC1BEE6B
:103B1000900A16A9ADF858A00BF06BF94B46162287
:103B20001BEE900A2146CDF80090FEF73CFC1BEE00
:103B3000900A21460AF045FA1BEE901A18EE100A78
:103B400009F016F81CEE100A16A9ADF858A00BF0F3
:103B500050F94B4622461CEE100A2146CDF8009043
:103B6000FEF721FC1CEE100A21460AF02AFA1CEE90
:103B7000101A18EE100A08F0FBFF1CEE900A16A9A6
:103B8000ADF858A00BF035F94B462C221CEE900AEC
:103B90002146CDF80090FEF706FC1CEE900A214667
:103BA0000AF00FFA1CEE901A18EE100A08F0E0FF67
:103BB00019271DEE100A16A9ADF858A00BF019F937
:103BC0004B4643221DEE100A00972146FEF7EBFB01
:103BD0001DEE100A21460AF0F4F91DEE101A18EE37
:103BE000100A08F0C5FF18EE101A304608F0C0FFA2
:103BF00071236FF07202404600936FF086014B46CE
:103C0000FEF7D1FB1DEE900A16A9ADF858A00BF0F7
:103C1000F0F84B4616221DEE900A2146CDF8009092
:103C2000FEF7C1FB1DEE900A21460AF0CAF9404694
:103C30001DEE901A08F09CFF1EEE100A16A9ADF8B2
:103C400058A00BF0D6F84B4622461EEE100A21462D
:103C5000CDF80090FEF7A7FB1EEE100A21460AF0F1
:103C6000B0F940461EEE101A08F082FF1EEE900AD0
:103C700016A9ADF858A00BF0BCF84B462C221EEE4E
:103C8000900A2146CDF80090FEF78DFB1EEE900ABB
:103C900021460AF096F940461EEE901A08F068FF99
:103CA0001FEE100A16A9ADF858A00BF0A2F84B466B
:103CB00043221FEE100A00972146FEF774FB1FEE09
:103CC000100A21460AF07DF940461FEE101A08F04E
:103CD0004FFF1FEE900A16A9ADF858A00BF089F817
:103CE0004B465A221FEE900A00972146FEF75BFBD7
:103CF0001FEE900A21460AF064F940461FEE901A22
:103D000008F036FF414630464FF02C0808F030FFEF
:103D10004B466FF02D020298CDF800806FF0430102
:103D2000FEF741FB0398ADF858A016A90BF061F817
:103D30004B4622460398CDF800902146FEF733FB10
:103D4000039821460AF03DF9DDE9020108F010FF71
:103D50000498ADF858A016A90BF04BF84B46162264
:103D60000498CDF800902146FEF71DFB04982146EB
:103D70000AF027F90499029808F0FAFE02993046F1
:103D800008F0F6FE4423482219EE100A6FF04E01A7
:103D9000CDF800904FF0080AFEF705FB0598ADF846
:103DA00058A016A90BF025F84B4622460598CDF8E9
:103DB00000904146FEF7F7FA059821460AF001F90E
:103DC000059919EE100A08F0D3FE0698ADF858A030
:103DD00016A90BF00EF84B4622460698CDF8009037
:103DE0001621FEF7E0FA069821460AF0EAF806994D
:103DF00019EE100A08F0BCFE0798ADF858A016A9F5
:103E00000AF0F7FF4B4622460798CDF8009021466E
:103E1000FEF7C9FA079821460AF0D3F8079919EE78
:103E2000100A08F0A5FE19EE101A304608F0A0FEA0
:103E30005A236F2218EE900A6FF06501CDF80090BA
:103E4000FEF7B1FA0898ADF858A016A90AF0D1FF0C
:103E50004B4622460898CDF800904146FEF7A3FA5B
:103E6000089821460AF0ADF8089918EE900A08F073
:103E70007FFE0998ADF858A016A90AF0BAFF3B4694
:103E800022460998CDF800904221FEF78CFA099855
:103E900021460AF096F8099918EE900A08F068FE93
:103EA0000A98ADF858A016A90AF0A3FF4B4622467F
:103EB0000A98CDF800901621FEF775FA0A98214667
:103EC0000AF07FF80A9918EE900A08F051FE0B9854
:103ED000ADF858A016A90AF08CFF4B4622460B9865
:103EE000CDF800902146FEF75EFA0B9821460AF0C5
:103EF00068F80B9918EE900A08F03AFE18EE901A3E
:103F0000304608F035FE712395226FF07A0158464D
:103F1000CDF80090FEF747FA0C98ADF858A016A916
:103F20000AF067FF4B4622460C98CDF800904146B8
:103F3000FEF739FA0C9821460AF043F80C995846D6
:103F400008F016FE0D98ADF858A016A90AF051FF1A
:103F50003B4622460D98CDF800904221FEF723FA09
:103F60000D9821460AF02DF80D99584608F000FEEC
:103F70000E98ADF858A016A90AF03BFF3B46224622
:103F80000E98CDF800905A21FEF70DFA0E982146B2
:103F90000AF017F80E99584608F0EAFD0F98ADF8A8
:103FA00058A016A90AF025FF4B4622460F98CDF8D7
:103FB00000901621FEF7F7F90F9821460AF001F854
:103FC0000F99584608F0D4FD1098ADF858A016A9DE
:103FD0000AF00FFF4B4622461098CDF8009021467C
:103FE000FEF7E1F91098214609F0EBFF10995846C9
:103FF00008F0BEFD5946304608F0BAFD434653224C
:104000001198CDF800900621FEF7CDF91298ADF881
:1040100058A016A90AF0EDFE4B4622461298CDF89C
:1040200000901621FEF7BFF91298214609F0C9FF4A
:10403000DDE9110108F09CFD1398ADF858A016A910
:104040000AF0D7FE4B4622461398CDF80090214641
:10405000FEF7A9F91398214609F0B3FF13991198B7
:1040600008F086FD1199304608F082FD19EE900A9D
:1040700036220621FEF78AF92E4BC5F824374FF079
:10408000FF33C5F834372C4BA5F828471B68C5F813
:104090003047C5F8384705F26C772BB9274B284ACB
:1040A000602128481DF0B2FB274B1B88122B03D838
:1040B000264B234A6121F4E7254B1221186801F0B1
:1040C000E3FA244A0346322138460FF0DDFD19EEAB
:1040D000900AC5F83C770AF0DDFC1F4B169319EEE9
:1040E000900A132316A9ADF85C300AF0F3FC19EE20
:1040F000901A304608F03CFD1498112316A9ADF82B
:1041000058300AF076FE06222023114614980093B8
:10411000E523FEF748F91498214609F052FF30468E
:10412000149908F025FD284619B0BDEC108BBDE8A8
:10413000F08F00BFA83414FF245001205C34020823
:10414000C2350208D93402082850012084350208FB
:1041500030500120FA35020828350208406A7047BD
:10416000806A704770478B88C0690A68DB0A50F81C
:1041700023001044704710B5C2B1137BB3B1547B18
:10418000D27A240204F4E0641443026A98B202EB87
:10419000840213888B4202D192F9020010BD05D827
:1041A000013880B204320028F3D1F7E70020F5E7A8
:1041B00010B52C2104461DF079FA204610BD0000F0
:1041C00030B58BB00446BDF860500895BDF85C5022
:1041D00007959DF8505006959DF84C5005959DF813
:1041E000485004959DF8445003959DF84050029521
:1041F0009DF83C500195BDF8385000950DF0B8FD84
:10420000064B2360159BE361169B2362199B636237
:104210001A9BA36220460BB030BD00BFC04102080C
:10422000704770477047704730B4C2684468551093
:10423000034604EB6200D20748BF62599B6830BC5A
:1042400048BFD358184743682BB183682BB9C0685F
:1042500000F001007047184670470120704710B504
:10426000102104461DF022FA204610BD10B54FF46F
:10427000F47104461DF01AFA204610BD00F5A4732F
:10428000994270B504460D4603D10CF003FCFEF7CD
:10429000B1FD04F5C8739D4205D123682046DB6A51
:1042A000BDE87040184770BD002310B5C0E9013368
:1042B000C0E90333C0E90733C0E905334FF4807325
:1042C0008384064B03600B88C384FF23044680F875
:1042D00028300AF08EFD204610BD00BFD84C0208E1
:1042E0002DE9F04F2DED028B044685B0A0460DF070
:1042F000E7FF0022774BE26348F8403B4046FEF779
:1043000065F804F16C03184604F1980B08EE903A36
:1043100004F1C40AFEF75AF84FF6FF7503A9584690
:1043200004F1F009ADF80C50FFF7BEFF03A95046A9
:10433000ADF80C50FFF7B8FF03A94846ADF80C5094
:10434000FFF7B2FF04F58E7304F5A47703A91846AE
:1043500008EE103A04F5C876ADF80C50FFF7A4FF4C
:1043600038460AF07DFE30460AF07AFE5A4BC4E920
:1043700076345A4BC4F8E03100224FF4A073C4F8ED
:10438000E421114600934046F023251DFEF70BF86B
:104390004FF07F43A3664146284608F0E9FB002220
:1043A0004FF4A073114618EE900A0093F023FDF726
:1043B000FAFF4FF07F43C4F8943018EE901A284665
:1043C00008F0D6FB302258460A21FDF7DFFF042310
:1043D00003A95846ADF80C300AF00BFD59462846A3
:1043E00008F0C6FB0E225046B621FDF7CFFF0E2384
:1043F00003A95046ADF80C300AF0FBFC51462846A4
:1044000008F0B6FB642248465421FDF7BFFF0F2396
:1044100003A94846ADF80C300AF0EBFC49462846A3
:1044200008F0A6FBD02218EE100A0521FDF7AEFF1A
:10443000102318EE100A03A9ADF80C300AF0D9FCCD
:1044400018EE101A284608F093FB3846A0222121C6
:10445000FDF79CFF4FF0030903AA02A93846ADF807
:104460000890ADF80C900AF092FB1423A4F8803168
:1044700038464FF0FF3804F5EC7AFDF7BDFF3946BA
:104480002846C4E96188C4F870A108F071FB304681
:10449000E7222121FDF77AFF03AA02A93046ADF8F1
:1044A0000890ADF80C900AF072FB0523A4F8C8310F
:1044B0003046FDF7A1FF2846C4E97388C4F8B8A1C7
:1044C000314608F055FB204605B0BDEC028BBDE837
:1044D000F08F00BF38420208204202087D420008E7
:1044E0007047704710B54FF4037104461DF0DEF8B5
:1044F000204610BD2DE9F04F044689B0A2460025A4
:104500000DF0DEFE574BE5634AF8403B04F16C0BBF
:10451000504604F19806FDF759FF5846FDF756FF3F
:1045200004F5BE79304608F003F904F5E278484610
:10453000FEF744F94046FEF741F94FF4A0732A46CE
:10454000009329465046F023FDF72DFF271D4FF01D
:104550007F43A3665146384608F00AFB4FF4A07328
:104560002A46009329465846F023FDF71CFF4FF0DA
:104570007F43C4F894305946384608F0F9FA30467B
:10458000C0221421FDF702FF0A2300932A46294680
:104590003046C82308F027F82B46642229463046C7
:1045A000009508F03DF92946304608F018F94FF01B
:1045B000FF3A06A93046ADF8185008F06CFA51469B
:1045C000304607F0FAFF30463C2108F024F8314627
:1045D000384608F0CDFA02AE2F2248461921FDF7E1
:1045E000D5FE49463046C4F8ACA1A4F8B05109F054
:1045F000D7FF96E8070004F5DC7383E80700DFF8CF
:1046000068B0CDF818B0042306A94846ADF81C30B0
:104610000AF060FA4946384608F0AAFAA022404655
:104620005721FDF7B3FE41463046C4F8F4A1A4F883
:10463000F85109F0B5FF96E8070004F5007383E828
:104640000700032306A94046ADF81C30CDF818B08A
:104650000AF040FA3846414608F08AFA204609B086
:10466000BDE8F08F70420208283502087047704795
:1046700010B540F60C2104461DF018F8204610BD78
:1046800010B52622044600211DF05CF92046FEF7F5
:10469000E9FF0A4BA3624FF6FF73A3854FF47F0235
:1046A0000023C4E90C32064A22604FF0FF32C4E90D
:1046B00010232387E363A364204610BD2835020836
:1046C000083602082DE9F04F2DED108B05469DB000
:1046D000AA4600240DF0F4FDDD4BEC634AF8403BA4
:1046E0005046FDF773FE05F16C0305F19806184678
:1046F0004FF6FF771993FDF769FE1AA93046ADF81A
:10470000687009F0A3FC05F1C403184609EE903A5D
:10471000FEF7BAFF05F1F0031AA918460AEE103A9F
:10472000ADF8687009F092FC05F58E7305F5A47874
:104730001AA918460AEE903AADF8687009F086FC9E
:104740004046FEF7A1FF05F5BA731AA918460BEE0D
:10475000103AADF8687009F079FC05F5D0731AA924
:1047600018460BEE903AADF8687009F06FFC05F54D
:10477000E6731AA918460CEE103AADF8687009F005
:1047800065FC05F5FC731AA918460CEE903AADF8D5
:10479000687009F05BFC05F5097305F514791AA931
:1047A00018460DEE103AADF8687009F04FFC484617
:1047B000FEF76AFF05F51F731AA918460DEE903A29
:1047C000ADF8687009F042FC05F52A731AA918467D
:1047D0000EEE103AADF8687009F038FC05F5357347
:1047E0001AA918460EEE903AADF8687009F02EFC42
:1047F00005F540731AA918460FEE103AADF8687027
:1048000009F024FC05F54B73184608EE903AFEF7C4
:104810003BFF05F556731AA918460FEE903AADF80E
:10482000687009F013FC05F561731AA91846029324
:10483000ADF8687009F00AFC05F56C731AA9184602
:104840000393ADF8687009F001FC05F5777318461D
:104850000493FEF719FF05F581631AA9184605931D
:10486000ADF8687009F0F2FB05F2344305F58C6B86
:104870001AA918460693ADF8687009F0E7FB584688
:10488000FEF702FF05F28C431AA918460793ADF80C
:10489000687009F0DBFB05F597631AA918460893C1
:1048A000ADF8687009F0D2FB05F2E4431AA9184686
:1048B0000993ADF8687009F0C9FB05F5A2631AA960
:1048C00018460A93ADF8687009F0C0FB05F23C5336
:1048D0001AA918460B93ADF8687009F0B7FB05F5F7
:1048E000AD63184608EE103AFEF7CEFE05F294537B
:1048F0001AA918460C93ADF8687009F0A7FB05F5E6
:10490000B8631AA918460D93ADF8687009F09EFBBC
:1049100005F2EC531AA918460E93ADF8687009F029
:1049200095FB05F5C3631AA918460F93ADF8687097
:1049300009F08CFB05F24463184609EE103AFEF7C5
:10494000A3FE05F5CE631AA918461093ADF868705A
:1049500009F07CFB05F29C631AA918461193ADF887
:10496000687009F073FB05F5D9631AA9184612930C
:10497000ADF8687009F06AFB05F2F4631AA91846ED
:104980001393ADF8687009F061FB05F5E463184610
:104990001493FFF775FE05F26C7318461593FFF735
:1049A0006FFE05F5F76318461693FFF769FE05F6E7
:1049B000040318461793FFF763FE05F505631AA96C
:1049C00018461893ADF8687009F040FB4FF4A073D7
:1049D0002246504600932146F0232F1DFDF7E3FCAD
:1049E0004FF07F435146AB66384608F0C1F84FF4AC
:1049F000A0734FF0FF32199800932146F023FDF782
:104A0000D2FC4FF0FF331999C5F89430384608F0BE
:104A1000AFF84FF0060330461AA9ADF868300AF037
:104A2000E8F9E6230093532230460521FDF7BBFC4D
:104A30003046214609F0C5FA31463846172608F0B7
:104A400097F82C23262219EE900A6FF0370101E027
:104A5000A442020800964FF0080AFDF7A4FC1AEEE3
:104A6000100A1AA9ADF868A00AF0C3F93346224625
:104A70001AEE100A16210096FDF795FC1AEE100AA0
:104A8000214609F09EFA1AEE101A19EE900A08F063
:104A90006FF81AEE900A1AA9ADF868A00AF0A9F901
:104AA000334622461AEE900A21460096FDF77BFC1B
:104AB0001AEE900A214609F084FA1AEE901A19EEBD
:104AC000900A08F055F819EE901A384608F050F898
:104AD0007123952240466FF07A010096FDF763FC42
:104AE0001BEE100A1AA9ADF868A00AF082F9334645
:104AF00022461BEE100A2C210096FDF754FC1BEEFB
:104B0000100A214609F05DFA40461BEE101A08F023
:104B10002FF81BEE900A1AA9ADF868A00AF069F9FF
:104B2000192322461BEE900A42210096FDF73BFC1A
:104B30001BEE900A214609F044FA40461BEE901AFB
:104B400008F016F81CEE100A1AA9ADF868A00AF0D1
:104B500050F9192322461CEE100A5A210096FDF73F
:104B600022FC1CEE100A214609F02BFA40461CEEEE
:104B7000101A07F0FDFF1CEE900A1AA9ADF868A004
:104B80000AF037F9334622461CEE900A16210096A9
:104B9000FDF709FC1CEE900A214609F012FA404686
:104BA0001CEE901A07F0E4FF1DEE100A1AA9ADF8EA
:104BB00068A00AF01EF9334622461DEE100A21466F
:104BC0000096FDF7F0FB1DEE100A214609F0F9F9F9
:104BD00040461DEE101A07F0CBFF4146384607F05D
:104BE000C7FF5A236F2248466FF065010096FDF714
:104BF000DAFB1DEE900A1AA9ADF868A00AF0F9F8E0
:104C0000334622461DEE900A2C210096FDF7CBFB81
:104C10001DEE900A214609F0D4F948461DEE901A7F
:104C200007F0A6FF1EEE100A1AA9ADF868A00AF058
:104C3000E0F8192322461EEE100A42210096FDF7E5
:104C4000B2FB1EEE100A214609F0BBF948461EEEE3
:104C5000101A07F08DFF1EEE900A1AA9ADF868A091
:104C60000AF0C7F8334622461EEE900A1621009637
:104C7000FDF799FB1EEE900A214609F0A2F948467D
:104C80001EEE901A07F074FF1FEE100A1AA9ADF875
:104C900068A00AF0AEF8334622461FEE100A2146FD
:104CA0000096FDF780FB1FEE100A214609F089F9F6
:104CB00048461FEE101A07F05BFF4946384607F0DA
:104CC00057FF4423482218EE900A6FF04E010096D9
:104CD000FDF769FB1FEE900A1AA9ADF868A00AF06B
:104CE00088F8334622461FEE900A2C210096FDF7E5
:104CF0005AFB1FEE900A214609F063F91FEE901A45
:104D000018EE900A07F034FF0298ADF868A01AA9CF
:104D10000AF06FF833462246029800961621FDF7F6
:104D200042FB0298214609F04CF9029918EE900ACC
:104D300007F01EFF0398ADF868A01AA90AF059F809
:104D400033462246039800962146FDF72CFB039834
:104D5000214609F036F9039918EE900A07F008FF8A
:104D60004FF02C0918EE901A384607F001FF334631
:104D70006FF02D020498CDF800906FF043014FF0D2
:104D80000708FDF710FB0598ADF868801AA90AF02E
:104D900030F833462246059800962146FDF703FB7E
:104DA0000598214609F00DF9DDE9040107F0E0FE60
:104DB0000698ADF868801AA90AF01BF83346162247
:104DC000069800962146FDF7EEFA0698214609F06E
:104DD000F8F80699049807F0CBFE0499384607F0D6
:104DE000C7FE71236FF07202584600936FF0860180
:104DF0003346FDF7D8FA0798ADF868801AA909F08C
:104E0000F8FF33461622079800962146FDF7CBFAA5
:104E10000798214609F0D5F85846079907F0A8FEEB
:104E20000898ADF868801AA909F0E3FF33462246D6
:104E3000089800962146FDF7B6FA0898214609F031
:104E4000C0F85846089907F093FE0998ADF86880B5
:104E50001AA909F0CEFF4A46334609980096214622
:104E6000FDF7A1FA0998214609F0ABF858460999CF
:104E700007F07EFE4FF0190A0A98ADF868801AA96B
:104E800009F0B7FF334643220A98CDF800A0214627
:104E9000FDF789FA0A98214609F093F858460A99CD
:104EA00007F066FE0B98ADF868801AA909F0A1FF1B
:104EB00033465A220B98CDF800A02146FDF773FA2D
:104EC0000B98214609F07DF858460B9907F050FEE3
:104ED0005946384607F04CFE5A236FF05B0218EE35
:104EE000100A00936FF066013346FDF75CFA0C98E8
:104EF000ADF868801AA909F07CFF334616220C9899
:104F000000962146FDF74FFA0C98DFF8ACB3214626
:104F100009F057F80C9918EE100A07F029FE0D98C1
:104F2000ADF868801AA909F064FF334622460D984F
:104F300000962146FDF737FA0D98214609F041F811
:104F40000D9918EE100A07F013FE0E98ADF8688060
:104F50001AA909F04EFF4A4633460E98009621469C
:104F6000FDF721FA0E98214609F02BF80E9918EE5C
:104F7000100A07F0FDFD0F98ADF868801AA909F036
:104F800038FF334643220F98CDF800A02146FDF7A5
:104F90000AFA0F98214609F014F80F9918EE100A32
:104FA00007F0E6FD18EE101A384607F0E1FD44233D
:104FB0006FF0430219EE100A00936FF0210133469F
:104FC000FDF7F1F91098ADF868801AA909F011FF02
:104FD00033461622109800962146FDF7E4F9109802
:104FE000214608F0EEFF109919EE100A07F0C0FDF7
:104FF0001198ADF868801AA909F0FBFE33462246E5
:10500000119800962146FDF7CEF91198214608F037
:10501000D8FF119919EE100A07F0AAFD1298ADF801
:1050200068801AA909F0E5FE4A46334612980096B0
:105030002146FDF7B8F91298DFF88092214608F072
:10504000C0FF129919EE100A07F092FD19EE101A1E
:10505000384607F08DFD4FF00C031398ADF868301B
:105060001AA909F0C6FE06222023114613980093C0
:10507000E523FDF798F91398214608F0A2FF13994C
:10508000384607F075FD14982A220621FDF77EF9AF
:105090004FF0FF33C5F86037D9F80030C5F850B786
:1050A000A5F85447C5F85C47C5F8644705F67C0881
:1050B0002BB97A4B7A4A60217A481CF0A7FB7A4BCD
:1050C0001B88122B03D8794B754A6121F4E7784B82
:1050D0001221186800F0D8FA764A03463221404679
:1050E0000EF0D2FD1498C5F8688709F0D3FCDFF8FC
:1050F000D0811498CDF868800E231AA9ADF86C30D1
:1051000009F0E8FC1499384607F032FD2A22159878
:105110008221FDF73BF9D9F80030C5F89CB74FF074
:10512000FF32A5F8A047C5F8A847C5F8AC27C5F8D1
:10513000B04705F50E6A002BBBD05B4A1388102BD5
:10514000C1D95B4B1021186800F09EFA594A0346FA
:10515000322150460EF098FD1598C5F8B4A709F015
:1051600099FC4FF00C011598ADF86C101AA9CDF808
:10517000688009F0AFFC1599384607F0F9FC062164
:1051800016983C22FDF702F9D9F80030C5F8E8B7C7
:105190004FF0FF31A5F8EC47C5F8F447C5F8F8170C
:1051A000C5F8FC4705F6441A002B82D03E4A138806
:1051B000112B88D93E4B1121186800F065FA3D4A41
:1051C0000346322150460EF05FFD1698C5F800A840
:1051D00009F060FC4FF00D0A1698CDF868801AA906
:1051E000ADF86CA009F076FC1699384607F0C0FCC3
:1051F000822117983C22FDF7C9F8D9F80030C5F88C
:1052000034B84FF0FF31A5F83848C5F84048C5F824
:105210004418C5F8484805F6A81B002B3FF449AFD1
:10522000214A13880F2B7FF64EAF214B0F211868B0
:1052300000F02AFA1F4A0346322158460EF024FD98
:105240001798C5F84CB809F025FC0B231798ADF852
:105250006C301AA9CDF8688009F03CFC17993846E3
:1052600007F086FC1898ADF868A01AA909F0C1FDEE
:1052700033465422189800960521FDF794F81898A3
:10528000214608F09EFE3846189907F071FC284622
:105290001DB0BDEC108BBDE8F08F00BF5C34020880
:1052A000C2350208D934020828500120843502088A
:1052B00030500120FA350208A83414FF2450012090
:1052C000283502087047000030B5174D2C78BFF321
:1052D0005B8F14F001048FB022D128461CF0E8F94E
:1052E000F0B13F230993114B0893114B079301230E
:1052F000CDE9053304930423CDE902430C230D4982
:1053000000935F220F23CDE90B440B480A940194CC
:10531000FEF756FF09481CF097FA28461CF0D4F90E
:1053200005480FB030BD00BF58410020708C020806
:10533000208F0208508402085C410020C5520008FA
:105340007047000030B5174D2C78BFF35B8F14F019
:1053500001048FB022D128461CF0AAF9F0B13F23F6
:105360000993114B0893114B114912480A94CDE946
:10537000064301220423CDE90332142300932222A1
:105380001923CDE90B44CDE901440594FEF718FF3C
:1053900009481CF059FA28461CF096F905480FB048
:1053A00030BD00BF88410020488E0208248F0208CB
:1053B000848902088C410020415300087047000096
:1053C00030B5164D2C78BFF35B8F14F001048FB00D
:1053D00021D128461CF06CF9E8B13F230993104B0A
:1053E0000893104B104911480A94CDE90643012255
:1053F0000423CDE903321E2300931122CDE90B448F
:10540000CDE901440594FEF7DBFE09481CF01CFAC7
:1054100028461CF059F905480FB030BDB8410020AE
:10542000E08E0208288F0208608B0208BC41002031
:10543000BD5300087047000030B5164D2C78BFF3FF
:105440005B8F14F001048FB020D128461CF030F996
:10545000E0B13F230993104B0893104B10491148BA
:105460000A940122CDE906430423CDE903320A233D
:105470000093CDE90B44CDE901440594FEF7A0FE6D
:1054800009481CF0E1F928461CF01EF905480FB048
:1054900030BD00BFE8410020188F02082C8F0208A1
:1054A000508C0208EC410020355400087047000081
:1054B00030B5164D2C78BFF35B8F14F001048FB01C
:1054C00020D128461CF0F4F8E0B13F230993104B9B
:1054D0000893104B104911480A940122CDE9064364
:1054E0000423CDE9033228230093CDE90B44CDE911
:1054F00001440594FEF764FE09481CF0A5F928460E
:105500001CF0E2F805480FB030BD00BF1842002083
:105510001C8F0208308F0208608C02081C42002099
:10552000AD54000800207047002070470EB403B54A
:1055300003AB002153F8042B01930CF041FA02B0A5
:105540005DF804EB03B070470CB407B504AB53F837
:10555000042B01930CF034FA03B05DF804EB02B0B5
:1055600070470000436C10B5044673B3038F2BB92A
:10557000184B194AC52119481CF048F9C38E00EB95
:1055800043035B8C0BB30DF0D6FD238F012B03D8A7
:10559000134B144ACB21EEE7E28E531C9BB2092B2E
:1055A000194688BFA3F10A0104EB410140F63F1000
:1055B000498C814209D10A2B04EB420228BF002307
:1055C00004EB4303508C588451842046BDE81040BE
:1055D0000DF0B4BCD0420208D9420208844302084C
:1055E000CE430208DC4302080DF06FBC10B586B054
:1055F00002AC84E806001A460AAB05930193099BA6
:1056000000932146089B0AF0C7FD06B010BD0000BC
:1056100038B518BB124B13481B681349B3B11A684D
:105620009C681A4402605A681A440A601C440F4B72
:1056300000221A8000F038F8054600F033F80C4BD1
:105640001C600C4B1D600C4B188007E00B4B03607B
:105650000B4B0B600B4B1C68002CE8D138BD00BF16
:10566000484200204C42002050420020544200207A
:10567000245001202C50012028500120888F02083E
:10568000348F020808910208044B1B6853F821006C
:10569000034B1B6803EB4000704700BF50420020E3
:1056A0004C420020152070470048704758420020A7
:1056B00010B5FFF709FE074C2060FFF7F9FE6060A8
:1056C000FFF7BAFEA060FFF77BFEE060FFF73AFE4F
:1056D000206110BD58420020704704387047704761
:1056E00010B5102104461BF0E1FF204610BDA0F1CB
:1056F0000400F5E710B500228260044AC16002F19F
:10570000080420320460426010BD00BFB0440208AB
:10571000704708B5C36B9B68012283F851260BF0D4
:10572000B9F9BDE80840FDF765BB08B5C36B9B68D8
:10573000002283F851260BF0ADF9BDE80840FDF7D3
:1057400059BB000010B5034B03600446FCF7D5FDC0
:10575000204610BDE044020810B50446FFF7F2FFF2
:1057600020464FF4C0711BF0A1FF204610BD000081
:1057700010B50446FCF784FE014B2360204610BDA3
:10578000E0440208FCF7BABD704704387047704720
:1057900010B5102104461BF089FF204610BDA0F172
:1057A0000400F5E710B500228260044AC16002F1EE
:1057B000080420320460426010BD00BF1445020896
:1057C0007047000010B5034B03600446FCF774FFFC
:1057D000204610BD4445020810B50446FFF7F2FF0D
:1057E00020464FF4CC711BF061FF204610BD000035
:1057F00010B50446FDF704F8014B2360204610BDA8
:105800004445020838B50446FCF757FFE36B1849D6
:105810009B68184AD3F848360968012B04F5BA7515
:10582000154B1DD129B9154B154A602115481BF0A0
:10583000EDFF1288092A03D8134B114A6121F5E7BD
:1058400009211868FFF720FF104A03460A2128465D
:105850000EF01AFAE36B9868BDE8384000F055BFC7
:105860000029E0D01288082AE6D90821E9E700BF1C
:105870002450012028500120305001205C340208BF
:10588000C2350208D934020884350208FA35020804
:10589000704710B54FF4AE7104461BF007FF204669
:1058A00010BD10B50446D0F8580100F02DFF204679
:1058B000BDE810400BF08AB910B50446FDF72AFA8E
:1058C000014B2360204610BD78450208704704381C
:1058D0007047704710B5102104461BF0E7FE2046C4
:1058E00010BDA0F10400F5E710B500228260044A63
:1058F000C16002F1080420320460426010BD00BFA4
:10590000C445020870470000094B70B504460360A7
:1059100042F25C2541F22C16635960191B682C3D3C
:105920009847B542F8D12046FDF792FE204670BD5B
:10593000FC45020810B50446FFF7E6FF204642F298
:10594000B8511BF0B3FE204610BD10B50C4681685F
:10595000E4B04FF4C87201F54A7168461BF0E4FFE9
:105960004FF4C872694620461BF0DEFF64B010BDDC
:1059700030B50546ADF5497D4FF448720C46684692
:1059800000211BF0DFFFAA686B4602F5487019463C
:1059900055680D6052F8085F4D60824201F10801C0
:1059A000F6D10022211D186844F83200586841F8E9
:1059B00032000132642A03F10803F4D10DF5497D68
:1059C00030BD82B002AB03E90600D0E9C8231AB9A2
:1059D000632B06D102B07047013204BF0022C0F829
:1059E00020235A1CC0F8242300EBC300009B8360D3
:1059F000019BC360EEE701F1240301F5DA71A3F125
:105A0000280252F8040F002807DC9A42F9D102F16B
:105A100028038B42F3D1012070470020704700001B
:105A20002DE9F3410546FDF73BFE1C4B2B6005F2CB
:105A3000DC7001F0BFFB4FF44872002105F6944082
:105A40001BF080FF05F58A544FF0FF3305F50A5629
:105A5000C5F8B43FC5F8B83F183408364FF6FF779D
:105A600004F5DC78204601A92C34ADF8047008F068
:105A7000EDFA4445F6D1A642F2D105F500544FF4B3
:105A80004872002104F524701BF05CFF00232846B7
:105A9000C4E9A23302B0BDE8F08100BFFC450208B2
:105AA000F8B506460D4600F6C871C06B1F46144691
:105AB000FFF74BFF96F8BE3F2BB1EB19092BCCBF7C
:105AC00000200120F8BDE0190928F8E7F8B50446E0
:105AD0000F4600F6C871C06B15461E46FFF735FF2E
