:020000040800F2
:1000000000000320A505000895200008972000089F
:10001000992000089B2000089D2000080000000097
:100020000000000000000000000000000191000836
:100030009F2000080000000091910008038A00083A
:10004000F5050008F5050008F5050008F5050008A8
:10005000F5050008F5050008F5050008F505000898
:10006000F5050008F5050008F5050008F505000888
:10007000F5050008F5050008F5050008F505000878
:10008000F5050008F5050008F5050008F505000868
:10009000F5050008F5050008F5050008F505000858
:1000A000F5050008F5050008F5050008F505000848
:1000B000F5050008F5050008F5050008F505000838
:1000C000F5050008F5050008F5050008F505000828
:1000D000F5050008A1200008F5050008F505000851
:1000E000F5050008F5050008F5050008F505000808
:1000F000F5050008F5050008F5050008F5050008F8
:10010000F5050008F5050008F5050008F5050008E7
:10011000F5050008AD200008B9200008C52000083A
:10012000F5050008F5050008F5050008F5050008C7
:10013000F5050008F5050008F5050008F5050008B7
:10014000F5050008F5050008F5050008F5050008A7
:10015000F5050008F5050008F5050008F505000897
:10016000F5050008F5050008F5050008F505000887
:10017000F5050008F5050008F50500080000000079
:10018000F5050008F5050008F5050008F505000867
:10019000F5050008F5050008F5050008F505000857
:0C01A000D1200008F5050008DD20000853
:1001B00010B5054C237833B9044B13B10448AFF3A1
:1001C00000800123237010BD6C010020000000009E
:1001D000B404020808B5034B1BB103490348AFF34D
:1001E000008008BD0000000070010020B404020877
:1001F00001F0FF01102A2BDB10F0070F08D010F8D8
:10020000013B013A8B422DD010F0070F42B3F6D1DB
:10021000F0B441EA012141EA014122F007047FF0F4
:1002200000070023F0E80256083C85EA010586EA4B
:10023000010685FA47F5A3FA87F586FA47F6A5FA87
:1002400087F68EB9EED1F0BC01F0FF0102F0070293
:1002500032B110F8013B013A83EA010313B1F8D13E
:100260000020704701387047002D06BF354603381F
:10027000073815F0010F07D1013015F4807F02BF58
:10028000013015F4C03F0130F0BC0138704700BFA9
:10029000034613F8012B002AFBD1181A01387047C6
:1002A00053B94AB9002908BF00281CBF4FF0FF31DD
:1002B0004FF0FF3000F074B9ADF1080C6DE904CED9
:1002C00000F006F8DDF804E0DDE9022304B0704731
:1002D0002DE9F047089D04468E46002B4DD18A42F9
:1002E000944669D9B2FA82F252B101FA02F3C2F12C
:1002F000200120FA01F10CFA02FC41EA030E9440BD
:100300004FEA1C48210CBEFBF8F61FFA8CF708FBDD
:1003100016E341EA034306FB07F199420AD91CEBB5
:10032000030306F1FF3080F01F81994240F21C81E7
:10033000023E63445B1AA4B2B3FBF8F008FB10332F
:1003400044EA034400FB07F7A7420AD91CEB040464
:1003500000F1FF3380F00A81A74240F20781644434
:10036000023840EA0640E41B00261DB1D4400023B9
:10037000C5E900433146BDE8F0878B4209D9002D1D
:1003800000F0EF800026C5E9000130463146BDE8A7
:10039000F087B3FA83F6002E4AD18B4202D3824211
:1003A00000F2F980841A61EB030301209E46002DC0
:1003B000E0D0C5E9004EDDE702B9FFDEB2FA82F215
:1003C000002A40F09280A1EB0C014FEA1C471FFA73
:1003D0008CFE0126200CB1FBF7F307FB131140EA5A
:1003E00001410EFB03F0884208D91CEB010103F127
:1003F000FF3802D2884200F2CB804346091AA4B2E9
:10040000B1FBF7F007FB101144EA01440EFB00FEBC
:10041000A64508D91CEB040400F1FF3102D2A64521
:1004200000F2BB800846A4EB0E0440EA03409CE7C0
:10043000C6F12007B34022FA07FC4CEA030C20FA6D
:1004400007F401FA06F31C43F9404FEA1C4900FA8D
:1004500006F3B1FBF9F8200C1FFA8CFE09FB18110A
:1004600040EA014108FB0EF0884202FA06F20BD97D
:100470001CEB010108F1FF3A80F08880884240F2CD
:100480008580A8F102086144091AA4B2B1FBF9F011
:1004900009FB101144EA014100FB0EFE8E4508D90C
:1004A0001CEB010100F1FF346CD28E456AD9023891
:1004B000614440EA0840A0FB0294A1EB0E01A14276
:1004C000C846A64656D353D05DB1B3EB080261EBE4
:1004D0000E0101FA07F722FA06F3F1401F43C5E9BE
:1004E000007100263146BDE8F087C2F12003D840F4
:1004F0000CFA02FC21FA03F3914001434FEA1C4736
:100500001FFA8CFEB3FBF7F007FB10360B0C43EA27
:10051000064300FB0EF69E4204FA02F408D91CEBD7
:10052000030300F1FF382FD29E422DD902386344D5
:100530009B1B89B2B3FBF7F607FB163341EA034175
:1005400006FB0EF38B4208D91CEB010106F1FF38C4
:1005500016D28B4214D9023E6144C91A46EA0046BB
:1005600038E72E46284605E70646E3E61846F8E64D
:100570004B45A9D2B9EB020864EB0C0E0138A3E796
:100580004646EAE7204694E74046D1E7D0467BE777
:10059000023B614432E7304609E76444023842E7EF
:1005A000704700BFDFF834D0002103E00C4B5B58EC
:1005B000435004310B480C4B42189A42F6D30B4A75
:1005C00002E0002342F8043B094B9A42F9D305F0BC
:1005D000EBFC1EF07DFE00F00BFF704700000320D7
:1005E00098101208000000206C0100206C0100200F
:1005F000785A0120FEE7704708B500F09DFCBDE881
:10060000084000F025BC00F099BC704710B50421EB
:1006100004461EF063FD204610BD000038B50C4BAB
:100620000C4C18800C4B822019806368984740F668
:10063000110398420AD1094D23682C608220984703
:100640002B688220DB689847002038BD0120FCE73A
:10065000880100204C0000208A0100208C0100202D
:100660004FF4A071F020FFF7D9BF0000F7B5344D6B
:100670002B6804461B698220984780B2208000289E
:100680004CD02B680DF106025B6901A982209847C6
:10069000BDF8063040F67462934241D9ADF80620A9
:1006A000BDF80620C2F56762043292B20A2A3DD92B
:1006B0000B23B2FBF3F2234B1B889A4201D9013B77
:1006C0009AB2BDF8043040F6B8318B4230D8C3F549
:1006D00071630E339BB20F21B3FBF1F31A49098802
:1006E0008B4201D94B1E9BB2184E194D30682F68B2
:1006F000834281B28CBF591AC91AB8B2BA428CBFB0
:10070000101A801A89B280B201440529C8BF33602B
:100710003368C8BF2A6063802B68A38003B0F0BD34
:10072000B32B9CBFB423ADF80630B9E70022C8E76D
:10073000C3F56D6308339BB20E2BCCD80023D3E7EF
:100740008C0100208A0100208801002090010020F7
:100750009401002037B568460D461446FFF786FF22
:10076000BDF8000030B1BDF802302B60BDF8043098
:100770002360012003B030BD704770477047704759
:10078000012380F8781080F8793070470020704796
:10079000034B4164003918BF01211970704700BF35
:1007A000834F012000207047836B0BB10846184728
:1007B00070474FF6FF707047406803689B691847A1
:1007C000704770477047000070B5044600F084FC25
:1007D0002368D3F88850044BD4E90F122046AC4666
:1007E000BDE87040604700BF000000D008B5036856
:1007F0000446D3F880309847236820469B6F98477B
:1008000000F0ECF8236820461B6F9847292001F080
:10081000B7F800F0E3F8236820461B6F9847F8E725
:1008200010B504460BF072FA23682046D3F8AC30BA
:10083000BDE81040184700F041BC00F045BC00F096
:1008400069BC00F017BC00F071BC00F079BC00F08E
:100850001BBC0AF0C7BC10B57C2104461EF03EFC50
:10086000204610BD90F87A301BB1406803681B68C1
:10087000184718467047000010B590F8341090F8EB
:1008800078400C4B8C421A7809D03AB90A4A0B4985
:100890001488088810800C8001221A7010BD002A6C
:1008A000FCD0054A05491488088810800C80002275
:1008B000F3E700BF7C4F0120784F01207A4F0120E1
:1008C00070B50D46194635B9094B0A4A0A4840F237
:1008D000D2211EF0B3FCC0E90F52084B003A18BFFA
:1008E00001221A700368BDE87040D3F88C301847B5
:1008F0002C05020864050208B2050208824F012097
:1009000008B5094B1B888B4203D8084B1B889342C0
:1009100005D9074B074A08489E211EF08FFC074B5C
:100920001980074B1A8008BD784F01207A4F0120AB
:10093000F70502085A060208B20502087E4F012098
:10094000804F0120012108B50022084608F0E7F891
:100950000A4B186028B90A4B0A4A28210A481EF097
:100960006DFC00220421012008F07FF9074B18607C
:1009700018B9074B034A2C21F0E708BD9C01002061
:1009800078070208C1070208F00702089801002052
:100990002B080208024B4FF0FF31186808F009B924
:1009A0009C010020014B186808F02EB99C01002022
:1009B000024B0021186808F0FCB800BF9C01002021
:1009C000FFF7F0BF03480449006800231A4608F007
:1009D00087B900BF980100200400002013B5084C1F
:1009E00000231A4601A9206808F0AAF920684FF0F0
:1009F000FF33002201A908F0A3F902B010BD00BF27
:100A00009801002003685B6C184701207047036859
:100A10009B6A184782B0002301930D4B1A6B42F476
:100A200000021A631A6B02F400020192019A1A6919
:100A300042F400021A611A6922F400021A61054B9D
:100A4000054A1A61054B4FF080629A6002B0704708
:100A500000380240543E0020A10A000800E100E0F6
:100A600040F2EF3070470000054B0360054B4FF03C
:100A70008062C3F88820BFF34F8FBFF36F8F70473A
:100A8000B809020800E100E010B504464FF45A61CD
:100A9000FFF7EAFF20461EF021FB204610BD0000B4
:100AA000024B1B68586803685B691847844F012034
:100AB00070B5044625460A4B0C300026606026724D
:100AC000667245F8203B602229460BF05DFA04F57A
:100AD0005A63EE602435AB42FBD1204670BD00BFA7
:100AE000B809020808B50B290BD8DFE801F0120697
:100AF000100A0A0A0A0808080808012008BD05208B
:100B0000FCE7054B054A064865211EF097FB0020CF
:100B1000F4E70220F2E700BF6D0802088808020827
:100B2000D208020808B50A2909D8DFE801F0100642
:100B30000E080808080606060600012008BD054B39
:100B4000054A064886211EF079FB0020F6E70220C0
:100B5000F4E700BF6D0802080B090208D20802087A
:100B60002DE9F8434F7F0C4639468146FFF7BAFF1F
:100B700094F81E80054641464846FFF7B3FF4146BC
:100B800006464846FFF7CEFFA18A628B424B521AB7
:100B90001A649A61228B521A1A61E28A586342EAF5
:100BA00001425A6420696268D863DA60216894F867
:100BB0001CC080294FEA0C6226D010D8202945EAB3
:100BC000020461D040295FD004295DD0324B2A4312
:100BD00042F400324745DA615AD0304A40E0B1F57C
:100BE000807F07D0B1F5007FF0D142F4003242F0AF
:100BF000090203E042F4003242F00A02DA61E268DC
:100C00001A625E6258612AE0A4682A4342F4003204
:100C1000211DD962DA6122785E62586142B1012AEF
:100C200021D01F4B1F4A20484FF488711EF006FB4D
:100C3000DA69618822F47F42013922F0100242EA27
:100C40000122DA610120144BDA6942F02002DA61F4
:100C5000DA699206FCD410229A600028BDD0134AAB
:100C60001A60BDE8F8836288D969541E21F47F4276
:100C700022F0100242EA0422BCF1FF0042F010020E
:100C800018BF0120DA61DEE744F40034DC61B8E724
:100C900040F20122E4E700BF00B00240010201007F
:100CA0005609020870090208D2080208010202006F
:100CB00070B50C46897FFFF735FFA68AE18A628B03
:100CC000154B2569586341EA0641921B5964DD635F
:100CD0001A642668E168082E0DD19A611A6158627B
:100CE000207F0E4A42EA0062DA610D4A19625D61B4
:100CF000DD601A6070BD0022D8611A6148090A0AD5
:100D000002F4784200F4FC600243C1F3C4010A43D8
:100D10009A63044AEDE700BF00B0024009000100F9
:100D200001020200010203000120704740207047C9
:100D300000EB81100830704700EB811008307047DD
:100D40000120704742F2B050704742F2B05303FBAB
:100D500001000830704742F2B05303FB0100083035
:100D60007047012070471020704700EB01100830D9
:100D7000704700EB011008307047084601F016BCC0
:100D800010B5034B0360044609F081FF204610BDF7
:100D9000700A020810B50446FFF7F2FF204648210A
:100DA0001EF09CF9204610BD10B5034B03600446AD
:100DB00009F06DFF204610BD3C0A020810B504463C
:100DC000FFF7F2FF204642F2B8511EF087F92046A5
:100DD00010BD000010B5034B0360044609F057FF37
:100DE000204610BD080A020810B50446FFF7F2FFBE
:100DF000204618211EF072F9204610BD10B5094B8F
:100E00000360044600F517502430FFF7B9FF04F1E2
:100E10002C00FFF7C9FF04F11400FFF7DBFF2046A9
:100E200010BD00BFA40A020808B50248FFF7E6FF9C
:100E300008BD00BFA401002010B50446FFF7DEFF87
:100E4000204642F6D8511EF049F9204610BD000058
:100E50002DE9F34101F0BCF9054601F0BDF900248C
:100E60000146234628462246009410F0CBFC264B30
:100E7000264A274D1A60204603F0CEFB254810F085
:100E800029FC2B78BFF35B8FDB0736D428461EF096
:100E900027F990B3204C214F214B236007F5D366EF
:100EA00004F1140004F12C086060C4F80880E760C5
:100EB000266109F0EDFE1B4B6361404609F0E8FE38
:100EC000194BE362384609F0E3FE04F50053174A74
:100ED000C3F8E42503F22C6004F02CFA224607F153
:100EE0004801304603F00EFC304601F05FFB10482D
:100EF0001EF0C2F928461EF0FFF80E4802B0BDE809
:100F0000F041FFF761BC00BFE04F01209C3D002095
:100F1000A001002008000020A40100208827002054
:100F2000A40A0208080A02083C0A0208700A020819
:100F3000290E0008203D0020704700000148FFF7FF
:100F400055BC00BF203D002070B5224E224C234DE1
:100F5000234B23603046FFF7ABFD284614F01EFFFD
:100F6000204B2148DC6000224FF48071C3E912124B
:100F70001E491A86C3E91A121D4999671D4983F84B
:100F800058200B60F02101801B485A6601801B48E5
:100F900083F870204FF4A071C3E90422C3E906224C
:100FA000C3E90822C3E90A22C3E90E22C3E91022D9
:100FB000C3E91422C3E917225A67C3E90165018016
:100FC0000F4801800F490A70012283F834200E4A2D
:100FD0001A6070BD802F00207C2F0020A03D0020D3
:100FE0001C050208203D0020784F0120010000016F
:100FF00000000101844F01207E4F01207A4F012023
:10100000804F01207C4F0120A80602080148FFF70D
:101010002BBD00BF802F00200020704781807047CB
:10102000C1807047018170474181704770477047A8
:1010300070477047704710B4C4880368121B8488D7
:101040005B6D091B12B25DF8044B09B218474FF6ED
:10105000FF7383814FF0FF3303621368C361106035
:10106000704790F825201AB190F8242002B118603A
:1010700070470000034B902283F85A2383F85823CB
:10108000704700BF00E100E0094A0A49D3680A48F6
:10109000C3F30A03013B9BB20B801169C1F30A0140
:1010A000013901801364536B43F0010353637047AC
:1010B00000680140263E0020243E0020014BD3F86A
:1010C000AC00704700680140024B0122C3F8AC102D
:1010D0005A6270470068014070B504460AF0D7F8BC
:1010E00023685D6E0DF00AFB01462046A847236881
:1010F000054AD3F888502046AC460023BDE870402E
:10110000A2F51631604700BF00B004D00AF0A6B8BF
:101110000AF0B0B80AF06CB80AF0CDB990F8252002
:1011200012B103685B69184770470000034B4FF02A
:1011300080629A604FF080729A60704700E100E030
:10114000084B4FF08062C3F88820BFF34F8FBFF386
:101150006F8F4FF08072C3F88820BFF34F8FBFF3BB
:101160006F8F704700E100E010B5144C236823B383
:10117000134B144A1B6C11888B4213D1124B1988E4
:1011800005F0DEFF226892F86A30013382F86A3097
:10119000FFF718FC20680AF0B9FDBDE810400020F8
:1011A000FFF7EBBA05F0CCFF206803681B6A98478D
:1011B000BDE810400020FFF7E1BA10BD844F0120C8
:1011C00000680140263E0020243E002007B5064B63
:1011D000ADF806001B68054801220DF1060106F076
:1011E0000BFD03B05DF804FB10000020C43F00209D
:1011F000F7B5504C504E0421204605F0BDF90128AA
:101200000FD14E4D4C2328688DF8073007F0C7FDED
:10121000012806D82868C82300220DF1070107F02D
:101220005FFD0821204605F0A7F901280FD1444DA4
:10123000522328688DF8073007F0B1FD012806D841
:101240002868C82300220DF1070107F049FD10218D
:10125000204605F091F901280FD13A4D5523286811
:101260008DF8073007F09BFD012806D82868C823B1
:1012700000220DF1070107F033FD2021204605F083
:101280007BF901280FD1304D442328688DF80730B1
:1012900007F085FD012806D82868C82300220DF133
:1012A000070107F01DFD2948012105F065F9012816
:1012B0000FD1224D532328688DF8073007F06FFDBA
:1012C000012806D82868C82300220DF1070107F07D
:1012D00007FD0421304605F04FF9054678B91C4F4B
:1012E000412338688DF8073007F059FD012806D8EA
:1012F0003868C8232A460DF1070107F0F1FC0821E0
:10130000304605F039F9054678B9124F422338685E
:101310008DF8073007F043FD012806D83868C82348
:101320002A460DF1070107F0DBFC642007F0EBFB18
:1013300061E700BF0010024000180240303E00206C
:10134000343E0020383E00203C3E00200000024099
:10135000403E0020443E002030B595B010220021D0
:101360000AA81EF007F81422002103A81EF002F8B4
:1013700000241D4B01941A6C42F080521A641B6CBD
:1013800003F080530193019B184B02941A6842F4B6
:1013900040421A601B6803F4404302930122029BFF
:1013A0004FF48033CDE9082302254FF48003CDE9C3
:1013B0000E5308214FF4A873CDE9101308A8042395
:1013C0001393129505F0DAFE0F23CDE903354FF4A0
:1013D000A0504FF48053CDE90603052103A80594DE
:1013E00006F0AAF815B030BD003802400070004089
:1013F0002DE980489BB004F0E5FDFFF7ADFF142216
:1014000000210DA800241DF0B5FFC54B00941A6BF8
:10141000C448C54E42F010021A631A6B02F0100263
:101420000092009A01941A6B42F020021A631A6B20
:1014300002F020020192019A02941A6B42F080029B
:101440001A631A6B02F080020292029A03941A6BDA
:1014500042F004021A631A6B02F004020392039A28
:1014600004941A6B42F001021A631A6B02F0010233
:101470000492049A05941A6B42F002021A631A6BE2
:1014800002F002020592059A06941A6B42F040029D
:101490001A631A6B02F040020692069A07941A6BBE
:1014A00042F008021A631B6B03F0080307932246FD
:1014B0000421079B05F066F822469C484FF44051F2
:1014C000012505F05FF83C2399480F950DA94FF0D1
:1014D00002084FF0040ACDE90D3404F067FF91488B
:1014E0000F940DA9CDE90DA5CDF8408004F05EFF65
:1014F00090480F940DA9CDE90D5404F057FF4FF417
:1015000040538A480DA9CDE90D354FF00C09CDE9BE
:101510000F4404F04BFF0DA987480F95CDE90D94BA
:1015200004F044FF8548864B036004F0DDFD854AE6
:10153000854B3462C6E9002330464FF48043C6E948
:101540000434C6E90244C6E9064405F0FDF9102159
:10155000304605F039FC2146304605F054FC7B4806
:101560007B4984624FF48273C0E900134FF4007624
:101570001823C0E906630A23764EC362C0E9024419
:10158000C0E90444C0E9084406F0DAFA724BCDF829
:101590003480C6E9003510274023C6E904734FF4B0
:1015A000C073C6E906344FF40063C6E908344FF44B
:1015B00000534FF0030BB3620DA9072330460827F1
:1015C000CDE90E3A1093C6E9024ACDE911B8CDF83B
:1015D0004C8006F0B5F94FF6FF7209A93046CDE907
:1015E0000A75089409950C9406F0CAF9284604F087
:1015F00015FD4FF6FF7209A93046CDE90987CDE9FF
:101600000B5406F0BDF94FF6FF7209A93046CDE93B
:1016100009B7CDE90BA406F0B3F94FF40C730893A6
:10162000089B0C934FF6FF7209A93046CDE909A734
:101630000B9506F0A5F940F26A51304606F0BEF966
:10164000342221460DEB02001DF094FE434E444B24
:10165000B486C6E900340923C6E905351D2340F2E6
:101660000D1CC6E9073B40F24313C6E909C340F22B
:10167000171E40F247133046C6E90BE3C6E90244A1
:10168000346186F8364005F063FCFF21F022CDE995
:1016900012144FF4806A05214FF4A073CDE90E2493
:1016A000CDE914A1CDE916420DA922463046CDE977
:1016B00010382C4E18930D94ADF864408DF86640A8
:1016C00005F011FD284B33601B68DFF8B8B0984770
:1016D0003368264EDB689847254BC6E90A48C6E9B9
:1016E0000C443046C6E90034C6E9028404F062FDC9
:1016F0002946304604F016FE1E481F4B4FF4E136D3
:10170000C0E90036C0E90244C0E90449C0E9064422
:1017100006F0F6FE19481A4BC0E9003634E000BF67
:101720000038024000080240943E0020000C0240B5
:101730000010024000000240001802404C3E002011
:1017400000300240005C0040A0860100C43F002041
:1017500000500140903F0020400100A0E83E0020E2
:10176000006801402C3E002014000020543E002060
:1017700000B002406440002000100140A84000205A
:1017800000500040001400402E4EC0E90244C0E961
:101790000449C0E9064406F0B3FE5923C6E900B384
:1017A00030464CF24F33F360CDE90D44B460B46180
:1017B00006F0AEFD0DA93046CDE90D4406F0D4FD8E
:1017C000FEF71AFFFEF717FF07F028F91E4A294611
:1017D000384607F04AFA1D4B1D4A1860294638461C
:1017E00007F043FA1B4B1C4A18602946384607F09D
:1017F0003CFA1A4B1A4A18602946384607F035FA5F
:10180000184B194A18602946384607F02EFA174B2C
:10181000174A18602946384607F027FA154B164A2A
:1018200018602146154807F025F9154B154A186030
:101830002146154807F01EF9144B186007F000F90F
:10184000FEE700BF1C400020140B0208303E0020C1
:101850002C0B0208343E0020440B0208383E0020C6
:101860005C0B02083C3E0020740B0208403E002046
:101870008C0B0208443E0020A40B0208F111000862
:10188000483E0020F00A020807060008283E002013
:10189000704770477FB5094B8DF817201B6802937E
:1018A0000DF117020123009201930A4601460448F4
:1018B00005F0F2F807B05DF804FB00BF0C00002053
:1018C000943E00207FB500238DF81730084B1B682D
:1018D00002930A4601230DF117010091019301467D
:1018E000044805F069F99DF8170007B05DF804FB9E
:1018F0000C000020943E00201FB5084C2468009284
:10190000CDE901340A4601230146054805F054F9A2
:10191000003818BF012004B010BD00BF0C0000202B
:10192000943E002004F07ABB08B50648002204214A
:1019300004F028FEBDE8084002480122042104F01A
:1019400021BE00BF0008024038B50B4D04460122FD
:101950000A484FF4005104F015FE002204212846E5
:1019600004F010FE2046FFF731FC28460122BDE8B6
:101970003840042104F006BE00080240000C02407A
:1019800038B50B4D044600220A484FF4005104F0CC
:10199000F9FD00220421284604F0F4FD2046FFF75B
:1019A00015FC28460122BDE83840042104F0EABDB8
:1019B00000080240000C0240F7B5144E144F0546D3
:1019C0000C4630460022042104F0DCFD00224FF4D6
:1019D0000051384604F0D6FD2846FFF7F7FB0D4BC3
:1019E0000D481B68224601A906F0A8FA38460122D4
:1019F0004FF40051019C04F0C5FD30460122042142
:101A000004F0C0FD204603B0F0BD00BF0008024056
:101A1000000C024010000020C43F002004F0FEBA79
:101A20000268034B9A4201D104F0E6BA704700BF46
:101A3000001000407047000082B00E4B0022009260
:101A4000596C41F480415964596C01F48041009112
:101A500000990192196C41F0805119641B6C03F0DC
:101A600080530193019B0F216FF0010002B004F03D
:101A7000FBBA00BF003802400268094B9A4282B0AC
:101A80000BD100230193074B1A6B42F480521A6367
:101A90001B6B03F480530193019B02B0704700BF9E
:101AA000003002400038024007B50F4B02689A42EE
:101AB00016D10022A3F5F0430192196B41F4000105
:101AC00019631B6B03F40003019305215A20019B4A
:101AD00004F0CAFA5A2003B05DF804EB04F0F6BA39
:101AE00003B05DF804FB00BF00B002402DE9F043F5
:101AF000044689B01422002103A81DF03BFC226893
:101B0000244B9A4243D1244C244800250095236B52
:101B100043F004032363236B03F004030093009B4F
:101B20000195236B43F001032363236B03F001034F
:101B30000193019B4FF012094FF400734FF001081D
:101B40000327042603A9CDE90339CDE905870796C4
:101B500004F02CFC4FF480731148079603A9CDE9DB
:101B60000339CDE9058704F021FC0295236C43F489
:101B700000032364236C03F400030293029B236A93
:101B800043F400032362236A23F40003236209B0B1
:101B9000BDE8F083005C00400038024000080240CD
:101BA00000000240F0B599B004461422002107A8B5
:101BB0001DF0E0FB30220DEB020000211DF0DAFBEE
:101BC00022685E4B9A4240F0B78008230C93C023F2
:101BD0001093042312930CA84FF40033159305F0CF
:101BE00085FD08B1FFF726FF554B564800240094A9
:101BF0005A6C42F080625A645A6C02F08062009221
:101C0000009A01941A6B42F020021A631A6B02F0D8
:101C100020020192019A02941A6B42F001021A63A7
:101C20001A6B02F001020292029A03941A6B42F0BC
:101C300002021A631A6B02F002020392039A0494DE
:101C40001A6B42F040021A631A6B02F040020492CF
:101C5000049A05941A6B42F004021A631A6B02F09C
:101C600004020592059A06941A6B42F008021A6360
:101C70001B6B03F00803069302250E26069B0B96AA
:101C80004FF4806307A9CDE90735CDE9094504F094
:101C90008DFB41F658032C480B9607A9CDE9073573
:101CA0000927CDE9094504F081FB032327480B9759
:101CB00007A9CDE90735CDE9094504F077FB4FF4D5
:101CC000706322480B9607A9CDE90735CDE9094590
:101CD00004F06CFB4FF40C631D480B9607A9CDE98B
:101CE0000735CDE9094504F061FBC02319480B967F
:101CF00007A9CDE90735CDE9094504F057FB0823CD
:101D000015480B9607A9CDE90735CDE9094504F03B
:101D10004DFB4FF4A0530E480B9707A9CDE90735AB
:101D2000CDE9094504F042FB58202246052104F084
:101D30009BF9582004F0CAF919B0F0BD00680140C1
:101D4000003802400014024000000240000402403B
:101D50000018024000080240000C024010B5044682
:101D600088B01422002103A81DF004FB2268144B44
:101D70009A4223D103F56843002101915A6C11481E
:101D800042F480125A645A6C02F480120192019A51
:101D900002911A6B42F020021A631B6B03F02003BE
:101DA0000293029B4FF4607202230321CDE90323C7
:101DB0000523CDE9061303A904F0F8FA08B010BD15
:101DC000005001400014024007B50F4B02689A42D0
:101DD00016D1002203F509330192196C41F020015C
:101DE00019641B6C03F02003019305213720019B2C
:101DF00004F03AF9372003B05DF804EB04F066B95B
:101E000003B05DF804FB00BF00140040F0B51422DD
:101E10008BB0044600210DEB02001DF0ABFA2368E5
:101E2000384A934240D1384B3848002400941A6C09
:101E300042F480121A641A6C02F480120092009A22
:101E400001941A6B42F004021A631A6B02F0040246
:101E50000192019A02941A6B42F008021A631B6BFA
:101E600003F008030293029B02274FF480530326DA
:101E7000082505A9CDE90537CDE9086504F096FAEE
:101E800004232348099505A9CDE90537CDE907467F
:101E900004F08CFA35202246052104F0E5F83520BF
:101EA00004F014F90BB0F0BD1A4A9342FAD1164B64
:101EB0001948002403945A6C42F010025A645A6C78
:101EC00002F010020392039A04941A6B42F001028A
:101ED0001A631B6B03F0010304934FF4C062049B6D
:101EE0000223CDE9052303210723CDE9081305A922
:101EF00004F05CFA25202246052104F0B5F82520DF
:101F0000CEE700BF00500040003802400008024009
:101F1000000C024000100140000002402DE9F04199
:101F200086B0002303932B4B1C68002C4FD14FF03D
:101F30000108C3F80080284B00949A6B274842EAB6
:101F400008029A639B6B03EA0803009302270326A7
:101F50000C25009B01A94FF63F03CDE90137CDE9E0
:101F6000046504F023FA1E48059501A9CDE901870F
:101F7000CDE9034604F01AFA48F2331319480595DF
:101F800001A9CDE90137CDE9034604F00FFA4FF678
:101F900083731548059501A9CDE90137CDE90346BD
:101FA00004F004FA4CF203731048059501A9CDE939
:101FB0000137CDE9034604F0F9F960230C48059593
:101FC00001A9CDE90137CDE9034604F0EFF906B0E8
:101FD000BDE8F081EC4000200038024000140240CF
:101FE000000802400018024000100240000C0240AD
:101FF0000004024070B588B000230293204B1A6C95
:1020000042F010021A641B6C03F0100302930546A1
:1020100001A903A8029B05F04BFB069B4BBB05F0F7
:1020200027FB184E184B336040F2E733F360174B31
:10203000B0FBF3F3013B7360304600233361B360C0
:10204000B36106F065F9044680B9304606F01AF827
:10205000044658B9362004F039F80F2D0DD8224621
:102060002946362004F000F8094B1D60204608B0D0
:1020700070BD05F0FDFA4000D3E70124F6E700BF8C
:1020800000380240F04000200010004040420F00A5
:102090007C0000207047FEE7FEE7FEE7FEE77047A2
:1020A000014806F0BDBA00BF64400020014806F0B8
:1020B000B7BA00BFA8400020014806F021B800BF11
:1020C000F0400020014806F01BB800BF1C40002073
:1020D000014804F0ABBF00BFE83E0020014804F017
:1020E00097B800BF543E00200120704708B51DF08E
:1020F000D7F8162303604FF0FF3008BD08B51DF078
:10210000CFF816230360FEE770B50D4614460E4661
:10211000731B9C4201DC204670BDAFF3008006F8C3
:10212000010BF5E770B50D4614460E46731B9C4235
:1021300001DC204670BD16F8010BAFF30080F5E717
:102140004FF0FF3070474FF400534B600020704752
:1021500001207047002070470A4A116808B50346FD
:1021600009B9094911601068694603448B4206D9D0
:102170001DF096F80C2303604FF0FF3008BD13608C
:10218000FCE700BF38410020785A0120704710B5A5
:10219000042104461CF0A2FF204610BD08B5032907
:1021A00013D8DFE801F002060A0E02F081FA006897
:1021B00008BD02F07DFA4068FAE702F079FA80681B
:1021C000F6E702F075FAC068F2E70020F0E70000D9
:1021D00000487047DC0B02080F20704713B500243D
:1021E00051B1036801948DF8034001AA9C680DF178
:1021F0000303A04702B010BD0846FBE7C089704743
:10220000008A7047C088704780887047807A00F0E5
:102210007F007047807AC0097047704710B5082169
:1022200004461CF05BFF204610BD7047704700F568
:1022300098730868496803C37047704770474160E6
:1022400070477047064BC0F84C310023C0F850313E
:1022500000F5A273C0F84801C0F84031704700BFD4
:10226000E5230008012303727047704770477047E9
:1022700010B4C26841685410034601EB6200D207F3
:1022800048BF0A599B685DF8044B48BFD3581847AC
:1022900043682BB183682BB9C06800F00100704718
:1022A000184670470120704710B50C2104461CF0F9
:1022B00015FF204610BD10B5102104461CF00EFF7E
:1022C000204610BD10B54FF4AE7104461CF006FF59
:1022D000204610BD10B5402104461CF0FFFE2046EC
:1022E00010BD10B50CF00AFA0368BDE81040DB6BB6
:1022F00018470000054B1B7801462BB1406818B108
:1023000003680C315B6E1847704700BF834F012094
:10231000037A70B50546BBB940680368DB69984726
:1023200004464CB1A1886B8FC91A236820461B6BE9
:1023300009B29847A469F4E76868036805F10C01DD
:102340001B6EBDE87040184770BD70B5044690F82C
:10235000390094F838300130C0B2984284F839001E
:1023600005D901232372002384F8393070BDB4F9F4
:102370003A2000210DF0B4FE10F0010283B206D025
:102380004FF6FF710028D8BF0A46981800B2238A7A
:10239000C01AA08760680368DB69984705464DB19D
:1023A000A988A38F19442B6828461B6B09B298474C
:1023B000AD69F4E760680368BDE870405B69184781
:1023C00010B50446D0F8400158B10368DB6898475F
:1023D00038B1D4F8400103689B6898470023C4F8DB
:1023E000403110BD2DE9F14FD0E9555A0746A86894
:1023F00003681B6A9847B0F5D07F05D2454B464A23
:10240000A32146481CF01AFF686803681B6A9847B6
:102410000F2803D8424B404AA421F2E7E86803683A
:102420001B6A98470B2803D83E4B3B4AA521E8E797
:102430000CF064F9DFF8F49004300CF084F9D9F86A
:10244000000010B10368DB689847D9F8000010B1AC
:1024500003681B689847DFF8D880D8F8000010B1EF
:1024600003685B699847D7F83C0110B103685B6863
:102470009847D8F8000010B103681B689847D7F850
:102480003C0110B103689B689847E8680368002125
:102490005B6A98474FF0000B234B03600446C0F87B
:1024A00004B080F808B0A868036859465B6A98478A
:1024B000064602F033FF6868036859465B6A98472E
:1024C0003146054602F004FFC9F80040C7F83C5108
:1024D000C8F80060E5B12B1DCAF800303368C5F8B4
:1024E00008A03046DB68F56398472B6828461B68D0
:1024F0009847214630460DF0EDFD236820461B69C4
:10250000984723685B69204601B0BDE8F04F184743
:102510002B46E1E7180D0208A60D0208B00E0208CE
:10252000F70E02089A0F0208F4120208C44F0120A5
:10253000C04F0120044B1B6893F858200AB1D86C97
:1025400000B99868704700BF844F0120F8B5044671
:1025500017460E460CF094F9104B1C60104B23608C
:10256000104B0025C4E951350F4BC4E95355186889
:10257000036801219B68C4E94F55C4E95576984723
:10258000284602F049F8FFF7D5FF15F036FAFFF7B5
:10259000D1FF15F0ADFA2046F8BD00BFD04F0120A5
:1025A000A012020888120208844F0120064BC0F8CE
:1025B0004C310023C0F8503100F5A273C0F8480137
:1025C000C0F84031704700BFE5230008064BC0F853
:1025D0004C310023C0F8503100F5A273C0F8480117
:1025E000C0F84031704700BFC1270008064BC0F853
:1025F0004C310023C0F8503100F5A273C0F84801F7
:10260000C0F84031704700BF812600082DE9F04135
:1026100005460026164B4660067245F80C3B0446FC
:1026200028460F4609F04CFD124B84F838701B7891
:1026300084F83960A68723B9012323722046BDE8B8
:10264000F0810D4B0D4FB3F90080E368B7F900102E
:102650009B6B266128469847E3684146DB6B28461A
:102660009847284609F0A7FC3B885B426387E5E76B
:1026700018130208834F01207A4F0120784F012060
:102680002DE9F047D0E9554A0746A06803681B6A60
:102690009847B0F5DD5F05D2424B434AA32143483A
:1026A0001CF0CCFD606803681B6A98470F2803D8AC
:1026B0003F4B3D4AA421F2E7E06803681B6A984754
:1026C0003F2803D83B4B384AA521E8E70CF016F821
:1026D000DFF8E49004300CF036F8D9F8000010B1BF
:1026E0000368DB689847D9F8000010B103681B68DD
:1026F0009847DFF8C880D8F8000010B103685B691C
:102700009847D7F83C0110B103685B689847D8F840
:10271000000010B103681B689847D7F83C0110B15E
:1027200003689B689847E068036800215B6A9847E4
:1027300014210546FFF76AFFA068036800215B6A61
:102740009847064602F03CFF6068036800215B6A18
:1027500098473146044602F01BFEC9F80050C7F8FE
:102760003C41C8F80060DCB1231DCAF80030336872
:10277000C4F808A03046DB68F46398472368204615
:102780001B689847294630460DF0A4FC2B68284664
:102790001B6998472B6828465B69BDE8F0471847D6
:1027A0002346E2E7180D02083D100208B00E0208A9
:1027B000F70E02089A0F0208C44F0120C04F0120F3
:1027C0002DE9F047D0E9554A0746A06803681B6A1F
:1027D000984742F2AF53984205D8434B434AA3214E
:1027E00043481CF02BFD606803681B6A98470F285C
:1027F00003D8404B3D4AA421F2E7E06803681B6A16
:1028000098473F2803D83C4B384AA521E8E70BF00E
:1028100075FFDFF8E89004300BF095FFD9F8000061
:1028200010B10368DB689847D9F8000010B103685D
:102830001B689847DFF8C880D8F8000010B103681B
:102840005B699847D7F83C0110B103685B6898470B
:10285000D8F8000010B103681B689847D7F83C010E
:1028600010B103689B689847E068036800215B6AC1
:10287000984714210546FFF7C9FEA06803680021A8
:102880005B6A9847064601F0DDFF60680368002137
:102890005B6A98473146044601F04CFFC9F8005086
:1028A000C7F83C41C8F80060DCB1231DCAF800300D
:1028B0003368C4F808A03046DB68F463984723689F
:1028C00020461B689847294630460DF003FC2B68CC
:1028D00028461B6998472B6828465B69BDE8F04786
:1028E00018472346E2E700BF180D020862110208EC
:1028F000B00E0208F70E02089A0F0208C44F01201A
:10290000C04F01207047704770477047704730B51F
:102910000368018185B06D460146D3F884300446D2
:102920002846984795E807003C3484E8070005B03E
:1029300030BD30B50368418185B06D460146D3F89E
:10294000843004462846984795E807003C3484E8DC
:10295000070005B030BD0022028042808280C28024
:10296000704780F83610704770B5036804461B6BDB
:10297000154698472368294620465B6EBDE870409F
:1029800018470020704700224FF0FF31C0E90021B6
:1029900082607047806C704770477047704710B511
:1029A0004C2104461CF09AFB204610BD10B54FF494
:1029B000FA6104461CF092FB204610BD08B5FEF7F4
:1029C000ADFB08BD036870B55E6B124B1B68044617
:1029D0008DB22BB9104B114A6C2111481CF02EFC02
:1029E0001049828D0988914203D80F4B0B4A6D2103
:1029F000F3E713F812200D4B1B6853F8220003680D
:102A00001B6B9847281A01B233462046BDE8704038
:102A1000184700BFD44F0120341302087613020870
:102A2000B1130208D84F0120F8130208DC4F01202F
:102A3000074A02600022C0E90122C0E90322C0E97E
:102A40000522C0E907224FF480728284704700BFDC
:102A5000101D020870B5036804461B6B15469847A5
:102A60002368294620465B6BBDE87040184770B567
:102A700004461D46BDF91060FFF7ECFF23682946A8
:102A800020469B6B9847236831462046DB6BBDE8A8
:102A90007040184710B50446FFF7CAFF024B236089
:102AA0000023A362204610BDD019020810B52622CB
:102AB000044600211CF05EFC2046FFF7B9FF044BE2
:102AC0002360FF2384F826300023A362204610BD34
:102AD000741B02082DE9F04F2DED108B054699B0BF
:102AE000AA4600240DF04AF9DE4BEC634AF8403B5D
:102AF0005046FFF7DBFF05F16C0305F19809184616
:102B00004FF6FF7605F1C4071593FFF7CFFF16A91F
:102B10004846ADF8586009F03DFB3846FFF7BAFF6C
:102B200005F1F00316A918460AEE103AADF8586000
:102B300009F030FB05F58E7316A918460AEE903A97
:102B4000ADF8586009F026FB05F5A47305F5BA7BCE
:102B500016A918460BEE103AADF8586009F01AFBAA
:102B60005846FFF797FF05F5D07316A918460BEEE8
:102B7000903AADF8586009F00DFB05F5E67316A91B
:102B800018460CEE103AADF8586009F003FB05F555
:102B9000FC7316A918460CEE903AADF8586009F08F
:102BA000F9FA05F5097305F5147816A918460DEE1E
:102BB000103AADF8586009F0EDFA4046FFF76AFFA9
:102BC00005F51F7316A918460DEE903AADF858603A
:102BD00009F0E0FA05F52A7316A918460EEE103A28
:102BE000ADF8586009F0D6FA05F5357316A9184600
:102BF0000EEE903AADF8586009F0CCFA05F5407346
:102C000016A918460FEE103AADF8586009F0C2FA4E
:102C100005F54B7316A918460FEE903AADF85860BB
:102C200009F0B8FA05F5567318460293FFF732FF1C
:102C300005F5617316A918460393ADF8586009F0BD
:102C4000A9FA05F56C7316A918460493ADF85860F7
:102C500009F0A0FA05F57773184609EE103AFFF768
:102C600019FF05F5816316A918460593ADF858605C
:102C700009F090FA05F2344316A918460693ADF808
:102C8000586009F087FA05F58C6316A91846079372
:102C9000ADF8586009F07EFA05F28C43184608EE4C
:102CA000903AFFF7F7FE05F5976316A918460893C3
:102CB000ADF8586009F06EFA05F2E44316A918461B
:102CC0000993ADF8586009F065FA05F5A26316A9F5
:102CD00018460A93ADF8586009F05CFA05F23C53C7
:102CE00016A918460B93ADF8586009F053FA05F58C
:102CF000AD63184608EE103AFFF7CCFE05F2945388
:102D000016A918460C93ADF8586009F043FA05F57A
:102D1000B86316A918460D93ADF8586009F03AFA51
:102D200005F2EC5316A918460E93ADF8586009F059
:102D300031FA05F5C36316A918460F93ADF858602C
:102D400009F028FA05F2446316A918461093ADF865
:102D5000586009F01FFA05F5CE6318461193FFF786
:102D600099FE05F29C6316A918461293ADF85860B7
:102D700009F010FA05F5D96316A918461393ADF8B2
:102D8000586009F007FA05F2F46309EE903A26223A
:102D9000214618461CF0EEFA19EE900AFFF748FE9D
:102DA000314BC5F81C374FF47F03C5F828372F4B3C
:102DB000C5F8F4364FF0FF33C5F8343705F5E8634E
:102DC0001493A5F820674FF0FF3316A91498C5F89F
:102DD0002447A5F82C47C5F83047C5F83847C5F84B
:102DE0003C47ADF8583009F0D5F94FF4A0732246AE
:102DF000504600932146F0232E1DFFF738FE4FF07A
:102E00007F435146AB66304607F056FF4FF4A07340
:102E10002246159800932146F023FFF728FE4FF035
:102E2000FF331599C5F89430304607F045FF02236B
:102E3000484616A9ADF8583009F00FFEE623009376
:102E4000532248460521FFF712FE4846214609F065
:102E50005CF94946304607F02FFF44236FF04302E8
:102E6000384605E00C150208100D02087C14020813
:102E700000936FF0210117234FF017094FF0040A58
:102E8000FFF7F5FD1AEE100A16A9ADF858A009F0E3
:102E9000E4FD4B4616221AEE100A2146CDF80090AA
:102EA000FFF7E5FD1AEE100A214609F02EF9384623
:102EB0001AEE101A07F000FF1AEE900A16A9ADF8E4
:102EC00058A009F0CAFD4B4622461AEE900A214648
:102ED000CDF80090FFF7CBFD1AEE900A214609F0DD
:102EE00014F938461AEE901A07F0E6FE1BEE100AA7
:102EF00016A9ADF858A009F0B0FD4B462C221BEEE8
:102F0000100A2146CDF80090FFF7B1FD1BEE100A24
:102F1000214609F0FAF838461BEE101A07F0CCFEED
:102F20003946304607F0C8FE5A236FF05B02584618
:102F300000936FF066014B46FFF799FD1BEE900A78
:102F400016A9ADF858A009F088FD4B4616221BEED5
:102F5000900A2146CDF80090FFF789FD1BEE900AFC
:102F6000214609F0D2F858461BEE901A07F0A4FE4D
:102F70001CEE100A16A9ADF858A009F06EFD4B46DC
:102F800022461CEE100A2146CDF80090FFF76FFD97
:102F90001CEE100A214609F0B8F858461CEE101A2B
:102FA00007F08AFE1CEE900A16A9ADF858A009F0A9
:102FB00054FD4B462C221CEE900A2146CDF8009081
:102FC000FFF755FD1CEE900A214609F09EF8584681
:102FD0001CEE901A07F070FE19271DEE100A16A9B4
:102FE000ADF858A009F039FD4B4643221DEE100AFA
:102FF00000972146FFF73BFD1DEE100A214609F020
:1030000084F858461DEE101A07F056FE5946304611
:1030100007F052FE71236FF07202404600936FF08A
:1030200086014B46FFF723FD1DEE900A16A9ADF869
:1030300058A009F012FD4B4616221DEE900A2146BB
:10304000CDF80090FFF713FD1DEE900A214609F020
:103050005CF840461DEE901A07F02EFE1EEE100A98
:1030600016A9ADF858A009F0F8FC4B4622461EEE12
:10307000100A2146CDF80090FFF7F9FC1EEE100A69
:10308000214609F042F840461EEE101A07F014FEE1
:103090001EEE900A16A9ADF858A009F0DEFC4B46CA
:1030A0002C221EEE900A2146CDF80090FFF7DFFC9F
:1030B0001EEE900A214609F028F840461EEE901AAE
:1030C00007F0FAFD1FEE100A16A9ADF858A009F096
:1030D000C4FC4B4643221FEE100A00972146FFF71F
:1030E000C6FC1FEE100A214609F00FF840461FEEFD
:1030F000101A07F0E1FD1FEE900A16A9ADF858A0CE
:1031000009F0ABFC4B465A221FEE900A009721466D
:10311000FFF7ADFC1FEE900A214608F0F6FF40468F
:103120001FEE901A07F0C8FD414630464FF02C08BC
:1031300007F0C2FD4B466FF02D020298CDF80080DB
:103140006FF04301FFF793FC0398ADF858A016A960
:1031500009F083FC4B4622460398CDF800902146A7
:10316000FFF785FC0398214608F0CFFFDDE9020157
:1031700007F0A2FD0498ADF858A016A909F06DFC5F
:103180004B4616220498CDF800902146FFF76FFCBD
:103190000498214608F0B9FF0499029807F08CFDC5
:1031A0000299304607F088FD4423482219EE100AA0
:1031B0006FF04E01CDF800904FF0050BFFF757FC74
:1031C0000598ADF858B016A909F047FC4B462246C1
:1031D0000598CDF800904146FFF749FC0598214637
:1031E00008F093FF059919EE100A07F065FD06989F
:1031F000ADF858B016A909F030FC4B4622460698A7
:10320000CDF800901621FFF732FC0698214608F011
:103210007CFF069919EE100A07F04EFD0798ADF8ED
:1032200058B016A909F019FC4B4622460798CDF86C
:1032300000902146FFF71BFC0798214608F065FF28
:10324000079919EE100A07F037FD19EE101A3046EB
:1032500007F032FD5A236F2218EE900A6FF06501D5
:10326000CDF80090FFF703FC0898ADF858B016A908
:1032700009F0F3FB4B4622460898CDF800904146F2
:10328000FFF7F5FB0898214608F03FFF089918EE74
:10329000900A07F011FD0998ADF858B016A909F089
:1032A000DCFB3B4622460998CDF800904221FFF70F
:1032B000DEFB0998214608F028FF099918EE900ACC
:1032C00007F0FAFC0A98ADF858B016A909F0C5FB4A
:1032D0004B4622460A98CDF800901621FFF7C7FB0F
:1032E0000A98214608F011FF0A9918EE900A07F093
:1032F000E3FC0B98ADF858B016A909F0AEFB4B46AD
:1033000022460B98CDF800902146FFF7B0FB0B98B2
:10331000214608F0FAFE0B9918EE900A07F0CCFC53
:1033200018EE901A304607F0C7FC7123952218EE6C
:10333000100A6FF07A01CDF80090FFF798FB0C9817
:10334000ADF858B016A909F088FB4B4622460C98F8
:10335000CDF800904146FFF78AFB0C98214608F013
:10336000D4FE0C9918EE100A07F0A6FC0D98ADF8E3
:1033700058B016A909F071FB3B4622460D98CDF8CE
:1033800000904221FFF773FB0D98214608F0BDFE27
:103390000D9918EE100A07F08FFC0E98ADF858B092
:1033A00016A909F05AFB3B4622460E98CDF800902C
:1033B0005A21FFF75CFB0E98214608F0A6FE0E99F5
:1033C00018EE100A07F078FC0F98ADF858B016A95F
:1033D00009F043FB4B4622460F98CDF8009016218A
:1033E000FFF745FB0F98214608F08FFE0F9918EE66
:1033F000100A07F061FC1098ADF858B016A909F052
:103400002CFB4B4622461098CDF800902146FFF742
:103410002EFB1098214608F078FE109918EE100A3D
:1034200007F04AFC18EE101A304607F045FC4346F8
:1034300053221198CDF800900621FFF718FB12983F
:10344000ADF858B016A909F008FB4B462246129871
:10345000CDF800901621FFF70AFB1298214608F0DC
:1034600054FEDDE9110107F027FC1398ADF858B0C0
:1034700016A909F0F2FA4B4622461398CDF80090AF
:103480002146FFF7F4FA1398214608F03EFE1399FF
:10349000119807F011FC1199304607F00DFC19EE58
:1034A000900A36220621FFF7D5FA2E4BC5F82437AD
:1034B0004FF0FF33C5F834372B4BA5F828471B686E
:1034C000C5F83047C5F8384705F26C772BB9274B5C
:1034D000274A602127481BF0B1FE274B1B88032B8E
:1034E00003D8264B224A6121F4E7254B03211868B3
:1034F00001F0CEF8234A0346322138460EF0DCF8BC
:1035000019EE900AC5F83C7709F0F8F81E4B1693AF
:1035100019EE900A16A9ADF85CA009F00FF919EEA2
:10352000901A304607F0C8FB14980E2316A9ADF880
:10353000583009F092FA062220231146149800937D
:10354000E523FFF794FA1498214608F0DEFD304693
:10355000149907F0B1FB284619B0BDEC108BBDE8FB
:10356000F08F00BFA83414FFD44F01203413020899
:1035700036140208B1130208D84F0120F8130208CC
:10358000E04F01206E140208100D0208406A7047D7
:10359000806A704770478B88C0690A68DB0A50F8F8
:1035A00023001044704710B5C2B1137BB3B1547BF4
:1035B000D27A240204F4E0641443026A98B202EB63
:1035C000840213888B4202D192F9020010BD05D803
:1035D000013880B204320028F3D1F7E70020F5E784
:1035E00010B52C2104461BF079FD204610BD0000CB
:1035F00030B58BB00446BDF860500895BDF85C50FE
:1036000007959DF8505006959DF84C5005959DF8EE
:10361000485004959DF8445003959DF840500295FC
:103620009DF83C500195BDF8385000950CF08AF992
:10363000064B2360159BE361169B2362199B636213
:103640001A9BA36220460BB030BD00BF4015020894
:1036500070477047704730B4C268446855100346DD
:1036600004EB6200D20748BF62599B6830BC48BF78
:10367000D358184743682BB183682BB9C06800F052
:1036800001007047184670470120704710B510219F
:1036900004461BF023FD204610BD10B54FF4D07139
:1036A00004461BF01BFD204610BD00F5A4708842A7
:1036B00008B505D10BF022F8BDE80840FEF786BF3B
:1036C00008BD0000002310B5C0E90133C0E9033391
:1036D000C0E90733C0E905334FF480738384064B98
:1036E00003600B88C384FF23044680F8283009F068
:1036F000B4F9204610BD00BFDC1B02081A4B73B59D
:103700001B88018F8B4206462AD9184B1B682BB9A0
:10371000174B184A18486C211BF090FD13F8112024
:10372000164B1B6853F82250154B186800F0B0FF79
:103730002B6801909B6B284698472B6801999B6CDE
:103740000446284698472B6801995B6A14FB00F4ED
:1037500028469847A4B20444A6F8464002B070BD7B
:103760000023A0F84630F9E7D84F0120D44F0120BC
:103770003413020876130208B1130208DC4F01204B
:10378000E04F01202DE9F04F2DED028B044685B06E
:10379000A04600250CF0F2FA654BE56348F8403B83
:1037A0004046FFF783F904F16C03184604F1980BC7
:1037B00008EE903A4FF6FF76FFF778F904F1C40A65
:1037C00003A9584604F1F009ADF80C60FFF77AFF41
:1037D00003A95046ADF80C60FFF774FF03A94846F3
:1037E000ADF80C60FFF76EFF04F58E7304F5A47757
:1037F00003A9184608EE103AADF80C60FFF762FF17
:10380000384609F061FA4B4BC4E964344A4BC4E9C9
:1038100066354FF4A0732A46009329464046F023AC
:10382000261DFFF724F94FF07F43A366414630463B
:1038300007F042FA4FF4A0732A4618EE900A00935C
:103840002946F023FFF713F94FF07F43C4F8943073
:1038500018EE901A304607F02FFA302258460A2107
:10386000FFF7F8F8012303A95846ADF80C3009F02A
:10387000F4F85946304607F01FFA0E225046B6219A
:10388000FFF7E8F80B2303A95046ADF80C3009F018
:10389000E4F85146304607F00FFA642248465421B6
:1038A000FFF7D8F80C230DEB03014846ADF80C30B8
:1038B00009F0D3F84946304607F0FEF9892218EEA0
:1038C000100A0921FFF7C6F80D2318EE100A03A904
:1038D000ADF80C3009F0C1F818EE101A304607F0B8
:1038E000EBF93846D0222121FFF7B4F803AA02A948
:1038F0003846ADF80850ADF80C5008F07CFF0523B1
:10390000A4F880313846FFF7F9FE4FF0FF33C4E9E1
:10391000613304F5C8733046C4F87031394607F096
:10392000CBF9204605B0BDEC028BBDE8F08F00BF9F
:10393000B8150208A0150208AB360008704770479A
:1039400010B540F24C7104461BF0C8FB204610BD78
:103950002DE9F04F2DED108B054699B0AA460024B5
:103960000CF00CFADF4BEC634AF8403B5046FFF793
:103970009DF805F16C0305F1980918464FF6FF769E
:103980001593FFF793F817A94846ADF85C6008F067
:1039900001FC05F1C403184609EE903AFFF77AF8E6
:1039A00005F1F00317A918460AEE103AADF85C606D
:1039B00008F0F0FB05F58E7305F5A47717A91846F6
:1039C0000AEE903AADF85C6008F0E4FB3846FFF789
:1039D00061F805F5BA7317A918460BEE103AADF861
:1039E0005C6008F0D7FB05F5D07317A918460BEEFD
:1039F000903AADF85C6008F0CDFB05F5E67317A9C9
:103A000018460CEE103AADF85C6008F0C3FB05F503
:103A1000FC7317A918460CEE903AADF85C6008F0FC
:103A2000B9FB05F5097305F5147817A918460DEECD
:103A3000103AADF85C6008F0ADFB4046FFF72AF89D
:103A400005F51F7317A918460DEE903AADF85C60A6
:103A500008F0A0FB05F52A7317A918460EEE103AD8
:103A6000ADF85C6008F096FB05F5357317A91846AC
:103A70000EEE903AADF85C6008F08CFB05F54073F3
:103A800017A918460FEE103AADF85C6008F082FBFB
:103A900005F54B73184608EE903AFEF7FBFF05F567
:103AA000567317A918460FEE903AADF85C6008F00F
:103AB00071FB05F5617317A918460293ADF85C60B8
:103AC00008F068FB05F56C7317A918460393ADF869
:103AD0005C6008F05FFB05F5777318460493FEF70A
:103AE000D9FF05F5816317A918460593ADF85C6009
:103AF00008F050FB05F2344305F58C6B17A9184606
:103B00000693ADF85C6008F045FB5846FEF7C2FF2F
:103B100005F28C4317A918460793ADF85C6008F0CE
:103B200039FB05F5976317A918460893ADF85C6053
:103B300008F030FB05F2E44317A918460993ADF8E5
:103B40005C6008F027FB05F5A26317A918460A93E5
:103B5000ADF85C6008F01EFB05F23C5317A918464F
:103B60000B93ADF85C6008F015FB05F5AD631846E6
:103B700008EE103AFEF78EFF05F2945317A9184687
:103B80000C93ADF85C6008F005FB05F5B86317A968
:103B900018460D93ADF85C6008F0FCFA05F2EC53A2
:103BA00017A918460E93ADF85C6008F0F3FA05F516
:103BB000C36317A918460F93ADF85C6008F0EAFAE2
:103BC00005F24463184609EE103AFEF763FF05F567
:103BD000CE6317A918461093ADF85C6008F0DAFAC6
:103BE00005F29C6317A918461193ADF85C6008F0C4
:103BF000D1FA05F5D96317A918461293ADF85C60A0
:103C000008F0C8FA05F2F46317A918461393ADF843
:103C10005C6008F0BFFA05F5E46317A91846149331
:103C2000ADF85C6008F0B6FA4FF4A073224600933A
:103C300021465046F0232E1DFEF719FF4FF07F431B
:103C4000AB665146304607F037F84FF4A073224672
:103C5000159800932146F023FEF709FF4FF0FF333C
:103C60001599C5F89430304607F026F8032317A9B4
:103C70004846ADF85C3008F0F0FEE623009353228E
:103C800048460521FEF7F3FE2146484608F03DFA76
:103C9000494630464FF0170907F00EF819EE900A22
:103CA0002C232622CDF800906FF037014FF0050A43
:103CB000FEF7DDFE1AEE100A17A9ADF85CA008F0B9
:103CC000CCFE4B4622461AEE100ACDF80090162183
:103CD000FEF7CDFE1AEE100A214608F016FA1AEE8B
:103CE000101A01E0EC15020819EE900A06F0E4FF44
:103CF0001AEE900A17A9ADF85CA008F0AEFE4B468C
:103D000022461AEE900A2146CDF80090FEF7AFFE4B
:103D10001AEE900A214608F0F8F91AEE901A19EEF8
:103D2000900A06F0C9FF19EE901A304606F0C4FF5B
:103D3000712395223846CDF800906FF07A01FEF796
:103D400096FE1BEE100A17A9ADF85CA008F085FEE0
:103D50004B4622461BEE100ACDF800902C21FEF7B0
:103D600086FE1BEE100A214608F0CFF91BEE101A52
:103D7000384606F0A1FF1BEE900A17A9ADF85CA02B
:103D800008F06BFE224619231BEE900ACDF8009036
:103D90004221FEF76CFE1BEE900A214608F0B5F9B1
:103DA0001BEE901A384606F087FF1CEE100A17A982
:103DB000ADF85CA008F051FE224619231CEE100A53
:103DC000CDF800905A21FEF752FE1CEE100A214653
:103DD00008F09BF91CEE101A384606F06DFF1CEE39
:103DE000900A17A9ADF85CA008F037FE4B462246B2
:103DF0001CEE900ACDF800901621FEF738FE1CEE5E
:103E0000900A214608F081F91CEE901A384606F017
:103E100053FF1DEE100A17A9ADF85CA008F01DFEB7
:103E20004B4622461DEE100A2146CDF80090FEF7C3
:103E30001EFE1DEE100A214608F067F91DEE101A4D
:103E4000384606F039FF3946304606F035FF5A232A
:103E50006F224046CDF800906FF06501FEF707FE37
:103E60001DEE900A17A9ADF85CA008F0F6FD4B46D0
:103E700022461DEE900ACDF800902C21FEF7F7FDAA
:103E80001DEE900A214608F040F91DEE901A4046BA
:103E900006F012FF1EEE100A17A9ADF85CA008F09C
:103EA000DCFD224619231EEE100ACDF800904221B7
:103EB000FEF7DDFD1EEE100A214608F026F91EEE83
:103EC000101A404606F0F8FE1EEE900A17A9ADF84B
:103ED0005CA008F0C2FD4B4622461EEE900ACDF8CB
:103EE00000901621FEF7C3FD1EEE900A214608F051
:103EF0000CF91EEE901A404606F0DEFE1FEE100A88
:103F000017A9ADF85CA008F0A8FD4B4622461FEEAD
:103F1000100A2146CDF80090FEF7A9FD1FEE100A09
:103F2000214608F0F2F81FEE101A404606F0C4FED3
:103F30004146304606F0C0FE18EE900A442348225F
:103F4000CDF800906FF04E01FEF791FD1FEE900A44
:103F500017A9ADF85CA008F080FD4B4622461FEE85
:103F6000900ACDF800902C21FEF781FD1FEE900AFB
:103F7000214608F0CAF81FEE901A18EE900A06F0D3
:103F80009BFE0298ADF85CA017A908F066FD4B46B1
:103F900022460298CDF800901621FEF768FD02989F
:103FA000214608F0B2F8029918EE900A06F084FE55
:103FB0000398ADF85CA017A908F04FFD4B462246C8
:103FC0000398CDF800902146FEF751FD0398214655
:103FD00008F09BF8039918EE900A06F06DFE4FF07A
:103FE0002C0818EE901A304606F066FE4B460498F0
:103FF000CDF800806FF02D026FF043010427FEF72B
:1040000036FD0598ADF85C7017A908F026FD4B4603
:1040100022460598CDF800902146FEF728FD059828
:10402000214608F072F8DDE9040106F045FE069825
:10403000ADF85C7017A908F010FD4B4616220698E3
:10404000CDF800902146FEF712FD0698214608F0B3
:104050005CF80699049806F02FFE0499304606F0A5
:104060002BFE712300936FF072024B4658466FF09F
:104070008601FEF7FCFC0798ADF85C7017A908F004
:10408000ECFC4B4616220798CDF800902146FEF72F
:10409000EEFC0798214608F038F80799584606F0D4
:1040A0000BFE0898ADF85C7017A908F0D6FC4B46DB
:1040B00022460898CDF800902146FEF7D8FC0898D3
:1040C000214608F022F80899584606F0F5FD0998AF
:1040D000ADF85C7017A908F0C0FC4B464246099841
:1040E000CDF800902146FEF7C2FC0998214608F061
:1040F0000CF80999584606F0DFFD0A98ADF85C7097
:1041000017A908F0AAFC192343220A980093214614
:104110004B46FEF7ACFC0A98214607F0F6FF0A99D9
:10412000584606F0C9FD0B98ADF85C7017A908F069
:1041300094FC19235A220B98009321464B46FEF714
:1041400096FC0B98214607F0E0FF0B99584606F0C5
:10415000B3FD5946304606F0AFFD5A2318EE100A5B
:1041600000936FF05B024B466FF06601FEF77FFC39
:104170000C98ADF85C7017A908F06FFC4B4616223E
:104180000C98CDF800902146FEF771FC0C98214662
:1041900007F0BBFF0C9918EE100A06F08DFD0D9884
:1041A000ADF85C7017A908F058FC4B4622460D98F4
:1041B000CDF800902146FEF75AFC0D98214607F0F5
:1041C000A4FF0D9918EE100A06F076FD0E98ADF8D2
:1041D0005C7017A908F041FC4B4642460E98CDF89A
:1041E00000902146FEF743FC0E98214607F08DFF14
:1041F0000E9918EE100A06F05FFD0F98ADF85C708E
:1042000017A908F02AFC192343220F98009321468E
:104210004B46FEF72CFC0F98214607F076FF0F99CE
:1042200018EE100A06F048FD18EE101A304606F097
:1042300043FD442319EE100A00936FF043024B46EE
:104240006FF02101FEF713FC1098ADF85C7017A910
:1042500008F003FC4B4616221098CDF8009021463A
:10426000FEF705FC1098214607F04FFF109919EE54
:10427000100A06F021FD1198ADF85C7017A908F03E
:10428000ECFB4B4622461198CDF800902146FEF7F4
:10429000EEFB1198214607F038FF119919EE100A2C
:1042A00006F00AFD1298ADF85C7017A908F0D5FB6E
:1042B00042464B461298CDF800902146FEF7D7FBB8
:1042C0001298214607F021FF129919EE100A06F004
:1042D000F3FC19EE101A304606F0EEFC1398092391
:1042E00017A9ADF85C3008F0B8FB06222023114670
:1042F00013980093E523FEF7BAFB1398214607F0C5
:1043000004FF1399304606F0D7FC14980A2317A926
:10431000ADF85C3008F0A1FB4B4654221498CDF860
:1043200000905146FEF7A3FB1498214607F0EDFEDE
:104330003046149906F0C0FC284619B0BDEC108B2D
:10434000BDE8F08F7047000030B5174D2C78BFF3F3
:104350005B8F14F001048FB022D128461AF0C0FE02
:10436000F0B13F230993114B0893114B079301239D
:10437000CDE9053304930423CDE902430C230D4911
:1043800000935F220F23CDE90B440B480A9401945C
:10439000FFF72EF909481AF06FFF28461AF0ACFE15
:1043A00005480FB030BD00BF3C410020943C0208DE
:1043B000783E0208F83602084041002045430008D4
:1043C0007047000030B5174D2C78BFF35B8F14F0A9
:1043D00001048FB022D128461AF082FEF0B13F23AB
:1043E0000993114B0893114B114912480A94CDE9D6
:1043F000064301220423CDE903321E230093052244
:104400002523CDE90B44CDE901440594FFF7F0F8ED
:1044100009481AF031FF28461AF06EFE05480FB021
:1044200030BD00BF6C4100206C3E02087C3E02089B
:104430002C3C020870410020C14300087047000076
:1044400030B5164D2C78BFF35B8F14F001048FB09C
:1044500020D128461AF044FEE0B13F230993104BC7
:104460000893104B104911480A940122CDE90643E4
:104470000423CDE903320A230093CDE90B44CDE9AF
:1044800001440594FFF7B4F809481AF0F5FE2846F0
:104490001AF032FE05480FB030BD00BF9C4100202D
:1044A000703E0208803E0208743C0208A0410020D1
:1044B0003D4400087047000030B5164D2C78BFF31E
:1044C0005B8F14F001048FB020D128461AF008FE4B
:1044D000E0B13F230993104B0893104B104911484A
:1044E0000A940122CDE906430423CDE903322823AF
:1044F0000093CDE90B44CDE901440594FFF778F82A
:1045000009481AF0B9FE28461AF0F6FD05480FB022
:1045100030BD00BFCC410020743E0208843E02083A
:10452000843C0208D0410020B544000800207047B8
:10453000002070470EB403B503AB002153F8042BE1
:1045400001930BF027F802B05DF804EB03B070475D
:104550000CB407B504AB53F8042B01930BF01AF815
:1045600003B05DF804EB02B070470000436C10B577
:10457000044673B3038F2BB9184B194AC521194848
:104580001AF05CFEC38E00EB43035B8C0BB30CF0A4
:10459000EAFA238F012B03D8134B144ACB21EEE701
:1045A000E28E531C9BB2092B194688BFA3F10A0166
:1045B00004EB410140F63F10498C814209D10A2B9E
:1045C00004EB420228BF002304EB4303508C5884C1
:1045D00051842046BDE810400CF0C8B918160208F6
:1045E00021160208CC160208161702082417020822
:1045F0000CF083B910B586B002AC84E806001A4608
:104600000AAB05930193099B00932146089B09F08F
:10461000F7FB06B010BD000038B518BB124B1348AD
:104620001B681349B3B11A689C681A4402605A683F
:104630001A440A601C440F4B00221A8000F038F81C
:10464000054600F033F80C4B1C600C4B1D600C4B06
:10465000188007E00B4B03600B4B0B600B4B1C6887
:10466000002CE8D138BD00BFFC41002000420020F2
:104670000442002008420020D44F0120DC4F0120DA
:10468000D84F0120A03E0208883E0208483F020899
:10469000044B1B6853F82100034B1B6803EB4000DD
:1046A000704700BF044200200042002006207047EF
:1046B000004870470C42002010B5FFF745FE064C3D
:1046C0002060FFF7F9FE6060FFF7BAFEA060FFF719
:1046D00079FEE06010BD00BF0C420020704710B5AD
:1046E0004FF4AE7104461AF0F9FC204610BD10B527
:1046F0000446D0F8580100F03BFE2046BDE81040CB
:104700000AF07EB810B50446FDF720FF014B236088
:10471000204610BD001802087047043870477047E3
:1047200010B5102104461AF0D9FC204610BDA0F1A6
:104730000400F5E710B500228260044AC16002F16E
:10474000080420320460426010BD00BF4C1802080B
:1047500070470000094B70B50446036042F25C25C7
:1047600041F22C16635960191B682C3D9847B542DD
:10477000F8D12046FEF710F9204670BD84180208D3
:1047800010B50446FFF7E6FF204642F2B0511AF09A
:10479000A5FC204610BD10B50C468168E4B04FF46E
:1047A000C87201F54C7168461AF0D6FD4FF4C87214
:1047B000694620461AF0D0FD64B010BD30B50546FC
:1047C000ADF5497D4FF448720C46684600211AF059
:1047D000D1FDAA686B4602F548701946D5680D6090
:1047E000083295684D60824201F10801F6D100223D
:1047F000211D186844F83200586841F8320001322F
:10480000642A03F10803F4D10DF5497D30BD82B06F
:1048100002AB03E90600D0E9C8231AB9632B06D11D
:1048200002B07047013204BF0022C0F820235A1C96
:10483000C0F8242300EBC300009B8360019BC3608E
:10484000EEE700002DE9F3410546FEF743F91C4B66
:104850002B6005F2DC7001F0E9F84FF4487200219A
:1048600005F694401AF086FD05F58A544FF0FF33A3
:1048700005F50A56C5F8B43FC5F8B83F18340836F0
:104880004FF6FF7704F5DC78204601A92C34ADF80B
:10489000047007F07FFC4445F6D1A642F2D105F53D
:1048A00000544FF44872002104F523701AF062FDA1
:1048B00000232846C4F8883202B0BDE8F08100BF6A
:1048C00084180208F8B506460D4600F6C871C06B9C
:1048D0001F461446FFF75FFF96F8BE3F2BB1EB195A
:1048E000092BCCBF00200120F8BDE0190928F8E70A
:1048F000F8B504460F4600F6C871C06B15461E4653
:10490000FFF749FF94F8BE0F0A2170B901FB075168
:1049100004EB810403469E4218DBD4F8C82F002A1A
:1049200004F1280411DC0133F5E705F2F23201FB52
:10493000072504EB850400239E4206DB54F8042B74
:10494000002A01DC0133F7E70020F8BD0120FCE775
:1049500000F1240300F5DA70A3F1280252F8041FD5
:10496000002907DC9A42F9D102F128038342F3D1EE
:10497000012070470020704730B5254D00F5637465
:104980000246116852F8043F01F0004123F0004351
:104990000B43D2F8301681EA530113F0010318BF1C
:1049A0002B464B40944242F8043CEAD1184D021F7A
:1049B00000F22C64D2F89033D2F8941303F0004341
:1049C00021F000410B4352F8041F81EA530113F018
:1049D000010318BF2B464B409442C2F88C33E9D1F7
:1049E000D0F8BC3902680A4922F0004203F00043C3
:1049F0001343D0F8302682EA530213F0010318BFA4
:104A00000B465340C0F8BC390023C0F8C03930BD54
:104A1000DFB00899D0F8C039B3F51C7F10B5044653
:104A200001D3FFF7A9FFD4F8C03909485A1C54F83C
:104A30002330C4F8C02983EAD32300EAC3104340DB
:104A4000044800EAC330584080EA904010BD00BFDF
:104A500080562C9D0000C6EFF8B5D1E900239B1AC3
:104A60005A1C07460D4610D001334FF0FF36B6FBF7
:104A7000F3F606FB03F43846FFF7CCFF8442FAD97D
:104A8000B0FBF6F02B681844F8BDFFF7C3FFF9E759
:104A90002DE9F04F2DED028BADF59D5D85B0604A9F
:104AA0000DF6EC17054689460DF6F410D11F386057
:104AB0001AF08DFB07237B603B680022DA713946D0
:104AC0000AA81AF061FB38461AF06DFB0AA81AF022
:104AD0005DFB38605348394601220B6883EA9373C3
:104AE00000FB03230132B2F51C7F41F8043FF4D1EF
:104AF0006B46C7F8C02900210922C3E9001205F559
:104B00000A5808EE103A08F10C080DF1100A484650
:104B1000FFF71EFF00287BD1D5F8B43F5A1C14D1F3
:104B20004FF0280B18EE101A3846FFF795FF18EED5
:104B3000101A06463846FFF78FFF0BFB0692044615
:104B400052F820200132EDD013E005EBC302D2F879
:104B5000946CD2F8984CD5F8B82F9342A9BF4FF077
:104B6000FF330133C5F8B43FC5F8B83FB8BFC5F847
:104B7000B43F282303FB069B5BF82420002A3EDD7C
:104B8000082E0DDC0BEB8402926A002A08DD02AAD3
:104B9000711CC2E9001405F6944006CAFFF737FEFF
:104BA000082C0CDC621C5BF82210002907DDCAE926
:104BB000006205F694409AE80600FFF728FE002EF2
:104BC0000EDD0BEB840252F8282C002A08DD06AA21
:104BD000711EC2E9001405F6944006CAFFF717FEDD
:104BE000002C0CDD611E5BF82120002A07DD08AADD
:104BF000C2E9006105F6944006CAFFF708FE4FF0CF
:104C0000FF334BF82430C8E9006408F108087EE758
:104C10000DF59D5D05B0BDEC028BBDE8F08F00BFCA
:104C20007B1802086589076C2DE9F04F00F5005BE1
:104C3000DFF8B0A1DBF88832DFF8AC91DFF8AC81A7
:104C400087B001330446CBF88832DAF8000000233D
:104C50008DF8173004F0A3F80746D9F8000004F0E7
:104C60009EF80090D8F8000004F099F8524B01909B
:104C7000186804F094F8514B0290186804F08FF80B
:104C80004F4B039004F2DC76186804F088F8304645
:104C900000F0E7FE94F8D0370546002B40F0318253
:104CA000831E032B21D8DFE803F002525E6A454BD6
:104CB0001B6804F26C7B2BB9434B444A6021444887
:104CC0001AF0BCFA434B1B88032B03D8424B3F4AD4
:104CD0006121F4E70321414B1868FFF7D9FC404AF2
:104CE0000346322158460CF0E7FC002F00F0B58057
:104CF0004FF0FF33DAF8000000220DF1170104F045
:104D00001FF89DF81730532B40F08B80D4F8D8272C
:104D1000D4F8D4172BB22046FFF7EAFD002800F0A4
:104D2000808094F8BE3F002B35D000220A20AA4292
:104D30005EDAE36B9968D4F8D837D718D4F8D4374B
:104D400000FB0733CC33013241F82350EFE71D4B12
:104D50001B6804F26C7B002BAED01E4B1B88022B11
:104D6000B4D90221B7E7174B1B6804F26C7B002B08
:104D7000A2D0184B1B88012BA8D90121ABE7114BFE
:104D80001B6804F26C7B002B96D0124B1B88002B07
:104D90009CD000219FE70A27AB4229DAE26BD4F8C6
:104DA000D8079168D4F8D42707FB00221A44CC32E4
:104DB000013341F82250EFE73C3E0020403E002006
:104DC000443E0020D44F0120341302083614020858
:104DD000B1130208D84F0120F8130208E04F012058
:104DE0006E140208303E0020343E0020383E002081
:104DF000022D40F0DD80002304F57777C4F8D43726
:104E0000C4F8D837052153223846FDF723FE04F1B4
:104E1000C403C4F8C07FC4F8C43F0321304600F087
:104E20001DFE94F8BE2F9DF81730002A40F009812E
:104E30004C2B12D1D4F8D437D4F8C00F013B48BF63
:104E4000C5F10A03C4F8D437D4F8D417172359434B
:104E5000036805311B6B09B29847009B23B34FF0E1
:104E6000FF330DF11701D9F80000002203F068FFAD
:104E700094F8BE1F9DF81730002940F0EF80522BA8
:104E800012D1D4F8D437D4F8C00F0133C5F10A02D7
:104E90009342D8BF1946C4F8D4171723594303685F
:104EA00005311B6B09B29847019B1BB34FF0FF33D1
:104EB0000022D8F800000DF1170103F041FF94F82B
:104EC000BE2F9DF81730002A40F0D880552B11D105
:104ED000D4F8D837D4F8C00F013B48BF0923C4F831
:104EE000D837D4F8D81717235943036853315B6B6D
:104EF00009B29847029B13B39B484FF0FF330DF163
:104F000017010068002203F01BFF94F8BE1F9DF8F4
:104F10001730002940F0C080442B10D1D4F8D83786
:104F2000D4F8C00F0133092BD8BF1946C4F8D817DD
:104F300017235943036853315B6B09B29847039BAE
:104F400083B38A484FF0FF33002200680DF1170148
:104F500003F0F6FE94F8BE2F9DF81730002A40F0BB
:104F6000AD80412B1ED16B1ED4F8D827D4F8D417AE
:104F70001BB22046FFF7A6FCA0B1D4F8C03FD4F87E
:104F8000C40FB3F90620B3F90410FDF763FDD4F89C
:104F9000C00F6FF043026FF01F01FDF75BFD0123AF
:104FA00084F8BE3F201D0AF01FFC07B0BDE8F08F5B
:104FB000032D13D1002304F28C47C4F8D437C4F86E
:104FC000D837052153223846FDF744FD04F5BA735E
:104FD000C4F8C07FC4F8C43F04211FE7042D13D1D7
:104FE000002304F5AD67C4F8D437C4F8D8370521D9
:104FF00053223846FDF72EFD04F51473C4F8C07F24
:10500000C4F8C43F052109E7052D7FF40AAF04F673
:10501000C8712046FFF73CFDE36B9B6804F50A521C
:105020000C3203F548711068D86050681861083375
:10503000994202F10802F6D109F060FBFDF7D6FAB9
:10504000EFE64C2B7FF409AFD4F8D437D4F8C40F73
:10505000013B48BF0923C4F8D437F5E6522B7FF44F
:1050600023AFD4F8D437D4F8C40F0133092BC8BF09
:105070000023C4F8D437D4F8D4170EE7552B7FF4A7
:1050800039AFD4F8D837D4F8C40F013B48BFC5F1C5
:105090000A03C4F8D83724E7442B7FF450AFD4F880
:1050A000D837D4F8C40F0133C5F10A029342C8BF00
:1050B0000023C4F8D837D4F8D81739E7412B7FF448
:1050C00071AF6B1ED4F8D827D4F8D4171BB2204682
:1050D000FFF7F8FB00283FF465AFD4F8C43FD4F8DD
:1050E000C00FB3F90620B3F90410FDF7B3FCD4F8F0
:1050F000C40F6FF043026FF01F01FDF7ABFC0023FC
:105100004EE7012B7FF44EAFDBF8AC2504EBC20178
:1051100001F50051D1E9A3030A2505FB003303F291
:10512000F230E16B54F820008968002803F1CC03C9
:10513000CCBF4FF0FF306FF00100013241F8230087
:10514000C1F82C234FF47A7000F068FF4FF47A70A6
:1051500000F064FF4FF47A7000F060FF09F0CEFABF
:10516000FDF744FA1EE700BF3C3E0020403E002011
:105170002DE9F74F0446FDF710FC04F5CE6300253A
:10518000C4F8C03F04F55673C4F8C43F04F2DC70A1
:1051900084F8BE5F00F05EFCE06BC4F8D457C4F83E
:1051A000D85704F6C871FFF7F6FAE06B83685A68BF
:1051B000AA427BDB9A68AA4278DB012284F8D027D6
:1051C00004F50052D3F82C33C2F8AC3504F50A517B
:1051D0000C31FFF7F3FA04F58A5718374FF05308EC
:1051E00028230FFA88FB03FB0549BA460526D9F8A0
:1051F000C82F511C07D1DAF80020126E0621ADF835
:10520000041001A91BE0931C04D1DAF80020072147
:10521000126EF4E7002A14DD092DDAF8001005D02B
:10522000D9F8F00F824205D0002D39D0D9F8A00F5F
:10523000824235D10A6E0421ADF80410694450460B
:10524000904731B250465A46FDF704FCDAF8002088
:105250005046926B17219047DAF800205046D26BE7
:1052600017219047DAF800205046526E0021173679
:105270009047B6B25146201D05F01EFDEB2E09F1F8
:1052800004090AF12C0AB2D1013508F117080A2DD8
:105290001FFA88F807F5DC77A2D103B0BDE8F08FDC
:1052A0004FF005030A6EADF80430AAE784F8D05732
:1052B000F3E7704704387047704710B51021044673
:1052C00019F00CFF204610BDA0F10400F5E7000026
:1052D00010B500228260044AC16002F10804203245
:1052E0000460426010BD00BFB018020870470000A3
:1052F00010B5034B03600446FEF7AAF9204610BD23
:10530000E018020810B50446FFF7F2FF20464FF4FC
:10531000D07119F0E3FE204610BD000010B5044620
:10532000FEF730FA014B2360204610BDE01802085A
:10533000FEF78FB90D4A38B503460446002592E8BA
:10534000030043F8045B4FF4487283E803002946E6
:1053500004F10C001AF00EF84FF44872294604F5D7
:105360004C701AF007F8204638BD00BFCC04020884
:105370007047704704387047704710B510210446D5
:1053800019F0ACFE204610BDA0F10400F5E70000C6
:1053900010B500228260044AC16002F10804203284
:1053A0000460426010BD00BF0C1902087047000085
:1053B0002DE9F04FDFF8B4B1DFF8B4A1DFF8B49114
:1053C000DFF8B48185B000220446DBF800008DF8D8
:1053D0000F2003F0E4FC0190DAF8000003F0DFFC9A
:1053E0000746D9F8000003F0DAFC0646D8F80000BA
:1053F00003F0D5FC5B490546086803F0D0FC5A4928
:10540000086803F0CCFC019B0022E3B14FF0FF33AE
:10541000DBF800000DF10F0103F092FC9DF80F3056
:105420004C2B73D194F8DC38013B5BB2002BB8BF36
:10543000092384F8DC3894F9DC181723052213FBC0
:105440000123A4F82437EFB14FF0FF33DAF800005E
:1054500000220DF10F0103F073FC9DF80F30522B69
:1054600010D194F8DC3801335BB2092BC8BF00239C
:1054700084F8DC3894F9DC181723052213FB012388
:10548000A4F82437EEB14FF0FF33D9F80000002222
:105490000DF10F0103F054FC9DF80F30552B10D186
:1054A00094F8DD38013B5BB2002BB8BF092384F8C8
:1054B000DD3894F9DD181723532213FB0123A4F8D8
:1054C0002637EDB14FF0FF33D8F8000000220DF180
:1054D0000F0103F035FC9DF80F30442B10D194F8E8
:1054E000DD3801335BB2092BC8BF002384F8DD38F7
:1054F00094F9DD181723532213FB0123A4F8263750
:10550000201D0AF071F905B0BDE8F08F532B9AD138
:1055100094F9DD3894F9DC180A2202FB031202F236
:10552000846054F8200000288DDB4FF4DC7000FB11
:1055300003F34FF02C0000FB013323444FF0010133
:1055400083F80519E36B996802F5987314BF4FF05F
:10555000FF326FF0010241F8232009F0CFF8FDF788
:1055600035F870E7403E0020443E0020303E0020E9
:10557000343E0020383E00203C3E0020094B70B5F0
:105580000446036041F6E41540F6B4066359601919
:105590001B682C3D9847B542F8D12046FEF7CEF95E
:1055A000204670BD3C19020810B50446FFF7E6FF1F
:1055B00020464FF4DD5119F091FD204610BD00004A
:1055C0002DE9F3410546FEF7C3F9104B2B604FF46C
:1055D000C872002105F24C7019F0CCFE05F5D056CA
:1055E00005F50E6410364FF6FF7704F5DC7820469B
:1055F00001A92C34ADF8047006F0CCFD4445F6D179
:10560000B442F2D1284602B0BDE8F0813C1902084C
:10561000F8B5D0E900239B1A5A1C05460E4610D057
:1056200001334FF0FF30B0FBF3F707FB03F43046D4
:10563000FFF7F0F98442FAD9B0FBF7F02B68184471
:10564000F8BD0846FFF7E6F9F8E700002DE9F04756
:10565000ADF59C5D86B091463D4A0DF6D4140546E5
:1056600088460DF6DC10D11F206019F0B0FD07232D
:10567000636023680022DA71214604A819F084FDD2
:10568000204619F090FD04A819F080FD20603148F3
:10569000214601220B6883EA937300FB0323013246
:1056A000B2F51C7F41F8043FF4D16B46C4F8C02921
:1056B00009210022C3E900210292012202AB4FF02E
:1056C000280A5A6021466846FFF7A2FF214606468F
:1056D0006846FFF79DFF2146074602A8FFF798FF9F
:1056E000002800F0010319460AFB06F2B8BF594230
:1056F000A3B10129E6D106EB0903092BE2DC0A2359
:1057000003FB067308EB830300224A4516DA0AFB03
:1057100002F018580028D5D10132F6E707EB09014D
:105720000929CFDC02EB870242444B4505DA52F8E7
:10573000041B0029C6D10133F7E700212846C5E93B
:105740000017AE600DF59C5D06B0BDE8F08700BFA8
:105750007B1802086589076C2DE9F04F2DED028B4F
:105760000446E5B0FEF7EBF80023A4F8DC38E36B61
:105770009B685A68002A2EDA9B68002B2BDA0225D8
:1057800004F24C780A2605272A4668464146FFF768
:105790005DFF022DDDE90102009B40F09480002BAB
:1057A00000F08480012B0ED1E36B996806FB0203A5
:1057B00003F5987302FB066241F82350024402F598
:1057C000987241F822500135062DDDD1E36B9B68BC
:1057D0000022C3E90122E36B996804F5D0564FF427
:1057E000C87201F598616846103619F0B5FD4FF49E
:1057F000C8726946304619F0AFFD04F50E6A4FF0E5
:10580000000B0BEB4B08CBEBC80808F153080FFA61
:1058100088F308EE103AAAF50E675546B0464FF0E9
:10582000050958F8042B931C40F0F780D7F8E028BE
:10583000126E4FF00803ADF80030694628469047D5
:105840000FFA89F1284618EE102AFDF703F9D7F868
:10585000E0282846926B17219047D7F8E028284681
:10586000D26B17219047D7F8E0282846526E0021C6
:1058700009F1170990471FFA89F92946201D05F0FB
:105880001BFAB9F1EB0F05F12C0507F12C07C8D174
:105890000BF1010BBBF10A0F06F128060AF5DC7AC1
:1058A000AFD165B0BDEC028BBDE8F08FE36B06FBBA
:1058B000020202F598719B6843F8215002F23112FE
:1058C00043F822507FE7032D25D1ABB1012B7FF4A4
:1058D0007AAFE36B996806FB020303F5987341F80E
:1058E000235002FB0663034403F59873023241F828
:1058F000235006FB020262E7E36B06FB020202F59D
:1059000098719B6843F8215002F2311102F59972A7
:1059100043F82150D4E7042D3FD15BB3012B7FF432
:1059200052AFE36B996806FB020303F5987341F8E5
:10593000235002FB0663034403F5987341F8235098
:10594000931C06FB030303F5987341F82350D31C03
:1059500006FB030303F5987341F8235017214A43CC
:1059600041435332053112B209B204F5AD60FDF77F
:1059700071F828E7E36B06FB02029B6802F5987159
:1059800043F8215002F2311143F8215002F5997188
:1059900002F2331243F8215092E73BB3012B7FF41C
:1059A00012AFE36B06FB02019B6801F5987143F8A7
:1059B000217002FB0661014401F5987143F82170E2
:1059C000911C06FB010101F5987143F82170D11C6F
:1059D00006FB010101F59871043206FB020243F84F
:1059E000217002F5987243F82270ECE6E36B06FB37
:1059F00002029B6802F5987143F8217002F231119E
:105A000043F8217002F5997143F8217002F23311C5
:105A100002F59A7243F82170E5E701327FF410AF86
:105A2000D7F8E0284FF00603126E04E710B54FF4E4
:105A3000C8720446002119F09DFC4FF44872002101
:105A400004F5CA7019F096FC4FF0FF33C4F8B43473
:105A5000204610BD0223C0F890317047C0F8901165
:105A60007047D0F890017047F02070474FF4A07055
:105A700070472920FBF784BF2820FBF781BF08B5BA
:105A8000FBF752FFCA20FBF77BFFC320FBF75CFF4D
:105A90000820FBF759FF5020FBF756FFCF20FBF7FC
:105AA0006FFF0020FBF750FFC120FBF74DFF3020B8
:105AB000FBF74AFFED20FBF763FF6420FBF744FF91
:105AC0000320FBF741FF1220FBF73EFF8120FBF78D
:105AD0003BFFE820FBF754FF8520FBF735FF002054
