:020000040800F2
:1000000000000320A5050008392100083B21000855
:100010003D2100083F2100084121000800000000A8
:10002000000000000000000000000000818A0008BD
:100030004321000800000000118B0008878300089E
:10004000F5050008F5050008F5050008F5050008A8
:10005000F5050008F5050008F5050008F505000898
:10006000F5050008F5050008F5050008F505000888
:10007000F5050008F5050008F5050008F505000878
:10008000F5050008F5050008F5050008F505000868
:10009000F5050008F5050008F5050008F505000858
:1000A000F5050008F5050008F5050008F505000848
:1000B000F5050008F5050008F5050008F505000838
:1000C000F5050008F5050008F5050008F505000828
:1000D000F505000845210008F5050008F5050008AC
:1000E000F5050008F5050008F5050008F505000808
:1000F000F5050008F5050008F5050008F5050008F8
:10010000F5050008F5050008F5050008F5050008E7
:10011000F5050008512100085D210008F5050008DB
:10012000F5050008F5050008F5050008F5050008C7
:10013000F5050008F5050008F5050008F5050008B7
:10014000F5050008F5050008F5050008F5050008A7
:10015000F5050008F5050008F5050008F505000897
:10016000F5050008F5050008F5050008F505000887
:10017000F5050008F5050008F50500080000000079
:10018000F5050008F5050008F5050008F505000867
:10019000F5050008F5050008F5050008F505000857
:0C01A00069210008F50500087521000821
:1001B00010B5054C237833B9044B13B10448AFF3A1
:1001C00000800123237010BD6C010020000000009E
:1001D00034FE010808B5034B1BB103490348AFF3D4
:1001E000008008BD000000007001002034FE0108FE
:1001F00001F0FF01102A2BDB10F0070F08D010F8D8
:10020000013B013A8B422DD010F0070F42B3F6D1DB
:10021000F0B441EA012141EA014122F007047FF0F4
:1002200000070023F0E80256083C85EA010586EA4B
:10023000010685FA47F5A3FA87F586FA47F6A5FA87
:1002400087F68EB9EED1F0BC01F0FF0102F0070293
:1002500032B110F8013B013A83EA010313B1F8D13E
:100260000020704701387047002D06BF354603381F
:10027000073815F0010F07D1013015F4807F02BF58
:10028000013015F4C03F0130F0BC0138704700BFA9
:10029000034613F8012B002AFBD1181A01387047C6
:1002A00053B94AB9002908BF00281CBF4FF0FF31DD
:1002B0004FF0FF3000F074B9ADF1080C6DE904CED9
:1002C00000F006F8DDF804E0DDE9022304B0704731
:1002D0002DE9F047089D04468E46002B4DD18A42F9
:1002E000944669D9B2FA82F252B101FA02F3C2F12C
:1002F000200120FA01F10CFA02FC41EA030E9440BD
:100300004FEA1C48210CBEFBF8F61FFA8CF708FBDD
:1003100016E341EA034306FB07F199420AD91CEBB5
:10032000030306F1FF3080F01F81994240F21C81E7
:10033000023E63445B1AA4B2B3FBF8F008FB10332F
:1003400044EA034400FB07F7A7420AD91CEB040464
:1003500000F1FF3380F00A81A74240F20781644434
:10036000023840EA0640E41B00261DB1D4400023B9
:10037000C5E900433146BDE8F0878B4209D9002D1D
:1003800000F0EF800026C5E9000130463146BDE8A7
:10039000F087B3FA83F6002E4AD18B4202D3824211
:1003A00000F2F980841A61EB030301209E46002DC0
:1003B000E0D0C5E9004EDDE702B9FFDEB2FA82F215
:1003C000002A40F09280A1EB0C014FEA1C471FFA73
:1003D0008CFE0126200CB1FBF7F307FB131140EA5A
:1003E00001410EFB03F0884208D91CEB010103F127
:1003F000FF3802D2884200F2CB804346091AA4B2E9
:10040000B1FBF7F007FB101144EA01440EFB00FEBC
:10041000A64508D91CEB040400F1FF3102D2A64521
:1004200000F2BB800846A4EB0E0440EA03409CE7C0
:10043000C6F12007B34022FA07FC4CEA030C20FA6D
:1004400007F401FA06F31C43F9404FEA1C4900FA8D
:1004500006F3B1FBF9F8200C1FFA8CFE09FB18110A
:1004600040EA014108FB0EF0884202FA06F20BD97D
:100470001CEB010108F1FF3A80F08880884240F2CD
:100480008580A8F102086144091AA4B2B1FBF9F011
:1004900009FB101144EA014100FB0EFE8E4508D90C
:1004A0001CEB010100F1FF346CD28E456AD9023891
:1004B000614440EA0840A0FB0294A1EB0E01A14276
:1004C000C846A64656D353D05DB1B3EB080261EBE4
:1004D0000E0101FA07F722FA06F3F1401F43C5E9BE
:1004E000007100263146BDE8F087C2F12003D840F4
:1004F0000CFA02FC21FA03F3914001434FEA1C4736
:100500001FFA8CFEB3FBF7F007FB10360B0C43EA27
:10051000064300FB0EF69E4204FA02F408D91CEBD7
:10052000030300F1FF382FD29E422DD902386344D5
:100530009B1B89B2B3FBF7F607FB163341EA034175
:1005400006FB0EF38B4208D91CEB010106F1FF38C4
:1005500016D28B4214D9023E6144C91A46EA0046BB
:1005600038E72E46284605E70646E3E61846F8E64D
:100570004B45A9D2B9EB020864EB0C0E0138A3E796
:100580004646EAE7204694E74046D1E7D0467BE777
:10059000023B614432E7304609E76444023842E7EF
:1005A000704700BFDFF834D0002103E00C4B5B58EC
:1005B000435004310B480C4B42189A42F6D30B4A75
:1005C00002E0002342F8043B094B9A42F9D305F0BC
:1005D000E9F91EF03DFB00F099FF70470000032091
:1005E000300A1208000000206C0100206C0100207D
:1005F0004C480120FEE7000030B5254D00F563743E
:100600000246116852F8043F01F0004123F0004314
:100610000B43D2F8301681EA530113F0010318BFDF
:100620002B464B40944242F8043CEAD1184D021F3D
:1006300000F22C64D2F89033D2F8941303F0004304
:1006400021F000410B4352F8041F81EA530113F0DB
:10065000010318BF2B464B409442C2F88C33E9D1BA
:10066000D0F8BC3902680A4922F0004203F0004386
:100670001343D0F8302682EA530213F0010318BF67
:100680000B465340C0F8BC390023C0F8C03930BD18
:10069000DFB00899D0F8C039B3F51C7F10B5044617
:1006A00001D3FFF7A9FFD4F8C03909485A1C54F800
:1006B0002330C4F8C02983EAD32300EAC31043409F
:1006C000044800EAC330584080EA904010BD00BFA3
:1006D00080562C9D0000C6EFF8B5D0E900239B1A88
:1006E0005A1C05460E4610D001334FF0FF30B0FBC8
:1006F000F3F707FB03F43046FFF7CCFF8442FAD947
:10070000B0FBF7F02B681844F8BD0846FFF7C2FFAE
:10071000F8E7704708B500F09DFCBDE8084000F020
:1007200025BC00F099BC704710B5042104461EF0AA
:1007300095F9204610BD000038B50C4B0C4C1880C4
:100740000C4B822019806368984740F61103984249
:100750000AD1094D23682C60822098472B6882209B
:10076000DB689847002038BD0120FCE788010020A5
:100770004C0000208A0100208C0100204FF4A07161
:10078000F020FFF7D9BF0000F7B5344D2B680446C1
:100790001B698220984780B2208000284CD02B68AB
:1007A0000DF106025B6901A982209847BDF8063069
:1007B00040F67462934241D9ADF80620BDF8062098
:1007C000C2F56762043292B20A2A3DD90B23B2FB0A
:1007D000F3F2234B1B889A4201D9013B9AB2BDF830
:1007E000043040F6B8318B4230D8C3F571630E3314
:1007F0009BB20F21B3FBF1F31A4909888B4201D94F
:100800004B1E9BB2184E194D30682F68834281B23F
:100810008CBF591AC91AB8B2BA428CBF101A801AC2
:1008200089B280B201440529C8BF33603368C8BFAC
:100830002A6063802B68A38003B0F0BDB32B9CBFFC
:10084000B423ADF80630B9E70022C8E7C3F56D63FD
:1008500008339BB20E2BCCD80023D3E78C010020A9
:100860008A010020880100209001002094010020CE
:1008700037B568460D461446FFF786FFBDF8000001
:1008800030B1BDF802302B60BDF804302360012088
:1008900003B030BD7047704770477047012380F840
:1008A000781080F87930704700207047034B41641E
:1008B000003918BF01211970704700BF573D012052
:1008C00000207047836B0BB10846184770474FF6FE
:1008D000FF707047406803689B691847704770470E
:1008E0007047000070B5044600F084FC2368D3F81C
:1008F0008850044BD4E90F122046AC46BDE8704046
:10090000604700BF000000D008B503680446D3F874
:1009100080309847236820469B6F984700F0ECF89A
:10092000236820461B6F9847292001F09DF800F0AE
:10093000E3F8236820461B6F9847F8E710B5044694
:100940000AF0A4FE23682046D3F8AC30BDE810407E
:10095000184700F041BC00F045BC00F069BC00F055
:1009600017BC00F071BC00F079BC00F01BBC0AF0B1
:10097000F9B810B57C2104461EF070F8204610BD71
:1009800090F87A301BB1406803681B681847184616
:100990007047000010B590F8341090F878400C4B78
:1009A0008C421A7809D03AB90A4A0B491488088847
:1009B00010800C8001221A7010BD002AFCD0054A5C
:1009C00005491488088810800C800022F3E700BFD6
:1009D000503D01204C3D01204E3D012070B50D469B
:1009E000194635B9094B0A4A0A4840F2D2211EF08D
:1009F000E5F8C0E90F52084B003A18BF01221A70FF
:100A00000368BDE87040D3F88C301847ACFE01088D
:100A1000E4FE010832FF0108563D012008B5094BEC
:100A20001B888B4203D8084B1B88934205D9074B80
:100A3000074A08489E211EF0C1F8074B1980074B52
:100A40001A8008BD4C3D01204E3D012077FF010872
:100A5000DAFF010832FF0108523D0120543D012018
:100A6000012108B50022084607F01BFD0A4B18605B
:100A700028B90A4B0A4A28210A481EF09FF800228A
:100A80000421012007F0B3FD074B186018B9074B8C
:100A9000034A2C21F0E708BD9C010020F800020861
:100AA000410102087001020898010020B801020803
:100AB000024B4FF0FF31186807F03DBD9C0100204C
:100AC000014B186807F062BD9C010020024B002119
:100AD000186807F030BD00BF9C010020FFF7F0BF91
:100AE00003480449006800231A4607F0BBBD00BF55
:100AF000980100200400002013B5084C00231A467A
:100B000001A9206807F0DEFD20684FF0FF330022C6
:100B100001A907F0D7FD02B010BD00BF9801002069
:100B200003685B6C18470120704703689B6A18478D
:100B300082B0002301930D4B1A6B42F400021A633A
:100B40001A6B02F400020192019A1A6942F400023F
:100B50001A611A6922F400021A61054B054A1A61EA
:100B6000054B4FF080629A6002B070470038024037
:100B7000702C0020BD0B000800E100E040F2EF30D7
:100B800070470000054B0360054B4FF08062C3F8CF
:100B90008820BFF34F8FBFF36F8F70475003020859
:100BA00000E100E010B504464FF45A61FFF7EAFF98
:100BB00020461DF053FF204610BD0000024B1B686D
:100BC000586803685B691847583D012070B50446B2
:100BD00025460A4B0C30002660602672667245F886
:100BE000203B602229460AF08FFE04F55A63EE602E
:100BF0002435AB42FBD1204670BD00BF5003020834
:100C000008B50B290BD8DFE801F01206100A0A0A12
:100C10000A0808080808012008BD0520FCE7054B64
:100C2000054A064865211DF0C9FF0020F4E70220AF
:100C3000F2E700BFFA010208150202085F0202088B
:100C400008B50A2909D8DFE801F010060E080808DF
:100C5000080606060600012008BD054B054A0648A1
:100C600086211DF0ABFF0020F6E70220F4E700BF6D
:100C7000FA010208A50202085F0202082DE9F84302
:100C80004F7F0C4639468146FFF7BAFF94F81E8025
:100C9000054641464846FFF7B3FF414606464846EB
:100CA000FFF7CEFFA18A628B424B521A1A649A61F7
:100CB000228B521A1A61E28A586342EA01425A644C
:100CC00020696268D863DA60216894F81CC08029C2
:100CD0004FEA0C6226D010D8202945EA020461D0E0
:100CE00040295FD004295DD0324B2A4342F40032C0
:100CF0004745DA615AD0304A40E0B1F5807F07D0ED
:100D0000B1F5007FF0D142F4003242F0090203E075
:100D100042F4003242F00A02DA61E2681A625E626C
:100D200058612AE0A4682A4342F40032211DD962A6
:100D3000DA6122785E62586142B1012A21D01F4BEC
:100D40001F4A20484FF488711DF038FFDA69618826
:100D500022F47F42013922F0100242EA0122DA61D4
:100D60000120144BDA6942F02002DA61DA69920656
:100D7000FCD410229A600028BDD0134A1A60BDE846
:100D8000F8836288D969541E21F47F4222F0100250
:100D900042EA0422BCF1FF0042F0100218BF012019
:100DA000DA61DEE744F40034DC61B8E740F20122A6
:100DB000E4E700BF00B0024001020100F0020208B7
:100DC0000A0302085F0202080102020070B50C4625
:100DD000897FFFF735FFA68AE18A628B154B25696B
:100DE000586341EA0641921B5964DD631A64266820
:100DF000E168082E0DD19A611A615862207F0E4A6F
:100E000042EA0062DA610D4A19625D61DD601A60D2
:100E100070BD0022D8611A6148090A0A02F47842BA
:100E200000F4FC600243C1F3C4010A439A63044A1C
:100E3000EDE700BF00B0024009000100010202001E
:100E400001020300012070474020704700EB811031
:100E50000830704700EB8110083070470120704760
:100E600041F61020704741F6102303FB01000830C3
:100E7000704741F6102303FB010008307047012042
:100E800070471020704700EB01100830704700EBEE
:100E9000011008307047084601F0D4BB10B5034B71
:100EA0000360044609F0B3FB204610BD08040208A5
:100EB00010B50446FFF7F2FF204648211DF0CEFD95
:100EC000204610BD10B5034B0360044609F09FFB9C
:100ED000204610BDD403020810B50446FFF7F2FF08
:100EE000204641F618211DF0B9FD204610BD000036
:100EF00010B5034B0360044609F089FB204610BD82
:100F0000A003020810B50446FFF7F2FF204618219F
:100F10001DF0A4FD204610BD10B5094B036004462A
:100F200000F5D2500430FFF7B9FF04F12C00FFF7B1
:100F3000C9FF04F11400FFF7DBFF204610BD00BF1E
:100F40003C04020808B50248FFF7E6FF08BD00BFF1
:100F5000A401002010B50446FFF7DEFF204641F64D
:100F6000F4311DF07BFD204610BD00002DE9F3415A
:100F700001F07AF9054601F07BF900240146234689
:100F800028462246009410F0FDF8264B264A274DAD
:100F90001A60204603F08EFB254810F05BF82B7892
:100FA000BFF35B8FDB0736D428461DF059FD90B3A5
:100FB000204C214F214B236007F1540604F114000B
:100FC00004F12C086060C4F80880E760266109F02D
:100FD0001FFB1B4B6361404609F01AFB194BE36290
:100FE000384609F015FB04F58053174AC3F8442A24
:100FF00003F68C2003F006FF224607F14801304635
:1010000003F0CEFB304601F01DFB10481DF0F4FD4F
:1010100028461DF031FD0E4802B0BDE8F041FFF753
:1010200061BC00BFB43D0120B82B0020A00100200E
:1010300008000020A4010020E81B00203C04020856
:10104000A0030208D403020808040208450F0008A0
:101050003C2B0020704700000148FFF755BC00BF43
:101060003C2B002070B5224E224C234D234B236095
:101070003046FFF7ABFD284614F050FB204B2148CB
:10108000DC6000224FF48071C3E912121E491A86F7
:10109000C3E91A121D4999671D4983F858200B604E
:1010A000F02101801B485A6601801B4883F870209C
:1010B0004FF4A071C3E90422C3E90622C3E9082260
:1010C000C3E90A22C3E90E22C3E91022C3E91422AC
:1010D000C3E917225A67C3E9016501800F480180FF
:1010E0000F490A70012283F834200E4A1A6070BD3D
:1010F0009C1D0020981D0020BC2B00209CFE010898
:101100003C2B00204C3D01200100000100000101AA
:10111000583D0120523D01204E3D0120543D01200B
:10112000503D0120280002080148FFF72BBD00BFF9
:101130009C1D00200020704781807047C18070474F
:101140000181704741817047704770477047704711
:10115000704710B4C4880368121B84885B6D091B38
:1011600012B25DF8044B09B218474FF6FF73838142
:101170004FF0FF3303621368C3611060704790F84B
:1011800025201AB190F8242002B1186070470000A1
:10119000034B902283F85A2383F85823704700BFEB
:1011A00000E100E0094A0A49D3680A48C3F30A0388
:1011B000013B9BB20B801169C1F30A010139018027
:1011C0001364536B43F0010353637047006801409D
:1011D000422C0020402C0020014BD3F8AC0070477B
:1011E00000680140024B0122C3F8AC105A627047FC
:1011F0000068014070B5044609F009FD23685D6E82
:101200000CF03CFF01462046A8472368054AD3F866
:1012100088502046AC460023BDE87040A2F5163148
:10122000604700BF00B004D009F0D8BC09F0E2BCB0
:1012300009F09EBC09F0FFBD90F8252012B10368AB
:101240005B69184770470000034B4FF080629A605B
:101250004FF080729A60704700E100E0084B4FF059
:101260008062C3F88820BFF34F8FBFF36F8F4FF0BA
:101270008072C3F88820BFF34F8FBFF36F8F704722
:1012800000E100E010B5144C236823B3134B144A5B
:101290001B6C11888B4213D1124B198805F04EFC40
:1012A000226892F86A30013382F86A30FFF718FC3E
:1012B00020680AF0EBF9BDE810400020FFF7EBBA18
:1012C00005F03CFC206803681B6A9847BDE81040A5
:1012D0000020FFF7E1BA10BD583D01200068014031
:1012E000422C0020402C002007B5064BADF806002C
:1012F0001B68054801220DF1060106F07BF903B0D9
:101300005DF804FB10000020E02D0020F7B5504CE4
:10131000504E0421204604F02DFE01280FD14E4DE1
:101320004C2328688DF8073007F0FBF9012806D810
:101330002868C82300220DF1070107F093F908215E
:10134000204604F017FE01280FD1444D522328688F
:101350008DF8073007F0E5F9012806D82868C8237A
:1013600000220DF1070107F07DF91021204604F05D
:1013700001FE01280FD13A4D552328688DF807301A
:1013800007F0CFF9012806D82868C82300220DF1FC
:10139000070107F067F92021204604F0EBFD012842
:1013A0000FD1304D442328688DF8073007F0B9F984
:1013B000012806D82868C82300220DF1070107F08C
:1013C00051F92948012104F0D5FD01280FD1224D02
:1013D000532328688DF8073007F0A3F9012806D8B1
:1013E0002868C82300220DF1070107F03BF904210A
:1013F000304604F0BFFD054678B91C4F41233868DC
:101400008DF8073007F08DF9012806D83868C82311
:101410002A460DF1070107F025F90821304604F0AE
:10142000A9FD054678B9124F422338688DF8073078
:1014300007F077F9012806D83868C8232A460DF145
:10144000070107F00FF9642007F01FF861E700BFFC
:1014500000100240001802404C2C0020502C0020AC
:10146000542C0020582C0020000002405C2C00204E
:10147000602C002030B595B0102200210AA81DF084
:1014800039FC1422002103A81DF034FC00241D4B5C
:1014900001941A6C42F080521A641B6C03F0805362
:1014A0000193019B184B02941A6842F440421A605F
:1014B0001B6803F4404302930122029B4FF48033E4
:1014C000CDE9082302254FF48003CDE90E5308210E
:1014D0004FF4A873CDE9101308A8042313931295B1
:1014E00005F04AFB0F23CDE903354FF4A0504FF42C
:1014F0008053CDE90603052103A8059405F01AFDE4
:1015000015B030BD00380240007000402DE9804821
:101510009BB004F055FAFFF7ADFF142200210DA88F
:1015200000241DF0E7FBC64B00941A6BC548C64E5D
:1015300042F010021A631A6B02F010020092009A35
:1015400001941A6B42F020021A631A6B02F0200217
:101550000192019A02941A6B42F080021A631A6B8C
:1015600002F080020292029A03941A6B42F0040283
:101570001A631A6B02F004020392039A04941A6B22
:1015800042F001021A631A6B02F001020492049AFB
:1015900005941A6B42F002021A631A6B02F00202FF
:1015A0000592059A06941A6B42F040021A631A6B70
:1015B00002F040020692069A07941A6B42F0080263
:1015C0001A631B6B03F00803079322460421079B51
:1015D00004F0D6FC22469D484FF44051012504F00A
:1015E000CFFC3C239A480F950DA94FF002084FF00D
:1015F000040ACDE90D3404F0D7FB92480F940DA9ED
:10160000CDE90DA5CDF8408004F0CEFB91480F94B4
:101610000DA9CDE90D5404F0C7FB4FF440538B489E
:101620000DA9CDE90D354FF00C09CDE90F4404F0BB
:10163000BBFB0DA988480F95CDE90D9404F0B4FBD0
:101640008648874B036004F04DFA864A864B346225
:10165000C6E9002330464FF48043C6E90434C6E9A6
:101660000244C6E9064404F06DFE1021304605F040
:10167000A9F82146304605F0C4F87C487C498462CC
:101680004FF48273C0E900134FF400761823C0E9C9
:1016900006630A23774EC362C0E90244C0E90444EA
:1016A000C0E9084405F04AFF734BCDF83480C6E921
:1016B000003510274023C6E904734FF4C073C6E910
:1016C00006344FF40063C6E908344FF40053B362A4
:1016D0004FF0030B07230DA930460827CDE90E3A3A
:1016E0001093C6E9024ACDE911B8CDF84C8005F057
:1016F00025FE4FF6FF7209A93046CDE90A75089418
:1017000009950C9405F03AFE284604F085F94FF649
:10171000FF7209A93046CDE90987CDE90B5405F0E0
:101720002DFE4FF6FF7209A93046CDE90BA4CDE995
:1017300009B705F023FE4FF40C730893089B0C9334
:101740004FF6FF7209A93046CDE909A70B9505F0C0
:1017500015FE40F26A51304605F02EFE3422214635
:101760000DEB02001DF0C6FA444E454BB486C6E9A7
:1017700000340923C6E905351D2340F20D1CC6E9D6
:10178000073B40F24313C6E909C340F2171E40F27B
:1017900047133046C6E90BE3C6E90244346186F8D4
:1017A000364005F0D3F8FF21F022CDE912144FF4B2
:1017B000806A05214FF4A073CDE90E24CDE914A170
:1017C000CDE916420DA922463046CDE910382D4EFE
:1017D00018930D94ADF864408DF8664005F081F9DA
:1017E000294B33601B6898473368284EDB6898475D
:1017F000274BC6E90A48C6E90C443046C6E900341E
:10180000C6E9028404F0D4F92946304604F088FA87
:101810002048214B4FF4E136C0E90036C0E90244CC
:10182000C0E90449C0E9064406F02CFB1B4B1C48E8
:10183000C0E90036C0E90244C0E9044932E000BF13
:101840000038024000080240B02C0020000C02408A
:10185000001002400000024000180240682C0020E6
:1018600000300240005C0040A0860100E02D002016
:1018700000500140AC2D0020400100A0042D0020AC
:1018800000680140482C002014000020702C00202B
:1018900000B00240382E00200010014000500040EF
:1018A0007C2E0020C0E9064406F0ECFAFEF732FF79
:1018B000FEF72FFF06F074FD1D4A2946384606F054
:1018C00096FE1C4B1C4A18602946384606F08FFECF
:1018D0001A4B1B4A18602946384606F088FE194BF9
:1018E000194A18602946384606F081FE174B184AF7
:1018F00018602946384606F07AFE164B164A1860DC
:101900002946384606F073FE144B154A18602146E6
:10191000144806F071FD144B144A1860214614480F
:1019200006F06AFD134B186006F04CFDFEE700BFA1
:10193000AC0402084C2C0020C4040208502C0020E7
:10194000DC040208542C0020F4040208582C002067
:101950000C0502085C2C002024050208602C0020E5
:101960003C0502080D130008642C002088040208BE
:1019700023070008442C0020704770477FB5094BAF
:101980008DF817201B6802930DF1170201230092B6
:1019900001930A460146044804F07CFD07B05DF857
:1019A00004FB00BF0C000020B02C00207FB50023FA
:1019B0008DF81730084B1B6802930A4601230DF17E
:1019C0001701009101930146044804F0F3FD9DF8CE
:1019D000170007B05DF804FB0C000020B02C0020BD
:1019E0001FB5084C24680092CDE901340A46012352
:1019F0000146054804F0DEFD003818BF012004B0A0
:101A000010BD00BF0C000020B02C002004F004B872
:101A100008B506480022042104F0B2FABDE80840E7
:101A200002480122042104F0ABBA00BF00080240C2
:101A300038B50B4D044601220A484FF4005104F01A
:101A40009FFA00220421284604F09AFA2046FFF764
:101A50004BFC28460122BDE83840042104F090BA2E
:101A600000080240000C024038B50B4D044600222D
:101A70000A484FF4005104F083FA0022042128465A
:101A800004F07EFA2046FFF72FFC28460122BDE82D
:101A90003840042104F074BA00080240000C0240EF
:101AA000F7B5144E144F05460C463046002204216B
:101AB00004F066FA00224FF40051384604F060FA50
:101AC0002846FFF711FC0D4B0D481B68224601A963
:101AD00005F032FF384601224FF40051019C04F01A
:101AE0004FFA30460122042104F04AFA204603B09E
:101AF000F0BD00BF00080240000C024010000020B2
:101B0000E02D002003F088BF0268034B9A4201D108
:101B100003F070BF704700BF001000407047000026
:101B200082B00E4B00220092596C41F480415964FE
:101B3000596C01F48041009100990192196C41F0B7
:101B4000805119641B6C03F080530193019B0F219A
:101B50006FF0010002B003F085BF00BF0038024003
:101B60000268094B9A4282B00BD100230193074BC4
:101B70001A6B42F480521A631B6B03F48053019377
:101B8000019B02B0704700BF0030024000380240A5
:101B900007B50F4B02689A4216D10022A3F5F04315
:101BA0000192196B41F4000119631B6B03F40003EC
:101BB000019305215A20019B03F054FF5A2003B0E2
:101BC0005DF804EB03F080BF03B05DF804FB00BFD9
:101BD00000B002402DE9F043044689B014220021F0
:101BE00003A81DF087F82268244B9A4243D1244C65
:101BF000244800250095236B43F004032363236BE3
:101C000003F004030093009B0195236B43F0010351
:101C10002363236B03F001030193019B4FF012092F
:101C20004FF400734FF001080327042603A9CDE900
:101C30000339CDE90587079604F0B6F84FF48073B1
:101C40001148079603A9CDE90339CDE9058704F0CA
:101C5000ABF80295236C43F400032364236C03F474
:101C600000030293029B236A43F400032362236A66
:101C700023F40003236209B0BDE8F083005C004058
:101C8000003802400008024000000240F0B599B060
:101C900004461422002107A81DF02CF830220DEB79
:101CA000020000211DF026F822685E4B9A4240F0A7
:101CB000B78008230C93C0231093042312930CA81D
:101CC0004FF40033159305F00FFA08B1FFF726FF24
:101CD000554B5648002400945A6C42F080625A6476
:101CE0005A6C02F080620092009A01941A6B42F0E2
:101CF00020021A631A6B02F020020192019A0294E8
:101D00001A6B42F001021A631A6B02F0010202928E
:101D1000029A03941A6B42F002021A631A6B02F0E1
:101D200002020392039A04941A6B42F040021A636F
:101D30001A6B02F040020492049A05941A6B42F066
:101D400004021A631A6B02F004020592059A0694C3
:101D50001A6B42F008021A631B6B03F00803069328
:101D600002250E26069B0B964FF4806307A9CDE94A
:101D70000735CDE9094504F017F841F658032C481A
:101D80000B9607A9CDE907350927CDE9094504F0E8
:101D90000BF8032327480B9707A9CDE90735CDE9B1
:101DA000094504F001F84FF4706322480B9607A927
:101DB000CDE90735CDE9094503F0F6FF4FF40C6393
:101DC0001D480B9607A9CDE90735CDE9094503F074
:101DD000EBFFC02319480B9607A9CDE90735CDE9DC
:101DE000094503F0E1FF082315480B9607A9CDE943
:101DF0000735CDE9094503F0D7FF4FF4A0530E484E
:101E00000B9707A9CDE90735CDE9094503F0CCFFCC
:101E100058202246052103F025FE582003F054FEE9
:101E200019B0F0BD006801400038024000140240C3
:101E30000000024000040240001802400008024076
:101E4000000C024010B5044688B01422002103A8FB
:101E50001CF050FF2268144B9A4223D103F56843CB
:101E6000002101915A6C114842F480125A645A6C54
:101E700002F480120192019A02911A6B42F0200240
:101E80001A631B6B03F020030293029B4FF46072F2
:101E900002230321CDE903230523CDE9061303A97A
:101EA00003F082FF08B010BD005001400014024052
:101EB000F0B514228BB0044600210DEB02001CF09B
:101EC00019FF2368384A934240D1384B38480024E0
:101ED00000941A6C42F480121A641A6C02F4801294
:101EE0000092009A01941A6B42F004021A631A6B72
:101EF00002F004020192019A02941A6B42F0080265
:101F00001A631B6B03F008030293029B02274FF432
:101F100080530326082505A9CDE90537CDE90865D5
:101F200003F042FF04232348099505A9CDE90537AD
:101F3000CDE9074603F038FF35202246052103F09E
:101F400091FD352003F0C0FD0BB0F0BD1A4A93425D
:101F5000FAD1164B1948002403945A6C42F010022F
:101F60005A645A6C02F010020392039A04941A6B9A
:101F700042F001021A631B6B03F0010304934FF458
:101F8000C062049B0223CDE9052303210723CDE989
:101F9000081305A903F008FF25202246052103F0B8
:101FA00061FD2520CEE700BF005000400038024010
:101FB00000080240000C02400010014000000240F6
:101FC0002DE9F04186B0002303932B4B1C68002CB5
:101FD0004FD14FF00108C3F80080284B00949A6B52
:101FE000274842EA08029A639B6B03EA08030093BE
:101FF000022703260C25009B01A94FF63F03CDE9DC
:102000000137CDE9046503F0CFFE1E48059501A90F
:10201000CDE90187CDE9034603F0C6FE48F233134C
:102020001948059501A9CDE90137CDE9034603F02B
:10203000BBFE4FF683731548059501A9CDE901371D
:10204000CDE9034603F0B0FE4CF20373104805954A
:1020500001A9CDE90137CDE9034603F0A5FE6023D0
:102060000C48059501A9CDE90137CDE9034603F0F8
:102070009BFE06B0BDE8F081C02E00200038024073
:102080000014024000080240001802400010024004
:10209000000C02400004024070B588B00023029397
:1020A000204B1A6C42F010021A641B6C03F01003F0
:1020B0000293054601A903A8029B04F0F7FF069BC3
:1020C0004BBB04F0D3FF184E184B336040F2E7339C
:1020D000F360174BB0FBF3F3013B73603046002312
:1020E0003361B360B36105F013FE044680B9304636
:1020F00005F0C8FC044658B9362003F0E5FC0F2D66
:102100000DD822462946362003F0ACFC094B1D6051
:10211000204608B070BD04F0A9FF4000D3E70124B9
:10212000F6E700BF00380240C42E00200010004037
:1021300040420F007C0000207047FEE7FEE7FEE70C
:10214000FEE77047014805F02DBF00BF382E002084
:10215000014805F027BF00BF7C2E0020014805F094
:10216000CFBC00BFC42E0020014804F05DBC00BFFE
:10217000042D0020014803F049BD00BF702C002051
:102180000120704708B51CF04BFD162303604FF08B
:10219000FF3008BD08B51CF043FD16230360FEE7C1
:1021A00070B50D4614460E46731B9C4201DC20465A
:1021B00070BDAFF3008006F8010BF5E770B50D4672
:1021C00014460E46731B9C4201DC204670BD16F877
:1021D000010BAFF30080F5E74FF0FF3070474FF48D
:1021E00000534B600020704701207047002070476B
:1021F0000A4A116808B5034609B90949116010680F
:10220000694603448B4206D91CF00AFD0C23036087
:102210004FF0FF3008BD1360FCE700BF0C2F00201B
:1022200050480120704710B5042104461CF016FCEC
:10223000204610BD08B5032913D8DFE801F00206D7
:102240000A0E02F083FA006808BD02F07FFA4068C7
:10225000FAE702F07BFA8068F6E702F077FAC068E6
:10226000F2E70020F0E7000000487047740502081C
:102270000F20704713B5002451B1036801948DF805
:10228000034001AA9C680DF10303A04702B010BDF2
:102290000846FBE7C0897047008A7047C0887047CE
:1022A00080887047807A00F07F007047807AC0098C
:1022B0007047704710B5082104461CF0CFFB20463C
:1022C00010BD7047704700F598730868496803C3EC
:1022D000704770477047416070477047064BC0F8C1
:1022E0004C310023C0F8503100F5A273C0F848010A
:1022F000C0F84031704700BF7D24000801230372FD
:10230000704770477047704710B4C26841685410F6
:10231000034601EB6200D20748BF0A599B685DF88B
:10232000044B48BFD358184743682BB183682BB977
:10233000C06800F0010070471846704701207047E0
:1023400010B50C2104461CF089FB204610BD10B5C9
:10235000102104461CF082FB204610BD10B54FF43E
:10236000AE7104461CF07AFB204610BD10B540212A
:1023700004461CF073FB204610BD10B50BF07EFE2A
:102380000368BDE81040DB6B18470000054B1B7865
:1023900001462BB1406818B103680C315B6E1847D9
:1023A000704700BF573D0120037A70B50546BBB9A1
:1023B00040680368DB69984704464CB1A1886B8F7D
:1023C000C91A236820461B6B09B29847A469F4E731
:1023D0006868036805F10C011B6EBDE87040184782
:1023E00070BD70B5044690F8390094F8383001306B
:1023F000C0B2984284F8390005D901232372002322
:1024000084F8393070BDB4F93A2000210DF028FB72
:1024100010F0010283B206D04FF6FF710028D8BF3A
:102420000A46981800B2238AC01AA0876068036819
:10243000DB69984705464DB1A988A38F19442B68DD
:1024400028461B6B09B29847AD69F4E760680368DA
:10245000BDE870405B69184710B50446D0F84001EC
:1024600058B10368DB68984738B1D4F84001036875
:102470009B6898470023C4F8403110BD2DE9F14F07
:10248000D0E9555A0746A86803681B6A9847B0F513
:10249000D07F05D2454B464AA32146481CF08EFB0F
:1024A000686803681B6A98470F2803D8424B404A64
:1024B000A421F2E7E86803681B6A98470B2803D851
:1024C0003E4B3B4AA521E8E70BF0D8FDDFF8F4903E
:1024D00004300BF0F8FDD9F8000010B10368DB6898
:1024E0009847D9F8000010B103681B689847DFF8D7
:1024F000D880D8F8000010B103685B699847D7F816
:102500003C0110B103685B689847D8F8000010B12F
:1025100003681B689847D7F83C0110B103689B68B3
:102520009847E868036800215B6A98474FF0000B02
:10253000234B03600446C0F804B080F808B0A868D4
:10254000036859465B6A9847064602F04FFC686884
:10255000036859465B6A98473146054602F020FCFD
:10256000C9F80040C7F83C51C8F80060E5B12B1D20
:10257000CAF800303368C5F808A03046DB68F56358
:1025800098472B6828461B689847214630460DF02F
:1025900061FA236820461B69984723685B692046D7
:1025A00001B0BDE8F04F18472B46E1E7B00602083E
:1025B0003E070208480802088F080208320902088C
:1025C0008C0C0208983D0120943D0120044B1B68AF
:1025D00093F858200AB1D86C00B99868704700BFCA
:1025E000583D0120F8B5044617460E460BF008FE8C
:1025F000104B1C60104B2360104B0025C4E9513573
:102600000F4BC4E953551868036801219B68C4E95E
:102610004F55C4E955769847284602F04BF8FFF726
:10262000D5FF14F0AAFEFFF7D1FF14F021FF2046DA
:10263000F8BD00BFA43D0120380C0208200C0208A0
:10264000583D0120064BC0F84C310023C0F85031F2
:1026500000F5A273C0F84801C0F84031704700BFD0
:102660007D240008064BC0F84C310023C0F85031DF
:1026700000F5A273C0F84801C0F84031704700BFB0
:102680005D280008064BC0F84C310023C0F85031DB
:1026900000F5A273C0F84801C0F84031704700BF90
:1026A000192700082DE9F04105460026164B466023
:1026B000067245F80C3B044628460F4609F0C0F95F
:1026C000124B84F838701B7884F83960A68723B9D8
:1026D000012323722046BDE8F0810D4B0D4FB3F965
:1026E0000080E368B7F900109B6B26612846984785
:1026F000E3684146DB6B28469847284609F01BF9FA
:102700003B885B426387E5E7B00C0208573D012038
:102710004E3D01204C3D01202DE9F047D0E9554ABE
:102720000746A06803681B6A984741F60F23984242
:1027300005D8434B434AA32143481CF03FFA606845
:1027400003681B6A98470F2803D8404B3D4AA421D1
:10275000F2E7E06803681B6A98473F2803D83C4BC0
:10276000384AA521E8E70BF089FCDFF8E89004304F
:102770000BF0A9FCD9F8000010B10368DB6898479A
:10278000D9F8000010B103681B689847DFF8C880CB
:10279000D8F8000010B103685B699847D7F83C018E
:1027A00010B103685B689847D8F8000010B103685F
:1027B0001B689847D7F83C0110B103689B6898479D
:1027C000E068036800215B6A984714210546FFF71B
:1027D00069FFA068036800215B6A9847064602F01B
:1027E0002DFC6068036800215B6A98473146044607
:1027F00002F026FBC9F80050C7F83C41C8F8006059
:10280000DCB1231DCAF800303368C4F808A0304694
:10281000DB68F4639847236820461B68984729467D
:1028200030460DF017F92B6828461B6998472B682E
:1028300028465B69BDE8F04718472346E2E700BF3A
:10284000B0060208D5090208480802088F080208E5
:1028500032090208983D0120943D01202DE9F047FE
:10286000D0E9554A0746A06803681B6A984740F6B6
:102870004B03984205D8434B434AA32143481CF0DD
:102880009DF9606803681B6A98470F2803D8404B7E
:102890003D4AA421F2E7E06803681B6A98473F2895
:1028A00003D83C4B384AA521E8E70BF0E7FBDFF8FB
:1028B000E89004300BF007FCD9F8000010B1036871
:1028C000DB689847D9F8000010B103681B68984787
:1028D000DFF8C880D8F8000010B103685B6998473A
:1028E000D7F83C0110B103685B689847D8F800003E
:1028F00010B103681B689847D7F83C0110B1036812
:102900009B689847E068036800215B6A9847142138
:102910000546FFF7C7FEA068036800215B6A984779
:10292000064601F07BFF6068036800215B6A9847F8
:102930003146044601F04CFFC9F80050C7F83C414D
:10294000C8F80060DCB1231DCAF800303368C4F851
:1029500008A03046DB68F4639847236820461B686C
:102960009847294630460DF075F82B6828461B69B4
:1029700098472B6828465B69BDE8F047184723460F
:10298000E2E700BFB0060208FA0A02084808020897
:102990008F08020832090208983D0120943D012069
:1029A0007047704770477047704730B503680181C2
:1029B00085B06D460146D3F88430044628469847D2
:1029C00095E807003C3484E8070005B030BD30B519
:1029D0000368418185B06D460146D3F884300446D2
:1029E0002846984795E807003C3484E8070005B07E
:1029F00030BD0022028042808280C280704780F811
:102A00003610704770B5036804461B6B154698472F
:102A10002368294620465B6EBDE8704018470020B9
:102A2000704700224FF0FF31C0E9002182607047FB
:102A3000806C704770477047704710B54C21044652
:102A40001CF00CF8204610BD10B54FF4FA61044696
:102A50001CF004F8204610BD08B5FEF7EDFB08BDDC
:102A6000036870B55E6B124B1B6804468DB22BB9C0
:102A7000104B114A6C2111481CF0A0F81049828DAE
:102A80000988914203D80F4B0B4A6D21F3E713F8E5
:102A900012200D4B1B6853F8220003681B6B9847EC
:102AA000281A01B233462046BDE87040184700BFDF
:102AB000A83D0120CC0C02080E0D0208490D0208A9
:102AC000AC3D0120900D0208B03D0120074A026094
:102AD0000022C0E90122C0E90322C0E90522C0E9C1
:102AE00007224FF480728284704700BFA816020844
:102AF00070B5036804461B6B154698472368294642
:102B000020465B6BBDE87040184770B504461D4613
:102B1000BDF91060FFF7ECFF2368294620469B6B48
:102B20009847236831462046DB6BBDE87040184764
:102B300010B50446FFF7CAFF024B23600023A362CF
:102B4000204610BD6813020810B526220446002155
:102B50001CF0D0F82046FFF7B9FF044B2360FF2399
:102B600084F826300023A362204610BD0C1502080D
:102B70002DE9F04F2DED108B054699B0AA460024A3
:102B80000CF0BCFDDE4BEC634AF8403B5046FFF7CF
:102B9000DBFF05F16C0305F1980918464FF6FF7647
:102BA00005F1C4071593FFF7CFFF16A94846ADF806
:102BB000586008F0AFFF3846FFF7BAFF05F1F003A1
:102BC00016A918460AEE103AADF8586008F0A2FFB0
:102BD00005F58E7316A918460AEE903AADF85860BE
:102BE00008F098FF05F5A47305F5BA7B16A91846F9
:102BF0000BEE103AADF8586008F08CFF5846FFF71E
:102C000097FF05F5D07316A918460BEE903AADF86C
:102C1000586008F07FFF05F5E67316A918460CEE1C
:102C2000103AADF8586008F075FF05F5FC7316A969
:102C300018460CEE903AADF8586008F06BFF05F5B9
:102C4000097305F5147816A918460DEE103AADF87B
:102C5000586008F05FFF4046FFF76AFF05F51F73F5
:102C600016A918460DEE903AADF8586008F052FFDC
:102C700005F52A7316A918460EEE103AADF85860FD
:102C800008F048FF05F5357316A918460EEE903A80
:102C9000ADF8586008F03EFF05F5407316A91846D8
:102CA0000FEE103AADF8586008F034FF05F54B739D
:102CB00016A918460FEE903AADF8586008F02AFFB2
:102CC00005F5567318460293FFF732FF05F5617359
:102CD00016A918460393ADF8586008F01BFF05F5D8
:102CE0006C7316A918460493ADF8586008F012FFEB
:102CF00005F57773184609EE103AFFF719FF05F549
:102D0000816316A918460593ADF8586008F002FFD4
:102D100005F2344316A918460693ADF8586008F03A
:102D2000F9FE05F58C6316A918460793ADF85860AF
:102D300008F0F0FE05F28C43184608EE903AFFF7D3
:102D4000F7FE05F5976316A918460893ADF8586085
:102D500008F0E0FE05F2E44316A918460993ADF821
:102D6000586008F0D7FE05F5A26316A918460A9325
:102D7000ADF8586008F0CEFE05F23C5316A918468F
:102D80000B93ADF8586008F0C5FE05F5AD63184625
:102D900008EE103AFFF7CCFE05F2945316A9184638
:102DA0000C93ADF8586008F0B5FE05F5B86316A9A8
:102DB00018460D93ADF8586008F0ACFE05F2EC53E0
:102DC00016A918460E93ADF8586008F0A3FE05F555
:102DD000C36316A918460F93ADF8586008F09AFE21
:102DE00005F2446316A918461093ADF8586008F030
:102DF00091FE05F5CE6318461193FFF799FE05F293
:102E00009C6316A918461293ADF8586008F082FE2C
:102E100005F5D96316A918461393ADF8586008F064
:102E200079FE05F2F46309EE903A2622214618460F
:102E30001BF060FF19EE900AFFF748FE314BC5F812
:102E40001C374FF47F03C5F828372F4BC5F8F436ED
:102E50004FF0FF33C5F8343705F5E8631493A5F850
:102E600020674FF0FF3316A91498C5F82447A5F83A
:102E70002C47C5F83047C5F83847C5F83C47ADF88A
:102E8000583008F047FE4FF4A07322465046009396
:102E90002146F0232E1DFFF738FE4FF07F435146A9
:102EA000AB66304607F0C8FB4FF4A0732246159876
:102EB00000932146F023FFF728FE4FF0FF331599CA
:102EC000C5F89430304607F0B7FB0223484616A9F0
:102ED000ADF8583009F081FAE623009353224846B2
:102EE0000521FFF712FE4846214608F0CEFD49466F
:102EF000304607F0A1FB44236FF04302384605E05B
:102F0000A40E0208A8060208140E020800936FF02F
:102F1000210117234FF017094FF0040AFFF7F5FDC1
:102F20001AEE100A16A9ADF858A009F056FA4B4649
:102F300016221AEE100A2146CDF80090FFF7E5FDA3
:102F40001AEE100A214608F0A0FD38461AEE101AB3
:102F500007F072FB1AEE900A16A9ADF858A009F016
:102F60003CFA4B4622461AEE900A2146CDF80090D4
:102F7000FFF7CBFD1AEE900A214608F086FD384691
:102F80001AEE901A07F058FB1BEE100A16A9ADF8BE
:102F900058A009F022FA4B462C221BEE100A2146BB
:102FA000CDF80090FFF7B1FD1BEE100A214608F0A6
:102FB0006CFD38461BEE101A07F03EFB39463046D2
:102FC00007F03AFB5A236FF05B02584600936FF00C
:102FD00066014B46FFF799FD1BEE900A16A9ADF866
:102FE00058A009F0FAF94B4616221BEE900A21462A
:102FF000CDF80090FFF789FD1BEE900A214608F0FE
:1030000044FD58461BEE901A07F016FB1CEE100A02
:1030100016A9ADF858A009F0E0F94B4622461CEE7F
:10302000100A2146CDF80090FFF76FFD1CEE100A44
:10303000214608F02AFD58461CEE101A07F0FCFA4B
:103040001CEE900A16A9ADF858A009F0C6F94B4637
:103050002C221CEE900A2146CDF80090FFF755FD7A
:103060001CEE900A214608F010FD58461CEE901AFE
:1030700007F0E2FA19271DEE100A16A9ADF858A0BC
:1030800009F0ABF94B4643221DEE100A009721468A
:10309000FFF73BFD1DEE100A214608F0F6FC5846EE
:1030A0001DEE101A07F0C8FA5946304607F0C4FA68
:1030B00071236FF07202404600936FF086014B4619
:1030C000FFF723FD1DEE900A16A9ADF858A009F0F0
:1030D00084F94B4616221DEE900A2146CDF8009049
:1030E000FFF713FD1DEE900A214608F0CEFC404686
:1030F0001DEE901A07F0A0FA1EEE100A16A9ADF800
:1031000058A009F06AF94B4622461EEE100A2146E5
:10311000CDF80090FFF7F9FC1EEE100A214608F0EA
:10312000B4FC40461EEE101A07F086FA1EEE900A16
:1031300016A9ADF858A009F050F94B462C221EEE06
:10314000900A2146CDF80090FFF7DFFC1EEE900AB2
:10315000214608F09AFC40461EEE901A07F06CFAE1
:103160001FEE100A16A9ADF858A009F036F94B4623
:1031700043221FEE100A00972146FFF7C6FC1FEE00
:10318000100A214608F081FC40461FEE101A07F095
:1031900053FA1FEE900A16A9ADF858A009F01DF9D0
:1031A0004B465A221FEE900A00972146FFF7ADFCCE
:1031B0001FEE900A214608F068FC40461FEE901A68
:1031C00007F03AFA414630464FF02C0807F034FA3F
:1031D0004B466FF02D020298CDF800806FF043014E
:1031E000FFF793FC0398ADF858A016A909F0F5F87D
:1031F0004B4622460398CDF800902146FFF785FC08
:103200000398214608F041FCDDE9020107F014FAB9
:103210000498ADF858A016A909F0DFF84B4616221D
:103220000498CDF800902146FFF76FFC04982146E2
:1032300008F02BFC0499029807F0FEF90299304639
:1032400007F0FAF94423482219EE100A6FF04E01F4
:10325000CDF800904FF0050BFFF757FC0598ADF83F
:1032600058B016A909F0B9F84B4622460598CDF892
:1032700000904146FFF749FC0598214608F005FCFF
:10328000059919EE100A07F0D7F90698ADF858B06D
:1032900016A909F0A2F84B4622460698CDF80090F0
:1032A0001621FFF732FC0698214608F0EEFB06993E
:1032B00019EE100A07F0C0F90798ADF858B016A932
:1032C00009F08BF84B4622460798CDF8009021462E
:1032D000FFF71BFC0798214608F0D7FB079919EE6A
:1032E000100A07F0A9F919EE101A304607F0A4F9F0
:1032F0005A236F2218EE900A6FF06501CDF8009006
:10330000FFF703FC0898ADF858B016A909F065F866
:103310004B4622460898CDF800904146FFF7F5FB52
:103320000898214608F0B1FB089918EE900A07F0BA
:1033300083F90998ADF858B016A909F04EF83B4644
:1033400022460998CDF800904221FFF7DEFB09984C
:10335000214608F09AFB099918EE900A07F06CF9DB
:103360000A98ADF858B016A909F037F84B4622462E
:103370000A98CDF800901621FFF7C7FB0A9821465E
:1033800008F083FB0A9918EE900A07F055F90B989C
:10339000ADF858B016A909F020F84B4622460B9814
:1033A000CDF800902146FFF7B0FB0B98214608F0BE
:1033B0006CFB0B9918EE900A07F03EF918EE901A84
:1033C000304607F039F97123952218EE100A6FF094
:1033D0007A01CDF80090FFF798FB0C98ADF858B043
:1033E00016A908F0FAFF4B4622460C98CDF800903B
:1033F0004146FFF78AFB0C98214608F046FB0C99E2
:1034000018EE100A07F018F90D98ADF858B016A983
:1034100008F0E3FF3B4622460D98CDF8009042218C
:10342000FFF773FB0D98214608F02FFB0D9918EE5E
:10343000100A07F001F90E98ADF858B016A908F077
:10344000CCFF3B4622460E98CDF800905A21FFF75C
:103450005CFB0E98214608F018FB0E9918EE100A36
:1034600007F0EAF80F98ADF858B016A908F0B5FFC4
:103470004B4622460F98CDF800901621FFF745FBEA
:103480000F98214608F001FB0F9918EE100A07F07B
:10349000D3F81098ADF858B016A908F09EFF4B4627
:1034A00022461098CDF800902146FFF72EFB109889
:1034B000214608F0EAFA109918EE100A07F0BCF855
:1034C00018EE101A304607F0B7F843465322119809
:1034D000CDF800900621FFF718FB1298ADF858B010
:1034E00016A908F07AFF4B4622461298CDF80090B4
:1034F0001621FFF70AFB1298214608F0C6FADDE90B
:10350000110107F099F81398ADF858B016A908F012
:1035100064FF4B4622461398CDF800902146FFF7F2
:10352000F4FA1398214608F0B0FA1399119807F0AD
:1035300083F81199304607F07FF819EE900A362289
:103540000621FFF7D5FA2E4BC5F824374FF0FF338D
:10355000C5F834372B4BA5F828471B68C5F830470A
:10356000C5F8384705F26C772BB9274B274A6021FD
:1035700027481BF023FB274B1B88032B03D8264B24
:10358000224A6121F4E7254B0321186801F0CEF8A7
:10359000234A0346322138460DF04EFD19EE900ABB
:1035A000C5F83C7708F06AFD1E4B169319EE900A99
:1035B00016A9ADF85CA008F081FD19EE901A30460E
:1035C00007F03AF814980E2316A9ADF8583008F011
:1035D00004FF06222023114614980093E523FFF7E9
:1035E00094FA1498214608F050FA3046149907F0DE
:1035F00023F8284619B0BDEC108BBDE8F08F00BF52
:10360000A83414FFA83D0120CC0C0208CE0D0208FE
:10361000490D0208AC3D0120900D0208B43D012087
:10362000060E0208A8060208406A7047806A7047C2
:1036300070478B88C0690A68DB0A50F82300104481
:10364000704710B5C2B1137BB3B1547BD27A240258
:1036500004F4E0641443026A98B202EB8402138813
:103660008B4202D192F9020010BD05D8013880B218
:1036700004320028F3D1F7E70020F5E710B52C213C
:1036800004461BF0EBF9204610BD000030B58BB0AE
:103690000446BDF860500895BDF85C5007959DF84C
:1036A000505006959DF84C5005959DF8485004954E
:1036B0009DF8445003959DF8405002959DF83C506C
:1036C0000195BDF8385000950BF0FCFD064B2360CA
:1036D000159BE361169B2362199B63621A9BA3628D
:1036E00020460BB030BD00BFD80E020870477047AF
:1036F000704730B4C26844685510034604EB62005A
:10370000D20748BF62599B6830BC48BFD35818479E
:1037100043682BB183682BB9C06800F00100704783
:10372000184670470120704710B5102104461BF061
:1037300095F9204610BD10B54FF4D07104461BF02A
:103740008DF9204610BD00F5A470884208B505D15A
:103750000AF094FCBDE80840FEF784BF08BD0000F5
:10376000002310B5C0E90133C0E90333C0E90733D2
:10377000C0E905334FF480738384064B03600B88E4
:10378000C384FF23044680F8283008F026FE204634
:1037900010BD00BF741502081A4B73B51B88018F4A
:1037A0008B4206462AD9184B1B682BB9174B184A6F
:1037B00018486C211BF002FA13F81120164B1B68F5
:1037C00053F82250154B186800F0B0FF2B68019099
:1037D0009B6B284698472B6801999B6C04462846AA
:1037E00098472B6801995B6A14FB00F428469847B8
:1037F000A4B20444A6F8464002B070BD0023A0F86D
:103800004630F9E7AC3D0120A83D0120CC0C020870
:103810000E0D0208490D0208B03D0120B43D012003
:103820002DE9F04F2DED028B044685B0A046002512
:103830000BF064FF654BE56348F8403B4046FFF7FB
:1038400083F904F16C03184604F1980B08EE903AE2
:103850004FF6FF76FFF778F904F1C40A03A958463A
:1038600004F1F009ADF80C60FFF77AFF03A95046A8
:10387000ADF80C60FFF774FF03A94846ADF80C6083
:10388000FFF76EFF04F58E7304F5A47703A91846BD
:1038900008EE103AADF80C60FFF762FF384608F00A
:1038A000D3FE4B4BC4E964344A4BC4E966354FF44C
:1038B000A0732A46009329464046F023261DFFF7B1
:1038C00024F94FF07F43A3664146304606F0B4FE2C
:1038D0004FF4A0732A4618EE900A00932946F0236D
:1038E000FFF713F94FF07F43C4F8943018EE901AA5
:1038F000304606F0A1FE302258460A21FFF7F8F8BC
:10390000012303A95846ADF80C3008F066FD59466E
:10391000304606F091FE0E225046B621FFF7E8F839
:103920000B2303A95046ADF80C3008F056FD514664
:10393000304606F081FE642248465421FFF7D8F84D
:103940000C230DEB03014846ADF80C3008F045FDA3
:103950004946304606F070FE892218EE100A092109
:10396000FFF7C6F80D2318EE100A03A9ADF80C30C6
:1039700008F033FD18EE101A304606F05DFE3846AA
:10398000D0222121FFF7B4F803AA02A93846ADF8E6
:103990000850ADF80C5008F0EEFB0523A4F8803178
:1039A0003846FFF7F9FE4FF0FF33C4E9613304F501
:1039B000C8733046C4F87031394606F03DFE2046E3
:1039C00005B0BDEC028BBDE8F08F00BF500F0208C0
:1039D000380F0208473700087047704710B540F2AB
:1039E0004C7104461BF03AF8204610BD2DE9F04F0B
:1039F0002DED108B054699B0AA4600240BF07EFEF3
:103A0000DF4BEC634AF8403B5046FFF79DF805F169
:103A10006C0305F1980918464FF6FF761593FFF7EA
:103A200093F817A94846ADF85C6008F073F805F103
:103A3000C403184609EE903AFFF77AF805F1F0034F
:103A400017A918460AEE103AADF85C6008F062F863
:103A500005F58E7305F5A47717A918460AEE903A76
:103A6000ADF85C6008F056F83846FFF761F805F5E8
:103A7000BA7317A918460BEE103AADF85C6008F05F
:103A800049F805F5D07317A918460BEE903AADF832
:103A90005C6008F03FF805F5E67317A918460CEED0
:103AA000103AADF85C6008F035F805F5FC7317A91D
:103AB00018460CEE903AADF85C6008F02BF805F56E
:103AC000097305F5147817A918460DEE103AADF8EC
:103AD0005C6008F01FF84046FFF72AF805F51F73F1
:103AE00017A918460DEE903AADF85C6008F012F890
:103AF00005F52A7317A918460EEE103AADF85C606A
:103B000008F008F805F5357317A918460EEE903A37
:103B1000ADF85C6007F0FEFF05F5407317A9184685
:103B20000FEE103AADF85C6007F0F4FF05F54B734B
:103B3000184608EE903AFEF7FBFF05F5567317A9F5
:103B400018460FEE903AADF85C6007F0E3FF05F51C
:103B5000617317A918460293ADF85C6007F0DAFFAD
:103B600005F56C7317A918460393ADF85C6007F070
:103B7000D1FF05F5777318460493FEF7D9FF05F5D5
:103B8000816317A918460593ADF85C6007F0C2FF82
:103B900005F2344305F58C6B17A918460693ADF86A
:103BA0005C6007F0B7FF5846FEF7C2FF05F28C4392
:103BB00017A918460793ADF85C6007F0ABFF05F551
:103BC000976317A918460893ADF85C6007F0A2FF49
:103BD00005F2E44317A918460993ADF85C6007F0B5
:103BE00099FF05F5A26317A918460A93ADF85C6022
:103BF00007F090FF05F23C5317A918460B93ADF858
:103C00005C6007F087FF05F5AD63184608EE103AD3
:103C1000FEF78EFF05F2945317A918460C93ADF8E2
:103C20005C6007F077FF05F5B86317A918460D9398
:103C3000ADF85C6007F06EFF05F2EC5317A918466B
:103C40000E93ADF85C6007F065FF05F5C36317A937
:103C500018460F93ADF85C6007F05CFF05F2446313
:103C6000184609EE103AFEF763FF05F5CE6317A973
:103C700018461093ADF85C6007F04CFF05F29C63AA
:103C800017A918461193ADF85C6007F043FF05F5DE
:103C9000D96317A918461293ADF85C6007F03AFF94
:103CA00005F2F46317A918461393ADF85C6007F0AA
:103CB00031FF05F5E46317A918461493ADF85C606D
:103CC00007F028FF4FF4A073224600932146504688
:103CD000F0232E1DFEF719FF4FF07F43AB665146D0
:103CE000304606F0A9FC4FF4A073224615980093C5
:103CF0002146F023FEF709FF4FF0FF331599C5F871
:103D00009430304606F098FC032317A94846ADF8D6
:103D10005C3008F062FBE6230093532248460521FD
:103D2000FEF7F3FE2146484607F0AFFE494630460F
:103D30004FF0170906F080FC19EE900A2C2326227A
:103D4000CDF800906FF037014FF0050AFEF7DDFE69
:103D50001AEE100A17A9ADF85CA008F03EFB4B461E
:103D600022461AEE100ACDF800901621FEF7CDFE7D
:103D70001AEE100A214607F088FE1AEE101A01E02A
:103D8000840F020819EE900A06F056FC1AEE900A0B
:103D900017A9ADF85CA008F020FB4B4622461AEEAE
:103DA000900A2146CDF80090FEF7AFFE1AEE900A79
:103DB000214607F06AFE1AEE901A19EE900A06F0F4
:103DC0003BFC19EE901A304606F036FC7123952222
:103DD0003846CDF800906FF07A01FEF796FE1BEEA4
:103DE000100A17A9ADF85CA008F0F7FA4B46224676
:103DF0001BEE100ACDF800902C21FEF786FE1BEE7C
:103E0000100A214607F041FE1BEE101A384606F054
:103E100013FC1BEE900A17A9ADF85CA008F0DDFAC0
:103E2000224619231BEE900ACDF800904221FEF79E
:103E30006CFE1BEE900A214607F027FE1BEE901A3F
:103E4000384606F0F9FB1CEE100A17A9ADF85CA085
:103E500008F0C3FA224619231CEE100ACDF8009090
:103E60005A21FEF752FE1CEE100A214607F00DFE05
:103E70001CEE101A384606F0DFFB1CEE900A17A95C
:103E8000ADF85CA008F0A9FA4B4622461CEE900A59
:103E9000CDF800901621FEF738FE1CEE900A214660
:103EA00007F0F3FD1CEE901A384606F0C5FB1DEE38
:103EB000100A17A9ADF85CA008F08FFA4B4622460D
:103EC0001DEE100A2146CDF80090FEF71EFE1DEEF5
:103ED000100A214607F0D9FD1DEE101A384606F0EB
:103EE000ABFB3946304606F0A7FB5A236F2240460B
:103EF000CDF800906FF06501FEF707FE1DEE900A09
:103F000017A9ADF85CA008F068FA4B4622461DEEF2
:103F1000900ACDF800902C21FEF7F7FD1DEE900AD7
:103F2000214607F0B2FD1DEE901A404606F084FBD4
:103F30001EEE100A17A9ADF85CA008F04EFA224652
:103F400019231EEE100ACDF800904221FEF7DDFD88
:103F50001EEE100A214607F098FD1EEE101A40468C
:103F600006F06AFB1EEE900A17A9ADF85CA008F0F7
:103F700034FA4B4622461EEE900ACDF800901621E8
:103F8000FEF7C3FD1EEE900A214607F07EFD1EEEF1
:103F9000901A404606F050FB1FEE100A17A9ADF824
:103FA0005CA008F01AFA4B4622461FEE100A214682
:103FB000CDF80090FEF7A9FD1FEE100A214607F08C
:103FC00064FD1FEE101A404606F036FB41463046AF
:103FD00006F032FB18EE900A44234822CDF80090F8
:103FE0006FF04E01FEF791FD1FEE900A17A9ADF894
:103FF0005CA008F0F2F94B4622461FEE900ACDF87D
:1040000000902C21FEF781FD1FEE900A214607F05B
:104010003CFD1FEE901A18EE900A06F00DFB029878
:10402000ADF85CA017A908F0D8F94B4622460298D3
:10403000CDF800901621FEF768FD0298214607F0A2
:1040400024FD029918EE900A06F0F6FA0398ADF8EE
:104050005CA017A908F0C1F94B4622460398CDF899
:1040600000902146FEF751FD0398214607F00DFD13
:10407000039918EE900A06F0DFFA4FF02C0818EEBC
:10408000901A304606F0D8FA4B460498CDF80080D6
:104090006FF02D026FF043010427FEF736FD0598FF
:1040A000ADF85C7017A908F098F94B4622460598C0
:1040B000CDF800902146FEF728FD0598214607F02F
:1040C000E4FCDDE9040106F0B7FA0698ADF85C708F
:1040D00017A908F082F94B4616220698CDF80090F1
:1040E0002146FEF712FD0698214607F0CEFC069900
:1040F000049806F0A1FA0499304606F09DFA71235F
:1041000000936FF072024B4658466FF08601FEF73F
:10411000FCFC0798ADF85C7017A908F05EF94B46F7
:1041200016220798CDF800902146FEF7EEFC07987E
:10413000214607F0AAFC0799584606F07DFA089830
:10414000ADF85C7017A908F048F94B46224608986C
:10415000CDF800902146FEF7D8FC0898214607F0DC
:1041600094FC0899584606F067FA0998ADF85C7017
:1041700017A908F032F94B4642460998CDF800904D
:104180002146FEF7C2FC0998214607F07EFC0999FA
:10419000584606F051FA0A98ADF85C7017A908F075
:1041A0001CF9192343220A98009321464B46FEF737
:1041B000ACFC0A98214607F068FC0A99584606F0BC
:1041C0003BFA0B98ADF85C7017A908F006F91923B3
:1041D0005A220B98009321464B46FEF796FC0B980B
:1041E000214607F052FC0B99584606F025FA59462D
:1041F000304606F021FA5A2318EE100A00936FF0A9
:104200005B024B466FF06601FEF77FFC0C98ADF841
:104210005C7017A908F0E1F84B4616220C98CDF80F
:1042200000902146FEF771FC0C98214607F02DFC0A
:104230000C9918EE100A06F0FFF90D98ADF85C70B5
:1042400017A908F0CAF84B4622460D98CDF8009001
:104250002146FEF75AFC0D98214607F016FC0D99F1
:1042600018EE100A06F0E8F90E98ADF85C7017A980
:1042700008F0B3F84B4642460E98CDF80090214620
:10428000FEF743FC0E98214607F0FFFB0E9918EE4F
:10429000100A06F0D1F90F98ADF85C7017A908F074
:1042A0009CF8192343220F98009321464B46FEF7B2
:1042B0002CFC0F98214607F0E8FB0F9918EE100A26
:1042C00006F0BAF918EE101A304606F0B5F9442394
:1042D00019EE100A00936FF043024B466FF0210174
:1042E000FEF713FC1098ADF85C7017A908F075F88C
:1042F0004B4616221098CDF800902146FEF705FC9B
:104300001098214607F0C1FB109919EE100A06F02B
:1043100093F91198ADF85C7017A908F05EF84B4658
:1043200022461198CDF800902146FEF7EEFB119839
:10433000214607F0AAFB119919EE100A06F07CF944
:104340001298ADF85C7017A908F047F842464B4642
:104350001298CDF800902146FEF7D7FB129821461F
:1043600007F093FB129919EE100A06F065F919EEA1
:10437000101A304606F060F91398092317A9ADF812
:104380005C3008F02AF80622202311461398009387
:10439000E523FEF7BAFB1398214607F076FB139945
:1043A000304606F049F914980A2317A9ADF85C3095
:1043B00008F013F84B4654221498CDF8009051465B
:1043C000FEF7A3FB1498214607F05FFB30461499D3
:1043D00006F032F9284619B0BDEC108BBDE8F08F1D
:1043E0007047000030B5174D2C78BFF35B8F14F089
:1043F00001048FB022D128461AF032FBF0B13F23DE
:104400000993114B0893114B07930123CDE9053311
:1044100004930423CDE902430C230D4900935F224A
:104420000F23CDE90B440B480A940194FFF72EF9B2
:1044300009481AF0E1FB28461AF01EFB05480FB0A8
:1044400030BD00BF102F00202C36020810380208A3
:1044500090300208142F0020E1430008704700004C
:1044600030B5174D2C78BFF35B8F14F001048FB07B
:1044700022D128461AF0F4FAF0B13F230993114BE8
:104480000893114B114912480A94CDE906430122C1
:104490000423CDE903321E23009305222523CDE911
:1044A0000B44CDE901440594FFF7F0F809481AF0F0
:1044B000A3FB28461AF0E0FA05480FB030BD00BF54
:1044C000402F00200438020814380208C4350208BE
:1044D000442F00205D4400087047000030B5164DA1
:1044E0002C78BFF35B8F14F001048FB020D12846E5
:1044F0001AF0B6FAE0B13F230993104B0893104B22
:10450000104911480A940122CDE906430423CDE95C
:1045100003320A230093CDE90B44CDE9014405940D
:10452000FFF7B4F809481AF067FB28461AF0A4FA16
:1045300005480FB030BD00BF702F002008380208BA
:10454000183802080C360208742F0020D9440008DD
:104550007047000030B5164D2C78BFF35B8F14F018
:1045600001048FB020D128461AF07AFAE0B13F2337
:104570000993104B0893104B104911480A940122DB
:10458000CDE906430423CDE9033228230093CDE986
:104590000B44CDE901440594FFF778F809481AF077
:1045A0002BFB28461AF068FA05480FB030BD00BF53
:1045B000A02F00200C3802081C3802081C36020804
:1045C000A42F0020514500080020704700207047AC
:1045D0000EB403B503AB002153F8042B01930AF08A
:1045E00099FC02B05DF804EB03B070470CB407B55A
:1045F00004AB53F8042B01930AF08CFC03B05DF874
:1046000004EB02B070470000436C10B5044673B36E
:10461000038F2BB9184B194AC52119481AF0CEFA45
:10462000C38E00EB43035B8C0BB30BF05CFF238F5B
:10463000012B03D8134B144ACB21EEE7E28E531C17
:104640009BB2092B194688BFA3F10A0104EB410173
:1046500040F63F10498C814209D10A2B04EB4202FB
:1046600028BF002304EB4303508C58845184204618
:10467000BDE810400BF03ABEB00F0208B90F0208B7
:1046800064100208AE100208BC1002080BF0F5BD61
:1046900010B586B002AC84E806001A460AAB059352
:1046A0000193099B00932146089B09F069F806B025
:1046B00010BD000038B518BB124B13481B681349D6
:1046C000B3B11A689C681A4402605A681A440A60B6
:1046D0001C440F4B00221A8000F038F8054600F009
:1046E00033F80C4B1C600C4B1D600C4B188007E022
:1046F0000B4B03600B4B0B600B4B1C68002CE8D181
:1047000038BD00BFD02F0020D42F0020D82F00208C
:10471000DC2F0020A83D0120B03D0120AC3D012050
:104720003838020820380208E0380208044B1B68B9
:1047300053F82100034B1B6803EB4000704700BF98
:10474000D82F0020D42F0020062070470048704743
:10475000E02F002010B5FFF745FE064C2060FFF764
:10476000F9FE6060FFF7BAFEA060FFF779FEE06037
:1047700010BD00BFE02F0020704710B54FF4AE71A0
:1047800004461AF06BF9204610BD10B50446D0F867
:10479000580100F045FB2046BDE8104009F0F0BC90
:1047A00010B50446FDF71EFF014B2360204610BDE7
:1047B00098110208704704387047704710B51021EF
:1047C00004461AF04BF9204610BDA0F10400F5E7AD
:1047D00010B500228260044AC16002F10804203250
:1047E0000460426010BD00BFE41102087047000081
:1047F00010B5034B03600446FEF71CF9204610BDBC
:104800001412020810B50446FFF7F2FF204640F6E6
:104810004C011AF023F9204610BD000010B50446E3
:10482000FEF7A6F9044B23606422002104F5FD6025
:104830001AF060FA204610BD1412020890F8DE0744
:1048400028B10B44092BCCBF002001207047D018A1
:104850000928F8E730B590F8DE470A255CB905FB72
:104860000122024421468B4215DB92F8E8070A3206
:1048700078B90131F7E702F5FD6205FB0122024438
:1048800000218B4205DB12F8010B08B90131F8E772
:104890000024204630BD0124FBE710B50446FEF796
:1048A000CAF804F5CE62C4F8E02704F55672002376
:1048B000C4F8E427012284F8DE37A4F8DC27C4F822
:1048C000D437C4F8D83784F8D03710BD2DE9F04F6D
:1048D000DFF894A1DFF89491DFF89481574F87B007
:1048E00000230446DAF800008DF8173003F019FFB2
:1048F0000646D9F8000003F014FF0546D8F800007A
:1049000003F00FFF0190386803F00BFF4C4B02904F
:10491000186803F006FF4B4B0390186803F001FF83
:1049200094F8D037002B40F02482B4F9DC37013BF7
:10493000032B21D8DFE803F002505C68424B1B6870
:1049400004F26C7B2BB9414B414A602141481AF07B
:1049500035F9414B1B88032B03D8404B3C4A61215E
:10496000F4E703213E4B1868FFF7E0FE3D4A03469B
:10497000322158460CF060FB002E00F0E4804FF02E
:10498000FF33DAF8000000220DF1170103F09AFE60
:104990009DF81730532B40F0B580D4F8D4A7D4F845
:1049A000D867B4F9DC37324651462046FFF752FF4C
:1049B000002800F0A78094F8DE070A2100282FD1F4
:1049C00001FB0A6626445A1C834206F10A0651DBA3
:1049D00086F8DE270130F7E71B4B1B6804F26C7B7F
:1049E000002BB0D01C4B1B88022BB6D90221B9E793
:1049F000154B1B6804F26C7B002BA4D0164B1B8854
:104A0000012BAAD90121ADE70F4B1B6804F26C7B87
:104A1000002B98D0104B1B88002B9ED00021A1E7C3
:104A200006F5FD6601FB0A66A1190022581C934297
:104A300020DB01F8010B0132F9E700BF582C002000
:104A40005C2C0020602C0020A83D0120CC0C02082A
:104A5000CE0D0208490D0208AC3D0120900D020860
:104A6000B43D0120060E02084C2C0020502C0020E2
:104A7000542C0020012B11D1002304F57776C4F8C3
:104A8000D437C4F8D837532205213046FEF730F822
:104A900004F1C403C4F8E067C4F8E437B4F9DC37C0
:104AA000022B11D1002304F28C46C4F8D437C4F889
:104AB000D837532205213046FEF71AF804F5BA73A9
:104AC000C4F8E067C4F8E437B4F9DC37032B11D13C
:104AD000002304F5AD66C4F8D437C4F8D8375322A0
:104AE00005213046FEF704F804F51473C4F8E067B6
:104AF000C4F8E437B4F9DC37042B40F0CE8001234E
:104B000084F8D03794F8DE279DF81730002A40F05B
:104B1000CA804C2B17D1D4F8D437D4F8E007013B26
:104B2000002BC4F8D437BEBFB4F9DC37C3F1090396
:104B3000C4F8D437D4F8D417172359430368053180
:104B40001B6B09B2984735B34FF0FF330DF11701D6
:104B5000D9F80000002203F0B5FD94F8DE179DF8A7
:104B60001730002940F0AC80522B14D1D4F8D43740
:104B7000B4F9DC27D4F8E0070133C2F1090293420B
:104B8000D8BF1946C4F8D417172359430368053111
:104B90001B6B09B29847019B1BB34FF0FF330022F8
:104BA000D8F800000DF1170103F08CFD94F8DE2712
:104BB0009DF81730002A40F09380552B11D1D4F87E
:104BC000D837D4F8E007013B48BF0923C4F8D837E9
:104BD000D4F8D81717235943036853315B6B09B2D4
:104BE0009847029B0BB34FF0FF330DF11701386864
:104BF000002203F067FD94F8DE179DF817300029B6
:104C000040F08180442B10D1D4F8D837D4F8E00795
:104C10000133092BD8BF1946C4F8D81717235943B5
:104C2000036853315B6B09B29847039B7BB35448CD
:104C30004FF0FF33002200680DF1170103F042FD31
:104C400094F8DE279DF81730002A71D1412B1ED130
:104C5000B4F9DC37D4F8D827D4F8D4172046FFF7B6
:104C6000EDFDA0B1D4F8E037D4F8E407B3F906209D
:104C7000B3F90410FDF73CFFD4F8E0076FF04302EE
:104C80006FF01F01FDF734FF012384F8DE37201D8C
:104C90000AF06AFA07B0BDE8F08F032BDCBF0133DE
:104CA000A4F8DC372EE74C2B7FF44DAFD4F8D43783
:104CB000D4F8E407013B48BF0923C4F8D43739E7E7
:104CC000522B7FF468AFD4F8D437D4F8E40701331B
:104CD000092BC8BF0023C4F8D437D4F8D41753E73E
:104CE000552B7FF47EAFD4F8D837D4F8E407013BD6
:104CF000002BC4F8D837BEBFB4F9DC37C3F10903C1
:104D0000C4F8D83764E7442B8FD1D4F8D837B4F936
:104D1000DC27D4F8E4070133C2F109029342C4F856
:104D2000D837C4BF0023C4F8D837D4F8D81775E7EC
:104D3000412BACD1B4F9DC37D4F8D827D4F8D41748
:104D40002046FFF77BFD0028A1D0D4F8E437D4F843
:104D5000E007B3F90620B3F90410FDF7C9FED4F853
:104D6000E4076FF043026FF01F01FDF7C1FE00235F
:104D70008BE7012B8BD109F081F9FDF783FC86E7E6
:104D80005C2C0020704704387047704710B5102124
:104D9000044619F063FE204610BDA0F10400F5E7BB
:104DA00010B500228260044AC16002F1080420327A
:104DB0000460426010BD00BF40120208704700004E
:104DC00010B5034B03600446FEF790FC204610BD6F
:104DD0007012020810B50446FFF7F2FF20464FF4A8
:104DE000D07119F03BFE204610BD000010B50446FE
:104DF000FEF716FD014B2360204610BD701202081D
:104E0000FEF775BC0246002142F8041B0349034625
:104E100003C982E803001846704700BF4CFE010832
:104E20007047704704387047704710B5102104462A
:104E300019F014FE204610BDA0F10400F5E70000B3
:104E400010B500228260044AC16002F108042032D9
:104E50000460426010BD00BF9C1202087047000051
:104E60002DE9F04FDFF880B1DFF880A1DFF8809105
:104E7000DFF8808185B000220446DBF800008DF861
:104E80000F2003F04EFC0190DAF8000003F049FC1B
:104E90000746D9F8000003F044FC0646D8F80000A5
:104EA00003F03FFC4E490546086803F03AFC4D49C3
:104EB000086803F036FC019B0022E3B14FF0FF339A
:104EC000DBF800000DF10F0103F0FCFB9DF80F3043
:104ED0004C2B73D194F8DC38013B5BB2002BB8BF8C
:104EE000092384F8DC3894F9DC181723052213FB16
:104EF0000123A4F82437EFB14FF0FF33DAF80000B4
:104F000000220DF10F0103F0DDFB9DF80F30522B55
:104F100010D194F8DC3801335BB2092BC8BF0023F1
:104F200084F8DC3894F9DC181723052213FB0123DD
:104F3000A4F82437EEB14FF0FF33D9F80000002277
:104F40000DF10F0103F0BEFB9DF80F30552B10D172
:104F500094F8DD38013B5BB2002BB8BF092384F81D
:104F6000DD3894F9DD181723532213FB0123A4F82D
:104F70002637EDB14FF0FF33D8F8000000220DF1D5
:104F80000F0103F09FFB9DF80F30442B10D194F8D4
:104F9000DD3801335BB2092BC8BF002384F8DD384C
:104FA00094F9DD181723532213FB0123A4F82637A5
:104FB000201D0AF0D9F805B0BDE8F08F532B9AD127
:104FC00094F9DD3894F9DC284FF4DC714B432C2143
:104FD00001FB02332344012283F805298BE700BF3C
:104FE0005C2C0020602C00204C2C0020502C002039
:104FF000542C0020582C0020094B70B50446036047
:1050000041F6E41540F6B406635960191B682C3D5F
:105010009847B542F8D12046FEF7DEFC204670BD29
:10502000D412020810B50446FFF7E6FF204641F609
:10503000102119F013FD204610BD00002DE9F341A9
:105040000546FEF7D3FC104B2B604FF4C8720021CD
:1050500005F24C7019F04EFE05F5D05605F50E64BC
:1050600010364FF6FF7704F5DC78204601A92C3482
:10507000ADF8047006F04EFD4445F6D1B442F2D1CD
:10508000284602B0BDE8F081D41202082DE9F047AD
:10509000ADF59C5D86B091463D4A0DF6D4140546AB
:1050A00088460DF6DC10D11F206019F050FD072353
:1050B000636023680022DA71214604A819F024FDF8
:1050C000204619F030FD04A819F020FD2060314879
:1050D000214601220B6883EA937300FB032301320C
:1050E000B2F51C7F41F8043FF4D16B46C4F8C029E7
:1050F00009210022C3E900210292012202AB4FF0F4
:10510000280A5A6021466846FBF7E6FA2146064619
:105110006846FBF7E1FA2146074602A8FBF7DCFAEE
:10512000002800F0010319460AFB06F2B8BF5942F5
:10513000A3B10129E6D106EB0903092BE2DC0A231E
:1051400003FB067308EB830300224A4516DA0AFBC9
:1051500002F018580028D5D10132F6E707EB090113
:105160000929CFDC02EB870242444B4505DA52F8AD
:10517000041B0029C6D10133F7E700212846C5E901
:105180000017AE600DF59C5D06B0BDE8F08700BF6E
:10519000CB1202086589076C2DE9F04F2DED028BCB
:1051A000044687B0FEF719FC0023A4F8DC3802257A
:1051B00004F24C770A262A46394603A8FFF766FF11
:1051C000022DDDE90412039B40F08680002B71D094
:1051D000012B17D106FB021304EB830304F5777050
:1051E000C3F84C5702FB06630B4404EB8303C3F87C
:1051F0004C5717235A4359435332053112B209B25F
:10520000FDF776FC0135062DD5D1A1465326019533
:1052100033B208EE103A09F50E6B4D46BA464FF020
:105220000508D5F8E0285AF8041B126E002940F052
:1052300015810821ADF80C10584603A990470FFAC4
:1052400088F1584618EE102AFDF752FCD5F8E028F0
:105250005846926B17219047D5F8E0285846D26BF4
:1052600017219047D5F8E0285846526E0021904704
:1052700008F117084FF0000385F805395946201D3D
:105280001FFA88F805F0D8F9B8F1EB0F05F12C05F5
:105290000BF12C0BC5D11736B6B240F239139E4232
:1052A00007F1280709F5DC79B2D107B0BDEC028B14
:1052B000BDE8F08F06FB021304EB830017235A436B
:1052C000594353320531C0F84C57C0F8505712B209
:1052D00009B204F1C40093E7032D34D1FBB1012BD3
:1052E00090D106FB021304EB830304F24460C3F87D
:1052F0004C5702FB06630B4404EB8303C3F84C5783
:10530000931C06FB031304EB8303C3F84C571723CA
:105310005A4359435332053112B209B270E706FBC2
:10532000021304EB830017235A43594353320531C8
:10533000C0F84C57C0F85057C0F8545712B209B2D1
:1053400004F54B705CE7042D3ED13BB3012B7FF499
:1053500059AF06FB021304EB830304F5AD60C3F8F9
:105360004C5702FB06630B4404EB8303C3F84C5712
:10537000931C06FB031304EB8303C3F84C57D31CA5
:1053800006FB031304EB8303C3F84C5717235A435C
:1053900059435332053112B209B231E706FB021309
:1053A00004EB830017235A43594353320531C0F8A5
:1053B0004C57C0F85057C0F85457C0F8585712B25D
:1053C00009B204F514701BE77BB3012B7FF41AAF0D
:1053D00006FB021304EB83030520C3F84C0702FB12
:1053E00006630B4404EB8303C3F84C07931C06FBD2
:1053F000031304EB8303C3F84C07D31C06FB03130E
:1054000004EB8303C3F84C07131D06FB031304EBE3
:105410008303C3F84C0717235A43594301445332BB
:1054200012B209B204F58C60EAE606FB021304EB43
:10543000830C172305205A43594301445332CCF8B7
:105440004C07CCF85007CCF85407CCF85807CCF8E8
:105450005C0712B209B204F5A470D1E6019BADF865
:105460000C30E9E6F02070474FF4A0707047292017
:10547000FCF7FABA2820FCF7F7BA08B5FCF7C8FA27
:10548000CA20FCF7F1FAC320FCF7D2FA0820FCF797
:10549000CFFA5020FCF7CCFACF20FCF7E5FA002039
:1054A000FCF7C6FAC120FCF7C3FA3020FCF7C0FABB
:1054B000ED20FCF7D9FA6420FCF7BAFA0320FCF7D8
:1054C000B7FA1220FCF7B4FA8120FCF7B1FAE82011
:1054D000FCF7CAFA8520FCF7ABFA0020FCF7A8FA23
:1054E0007820FCF7A5FACB20FCF7BEFA3920FCF7B0
:1054F0009FFA2C20FCF79CFA0020FCF799FA342044
:10550000FCF796FA0220FCF793FAF720FCF7ACFAC6
:105510002020FCF78DFAEA20FCF7A6FA0020FCF721
:1055200087FA0020FCF784FAB120FCF79DFA0020EE
:10553000FCF77EFA1B20FCF77BFAB620FCF794FA06
:105540000A20FCF775FAA220FCF772FAC020FCF7DB
:105550008BFA1020FCF76CFAC120FCF785FA1020BA
:10556000FCF766FAC520FCF77FFA4520FCF760FAE5
:105570001520FCF75DFAC720FCF776FA9020FCF7BF
:1055800057FA3620FCF770FAC820FCF751FAF220DF
:10559000FCF76AFA0020FCF74BFAB020FCF764FA3B
:1055A000C220FCF745FAB620FCF75EFA0A20FCF7A9
:1055B0003FFAA720FCF73CFA2720FCF739FA042031
:1055C000FCF736FA2A20FCF74FFA0020FCF730FAF5
:1055D0000020FCF72DFA0020FCF72AFAEF20FCF758
:1055E00027FA2B20FCF740FA0020FCF721FA0020D4
:1055F000FCF71EFA0120FCF71BFA3F20FCF718FA13
:10560000F620FCF731FA0120FCF712FA0020FCF733
:105610000FFA0620FCF70CFA2C20FCF725FAC8201C
:10562000FCF770FA2620FCF71FFA0120FCF700FABD
:10563000E020FCF719FA0F20FCF7FAF92920FCF713
:10564000F7F92420FCF7F4F90C20FCF7F1F90E200F
:10565000FCF7EEF90920FCF7EBF94E20FCF7E8F92E
:105660007820FCF7E5F93C20FCF7E2F90920FCF78B
:10567000DFF91320FCF7DCF90520FCF7D9F9172036
:10568000FCF7D6F91120FCF7D3F90020FCF7D0F98C
:10569000E120FCF7E9F90020FCF7CAF91620FCF735
:1056A000C7F91B20FCF7C4F90420FCF7C1F911204D
:1056B000FCF7BEF90720FCF7BBF93120FCF7B8F97D
:1056C0003320FCF7B5F94220FCF7B2F90520FCF7CE
:1056D000AFF90C20FCF7ACF90A20FCF7A9F9282057
:1056E000FCF7A6F92F20FCF7A3F90F20FCF7A0F98F
:1056F0001120FCF7B9F9C820FCF704FA2920FCF7BF
:10570000B3F9BDE808402C20FCF7AEB908B5FCF7AA
:105710007FF90321D320FCF7C3F980B208BD10B58F
:10572000C4B2022203212046FCF728F90A20FCF724
:105730006DF9204600220321FCF720F9BDE8104056
:105740000220FCF763B938B50446E4B2FCF714F95B
:1057500000212046FCF72AF9012105462046FCF7E6
:1057600025F940EA052080B238BD10B5C4B2402109
:105770002046FCF71BF9030607D54C212046FCF711
:1057800015F9003818BF012010BD01224B21204619
:10579000FCF7F4F8204600224B21FCF7EFF800203C
:1057A000F2E773B50423C4B20E461546D7210DEBBC
:1057B00003022046FCF714F9019B1BBA1A0DC3F330
:1057C0000B23328020462B8001224B21FCF7D6F898
:1057D00000224B212046FCF7D1F802B070BD00003A
:1057E00010B50A4B1A78904204460DD05978884279
:1057F0000AD00AB141B901229C54FCF7BDF82046F9
:10580000BDE81040FFF78BBF10BD00BFF02F002098
:1058100010B5C4B209212046FCF7C8F840F00100D9
:10582000C2B209212046BDE81040FCF7A7B810B568
:10583000C4B209212046FCF7B9F8092100F0FE02A4
:105840002046BDE81040FCF799B838B5C4B20D4603
:1058500020460A21FCF7AAF82843C2B20A212046B2
:10586000BDE83840FCF78AB807B50190FCF785F829
:1058700001981F21FFF7E9FF019803B05DF804EBE1
:10588000FFF7C6BF38B5C4B20D4620460A21FCF763
:105890008DF820EA0500C2B20A212046BDE8384052
:1058A000FCF76CB810B50446FFF7C1FF20461F2176
:1058B000BDE81040FFF7E6BF10B5C0B20C460B21A3
:1058C000FCF774F8204010BD1F21FFF7F5BF0A4612
:1058D000C0B20B21FCF752B81F21FFF7F8BF38B553
:1058E000C4B20D4620461721FCF760F820EA0500F7
:1058F000C2B217212046BDE83840FCF73FB870B56A
:10590000C4B2064604212046FCF750F8042100F0FA
:10591000FB0205462046FCF731F83046F021FFF740
:10592000DEFF05F0F80220460421FCF727F84922A3
:1059300020212046FCF722F80220FCF767F82046D9
:1059400001222121FCF71AF820469A224121FCF776
:1059500015F8204601224A21FCF710F820460122C2
:105960004B21FCF70BF8204600224B21FCF706F8F0
:10597000204601225621FCF701F820460122582139
:10598000FBF7FCFF204601224021FBF7F7FF2046F2
:10599000FF220B21FBF7F2FFBDE870400220FCF76D
:1059A00035B80000054BD3F8882042F47002C3F8E4
:1059B00088204FF000629A60704700BF00ED00E061
:1059C00008B50B4B1A6842F400721A601A6842F468
:1059D00080621A601A6842F480721A60032000F034
:1059E0002FF80020FCF758FBFCF79AF8002008BDC0
:1059F000003C0240034A044B11681B780B441360BF
:105A0000704700BFF42F002078000020014B186879
:105A1000704700BFF42F002038B50446FFF7F6FFAB
:105A2000631C1CBF054B1B78054618BFE418FFF725
:105A3000EDFF431BA342FAD338BD00BF780000201E
:105A40000749CA6822F4E0620302120403F4E06327
:105A5000120C134343F0BF6343F40033CB60704731
:105A600000ED00E0164B30B5DC68C4F30224C4F14D
:105A70000705231D042D28BF0425062B4FF0FF33F7
:105A80008CBF033C002403FA05F521EA0501A3407D
:105A900022EA0302A140002841EA0203ACBF00F160
:105AA0006040084A4FEA0313B8BF00F00F00DBB2B2
:105AB000AABF00F56140135480F8003330BD00BF29
:105AC00000ED00E014ED00E0002808DB42090123AE
:105AD00000F01F0003FA00F0014B43F8220070476A
