:020000040800F2
:1000000000000320A505000835210008372100085D
:10001000392100083B2100083D21000800000000B4
:10002000000000000000000000000000F18A00084D
:100030003F21000800000000818B0008FF830008BA
:10004000F5050008F5050008F5050008F5050008A8
:10005000F5050008F5050008F5050008F505000898
:10006000F5050008F5050008F5050008F505000888
:10007000F5050008F5050008F5050008F505000878
:10008000F5050008F5050008F5050008F505000868
:10009000F5050008F5050008F5050008F505000858
:1000A000F5050008F5050008F5050008F505000848
:1000B000F5050008F5050008F5050008F505000838
:1000C000F5050008F5050008F5050008F505000828
:1000D000F505000841210008F5050008F5050008B0
:1000E000F5050008F5050008F5050008F505000808
:1000F000F5050008F5050008F5050008F5050008F8
:10010000F5050008F5050008F5050008F5050008E7
:10011000F50500084D21000859210008F5050008E3
:10012000F5050008F5050008F5050008F5050008C7
:10013000F5050008F5050008F5050008F5050008B7
:10014000F5050008F5050008F5050008F5050008A7
:10015000F5050008F5050008F5050008F505000897
:10016000F5050008F5050008F5050008F505000887
:10017000F5050008F5050008F50500080000000079
:10018000F5050008F5050008F5050008F505000867
:10019000F5050008F5050008F5050008F505000857
:0C01A00065210008F50500087121000829
:1001B00010B5054C237833B9044B13B10448AFF3A1
:1001C00000800123237010BD6C010020000000009E
:1001D000A4FE010808B5034B1BB103490348AFF364
:1001E000008008BD0000000070010020A4FE01088E
:1001F00001F0FF01102A2BDB10F0070F08D010F8D8
:10020000013B013A8B422DD010F0070F42B3F6D1DB
:10021000F0B441EA012141EA014122F007047FF0F4
:1002200000070023F0E80256083C85EA010586EA4B
:10023000010685FA47F5A3FA87F586FA47F6A5FA87
:1002400087F68EB9EED1F0BC01F0FF0102F0070293
:1002500032B110F8013B013A83EA010313B1F8D13E
:100260000020704701387047002D06BF354603381F
:10027000073815F0010F07D1013015F4807F02BF58
:10028000013015F4C03F0130F0BC0138704700BFA9
:10029000034613F8012B002AFBD1181A01387047C6
:1002A00053B94AB9002908BF00281CBF4FF0FF31DD
:1002B0004FF0FF3000F074B9ADF1080C6DE904CED9
:1002C00000F006F8DDF804E0DDE9022304B0704731
:1002D0002DE9F047089D04468E46002B4DD18A42F9
:1002E000944669D9B2FA82F252B101FA02F3C2F12C
:1002F000200120FA01F10CFA02FC41EA030E9440BD
:100300004FEA1C48210CBEFBF8F61FFA8CF708FBDD
:1003100016E341EA034306FB07F199420AD91CEBB5
:10032000030306F1FF3080F01F81994240F21C81E7
:10033000023E63445B1AA4B2B3FBF8F008FB10332F
:1003400044EA034400FB07F7A7420AD91CEB040464
:1003500000F1FF3380F00A81A74240F20781644434
:10036000023840EA0640E41B00261DB1D4400023B9
:10037000C5E900433146BDE8F0878B4209D9002D1D
:1003800000F0EF800026C5E9000130463146BDE8A7
:10039000F087B3FA83F6002E4AD18B4202D3824211
:1003A00000F2F980841A61EB030301209E46002DC0
:1003B000E0D0C5E9004EDDE702B9FFDEB2FA82F215
:1003C000002A40F09280A1EB0C014FEA1C471FFA73
:1003D0008CFE0126200CB1FBF7F307FB131140EA5A
:1003E00001410EFB03F0884208D91CEB010103F127
:1003F000FF3802D2884200F2CB804346091AA4B2E9
:10040000B1FBF7F007FB101144EA01440EFB00FEBC
:10041000A64508D91CEB040400F1FF3102D2A64521
:1004200000F2BB800846A4EB0E0440EA03409CE7C0
:10043000C6F12007B34022FA07FC4CEA030C20FA6D
:1004400007F401FA06F31C43F9404FEA1C4900FA8D
:1004500006F3B1FBF9F8200C1FFA8CFE09FB18110A
:1004600040EA014108FB0EF0884202FA06F20BD97D
:100470001CEB010108F1FF3A80F08880884240F2CD
:100480008580A8F102086144091AA4B2B1FBF9F011
:1004900009FB101144EA014100FB0EFE8E4508D90C
:1004A0001CEB010100F1FF346CD28E456AD9023891
:1004B000614440EA0840A0FB0294A1EB0E01A14276
:1004C000C846A64656D353D05DB1B3EB080261EBE4
:1004D0000E0101FA07F722FA06F3F1401F43C5E9BE
:1004E000007100263146BDE8F087C2F12003D840F4
:1004F0000CFA02FC21FA03F3914001434FEA1C4736
:100500001FFA8CFEB3FBF7F007FB10360B0C43EA27
:10051000064300FB0EF69E4204FA02F408D91CEBD7
:10052000030300F1FF382FD29E422DD902386344D5
:100530009B1B89B2B3FBF7F607FB163341EA034175
:1005400006FB0EF38B4208D91CEB010106F1FF38C4
:1005500016D28B4214D9023E6144C91A46EA0046BB
:1005600038E72E46284605E70646E3E61846F8E64D
:100570004B45A9D2B9EB020864EB0C0E0138A3E796
:100580004646EAE7204694E74046D1E7D0467BE777
:10059000023B614432E7304609E76444023842E7EF
:1005A000704700BFDFF834D0002103E00C4B5B58EC
:1005B000435004310B480C4B42189A42F6D30B4A75
:1005C00002E0002342F8043B094B9A42F9D305F0BC
:1005D00025FA1EF075FB00F097FF7047000003201E
:1005E000940A1208000000206C0100206C01002019
:1005F0006C4B0120FEE7000030B5254D00F563741B
:100600000246116852F8043F01F0004123F0004314
:100610000B43D2F8301681EA530113F0010318BFDF
:100620002B464B40944242F8043CEAD1184D021F3D
:1006300000F22C64D2F89033D2F8941303F0004304
:1006400021F000410B4352F8041F81EA530113F0DB
:10065000010318BF2B464B409442C2F88C33E9D1BA
:10066000D0F8BC3902680A4922F0004203F0004386
:100670001343D0F8302682EA530213F0010318BF67
:100680000B465340C0F8BC390023C0F8C03930BD18
:10069000DFB00899D0F8C039B3F51C7F10B5044617
:1006A00001D3FFF7A9FFD4F8C03909485A1C54F800
:1006B0002330C4F8C02983EAD32300EAC31043409F
:1006C000044800EAC330584080EA904010BD00BFA3
:1006D00080562C9D0000C6EFF8B5D0E900239B1A88
:1006E0005A1C05460E4610D001334FF0FF30B0FBC8
:1006F000F3F707FB03F43046FFF7CCFF8442FAD947
:10070000B0FBF7F02B681844F8BD0846FFF7C2FFAE
:10071000F8E7704708B500F09BFCBDE8084000F022
:1007200025BC00F097BC704710B5042104461EF0AC
:10073000CDF9204610BD000038B50C4B0C4C18808C
:100740000C4B822019806368984740F61103984249
:100750000AD1094D23682C60822098472B6882209B
:10076000DB689847002038BD0120FCE788010020A5
:100770004C0000208A0100208C0100204FF4A07161
:10078000F020FFF7D9BF0000F7B5344D2B680446C1
:100790001B698220984780B2208000284CD02B68AB
:1007A0000DF106025B6901A982209847BDF8063069
:1007B00040F67462934241D9ADF80620BDF8062098
:1007C000C2F56762043292B20A2A3DD90B23B2FB0A
:1007D000F3F2234B1B889A4201D9013B9AB2BDF830
:1007E000043040F6B8318B4230D8C3F571630E3314
:1007F0009BB20F21B3FBF1F31A4909888B4201D94F
:100800004B1E9BB2184E194D30682F68834281B23F
:100810008CBF591AC91AB8B2BA428CBF101A801AC2
:1008200089B280B201440529C8BF33603368C8BFAC
:100830002A6063802B68A38003B0F0BDB32B9CBFFC
:10084000B423ADF80630B9E70022C8E7C3F56D63FD
:1008500008339BB20E2BCCD80023D3E78C010020A9
:100860008A010020880100209001002094010020CE
:1008700037B568460D461446FFF786FFBDF8000001
:1008800030B1BDF802302B60BDF804302360012088
:1008900003B030BD7047704770477047012380F840
:1008A000781080F87930704700207047034B41641E
:1008B000003918BF01211970704700BF774001202F
:1008C00000207047836B0BB10846184770474FF6FE
:1008D000FF707047406803689B691847704770470E
:1008E0007047000070B5044600F082FC2368D3F81E
:1008F0008850044BD4E90F122046AC46BDE8704046
:10090000604700BF000000D008B503680446D3F874
:1009100080309847236820469B6F984700F0ECF89A
:10092000236820461B6F9847292001F09BF800F0B0
:10093000E3F8236820461B6F9847F8E710B5044694
:100940000AF0DCFE23682046D3F8AC30BDE8104046
:10095000184700F03FBC00F043BC00F067BC00F05B
:1009600015BC00F06FBC00F077BC00F019BC0AF0B9
:1009700031B910B57C2104461EF0A8F8204610BD00
:1009800090F87A301BB1406803681B681847184616
:100990007047000010B590F8341090F878400C4B78
:1009A0008C421A7809D03AB90A4A0B491488088847
:1009B00010800C8001221A7010BD002AFCD0054A5C
:1009C00005491488088810800C800022F3E700BFD6
:1009D000704001206C4001206E40012070B50D4632
:1009E000194635B9094B0A4A0A4840F2D2211EF08D
:1009F0001DF9C0E90F52084B003A18BF01221A70C6
:100A00000368BDE87040D3F88C3018471CFF01081C
:100A100054FF0108A2FF01087640012008B5094BE8
:100A20001B888B4203D8084B1B88934205D9074B80
:100A3000074A08489E211EF0F9F8074B1980074B1A
:100A40001A8008BD6C4001206E400120E7FF0108BC
:100A50004A000208A2FF01087240012074400120F0
:100A6000012108B50022084607F057FD0A4B18601F
:100A700028B90A4B0A4A28210A481EF0D7F8002252
:100A80000421012007F0EFFD074B186018B9074B50
:100A9000034A2C21F0E708BD9C01002068010208F0
:100AA000B1010208E00102089801002022020208B8
:100AB000024B4FF0FF31186807F079BD9C01002010
:100AC000014B186807F09EBD9C010020024B0021DD
:100AD000186807F06CBD00BF9C010020FFF7F0BF55
:100AE00003480449006800231A4607F0F7BD00BF19
:100AF000980100200400002013B5084C00231A467A
:100B000001A9206807F01AFE20684FF0FF33002289
:100B100001A907F013FE02B010BD00BF980100202C
:100B200003685B6C18470120704703689B6A18478D
:100B300082B0002301930D4B1A6B42F400021A633A
:100B40001A6B02F400020192019A1A6942F400023F
:100B50001A611A6922F400021A61054B054A1A61EA
:100B6000054B4FF080629A6002B070470038024037
:100B7000902F0020BD0B000800E100E040F2EF30B4
:100B800070470000054B0360054B4FF08062C3F8CF
:100B90008820BFF34F8FBFF36F8F7047B4030208F5
:100BA00000E100E010B504464FF45A61FFF7EAFF98
:100BB00020461DF08BFF204610BD0000024B1B6835
:100BC000586803685B6918477840012070B504468F
:100BD00025460A4B0C30002660602672667245F886
:100BE000203B602229460AF0C7FE04F55A63EE60F6
:100BF0002435AB42FBD1204670BD00BFB4030208D0
:100C000008B50B290BD8DFE801F01206100A0A0A12
:100C10000A0808080808012008BD0520FCE7054B64
:100C2000054A064865211EF001F80020F4E702207D
:100C3000F2E700BF640202087F020208C90202084C
:100C400008B50A2909D8DFE801F010060E080808DF
:100C5000080606060600012008BD054B054A0648A1
:100C600086211DF0E3FF0020F6E70220F4E700BF35
:100C70006402020809030208C90202082DE9F843C8
:100C80004F7F0C4639468146FFF7BAFF94F81E8025
:100C9000054641464846FFF7B3FF414606464846EB
:100CA000FFF7CEFFA18A628B424B521A1A649A61F7
:100CB000228B521A1A61E28A586342EA01425A644C
:100CC00020696268D863DA60216894F81CC08029C2
:100CD0004FEA0C6226D010D8202945EA020461D0E0
:100CE00040295FD004295DD0324B2A4342F40032C0
:100CF0004745DA615AD0304A40E0B1F5807F07D0ED
:100D0000B1F5007FF0D142F4003242F0090203E075
:100D100042F4003242F00A02DA61E2681A625E626C
:100D200058612AE0A4682A4342F40032211DD962A6
:100D3000DA6122785E62586142B1012A21D01F4BEC
:100D40001F4A20484FF488711DF070FFDA696188EE
:100D500022F47F42013922F0100242EA0122DA61D4
:100D60000120144BDA6942F02002DA61DA69920656
:100D7000FCD410229A600028BDD0134A1A60BDE846
:100D8000F8836288D969541E21F47F4222F0100250
:100D900042EA0422BCF1FF0042F0100218BF012019
:100DA000DA61DEE744F40034DC61B8E740F20122A6
:100DB000E4E700BF00B00240010201005403020852
:100DC0006E030208C90202080102020070B50C4657
:100DD000897FFFF735FFA68AE18A628B154B25696B
:100DE000586341EA0641921B5964DD631A64266820
:100DF000E168082E0DD19A611A615862207F0E4A6F
:100E000042EA0062DA610D4A19625D61DD601A60D2
:100E100070BD0022D8611A6148090A0A02F47842BA
:100E200000F4FC600243C1F3C4010A439A63044A1C
:100E3000EDE700BF00B0024009000100010202001E
:100E400001020300012070474020704700EB811031
:100E50000830704700EB8110083070470120704760
:100E60004FF4DD5070474FF4DD5303FB01000830B1
:100E700070474FF4DD5303FB010008307047012039
:100E800070471020704700EB01100830704700EBEE
:100E9000011008307047084601F0D2BB10B5034B73
:100EA0000360044609F0EBFB204610BD6C04020809
:100EB00010B50446FFF7F2FF204648211DF006FE5C
:100EC000204610BD10B5034B0360044609F0D7FB64
:100ED000204610BD3804020810B50446FFF7F2FFA3
:100EE000204641F6A8311DF0F1FD204610BD00005E
:100EF00010B5034B0360044609F0C1FB204610BD4A
:100F00000404020810B50446FFF7F2FF204618213A
:100F10001DF0DCFD204610BD10B5094B03600446F2
:100F200000F5DE501430FFF7B9FF04F12C00FFF795
:100F3000C9FF04F11400FFF7DBFF204610BD00BF1E
:100F4000A004020808B50248FFF7E6FF08BD00BF8D
:100F5000A401002010B50446FFF7DEFF204641F64D
:100F600014711DF0B3FD204610BD00002DE9F341C2
:100F700001F078F9054601F079F90024014623468D
:100F800028462246009410F035F9264B264A274D74
:100F90001A60204603F08AFB254810F093F82B785E
:100FA000BFF35B8FDB0737D428461DF091FD98B364
:100FB000204C214B236004F1140000F5DE5707F5A7
:100FC000F27604F12C086060C4F80880E7602661BE
:100FD00009F056FB194B6361404609F051FB184B71
:100FE000E362384609F04CFB04F58053154AC3F818
:100FF000D42B03F61C4003F033FF224607F14801CF
:10100000304603F0C9FB304601F01AFB0E481DF0D4
:101010002BFE28461DF068FD0C4802B0BDE8F041EB
:10102000FFF760BCD4400120D82E0020A001002092
:1010300008000020A4010020A00402080404020803
:10104000380402086C040208450F00085C2E0020DA
:10105000704700000148FFF757BC00BF5C2E00201E
:1010600070B5224E224C234D234B23603046FFF7B0
:10107000ADFD284614F08AFB204B2148DC6000229D
:101080004FF48071C3E912121E491A86C3E91A127D
:101090001D4999671D4983F858200B60F021018094
:1010A0001B485A6601801B4883F870204FF4A071DA
:1010B000C3E90422C3E90622C3E90822C3E90A22DC
:1010C000C3E90E22C3E91022C3E91422C3E917229F
:1010D0005A67C3E9016501800F4801800F490A7012
:1010E000012283F834200E4A1A6070BDBC20002013
:1010F000B8200020DC2E00200CFF01085C2E002010
:101100006C40012001000001000001017840012035
:10111000724001206E400120744001207040012087
:10112000980002080148FFF72DBD00BFBC20002039
:101130000020704781807047C180704701817047EF
:10114000418170477047704770477047704710B4CF
:10115000C4880368121B84885B6D091B12B25DF89A
:10116000044B09B218474FF6FF7383814FF0FF33EA
:1011700003621368C3611060704790F825201AB1AC
:1011800090F8242002B1186070470000034B9022B1
:1011900083F85A2383F85823704700BF00E100E02A
:1011A000094A0A49D3680A48C3F30A03013B9BB2C0
:1011B0000B801169C1F30A01013901801364536B7B
:1011C00043F001035363704700680140622F002021
:1011D000602F0020014BD3F8AC007047006801403D
:1011E000024B0122C3F8AC105A62704700680140FC
:1011F00070B5044609F043FD23685D6E0CF076FF80
:1012000001462046A8472368054AD3F8885020465F
:10121000AC460023BDE87040A2F51631604700BF20
:1012200000B004D009F012BD09F01CBD09F0D8BC13
:1012300009F039BE90F8252012B103685B691847A0
:1012400070470000034B4FF080629A604FF080724D
:101250009A60704700E100E0084B4FF08062C3F8ED
:101260008820BFF34F8FBFF36F8F4FF08072C3F8AA
:101270008820BFF34F8FBFF36F8F704700E100E00E
:1012800010B5144C236823B3134B144A1B6C1188FC
:101290008B4213D1124B198805F08CFC226892F80E
:1012A0006A30013382F86A30FFF71AFC20680AF0CE
:1012B00025FABDE810400020FFF7EDBA05F07AFCF2
:1012C000206803681B6A9847BDE810400020FFF7BC
:1012D000E3BA10BD7840012000680140622F002071
:1012E000602F002007B5064BADF806001B680548C7
:1012F00001220DF1060106F0B9F903B05DF804FB17
:101300001000002000310020F7B5504C504E042151
:10131000204604F06BFE01280FD14E4D4C23286867
:101320008DF8073007F039FA012806D82868C82355
:1013300000220DF1070107F0D1F90821204604F041
:1013400055FE01280FD1444D522328688DF80730EF
:1013500007F023FA012806D82868C82300220DF1D7
:10136000070107F0BBF91021204604F03FFE0128D9
:101370000FD13A4D552328688DF8073007F00DFA44
:10138000012806D82868C82300220DF1070107F0BC
:10139000A5F92021204604F029FE01280FD1304D67
:1013A000442328688DF8073007F0F7F9012806D89C
:1013B0002868C82300220DF1070107F08FF929489A
:1013C000012104F013FE01280FD1224D5323286878
:1013D0008DF8073007F0E1F9012806D82868C823FE
:1013E00000220DF1070107F079F90421304604F0DD
:1013F000FDFD054678B91C4F412338688DF807304C
:1014000007F0CBF9012806D83868C8232A460DF121
:10141000070107F063F90821304604F0E7FD0546AF
:1014200078B9124F422338688DF8073007F0B5F9C4
:10143000012806D83868C8232A460DF1070107F0AD
:101440004DF9642007F05DF861E700BF001002402D
:10145000001802406C2F0020702F0020742F0020F5
:10146000782F0020000002407C2F0020802F0020D9
:1014700030B595B0102200210AA81DF073FC14228B
:10148000002103A81DF06EFC00241D4B01941A6C72
:1014900042F080521A641B6C03F080530193019B4D
:1014A000184B02941A6842F440421A601B6803F415
:1014B000404302930122029B4FF48033CDE908237D
:1014C00002254FF48003CDE90E5308214FF4A87391
:1014D000CDE9101308A804231393129505F088FB97
:1014E0000F23CDE903354FF4A0504FF48053CDE9DD
:1014F0000603052103A8059405F058FD15B030BD7D
:1015000000380240007000402DE980489BB004F094
:1015100093FAFFF7ADFF142200210DA800241DF05F
:1015200021FCC64B00941A6BC548C64E42F010020F
:101530001A631A6B02F010020092009A01941A6B5F
:1015400042F020021A631A6B02F020020192019A03
:1015500002941A6B42F080021A631A6B02F0800246
:101560000292029A03941A6B42F004021A631A6BF5
:1015700002F004020392039A04941A6B42F00102EF
:101580001A631A6B02F001020492049A05941A6B12
:1015900042F002021A631A6B02F002020592059AE7
:1015A00006941A6B42F040021A631A6B02F0400272
:1015B0000692069A07941A6B42F008021A631B6B94
:1015C00003F00803079322460421079B04F014FD4F
:1015D00022469D484FF44051012504F00DFD3C2367
:1015E0009A480F950DA94FF002084FF0040ACDE973
:1015F0000D3404F015FC92480F940DA9CDE90DA50A
:10160000CDF8408004F00CFC91480F940DA9CDE971
:101610000D5404F005FC4FF440538B480DA9CDE95F
:101620000D354FF00C09CDE90F4404F0F9FB0DA97D
:1016300088480F95CDE90D9404F0F2FB8648874B5E
:10164000036004F08BFA864A864B3462C6E90023B5
:1016500030464FF48043C6E90434C6E90244C6E983
:10166000064404F0ABFE1021304605F0E7F82146B1
:10167000304605F002F97C487C4984624FF482735D
:10168000C0E900134FF400761823C0E906630A236B
:10169000774EC362C0E90244C0E90444C0E908448B
:1016A00005F088FF734BCDF83480C6E9003510276C
:1016B0004023C6E904734FF4C073C6E906344FF4FF
:1016C0000063C6E908344FF40053B3624FF0030BD4
:1016D00007230DA930460827CDE90E3A1093C6E935
:1016E000024ACDE911B8CDF84C8005F063FE4FF603
:1016F000FF7209A93046CDE90A75089409950C9442
:1017000005F078FE284604F0C3F94FF6FF7209A9E8
:101710003046CDE90987CDE90B5405F06BFE4FF655
:10172000FF7209A93046CDE90BA4CDE909B705F050
:1017300061FE4FF40C730893089B0C934FF6FF72F5
:1017400009A93046CDE909A70B9505F053FE40F2F3
:101750006A51304605F06CFE342221460DEB020042
:101760001DF000FB444E454BB486C6E90034092306
:10177000C6E905351D2340F20D1CC6E9073B40F2C2
:101780004313C6E909C340F2171E40F2471330461F
:10179000C6E90BE3C6E90244346186F8364005F039
:1017A00011F9FF21F022CDE912144FF4806A0521CE
:1017B0004FF4A073CDE90E24CDE914A1CDE9164272
:1017C0000DA922463046CDE910382D4E18930D94C0
:1017D000ADF864408DF8664005F0BFF9294B3360E1
:1017E0001B6898473368284EDB689847274BC6E943
:1017F0000A48C6E90C443046C6E90034C6E902840A
:1018000004F012FA2946304604F0C6FA2048214B6B
:101810004FF4E136C0E90036C0E90244C0E90449AA
:10182000C0E9064406F06AFB1B4B1C48C0E90036C1
:10183000C0E90244C0E9044932E000BF0038024078
:1018400000080240D02F0020000C0240001002408F
:101850000000024000180240882F002000300240A3
:10186000005C0040A08601000031002000500140D3
:10187000CC300020400100A024300020006801404E
:10188000682F002014000020902F002000B002409C
:101890005831002000100140005000409C310020D1
:1018A000C0E9064406F02AFBFEF734FFFEF731FFDD
:1018B00006F0B2FD1D4A2946384606F0D4FE1C4B00
:1018C0001C4A18602946384606F0CDFE1A4B1B4AC2
:1018D00018602946384606F0C6FE194B194A1860AA
:1018E0002946384606F0BFFE174B184A18602946AD
:1018F000384606F0B8FE164B164A18602946384698
:1019000006F0B1FE144B154A18602146144806F043
:10191000AFFD144B144A18602146144806F0A8FD88
:10192000134B186006F08AFDFEE700BF10050208A1
:101930006C2F002028050208702F002040050208A7
:10194000742F002058050208782F00207005020827
:101950007C2F002088050208802F0020A0050208A7
:1019600009130008842F0020EC0402082307000854
:10197000642F0020704770477FB5094B8DF8172002
:101980001B6802930DF117020123009201930A468E
:101990000146044804F0BAFD07B05DF804FB00BF3F
:1019A0000C000020D02F00207FB500238DF81730C9
:1019B000084B1B6802930A4601230DF117010091A1
:1019C00001930146044804F031FE9DF8170007B06A
:1019D0005DF804FB0C000020D02F00201FB5084C40
:1019E00024680092CDE901340A46012301460548E6
:1019F00004F01CFE003818BF012004B010BD00BF69
:101A00000C000020D02F002004F042B808B5064892
:101A10000022042104F0F0FABDE808400248012247
:101A2000042104F0E9BA00BF0008024038B50B4DAC
:101A3000044601220A484FF4005104F0DDFA002266
:101A40000421284604F0D8FA2046FFF74BFC28462C
:101A50000122BDE83840042104F0CEBA000802405B
:101A6000000C024038B50B4D044600220A484FF4E2
:101A7000005104F0C1FA00220421284604F0BCFA07
:101A80002046FFF72FFC28460122BDE838400421FC
:101A900004F0B2BA00080240000C0240F7B5144E40
:101AA000144F05460C4630460022042104F0A4FAE7
:101AB00000224FF40051384604F09EFA2846FFF702
:101AC00011FC0D4B0D481B68224601A905F070FF63
:101AD000384601224FF40051019C04F08DFA304643
:101AE0000122042104F088FA204603B0F0BD00BFB3
:101AF00000080240000C02401000002000310020CD
:101B000003F0C6BF0268034B9A4201D103F0AEBF97
:101B1000704700BF001000407047000082B00E4BBD
:101B200000220092596C41F480415964596C01F4CF
:101B30008041009100990192196C41F08051196423
:101B40001B6C03F080530193019B0F216FF0010088
:101B500002B003F0C3BF00BF003802400268094B67
:101B60009A4282B00BD100230193074B1A6B42F4C7
:101B700080521A631B6B03F480530193019B02B0E4
:101B8000704700BF003002400038024007B50F4BDD
:101B900002689A4216D10022A3F5F0430192196B14
:101BA00041F4000119631B6B03F400030193052149
:101BB0005A20019B03F092FF5A2003B05DF804EB1A
:101BC00003F0BEBF03B05DF804FB00BF00B00240ED
:101BD0002DE9F043044689B01422002103A81DF02A
:101BE000C1F82268244B9A4243D1244C2448002552
:101BF0000095236B43F004032363236B03F004037A
:101C00000093009B0195236B43F001032363236B37
:101C100003F001030193019B4FF012094FF400738D
:101C20004FF001080327042603A9CDE90339CDE9C4
:101C30000587079604F0F4F84FF48073114807966F
:101C400003A9CDE90339CDE9058704F0E9F8029548
:101C5000236C43F400032364236C03F40003029316
:101C6000029B236A43F400032362236A23F40003E4
:101C7000236209B0BDE8F083005C004000380240F8
:101C80000008024000000240F0B599B0044614225A
:101C9000002107A81DF066F830220DEB020000219C
:101CA0001DF060F822685E4B9A4240F0B78008232E
:101CB0000C93C0231093042312930CA84FF4003309
:101CC000159305F04DFA08B1FFF726FF554B56481E
:101CD000002400945A6C42F080625A645A6C02F0FC
:101CE00080620092009A01941A6B42F020021A63FB
:101CF0001A6B02F020020192019A02941A6B42F0D0
:101D000001021A631A6B02F001020292029A039412
:101D10001A6B42F002021A631A6B02F0020203927B
:101D2000039A04941A6B42F040021A631A6B02F091
:101D300040020492049A05941A6B42F004021A635A
:101D40001A6B02F004020592059A06941A6B42F08F
:101D500008021A631B6B03F00803069302250E2684
:101D6000069B0B964FF4806307A9CDE90735CDE9B3
:101D7000094504F055F841F658032C480B9607A97D
:101D8000CDE907350927CDE9094504F049F80323D2
:101D900027480B9707A9CDE90735CDE9094504F098
:101DA0003FF84FF4706322480B9607A9CDE9073539
:101DB000CDE9094504F034F84FF40C631D480B9647
:101DC00007A9CDE90735CDE9094504F029F8C02375
:101DD00019480B9607A9CDE90735CDE9094504F067
:101DE0001FF8082315480B9607A9CDE90735CDE95B
:101DF000094504F015F84FF4A0530E480B9707A9B6
:101E0000CDE90735CDE9094504F00AF85820224606
:101E1000052103F063FE582003F092FE19B0F0BDD7
:101E200000680140003802400014024000000240F7
:101E3000000402400018024000080240000C02406A
:101E400010B5044688B01422002103A81CF08AFFB4
:101E50002268144B9A4223D103F568430021019173
:101E60005A6C114842F480125A645A6C02F480127F
:101E70000192019A02911A6B42F020021A631B6BC5
:101E800003F020030293029B4FF4607202230321AC
:101E9000CDE903230523CDE9061303A903F0C0FF11
:101EA00008B010BD0050014000140240F0B51422EB
:101EB0008BB0044600210DEB02001CF053FF236899
:101EC000384A934240D1384B3848002400941A6C69
:101ED00042F480121A641A6C02F480120092009A82
:101EE00001941A6B42F004021A631A6B02F00402A6
:101EF0000192019A02941A6B42F008021A631B6B5A
:101F000003F008030293029B02274FF48053032639
:101F1000082505A9CDE90537CDE9086503F080FF5F
:101F200004232348099505A9CDE90537CDE90746DE
:101F300003F076FF35202246052103F0CFFD352042
:101F400003F0FEFD0BB0F0BD1A4A9342FAD1164BD6
:101F50001948002403945A6C42F010025A645A6CD7
:101F600002F010020392039A04941A6B42F00102E9
:101F70001A631B6B03F0010304934FF4C062049BCC
:101F80000223CDE9052303210723CDE9081305A981
:101F900003F046FF25202246052103F09FFD252062
:101FA000CEE700BF00500040003802400008024069
:101FB000000C024000100140000002402DE9F041F9
:101FC00086B0002303932B4B1C68002C4FD14FF09D
:101FD0000108C3F80080284B00949A6B274842EA16
:101FE00008029A639B6B03EA080300930227032607
:101FF0000C25009B01A94FF63F03CDE90137CDE940
:10200000046503F00DFF1E48059501A9CDE9018780
:10201000CDE9034603F004FF48F233131948059550
:1020200001A9CDE90137CDE9034603F0F9FE4FF6EA
:1020300083731548059501A9CDE90137CDE903461C
:1020400003F0EEFE4CF203731048059501A9CDE9AB
:102050000137CDE9034603F0E3FE60230C48059504
:1020600001A9CDE90137CDE9034603F0D9FE06B059
:10207000BDE8F081E0310020003802400014024049
:10208000000802400018024000100240000C02400C
:102090000004024070B588B000230293204B1A6CF4
:1020A00042F010021A641B6C03F010030293054601
:1020B00001A903A8029B05F035F8069B4BBB05F070
:1020C00011F8184E184B336040F2E733F360174BAA
:1020D000B0FBF3F3013B7360304600233361B36020
:1020E000B36105F051FE044680B9304605F006FDA7
:1020F000044658B9362003F023FD0F2D0DD8224693
:102100002946362003F0EAFC094B1D60204608B042
:1021100070BD04F0E7FF4000D3E70124F6E700BFFD
:1021200000380240E43100200010004040420F001F
:102130007C0000207047FEE7FEE7FEE7FEE7704701
:10214000014805F06BBF00BF58310020014805F081
:1021500065BF00BF9C310020014805F00DBD00BFE8
:10216000E4310020014804F09BBC00BF2430002073
:10217000014803F087BD00BF902F00200120704769
:1021800008B51CF085FD162303604FF0FF3008BD35
:1021900008B51CF07DFD16230360FEE770B50D4603
:1021A00014460E46731B9C4201DC204670BDAFF303
:1021B000008006F8010BF5E770B50D4614460E4693
:1021C000731B9C4201DC204670BD16F8010BAFF377
:1021D0000080F5E74FF0FF3070474FF400534B603D
:1021E0000020704701207047002070470A4A11689C
:1021F00008B5034609B909491160106869460344E6
:102200008B4206D91CF044FD0C2303604FF0FF30D5
:1022100008BD1360FCE700BF2C320020704B01208A
:10222000704710B5042104461CF050FC204610BD38
:1022300008B5032913D8DFE801F002060A0E02F000
:1022400081FA006808BD02F07DFA4068FAE702F002
:1022500079FA8068F6E702F075FAC068F2E70020C4
:10226000F0E7000000487047D80502080F207047CB
:1022700013B5002451B1036801948DF8034001AAFD
:102280009C680DF10303A04702B010BD0846FBE7B0
:10229000C0897047008A7047C0887047808870473F
:1022A000807A00F07F007047807AC00970477047DD
:1022B00010B5082104461CF009FC204610BD7047EB
:1022C000704700F598730868496803C37047704702
:1022D0007047416070477047064BC0F84C3100238F
:1022E000C0F8503100F5A273C0F84801C0F8403181
:1022F000704700BF792400080123037270477047BC
:102300007047704710B4C26841685410034601EB2F
:102310006200D20748BF0A599B685DF8044B48BF6A
:10232000D358184743682BB183682BB9C06800F0B5
:1023300001007047184670470120704710B50C2106
:1023400004461CF0C3FB204610BD10B51021044606
:102350001CF0BCFB204610BD10B54FF4AE71044616
:102360001CF0B4FB204610BD10B5402104461CF003
:10237000ADFB204610BD10B50BF0B8FE0368BDE8FC
:102380001040DB6B18470000054B1B7801462BB152
:10239000406818B103680C315B6E1847704700BF86
:1023A00077400120037A70B50546BBB940680368E1
:1023B000DB69984704464CB1A1886B8FC91A236822
:1023C00020461B6B09B29847A469F4E76868036864
:1023D00005F10C011B6EBDE87040184770BD70B56B
:1023E000044690F8390094F838300130C0B2984271
:1023F00084F8390005D901232372002384F8393089
:1024000070BDB4F93A2000210DF062FB10F001021A
:1024100083B206D04FF6FF710028D8BF0A4698183D
:1024200000B2238AC01AA08760680368DB699847F6
:1024300005464DB1A988A38F19442B6828461B6B0C
:1024400009B29847AD69F4E760680368BDE8704079
:102450005B69184710B50446D0F8400158B10368CD
:10246000DB68984738B1D4F8400103689B68984707
:102470000023C4F8403110BD2DE9F14FD0E9555A81
:102480000746A86803681B6A9847B0F5D07F05D255
:10249000454B464AA32146481CF0C8FB68680368C0
:1024A0001B6A98470F2803D8424B404AA421F2E701
:1024B000E86803681B6A98470B2803D83E4B3B4AE1
:1024C000A521E8E70BF012FEDFF8F49004300BF0E2
:1024D00032FED9F8000010B10368DB689847D9F8DC
:1024E000000010B103681B689847DFF8D880D8F85F
:1024F000000010B103685B699847D7F83C0110B140
:1025000003685B689847D8F8000010B103681B683F
:102510009847D7F83C0110B103689B689847E86872
:10252000036800215B6A98474FF0000B234B036060
:102530000446C0F804B080F808B0A868036859469B
:102540005B6A9847064602F07FFC68680368594654
:102550005B6A98473146054602F050FCC9F80040D6
:10256000C7F83C51C8F80060E5B12B1DCAF800302F
:102570003368C5F808A03046DB68F56398472B68D8
:1025800028461B689847214630460DF09BFA236881
:1025900020461B69984723685B69204601B0BDE867
:1025A000F04F18472B46E1E714070208A20702087C
:1025B000AC080208F308020896090208F00C0208A9
:1025C000B8400120B4400120044B1B6893F8582008
:1025D0000AB1D86C00B99868704700BF78400120F4
:1025E000F8B5044617460E460BF042FE104B1C6031
:1025F000104B2360104B0025C4E951350F4BC4E943
:1026000053551868036801219B68C4E94F55C4E914
:1026100055769847284602F049F8FFF7D5FF14F0A1
:10262000E4FEFFF7D1FF14F05BFF2046F8BD00BFCA
:10263000C44001209C0C0208840C02087840012050
:10264000064BC0F84C310023C0F8503100F5A2739E
:10265000C0F84801C0F84031704700BF7924000835
:10266000064BC0F84C310023C0F8503100F5A2737E
:10267000C0F84801C0F84031704700BF5528000835
:10268000064BC0F84C310023C0F8503100F5A2735E
:10269000C0F84801C0F84031704700BF1527000856
:1026A0002DE9F04105460026164B4660067245F8B6
:1026B0000C3B044628460F4609F0FAF9124B84F801
:1026C00038701B7884F83960A68723B901232372F8
:1026D0002046BDE8F0810D4B0D4FB3F90080E36853
:1026E000B7F900109B6B266128469847E36841467E
:1026F000DB6B28469847284609F055F93B885B4232
:102700006387E5E7140D0208774001206E40012041
:102710006C4001202DE9F047D0E9554A0746A068F2
:1027200003681B6A9847B0F5DD5F05D2424B434A08
:10273000A32143481CF07AFA606803681B6A984733
:102740000F2803D83F4B3D4AA421F2E7E068036815
:102750001B6A98473F2803D83B4B384AA521E8E736
:102760000BF0C4FCDFF8E49004300BF0E4FCD9F883
:10277000000010B10368DB689847D9F8000010B179
:1027800003681B689847DFF8C880D8F8000010B1CC
:1027900003685B699847D7F83C0110B103685B6830
:1027A0009847D8F8000010B103681B689847D7F81D
:1027B0003C0110B103689B689847E06803680021FA
:1027C0005B6A984714210546FFF76AFFA068036813
:1027D00000215B6A9847064602F066FC6068036861
:1027E00000215B6A98473146044602F05FFBC9F856
:1027F0000050C7F83C41C8F80060DCB1231DCAF89E
:1028000000303368C4F808A03046DB68F4639847AA
:10281000236820461B689847294630460DF052F938
:102820002B6828461B6998472B6828465B69BDE8DA
:10283000F04718472346E2E714070208390A02085E
:10284000AC080208F308020896090208B840012003
:10285000B44001202DE9F047D0E9554A0746A06869
:1028600003681B6A984740F67713984205D8434B94
:10287000434AA32143481CF0D9F9606803681B6AE6
:1028800098470F2803D8404B3D4AA421F2E7E0685F
:1028900003681B6A98473F2803D83C4B384AA52158
:1028A000E8E70BF023FCDFF8E89004300BF043FC82
:1028B000D9F8000010B10368DB689847D9F8000028
:1028C00010B103681B689847DFF8C880D8F800008B
:1028D00010B103685B699847D7F83C0110B10368F1
:1028E0005B689847D8F8000010B103681B689847E8
:1028F000D7F83C0110B103689B689847E06803680B
:1029000000215B6A984714210546FFF7C9FEA068BD
:10291000036800215B6A9847064601F08DFF6068F6
:10292000036800215B6A98473146044601F04CFF7A
:10293000C9F80050C7F83C41C8F80060DCB1231D5D
:10294000CAF800303368C4F808A03046DB68F46386
:102950009847236820461B689847294630460DF063
:10296000B1F82B6828461B6998472B6828465B6995
:10297000BDE8F04718472346E2E700BF1407020806
:102980005E0B0208AC080208F30802089609020868
:10299000B8400120B440012070477047704770472D
:1029A000704730B50368018185B06D460146D3F8A4
:1029B000843004462846984795E807003C3484E86C
:1029C000070005B030BD30B50368418185B06D4664
:1029D0000146D3F8843004462846984795E8070016
:1029E0003C3484E8070005B030BD002202804280FC
:1029F0008280C280704780F83610704770B50368D7
:102A000004461B6B154698472368294620465B6E93
:102A1000BDE8704018470020704700224FF0FF319A
:102A2000C0E9002182607047806C70477047704732
:102A3000704710B54C2104461CF048F8204610BDE4
:102A400010B54FF4FA6104461CF040F8204610BD62
:102A500008B5FEF7EFFB08BD036870B55E6B124B5F
:102A60001B6804468DB22BB9104B114A6C211148DA
:102A70001CF0DCF81049828D0988914203D80F4B75
:102A80000B4A6D21F3E713F812200D4B1B6853F826
:102A9000220003681B6B9847281A01B23346204670
:102AA000BDE87040184700BFC8400120300D020843
:102AB000720D0208AD0D0208CC400120F40D020891
:102AC000D0400120074A02600022C0E90122C0E98B
:102AD0000322C0E90522C0E907224FF480728284F4
:102AE000704700BF0C17020870B5036804461B6BE3
:102AF000154698472368294620465B6BBDE8704021
:102B0000184770B504461D46BDF91060FFF7ECFF8D
:102B10002368294620469B6B984723683146204608
:102B2000DB6BBDE87040184710B50446FFF7CAFFDD
:102B3000024B23600023A362204610BDCC13020881
:102B400010B52622044600211CF00CF92046FFF7A0
:102B5000B9FF044B2360FF2384F826300023A362CF
:102B6000204610BD701502082DE9F04F2DED108B99
:102B7000054699B0AA4600240CF0F8FDDE4BEC6344
:102B80004AF8403B5046FFF7DBFF05F16C0305F1C7
:102B9000980918464FF6FF7605F1C4071593FFF71D
:102BA000CFFF16A94846ADF8586008F0EBFF38464D
:102BB000FFF7BAFF05F1F00316A918460AEE103A1E
:102BC000ADF8586008F0DEFF05F58E7316A91846BB
:102BD0000AEE903AADF8586008F0D4FF05F5A473FA
:102BE00005F5BA7B16A918460BEE103AADF85860F9
:102BF00008F0C8FF5846FFF797FF05F5D07316A9F0
:102C000018460BEE903AADF8586008F0BBFF05F59A
:102C1000E67316A918460CEE103AADF8586008F0A5
:102C2000B1FF05F5FC7316A918460CEE903AADF805
:102C3000586008F0A7FF05F5097305F5147816A983
:102C400018460DEE103AADF8586008F09BFF40466C
:102C5000FFF76AFF05F51F7316A918460DEE903AA7
:102C6000ADF8586008F08EFF05F52A7316A91846CE
:102C70000EEE103AADF8586008F084FF05F5357394
:102C800016A918460EEE903AADF8586008F07AFF93
:102C900005F5407316A918460FEE103AADF85860C6
:102CA00008F070FF05F54B7316A918460FEE903A21
:102CB000ADF8586008F066FF05F5567318460293A4
:102CC000FFF732FF05F5617316A918460393ADF8B7
:102CD000586008F057FF05F56C7316A91846049361
:102CE000ADF8586008F04EFF05F57773184609EE09
:102CF000103AFFF719FF05F5816316A918460593E9
:102D0000ADF8586008F03EFF05F2344316A91846A6
:102D10000693ADF8586008F035FF05F58C6316A9E9
:102D200018460793ADF8586008F02CFF05F28C4365
:102D3000184608EE903AFFF7F7FE05F5976316A9D7
:102D400018460893ADF8586008F01CFF05F2E443FC
:102D500016A918460993ADF8586008F013FF05F559
:102D6000A26316A918460A93ADF8586008F00AFF46
:102D700005F23C5316A918460B93ADF8586008F0BD
:102D800001FF05F5AD63184608EE103AFFF7CCFEDB
:102D900005F2945316A918460C93ADF8586008F044
:102DA000F1FE05F5B86316A918460D93ADF8586005
:102DB00008F0E8FE05F2EC5316A918460E93ADF89C
:102DC000586008F0DFFE05F5C36316A918460F9397
:102DD000ADF8586008F0D6FE05F2446316A918460F
:102DE0001093ADF8586008F0CDFE05F5CE63184697
:102DF0001193FFF799FE05F29C6316A918461293EA
:102E0000ADF8586008F0BEFE05F5D96316A918465E
:102E10001393ADF8586008F0B5FE05F2F46309EEBF
:102E2000903A2622214618461BF09CFF19EE900A84
:102E3000FFF748FE314BC5F81C374FF47F03C5F848
:102E400028372F4BC5F8F4364FF0FF33C5F8343729
:102E500005F5E8631493A5F820674FF0FF3316A932
:102E60001498C5F82447A5F82C47C5F83047C5F88D
:102E70003847C5F83C47ADF8583008F083FE4FF4AA
:102E8000A0732246504600932146F0232E1DFFF7E3
:102E900038FE4FF07F435146AB66304607F004FCE6
:102EA0004FF4A0732246159800932146F023FFF7B4
:102EB00028FE4FF0FF331599C5F89430304607F0DF
:102EC000F3FB0223484616A9ADF8583009F0BDFAC5
:102ED000E6230093532248460521FFF712FE484699
:102EE000214608F00AFE4946304607F0DDFB442340
:102EF0006FF04302384605E0080F02080C0702088D
:102F0000780E020800936FF0210117234FF0170984
:102F10004FF0040AFFF7F5FD1AEE100A16A9ADF8F6
:102F200058A009F092FA4B4616221AEE100A2146D2
:102F3000CDF80090FFF7E5FD1AEE100A214608F0E3
:102F4000DCFD38461AEE101A07F0AEFB1AEE900AB6
:102F500016A9ADF858A009F078FA4B4622461AEEA9
:102F6000900A2146CDF80090FFF7CBFD1AEE900AAB
:102F7000214608F0C2FD38461AEE901A07F094FB7D
:102F80001BEE100A16A9ADF858A009F05EFA4B46E0
:102F90002C221BEE100A2146CDF80090FFF7B1FD60
:102FA0001BEE100A214608F0A8FD38461BEE101A49
:102FB00007F07AFB3946304607F076FB5A236FF06C
:102FC0005B02584600936FF066014B46FFF799FD90
:102FD0001BEE900A16A9ADF858A009F036FA4B4638
:102FE00016221BEE900A2146CDF80090FFF789FDCE
:102FF0001BEE900A214608F080FD58461BEE901A01
:1030000007F052FB1CEE100A16A9ADF858A009F003
:103010001CFA4B4622461CEE100A2146CDF80090C1
:10302000FFF76FFD1CEE100A214608F066FD5846BA
:103030001CEE101A07F038FB1CEE900A16A9ADF82A
:1030400058A009F002FA4B462C221CEE900A2146A9
:10305000CDF80090FFF755FD1CEE900A214608F0D0
:103060004CFD58461CEE901A07F01EFB19271DEE6A
:10307000100A16A9ADF858A009F0E7F94B4643220B
:103080001DEE100A00972146FFF73BFD1DEE100ACA
:10309000214608F032FD58461DEE101A07F004FBD9
:1030A0005946304607F000FB71236FF0720240462C
:1030B00000936FF086014B46FFF723FD1DEE900A4B
:1030C00016A9ADF858A009F0C0F94B4616221DEE1E
:1030D000900A2146CDF80090FFF713FD1DEE900AEF
:1030E000214608F00AFD40461DEE901A07F0DCFA72
:1030F0001EEE100A16A9ADF858A009F0A6F94B4625
:1031000022461EEE100A2146CDF80090FFF7F9FC8A
:103110001EEE100A214608F0F0FC40461EEE101A82
:1031200007F0C2FA1EEE900A16A9ADF858A009F0F1
:103130008CF94B462C221EEE900A2146CDF80090C9
:10314000FFF7DFFC1EEE900A214608F0D6FC404651
:103150001EEE901A07F0A8FA1FEE100A16A9ADF895
:1031600058A009F072F94B4643221FEE100A00974F
:103170002146FFF7C6FC1FEE100A214608F0BDFCF1
:1031800040461FEE101A07F08FFA1FEE900A16A99C
:10319000ADF858A009F059F94B465A221FEE900A93
:1031A00000972146FFF7ADFC1FEE900A214608F07C
:1031B000A4FC40461FEE901A07F076FA41463046CE
:1031C0004FF02C0807F070FA4B466FF02D02029872
:1031D000CDF800806FF04301FFF793FC0398ADF842
:1031E00058A016A909F031F94B4622460398CDF8AC
:1031F00000902146FFF785FC0398214608F07DFCEE
:10320000DDE9020107F050FA0498ADF858A016A9BC
:1032100009F01BF94B4616220498CDF80090214680
:10322000FFF76FFC0498214608F067FC04990298A8
:1032300007F03AFA0299304607F036FA442348225A
:1032400019EE100A6FF04E01CDF800904FF0050B0B
:10325000FFF757FC0598ADF858B016A909F0F5F836
:103260004B4622460598CDF800904146FFF749FCB1
:103270000598214608F041FC059919EE100A07F05F
:1032800013FA0698ADF858B016A909F0DEF84B46C7
:1032900022460698CDF800901621FFF732FC0698DA
:1032A000214608F02AFC069919EE100A07F0FCF9ED
:1032B0000798ADF858B016A909F0C7F84B46224652
:1032C0000798CDF800902146FFF71BFC0798214690
:1032D00008F013FC079919EE100A07F0E5F919EE4A
:1032E000101A304607F0E0F95A236F2218EE900AC0
:1032F0006FF06501CDF80090FFF703FC0898ADF87A
:1033000058B016A909F0A1F84B4622460898CDF806
:1033100000904146FFF7F5FB0898214608F0EDFBC9
:10332000089918EE900A07F0BFF90998ADF858B05F
:1033300016A909F08AF83B4622460998CDF8009074
:103340004221FFF7DEFB0998214608F0D6FB0999D8
:1033500018EE900A07F0A8F90A98ADF858B016A927
:1033600009F073F84B4622460A98CDF800901621D2
:10337000FFF7C7FB0A98214608F0BFFB0A9918EE31
:10338000900A07F091F90B98ADF858B016A909F01A
:103390005CF84B4622460B98CDF800902146FFF78B
:1033A000B0FB0B98214608F0A8FB0B9918EE900A89
:1033B00007F07AF918EE901A304607F075F9712384
:1033C000952218EE100A6FF07A01CDF80090FFF701
:1033D00098FB0C98ADF858B016A909F036F84B4692
:1033E00022460C98CDF800904146FFF78AFB0C98D6
:1033F000214608F082FB0C9918EE100A07F054F9E8
:103400000D98ADF858B016A909F01FF83B462246B2
:103410000D98CDF800904221FFF773FB0D982146DF
:1034200008F06BFB0D9918EE100A07F03DF90E98A5
:10343000ADF858B016A909F008F83B4622460E9898
:10344000CDF800905A21FFF75CFB0E98214608F05A
:1034500054FB0E9918EE100A07F026F90F98ADF8F4
:1034600058B016A908F0F1FF4B4622460F98CDF848
:1034700000901621FFF745FB0F98214608F03DFB11
:103480000F9918EE100A07F00FF91098ADF858B020
:1034900016A908F0DAFF4B4622461098CDF80090A6
:1034A0002146FFF72EFB1098214608F026FB1099C5
:1034B00018EE100A07F0F8F818EE101A304607F068
:1034C000F3F8434653221198CDF800900621FFF7F8
:1034D00018FB1298ADF858B016A908F0B6FF4B4685
:1034E00022461298CDF800901621FFF70AFB129899
:1034F000214608F002FBDDE9110107F0D5F8139829
:10350000ADF858B016A908F0A0FF4B462246139814
:10351000CDF800902146FFF7F4FA1398214608F001
:10352000ECFA1399119807F0BFF81199304607F09B
:10353000BBF819EE900A36220621FFF7D5FA2E4B7A
:10354000C5F824374FF0FF33C5F834372B4BA5F8B7
:1035500028471B68C5F83047C5F8384705F26C772F
:103560002BB9274B274A602127481BF05FFB274BCD
:103570001B88032B03D8264B224A6121F4E7254BF5
:103580000321186801F0CEF8234A03463221384659
:103590000DF08AFD19EE900AC5F83C7708F0A6FDFB
:1035A0001E4B169319EE900A16A9ADF85CA008F010
:1035B000BDFD19EE901A304607F076F814980E23E8
:1035C00016A9ADF8583008F040FF06222023114616
:1035D00014980093E523FFF794FA1498214608F015
:1035E0008CFA3046149907F05FF8284619B0BDEC04
:1035F000108BBDE8F08F00BFA83414FFC840012035
:10360000300D0208320E0208AD0D0208CC40012038
:10361000F40D0208D44001206A0E02080C070208CB
:10362000406A7047806A704770478B88C0690A6833
:10363000DB0A50F823001044704710B5C2B1137B69
:10364000B3B1547BD27A240204F4E0641443026AD6
:1036500098B202EB840213888B4202D192F90200E5
:1036600010BD05D8013880B204320028F3D1F7E745
:103670000020F5E710B52C2104461BF027FA204660
:1036800010BD000030B58BB00446BDF86050089501
:10369000BDF85C5007959DF8505006959DF84C502C
:1036A00005959DF8485004959DF8445003959DF864
:1036B000405002959DF83C500195BDF8385000955A
:1036C0000BF038FE064B2360159BE361169B2362CB
:1036D000199B63621A9BA36220460BB030BD00BFEA
:1036E0003C0F020870477047704730B4C2684468A6
:1036F0005510034604EB6200D20748BF62599B682D
:1037000030BC48BFD358184743682BB183682BB9E6
:10371000C06800F0010070471846704701207047EC
:1037200010B5102104461BF0D1F9204610BD10B58C
:103730004FF4D07104461BF0C9F9204610BD00F5C6
:10374000A470884208B505D10AF0D0FCBDE8084055
:10375000FEF786BF08BD0000002310B5C0E90133A5
:10376000C0E90333C0E90733C0E905334FF4807380
:103770008384064B03600B88C384FF23044680F8D0
:10378000283008F062FE204610BD00BFD8150208A0
:103790001A4B73B51B88018F8B4206462AD9184BEA
:1037A0001B682BB9174B184A18486C211BF03EFABE
:1037B00013F81120164B1B6853F82250154B18684C
:1037C00000F0B0FF2B6801909B6B284698472B6850
:1037D00001999B6C0446284698472B6801995B6ABF
:1037E00014FB00F428469847A4B20444A6F84640C7
:1037F00002B070BD0023A0F84630F9E7CC400120AC
:10380000C8400120300D0208720D0208AD0D0208FB
:10381000D0400120D44001202DE9F04F2DED028B46
:10382000044685B0A04600250BF0A0FF654BE5637C
:1038300048F8403B4046FFF783F904F16C03184613
:1038400004F1980B08EE903A4FF6FF76FFF778F9FF
:1038500004F1C40A03A9584604F1F009ADF80C605C
:10386000FFF77AFF03A95046ADF80C60FFF774FF2D
:1038700003A94846ADF80C60FFF76EFF04F58E73A0
:1038800004F5A47703A9184608EE103AADF80C60C9
:10389000FFF762FF384608F00FFF4B4BC4E9643472
:1038A0004A4BC4E966354FF4A0732A460093294673
:1038B0004046F023261DFFF724F94FF07F43A3660F
:1038C0004146304606F0F0FE4FF4A0732A4618EE4B
:1038D000900A00932946F023FFF713F94FF07F4336
:1038E000C4F8943018EE901A304606F0DDFE30220F
:1038F00058460A21FFF7F8F8012303A95846ADF806
:103900000C3008F0A2FD5946304606F0CDFE0E22DE
:103910005046B621FFF7E8F80B2303A95046ADF84F
:103920000C3008F092FD5146304606F0BDFE642290
:1039300048465421FFF7D8F80C230DEB0301484605
:10394000ADF80C3008F081FD4946304606F0ACFE7B
:10395000892218EE100A0921FFF7C6F80D2318EE88
:10396000100A03A9ADF80C3008F06FFD18EE101A1C
:10397000304606F099FE3846D0222121FFF7B4F8F0
:1039800003AA02A93846ADF80850ADF80C5008F06B
:103990002AFC0523A4F880313846FFF7F9FE4FF0E2
:1039A000FF33C4E9613304F5C8733046C4F870319D
:1039B000394606F079FE204605B0BDEC028BBDE825
:1039C000F08F00BFB40F02089C0F02083F370008B9
:1039D0007047704710B540F24C7104461BF076F802
:1039E000204610BD2DE9F04F2DED108B054699B006
:1039F000AA4600240BF0BAFEDF4BEC634AF8403BCA
:103A00005046FFF79DF805F16C0305F1980918463B
:103A10004FF6FF761593FFF793F817A94846ADF8D0
:103A20005C6008F0AFF805F1C403184609EE903A5F
:103A3000FFF77AF805F1F00317A918460AEE103AD5
:103A4000ADF85C6008F09EF805F58E7305F5A47777
:103A500017A918460AEE903AADF85C6008F092F8A3
:103A60003846FFF761F805F5BA7317A918460BEE4B
:103A7000103AADF85C6008F085F805F5D07317A929
:103A800018460BEE903AADF85C6008F07BF805F54F
:103A9000E67317A918460CEE103AADF85C6008F012
:103AA00071F805F5FC7317A918460CEE903AADF8BD
:103AB0005C6008F067F805F5097305F5147817A937
:103AC00018460DEE103AADF85C6008F05BF8404621
:103AD000FFF72AF805F51F7317A918460DEE903A5F
:103AE000ADF85C6008F04EF805F52A7317A9184682
:103AF0000EEE103AADF85C6008F044F805F5357349
:103B000017A918460EEE903AADF85C6008F03AF846
:103B100005F5407317A918460FEE103AADF85C6032
:103B200008F030F805F54B73184608EE903AFEF7AA
:103B3000FBFF05F5567317A918460FEE903AADF83E
:103B40005C6008F01FF805F5617317A91846029329
:103B5000ADF85C6008F016F805F56C7317A9184607
:103B60000393ADF85C6008F00DF805F5777318461F
:103B70000493FEF7D9FF05F5816317A9184605934D
:103B8000ADF85C6007F0FEFF05F2344305F58C6B81
:103B900017A918460693ADF85C6007F0F3FF584686
:103BA000FEF7C2FF05F28C4317A918460793ADF83C
:103BB0005C6007F0E7FF05F5976317A918460893BF
:103BC000ADF85C6007F0DEFF05F2E44317A9184684
:103BD0000993ADF85C6007F0D5FF05F5A26317A95E
:103BE00018460A93ADF85C6007F0CCFF05F23C5331
:103BF00017A918460B93ADF85C6007F0C3FF05F5F5
:103C0000AD63184608EE103AFEF78EFF05F29453A6
:103C100017A918460C93ADF85C6007F0B3FF05F5E3
:103C2000B86317A918460D93ADF85C6007F0AAFFBA
:103C300005F2EC5317A918460E93ADF85C6007F037
:103C4000A1FF05F5C36317A918460F93ADF85C6093
:103C500007F098FF05F24463184609EE103AFEF7A4
:103C600063FF05F5CE6317A918461093ADF85C60A5
:103C700007F088FF05F29C6317A918461193ADF869
:103C80005C6007F07FFF05F5D96317A9184612930A
:103C9000ADF85C6007F076FF05F2F46317A91846EB
:103CA0001393ADF85C6007F06DFF05F5E46317A9A9
:103CB00018461493ADF85C6007F064FF4FF4A073EE
:103CC0002246009321465046F0232E1DFEF719FF91
:103CD0004FF07F43AB665146304606F0E5FC4FF4AB
:103CE000A0732246159800932146F023FEF709FFA2
:103CF0004FF0FF331599C5F89430304606F0D4FCE8
:103D0000032317A94846ADF85C3008F09EFBE62374
:103D10000093532248460521FEF7F3FE214648460C
:103D200007F0EBFE494630464FF0170906F0BCFCA1
:103D300019EE900A2C232622CDF800906FF037015F
:103D40004FF0050AFEF7DDFE1AEE100A17A9ADF8CE
:103D50005CA008F07AFB4B4622461AEE100ACDF81A
:103D600000901621FEF7CDFE1AEE100A214607F04C
:103D7000C4FE1AEE101A01E0E80F020819EE900ACC
:103D800006F092FC1AEE900A17A9ADF85CA008F0B4
:103D90005CFB4B4622461AEE900A2146CDF8009075
:103DA000FEF7AFFE1AEE900A214607F0A6FE1AEEC5
:103DB000901A19EE900A06F077FC19EE901A304628
:103DC00006F072FC712395223846CDF800906FF012
:103DD0007A01FEF796FE1BEE100A17A9ADF85CA05B
:103DE00008F033FB4B4622461BEE100ACDF800903C
:103DF0002C21FEF786FE1BEE100A214607F07DFE01
:103E00001BEE101A384606F04FFC1BEE900A17A95D
:103E1000ADF85CA008F019FB224619231BEE900AAE
:103E2000CDF800904221FEF76CFE1BEE900A214671
:103E300007F063FE1BEE901A384606F035FC1CEEC8
:103E4000100A17A9ADF85CA008F0FFFA2246192362
:103E50001CEE100ACDF800905A21FEF752FE1CEE1F
:103E6000100A214607F049FE1CEE101A384606F0EB
:103E70001BFC1CEE900A17A9ADF85CA008F0E5FA4F
:103E80004B4622461CEE900ACDF800901621FEF714
:103E900038FE1CEE900A214607F02FFE1CEE901A09
:103EA000384606F001FC1DEE100A17A9ADF85CA01B
:103EB00008F0CBFA4B4622461DEE100A2146CDF8FB
:103EC0000090FEF71EFE1DEE100A214607F015FEBB
:103ED0001DEE101A384606F0E7FB3946304606F06C
:103EE000E3FB5A236F224046CDF800906FF0650146
:103EF000FEF707FE1DEE900A17A9ADF85CA008F0CA
:103F0000A4FA4B4622461DEE900ACDF800902C21D3
:103F1000FEF7F7FD1DEE900A214607F0EEFD1DEEBF
:103F2000901A404606F0C0FB1EEE100A17A9ADF825
:103F30005CA008F08AFA224619231EEE100ACDF87A
:103F400000904221FEF7DDFD1EEE100A214607F02B
:103F5000D4FD1EEE101A404606F0A6FB1EEE900A97
:103F600017A9ADF85CA008F070FA4B4622461EEE89
:103F7000900ACDF800901621FEF7C3FD1EEE900AC0
:103F8000214607F0BAFD1EEE901A404606F08CFB63
:103F90001FEE100A17A9ADF85CA008F056FA4B46C0
:103FA00022461FEE100A2146CDF80090FEF7A9FD2B
:103FB0001FEE100A214607F0A0FD1FEE101A404622
:103FC00006F072FB4146304606F06EFB18EE900A92
:103FD00044234822CDF800906FF04E01FEF791FD8A
:103FE0001FEE900A17A9ADF85CA008F02EFA4B4618
:103FF00022461FEE900ACDF800902C21FEF781FD9D
:104000001FEE900A214607F078FD1FEE901A18EE79
:10401000900A06F049FB0298ADF85CA017A908F0D9
:1040200014FA4B4622460298CDF800901621FEF76E
:1040300068FD0298214607F060FD029918EE900A8B
:1040400006F032FB0398ADF85CA017A908F0FDF963
:104050004B4622460398CDF800902146FEF751FDCD
:104060000398214607F049FD039918EE900A06F0DF
:104070001BFB4FF02C0818EE901A304606F014FB8C
:104080004B460498CDF800806FF02D026FF043018D
:104090000427FEF736FD0598ADF85C7017A908F007
:1040A000D4F94B4622460598CDF800902146FEF7FC
:1040B00028FD0598214607F020FDDDE9040106F002
:1040C000F3FA0698ADF85C7017A908F0BEF94B46F4
:1040D00016220698CDF800902146FEF712FD0698AC
:1040E000214607F00AFD0699049806F0DDFA0499C6
:1040F000304606F0D9FA712300936FF072024B46F6
:1041000058466FF08601FEF7FCFC0798ADF85C702E
:1041100017A908F09AF94B4616220798CDF8009097
:104120002146FEF7EEFC0798214607F0E6FC0799CA
:10413000584606F0B9FA0898ADF85C7017A908F06F
:1041400084F94B4622460898CDF800902146FEF7A8
:10415000D8FC0898214607F0D0FC0899584606F08C
:10416000A3FA0998ADF85C7017A908F06EF94B46F0
:1041700042460998CDF800902146FEF7C2FC099806
:10418000214607F0BAFC0999584606F08DFA0A98BC
:10419000ADF85C7017A908F058F9192343220A9862
:1041A000009321464B46FEF7ACFC0A98214607F0E7
:1041B000A4FC0A99584606F077FA0B98ADF85C70A3
:1041C00017A908F042F919235A220B9800932146A7
:1041D0004B46FEF796FC0B98214607F08EFC0B9998
:1041E000584606F061FA5946304606F05DFA5A2301
:1041F00018EE100A00936FF05B024B466FF06601F9
:10420000FEF77FFC0C98ADF85C7017A908F01DF95B
:104210004B4616220C98CDF800902146FEF771FC13
:104220000C98214607F069FC0C9918EE100A06F06C
:104230003BFA0D98ADF85C7017A908F006F94B46EB
:1042400022460D98CDF800902146FEF75AFC0D98B5
:10425000214607F052FC0D9918EE100A06F024FAD8
:104260000E98ADF85C7017A908F0EFF84B4642467F
:104270000E98CDF800902146FEF743FC0E9821469B
:1042800007F03BFC0E9918EE100A06F00DFA0F9895
:10429000ADF85C7017A908F0D8F8192343220F98DD
:1042A000009321464B46FEF72CFC0F98214607F061
:1042B00024FC0F9918EE100A06F0F6F918EE101A01
:1042C000304606F0F1F9442319EE100A00936FF01E
:1042D00043024B466FF02101FEF713FC1098ADF836
:1042E0005C7017A908F0B1F84B4616221098CDF86B
:1042F00000902146FEF705FC1098214607F0FDFBD3
:10430000109919EE100A06F0CFF91198ADF85C700B
:1043100017A908F09AF84B4622461198CDF800905C
:104320002146FEF7EEFB1198214607F0E6FB1199B6
:1043300019EE100A06F0B8F91298ADF85C7017A9DA
:1043400008F083F842464B461298CDF8009021467B
:10435000FEF7D7FB1298214607F0CFFB129919EE12
:10436000100A06F0A1F919EE101A304606F09CF971
:104370001398092317A9ADF85C3008F066F80622F7
:104380002023114613980093E523FEF7BAFB1398F8
:10439000214607F0B2FB1399304606F085F91498D0
:1043A0000A2317A9ADF85C3008F04FF84B465422A9
:1043B0001498CDF800905146FEF7A3FB14982146BF
:1043C00007F09BFB3046149906F06EF9284619B0A9
:1043D000BDEC108BBDE8F08F7047000030B5174D75
:1043E0002C78BFF35B8F14F001048FB022D12846E4
:1043F0001AF06EFBF0B13F230993114B0893114B58
:1044000007930123CDE9053304930423CDE9024347
:104410000C230D4900935F220F23CDE90B440B4879
:104420000A940194FFF72EF909481AF01DFC28465A
:104430001AF05AFB05480FB030BD00BF30320020E3
:104440009036020874380208F43002083432002032
:10445000D94300087047000030B5174D2C78BFF3E2
:104460005B8F14F001048FB022D128461AF030FB84
:10447000F0B13F230993114B0893114B1149124896
:104480000A94CDE9064301220423CDE903321E2319
:10449000009305222523CDE90B44CDE90144059481
:1044A000FFF7F0F809481AF0DFFB28461AF01CFB6A
:1044B00005480FB030BD00BF6032002068380208E8
:1044C0007838020828360208643200205544000873
:1044D0007047000030B5164D2C78BFF35B8F14F099
:1044E00001048FB020D128461AF0F2FAE0B13F2340
:1044F0000993104B0893104B104911480A9401225C
:10450000CDE906430423CDE903320A230093CDE924
:104510000B44CDE901440594FFF7B4F809481AF0BB
:10452000A3FB28461AF0E0FA05480FB030BD00BFE3
:10453000903200206C3802087C380208703602087D
:1045400094320020D14400087047000030B5164D69
:104550002C78BFF35B8F14F001048FB020D1284674
:104560001AF0B6FAE0B13F230993104B0893104BB1
:10457000104911480A940122CDE906430423CDE9EC
:10458000033228230093CDE90B44CDE9014405947F
:10459000FFF778F809481AF067FB28461AF0A4FAE2
:1045A00005480FB030BD00BFC0320020703802088F
:1045B0008038020880360208C432002049450008CD
:1045C00000207047002070470EB403B503AB0021F4
:1045D00053F8042B01930AF0D5FC02B05DF804EB0C
:1045E00003B070470CB407B504AB53F8042B019328
:1045F0000AF0C8FC03B05DF804EB02B0704700009D
:10460000436C10B5044673B3038F2BB9184B194A8A
:10461000C52119481AF00AFBC38E00EB43035B8CDB
:104620000BB30BF098FF238F012B03D8134B144AC5
:10463000CB21EEE7E28E531C9BB2092B194688BFB3
:10464000A3F10A0104EB410140F63F10498C81427D
:1046500009D10A2B04EB420228BF002304EB4303D9
:10466000508C588451842046BDE810400BF076BE33
:10467000141002081D100208C810020812110208C6
:10468000201102080BF031BE10B586B002AC84E8F0
:1046900006001A460AAB05930193099B0093214635
:1046A000089B09F0A5F806B010BD000038B518BB8E
:1046B000124B13481B681349B3B11A689C681A441B
:1046C00002605A681A440A601C440F4B00221A8088
:1046D00000F038F8054600F033F80C4B1C600C4B2A
:1046E0001D600C4B188007E00B4B03600B4B0B60FD
:1046F0000B4B1C68002CE8D138BD00BFF032002005
:10470000F4320020F8320020FC320020C8400120A2
:10471000D0400120CC4001209C3802088438020897
:1047200044390208044B1B6853F82100034B1B68F3
:1047300003EB4000704700BFF8320020F432002045
:1047400006207047004870470033002010B5FFF77F
:1047500045FE064C2060FFF7F9FE6060FFF7BAFEE9
:10476000A060FFF779FEE06010BD00BF00330020BD
:10477000704710B54FF4AE7104461AF0A7F9204601
:1047800010BD10B50446D0F8580100F07FFB20465C
:10479000BDE8104009F02CBD10B50446FDF720FF20
:1047A000014B2360204610BDFC11020870470438FD
:1047B0007047704710B5102104461AF087F920465B
:1047C00010BDA0F10400F5E710B500228260044A94
:1047D000C16002F1080420320460426010BD00BFD5
:1047E000481202087047000010B5034B03600446EE
:1047F000FEF71CF9204610BD7812020810B50446D9
:10480000FFF7F2FF204640F678111AF05FF92046D4
:1048100010BD10B50C468168E4B04FF4C8720C317D
:1048200068461AF091FA4FF4C872694620461AF0A9
:104830008BFA64B010BD000010B50446FEF794F981
:10484000014B2360204610BD78120208F8B50646D9
:104850000D4600F5FD61C06B1F461446FFF7D9FFFA
:1048600096F8DE372BB1EB19092BCCBF00200120C5
:10487000F8BDE0190928F8E7F8B504460F4600F539
:10488000FD61C06B15461E46FFF7C3FF94F8DE07B7
:104890000A2170B901FB075104EB810403469E42D3
:1048A00018DBD4F8E827002A04F1280411DC0133CE
:1048B000F5E705F5FD7201FB072504EB85040023F0
:1048C0009E4206DB54F8042B002A01DC0133F7E793
:1048D0000020F8BD0120FCE710B50446FEF7A7F85C
:1048E00004F5CE62C4F8E02704F556720023C4F83C
:1048F000E4270122E06B84F8DE37A4F8DC27C4F853
:10490000D437C4F8D83784F8D03704F5FD61FFF701
:1049100080FF10BD2DE9F04FDFF8B0A1DFF8B091B6
:10492000DFF8B0815E4F5F4E87B000230446DAF8AF
:1049300000008DF8173003F030FF0546D9F800006D
:1049400003F02BFF0090D8F8000003F026FF019041
:10495000386803F022FF0290306803F01EFF524BCC
:104960000390186803F019FF94F8D037002B40F03B
:104970003082B4F9DC37013B032B21D8DFE803F0A8
:1049800002596571494B1B6804F26C7B2BB9484B8B
:10499000484A602148481AF049F9484B1B88032BC4
:1049A00003D8474B434A6121F4E70321454B18687C
:1049B000FFF7B8FE444A0346322158460CF074FB18
:1049C000002D00F0F2804FF0FF33DAF800000022F3
:1049D0000DF1170103F0B2FE9DF81730532B40F094
:1049E000C380B4F9DC37D4F8D827D4F8D4172046DC
:1049F000FFF742FF002800F0B780B4F9DC1794F805
:104A0000DE374D1C002B38D000230A208B4263DC9C
:104A1000E26BD2F808C0D4F8D82703EB020ED4F822
:104A2000D42700FB0E220CEB820C0133CCF80C5087
:104A3000ECE71E4B1B6804F26C7B002BA7D01F4BCE
:104A40001B88022BADD90221B0E7184B1B6804F27A
:104A50006C7B002B9BD0194B1B88012BA1D901210A
:104A6000A4E7124B1B6804F26C7B002B8FD0134B16
:104A70001B88002B95D0002198E74FF00A0C8B4241
:104A80002ADCE26BD4F8D807D2F808E0D4F8D427AF
:104A90000CFB00221A440EEB82020133D560EEE7D4
:104AA000782F00207C2F0020802F0020C84001207C
:104AB000300D0208320E0208AD0D0208CC40012074
:104AC000F40D0208D44001206A0E02086C2F002069
:104AD000702F0020742F0020012911D1002304F52C
:104AE0007775C4F8D437C4F8D8375322052128463F
:104AF000FDF7FAFF04F1C403C4F8E057C4F8E43743
:104B0000B4F9DC37022B11D1002304F28C45C4F830
:104B1000D437C4F8D837532205212846FDF7E4FFDF
:104B200004F5BA73C4F8E057C4F8E437B4F9DC37D5
:104B3000032B11D1002304F5AD65C4F8D437C4F8B4
:104B4000D837532205212846FDF7CEFF04F514730C
:104B5000C4F8E057C4F8E437B4F9DC37042B40F06C
:104B6000CD80012384F8D03794F8DE279DF81730E4
:104B7000002A40F0C9804C2B17D1D4F8D437D4F890
:104B8000E007013B002BC4F8D437BEBFB4F9DC37D3
:104B9000C3F10903C4F8D437D4F8D4171723594301
:104BA000036805311B6B09B29847009B33B34FF084
:104BB000FF330DF11701D9F80000002203F0BEFD0C
:104BC00094F8DE179DF81730002940F0AA80522B88
:104BD00014D1D4F8D437B4F9DC27D4F8E007013382
:104BE000C2F109029342D8BF1946C4F8D41717235B
:104BF0005943036805311B6B09B29847019B1BB3EE
:104C00004FF0FF330022D8F800000DF1170103F038
:104C100095FD94F8DE279DF81730002A40F091802A
:104C2000552B11D1D4F8D837D4F8E007013B48BF51
:104C30000923C4F8D837D4F8D81717235943036881
:104C400053315B6B09B29847029B03B34FF0FF33BC
:104C50000DF117013868002203F070FD94F8DE179B
:104C60009DF8173000297ED1442B10D1D4F8D837C5
:104C7000D4F8E0070133092BD8BF1946C4F8D81778
:104C800017235943036853315B6B09B29847039B61
:104C900073B34FF0FF33002230680DF1170103F0BA
:104CA0004DFD94F8DE279DF81730002A70D1412B76
:104CB0001ED1B4F9DC37D4F8D827D4F8D41720465D
:104CC000FFF7C4FDA0B1D4F8E037D4F8E407B3F996
:104CD0000620B3F90410FDF707FFD4F8E0076FF0E2
:104CE00043026FF01F01FDF7FFFE012384F8DE375A
:104CF000201D0AF071FA07B0BDE8F08F032BDCBF6E
:104D00000133A4F8DC372FE74C2B7FF44EAFD4F8F7
:104D1000D437D4F8E407013B48BF0923C4F8D4379B
:104D20003AE7522B7FF46AAFD4F8D437D4F8E407CB
:104D30000133092BC8BF0023C4F8D437D4F8D417E3
:104D400055E7552B80D1D4F8D837D4F8E407013B88
:104D5000002BC4F8D837BEBFB4F9DC37C3F1090360
:104D6000C4F8D83767E7442B91D1D4F8D837B4F9D1
:104D7000DC27D4F8E4070133C2F109029342C4F8F6
:104D8000D837C4BF0023C4F8D837D4F8D81777E78A
:104D9000412BADD1B4F9DC37D4F8D827D4F8D417E7
:104DA0002046FFF753FD0028A2D0D4F8E437D4F80A
:104DB000E007B3F90620B3F90410FDF795FED4F827
:104DC000E4076FF043026FF01F01FDF78DFE002333
:104DD0008CE7012B8CD109F089F9FDF751FC87E7AD
:104DE000704704387047704710B51021044619F019
:104DF0006DFE204610BDA0F10400F5E710B50022BD
:104E00008260044AC16002F10804203204604260FA
:104E100010BD00BFA41202087047000010B5034B7C
:104E200003600446FEF75EFC204610BDD412020863
:104E300010B50446FFF7F2FF20464FF4D07119F089
:104E400045FE204610BD000010B50446FEF7E4FC08
:104E5000014B2360204610BDD4120208FEF743BC6C
:104E6000094A38B503460446002592E8030043F892
:104E7000045B4FF4C87283E80300294604F10C0078
:104E800019F070FF204638BDBCFE0108704770471E
:104E900004387047704710B51021044619F016FE0B
:104EA000204610BDA0F10400F5E7000010B5002277
:104EB0008260044AC16002F108042032046042604A
:104EC00010BD00BF00130208704700002DE9F04F2D
:104ED000DFF880B1DFF880A1DFF88091DFF8808112
:104EE00085B000220446DBF800008DF80F2003F0A7
:104EF00054FC0190DAF8000003F04FFC0746D9F8A3
:104F0000000003F04AFC0646D8F8000003F045FC18
:104F10004E490546086803F040FC4D49086803F017
:104F20003CFC019B0022E3B14FF0FF33DBF80000B3
:104F30000DF10F0103F002FC9DF80F304C2B73D1E3
:104F400094F8DC38013B5BB2002BB8BF092384F82E
:104F5000DC3894F9DC181723052213FB0123A4F88D
:104F60002437EFB14FF0FF33DAF8000000220DF1E3
:104F70000F0103F0E3FB9DF80F30522B10D194F892
:104F8000DC3801335BB2092BC8BF002384F8DC385E
:104F900094F9DC181723052213FB0123A4F8243706
:104FA000EEB14FF0FF33D9F8000000220DF10F01F0
:104FB00003F0C4FB9DF80F30552B10D194F8DD3869
:104FC000013B5BB2002BB8BF092384F8DD3894F9AC
:104FD000DD181723532213FB0123A4F82637EDB164
:104FE0004FF0FF33D8F8000000220DF10F0103F05D
:104FF000A5FB9DF80F30442B10D194F8DD38013318
:105000005BB2092BC8BF002384F8DD3894F9DD18A2
:105010001723532213FB0123A4F82637201D0AF07F
:10502000DBF805B0BDE8F08F532B9AD194F9DD3849
:1050300094F9DC284FF4DC714B432C2101FB023343
:105040002344012283F805298BE700BF7C2F002031
:10505000802F00206C2F0020702F0020742F002044
:10506000782F0020094B70B50446036041F6E41523
:1050700040F6B406635960191B682C3D9847B54249
:10508000F8D12046FEF7A4FC204670BD3813020874
:1050900010B50446FFF7E6FF20464FF4DD5119F046
:1050A00015FD204610BD00002DE9F3410546FEF731
:1050B00099FC104B2B604FF4C872002105F24C7024
:1050C00019F050FE05F5D05605F50E6410364FF672
:1050D000FF7704F5DC78204601A92C34ADF8047084
:1050E00006F050FD4445F6D1B442F2D1284602B054
:1050F000BDE8F081381302082DE9F047ADF59C5D5D
:1051000086B091463D4A0DF6D414054688460DF604
:10511000DC10D11F206019F052FD07236360236863
:105120000022DA71214604A819F026FD204619F064
:1051300032FD04A819F022FD2060314821460122E9
:105140000B6883EA937300FB03230132B2F51C7FE3
:1051500041F8043FF4D16B46C4F8C029092100226C
:10516000C3E900210292012202AB4FF0280A5A60E3
:1051700021466846FBF7B0FA214606466846FBF72B
:10518000ABFA2146074602A8FBF7A6FA002800F072
:10519000010319460AFB06F2B8BF5942A3B101291F
:1051A000E6D106EB0903092BE2DC0A2303FB0673B5
:1051B00008EB830300224A4516DA0AFB02F018586E
:1051C0000028D5D10132F6E707EB09010929CFDC28
:1051D00002EB870242444B4505DA52F8041B0029D2
:1051E000C6D10133F7E700212846C5E90017AE60B4
:1051F0000DF59C5D06B0BDE8F08700BF2F130208D7
:105200006589076C2DE9F04F2DED028B0446E7B060
:10521000FEF7DFFB0023A4F8DC38E36B996804F5A4
:10522000D0554FF4C8720C3102A8103519F08CFD1E
:105230004FF4C87202A9284619F086FD022704F22D
:105240004C784FF00A0905263A46414602A8FFF776
:1052500053FF022FDDE90312029B7DD1002B69D0A1
:10526000012B17D109FB021304EB830304F57770BC
:10527000C3F84C7702FB09930B4404EB8303C3F898
:105280004C7717235A4359435332053112B209B2AE
:10529000FDF72AFC0137062FD6D1A14653260197E8
:1052A00033B208EE103A09F50E6BC846AA46052738
:1052B000D8F8E0285AF8041B126E002940F00C813F
:1052C0004FF00803ADF80830584602A9904739B2AC
:1052D000584618EE102AFDF707FCD8F8E028584683
:1052E000926B17219047D8F8E0285846D26B1721C7
:1052F0009047D8F8E0285846526E0021173790475B
:10530000BFB25946201D05F0CFF9EB2F08F12C084C
:105310000BF12C0BCCD11736B6B240F239139E42AA
:1053200005F1280509F5DC79BAD167B0BDEC028B2F
:10533000BDE8F08F09FB021304EB830017235A43E7
:10534000594353320531C0F84C77C0F8507712B248
:1053500009B204F1C4009BE7032F34D1FBB1012B48
:1053600098D109FB021304EB830304F24460C3F8F1
:105370004C7702FB09930B4404EB8303C3F84C778F
:10538000931C09FB031304EB8303C3F84C77172327
:105390005A4359435332053112B209B278E709FB37
:1053A000021304EB830017235A4359435332053148
:1053B000C0F84C77C0F85077C0F8547712B209B2F1
:1053C00004F54B7064E7042F3ED13BB3012B7FF40F
:1053D00061AF09FB021304EB830304F5AD60C3F86E
:1053E0004C7702FB09930B4404EB8303C3F84C771F
:1053F000931C09FB031304EB8303C3F84C77D31C02
:1054000009FB031304EB8303C3F84C7717235A43B8
:1054100059435332053112B209B239E709FB02137D
:1054200004EB830017235A43594353320531C0F824
:105430004C77C0F85077C0F85477C0F8587712B25C
:1054400009B204F5147023E773B3012B7FF422AF84
:1054500009FB021304EB830304F58C60C3F84C676B
:1054600002FB09930B4404EB8303C3F84C67931CC2
:1054700009FB031304EB8303C3F84C67D31C09FB3C
:10548000031304EB8303C3F84C67131D09FB0313D9
:1054900004EB8303C3F84C6717235A435943533231
:1054A000053112B209B2F3E609FB021304EB8300E3
:1054B00017235A43594353320531C0F84C67C0F89B
:1054C0005067C0F85467C0F85867C0F85C6712B2FC
:1054D00009B204F5A470DBE6019BF3E6F020704707
:1054E0004FF4A07070472920FCF7BCBA2820FCF7C5
:1054F000B9BA08B5FCF78AFACA20FCF7B3FAC32098
:10550000FCF794FA0820FCF791FA5020FCF78EFA89
:10551000CF20FCF7A7FA0020FCF788FAC120FCF79F
:1055200085FA3020FCF782FAED20FCF79BFA642024
:10553000FCF77CFA0320FCF779FA1220FCF776FAE4
:105540008120FCF773FAE820FCF78CFA8520FCF741
:105550006DFA0020FCF76AFA7820FCF767FACB2096
:10556000FCF780FA3920FCF761FA2C20FCF75EFA90
:105570000020FCF75BFA3420FCF758FA0220FCF715
:1055800055FAF720FCF76EFA2020FCF74FFAEA20D4
:10559000FCF768FA0020FCF749FA0020FCF746FA0D
:1055A000B120FCF75FFA0020FCF740FA1B20FCF763
:1055B0003DFAB620FCF756FA0A20FCF737FAA2208B
:1055C000FCF734FAC020FCF74DFA1020FCF72EFA55
:1055D000C120FCF747FA1020FCF728FAC520FCF799
:1055E00041FA4520FCF722FA1520FCF71FFAC720E4
:1055F000FCF738FA9020FCF719FA3620FCF732FA5B
:10560000C820FCF713FAF220FCF72CFA0020FCF774
:105610000DFAB020FCF726FAC220FCF707FAB620F4
:10562000FCF720FA0A20FCF701FAA720FCF7FEF9A4
:105630002720FCF7FBF90420FCF7F8F92A20FCF7F7
:1056400011FA0020FCF7F2F90020FCF7EFF9002036
:10565000FCF7ECF9EF20FCF7E9F92B20FCF702FA54
:105660000020FCF7E3F90020FCF7E0F90120FCF74B
:10567000DDF93F20FCF7DAF9F620FCF7F3F9012019
:10568000FCF7D4F90020FCF7D1F90620FCF7CEF99D
:105690002C20FCF7E7F9C820FCF732FA2620FCF7AB
:1056A000E1F90120FCF7C2F9E020FCF7DBF90F205B
:1056B000FCF7BCF92920FCF7B9F92420FCF7B6F96E
:1056C0000C20FCF7B3F90E20FCF7B0F90920FCF729
:1056D000ADF94E20FCF7AAF97820FCF7A7F93C2099
:1056E000FCF7A4F90920FCF7A1F91320FCF79EF9B7
:1056F0000520FCF79BF91720FCF798F91120FCF71F
:1057000095F90020FCF792F9E120FCF7ABF90020B5
:10571000FCF78CF91620FCF789F91B20FCF786F9B9
:105720000420FCF783F91120FCF780F90720FCF72F
:105730007DF93120FCF77AF93320FCF777F9422024
:10574000FCF774F90520FCF771F90C20FCF76EF9F1
:105750000A20FCF76BF92820FCF768F92F20FCF7EA
:1057600065F90F20FCF762F91120FCF77BF9C820DE
:10577000FCF7C6F92920FCF775F9BDE808402C2094
:10578000FCF770B908B5FCF741F90321D320FCF709
:1057900085F980B208BD10B5C4B2022203212046AB
:1057A000FCF7EAF80A20FCF72FF920460022032133
:1057B000FCF7E2F8BDE810400220FCF725B938B547
:1057C0000446E4B2FCF7D6F800212046FCF7ECF8DA
:1057D000012105462046FCF7E7F840EA052080B2A3
:1057E00038BD10B5C4B240212046FCF7DDF80306F1
:1057F00007D54C212046FCF7D7F8003818BF012008
:1058000010BD01224B212046FCF7B6F820460022AD
:105810004B21FCF7B1F80020F2E773B50423C4B2C2
:105820000E461546D7210DEB03022046FCF7D6F8AD
:10583000019B1BBA1A0DC3F30B23328020462B8029
:1058400001224B21FCF798F800224B212046FCF75F
:1058500093F802B070BD000010B50A4B1A78904260
:1058600004460DD0597888420AD00AB141B90122C4
:105870009C54FCF77FF82046BDE81040FFF78BBF33
:1058800010BD00BF1033002010B5C4B2092120465E
:10589000FCF78AF840F00100C2B209212046BDE8B9
:1058A0001040FCF769B810B5C4B209212046FCF7D6
:1058B0007BF8092100F0FE022046BDE81040FCF70D
:1058C0005BB838B5C4B20D4620460A21FCF76CF827
:1058D0002843C2B20A212046BDE83840FCF74CB844
:1058E00007B50190FCF747F801981F21FFF7E9FF82
:1058F000019803B05DF804EBFFF7C6BF38B5C4B23A
:105900000D4620460A21FCF74FF820EA0500C2B2F6
:105910000A212046BDE83840FCF72EB810B50446F1
:10592000FFF7C1FF20461F21BDE81040FFF7E6BF8B
:1059300010B5C0B20C460B21FCF736F8204010BD64
:105940001F21FFF7F5BF0A46C0B20B21FCF714B8C0
:105950001F21FFF7F8BF38B5C4B20D462046172106
:10596000FCF722F820EA0500C2B217212046BDE864
:105970003840FCF701B870B5C4B206460421204691
:10598000FCF712F8042100F0FB0205462046FBF765
:10599000F3FF3046F021FFF7DEFF05F0F802204666
:1059A0000421FBF7E9FF492220212046FBF7E4FF11
:1059B0000220FCF729F8204601222121FBF7DCFF19
:1059C00020469A224121FBF7D7FF204601224A2197
:1059D000FBF7D2FF204601224B21FBF7CDFF2046EB
:1059E00000224B21FBF7C8FF204601225621FBF77E
:1059F000C3FF204601225821FBF7BEFF20460122AB
:105A00004021FBF7B9FF2046FF220B21FBF7B4FF33
:105A1000BDE870400220FBF7F7BF0000054BD3F84C
:105A2000882042F47002C3F888204FF000629A6028
:105A3000704700BF00ED00E008B50B4B1A6842F458
:105A400000721A601A6842F480621A601A6842F49E
:105A500080721A60032000F02FF80020FCF71AFB78
:105A6000FCF75CF8002008BD003C0240034A044BF0
:105A700011681B780B441360704700BF143300207B
:105A800078000020014B1868704700BF14330020D5
:105A900038B50446FFF7F6FF631C1CBF054B1B78A7
:105AA000054618BFE418FFF7EDFF431BA342FAD3E6
:105AB00038BD00BF780000200749CA6822F4E062C0
:105AC0000302120403F4E063120C134343F0BF63B8
:105AD00043F40033CB60704700ED00E0164B30B567
