:020000040800F2
:100000000000032095050008992000089B200008A7
:100010009D2000089F200008A1200008000000008B
:10002000000000000000000000000000616D0008FA
:10003000A320000800000000F16D000867660008BA
:10004000E5050008E5050008E5050008E5050008E8
:10005000E5050008E5050008E5050008E5050008D8
:10006000E5050008E5050008E5050008E5050008C8
:10007000E5050008E5050008E5050008E5050008B8
:10008000E5050008E5050008E5050008E5050008A8
:10009000E5050008E5050008E5050008E505000898
:1000A000E5050008E5050008E5050008E505000888
:1000B000E5050008E5050008E5050008E505000878
:1000C000E5050008E5050008E5050008E505000868
:1000D000E5050008A5200008E5050008E50500087D
:1000E000E5050008E5050008E5050008E505000848
:1000F000E5050008E5050008E5050008E505000838
:10010000E5050008E5050008E5050008E505000827
:10011000E5050008B1200008BD200008E50500083D
:10012000E5050008E5050008E5050008E505000807
:10013000E5050008E5050008E5050008E5050008F7
:10014000E5050008E5050008E5050008E5050008E7
:10015000E5050008E5050008E5050008E5050008D7
:10016000E5050008E5050008E5050008E5050008C7
:10017000E5050008E5050008E505000800000000A9
:10018000E5050008E5050008E5050008E5050008A7
:10019000E5050008E5050008E5050008E505000897
:0C01A000C9200008E5050008D520000873
:1001B00010B5054C237833B9044B13B10448AFF3A1
:1001C00000800123237010BD6C010020000000009E
:1001D000A8C5010808B5034B1BB103490348AFF399
:1001E000008008BD0000000070010020A8C50108C3
:1001F00001F0FF01102A2BDB10F0070F08D010F8D8
:10020000013B013A8B422DD010F0070F42B3F6D1DB
:10021000F0B441EA012141EA014122F007047FF0F4
:1002200000070023F0E80256083C85EA010586EA4B
:10023000010685FA47F5A3FA87F586FA47F6A5FA87
:1002400087F68EB9EED1F0BC01F0FF0102F0070293
:1002500032B110F8013B013A83EA010313B1F8D13E
:100260000020704701387047002D06BF354603381F
:10027000073815F0010F07D1013015F4807F02BF58
:10028000013015F4C03F0130F0BC0138704700BFA9
:1002900053B94AB9002908BF00281CBF4FF0FF31ED
:1002A0004FF0FF3000F074B9ADF1080C6DE904CEE9
:1002B00000F006F8DDF804E0DDE9022304B0704741
:1002C0002DE9F047089D04468E46002B4DD18A4209
:1002D000944669D9B2FA82F252B101FA02F3C2F13C
:1002E000200120FA01F10CFA02FC41EA030E9440CD
:1002F0004FEA1C48210CBEFBF8F61FFA8CF708FBEE
:1003000016E341EA034306FB07F199420AD91CEBC5
:10031000030306F1FF3080F01F81994240F21C81F7
:10032000023E63445B1AA4B2B3FBF8F008FB10333F
:1003300044EA034400FB07F7A7420AD91CEB040474
:1003400000F1FF3380F00A81A74240F20781644444
:10035000023840EA0640E41B00261DB1D4400023C9
:10036000C5E900433146BDE8F0878B4209D9002D2D
:1003700000F0EF800026C5E9000130463146BDE8B7
:10038000F087B3FA83F6002E4AD18B4202D3824221
:1003900000F2F980841A61EB030301209E46002DD0
:1003A000E0D0C5E9004EDDE702B9FFDEB2FA82F225
:1003B000002A40F09280A1EB0C014FEA1C471FFA83
:1003C0008CFE0126200CB1FBF7F307FB131140EA6A
:1003D00001410EFB03F0884208D91CEB010103F137
:1003E000FF3802D2884200F2CB804346091AA4B2F9
:1003F000B1FBF7F007FB101144EA01440EFB00FECD
:10040000A64508D91CEB040400F1FF3102D2A64531
:1004100000F2BB800846A4EB0E0440EA03409CE7D0
:10042000C6F12007B34022FA07FC4CEA030C20FA7D
:1004300007F401FA06F31C43F9404FEA1C4900FA9D
:1004400006F3B1FBF9F8200C1FFA8CFE09FB18111A
:1004500040EA014108FB0EF0884202FA06F20BD98D
:100460001CEB010108F1FF3A80F08880884240F2DD
:100470008580A8F102086144091AA4B2B1FBF9F021
:1004800009FB101144EA014100FB0EFE8E4508D91C
:100490001CEB010100F1FF346CD28E456AD90238A1
:1004A000614440EA0840A0FB0294A1EB0E01A14286
:1004B000C846A64656D353D05DB1B3EB080261EBF4
:1004C0000E0101FA07F722FA06F3F1401F43C5E9CE
:1004D000007100263146BDE8F087C2F12003D84004
:1004E0000CFA02FC21FA03F3914001434FEA1C4746
:1004F0001FFA8CFEB3FBF7F007FB10360B0C43EA38
:10050000064300FB0EF69E4204FA02F408D91CEBE7
:10051000030300F1FF382FD29E422DD902386344E5
:100520009B1B89B2B3FBF7F607FB163341EA034185
:1005300006FB0EF38B4208D91CEB010106F1FF38D4
:1005400016D28B4214D9023E6144C91A46EA0046CB
:1005500038E72E46284605E70646E3E61846F8E65D
:100560004B45A9D2B9EB020864EB0C0E0138A3E7A6
:100570004646EAE7204694E74046D1E7D0467BE787
:10058000023B614432E7304609E76444023842E7FF
:10059000704700BFDFF834D0002103E00C4B5B58FC
:1005A000435004310B480C4B42189A42F6D30B4A85
:1005B00002E0002342F8043B094B9A42F9D303F0CE
:1005C00059FB1AF08BFF00F07BFF704700000320FF
:1005D00054611408000000206C0100206C01002010
:1005E00034350120FEE7704708B500F02BFDBDE86B
:1005F000084000F0B7BC00F027BD704710B50421DB
:1006000004461AF0F2FE204610BD000038B50C4B2F
:100610000C4C18800C4B822019806368984740F678
:10062000110398420AD1094D23682C608220984713
:100630002B688220DB689847002038BD0120FCE74A
:10064000880100204C0000208A0100208C0100203D
:100650004FF4A071F020FFF7D9BF0000F7B5344D7B
:100660002B6804461B698220984780B220800028AE
:100670004CD02B680DF106025B6901A982209847D6
:10068000BDF8063040F67462934241D9ADF80620B9
:10069000BDF80620C2F56762043292B20A2A3DD93B
:1006A0000B23B2FBF3F2234B1B889A4201D9013B87
:1006B0009AB2BDF8043040F6B8318B4230D8C3F559
:1006C00071630E339BB20F21B3FBF1F31A49098812
:1006D0008B4201D94B1E9BB2184E194D30682F68C2
:1006E000834281B28CBF591AC91AB8B2BA428CBFC0
:1006F000101A801A89B280B201440529C8BF33603C
:100700003368C8BF2A6063802B68A38003B0F0BD44
:10071000B32B9CBFB423ADF80630B9E70022C8E77D
:10072000C3F56D6308339BB20E2BCCD80023D3E7FF
:100730008C0100208A010020880100209001002007
:100740009401002037B568460D461446FFF786FF32
:10075000BDF8000030B1BDF802302B60BDF80430A8
:100760002360012003B030BD032821D8DFE800F06A
:10077000020B12190F4B1A68B2FA82F252090421C5
:100780000D4803F065BD0B4B5A68B2FA82F252096C
:100790000821F5E7074B9A68B2FA82F25209102154
:1007A000EEE7044BDA68B2FA82F252092021E7E759
:1007B000704700BF9801002000100240032821D894
:1007C000DFE800F0020B12190F4B1A68003A18BF4D
:1007D000012204210D4803F03BBD0B4B5A68003A3F
:1007E00018BF01220821F5E7074B9A68003A18BFA5
:1007F00001221021EEE7044BDA68003A18BF01220B
:100800002021E7E7704700BF980100200010024058
:1008100003280DD8DFE800F00206080A0421054885
:1008200003F01BBD0821FAE71021F8E72021F6E7C5
:10083000704700BF0010024008B5032811D8DFE858
:1008400000F0020A0C0E0421074803F0FBFC431ED3
:100850005842584108BD0821F6E71021F4E720214D
:10086000F2E70020F3E700BF0010024070B5084D2A
:1008700000240126E0B2FFF7DFFF18B12B68012B3F
:1008800018BF2E600134052C05F10405F2D170BDAE
:1008900098010020012380F8781080F879307047A3
:1008A00000207047034B4164003918BF01211970C3
:1008B000704700BF3F2A012000207047836B0BB1B7
:1008C0000846184770474FF6FF7070474068036846
:1008D0009B691847704770477047000070B5044621
:1008E00000F080FC2368D3F88850044BD4E90F1241
:1008F0002046AC46BDE87040604700BF000000D015
:1009000008B503680446D3F880309847236820462A
:100910009B6F984700F0ECF8236820461B6F9847C0
:10092000292001F051F800F0E3F8236820461B6FFE
:100930009847F8E710B5044609F018F823682046F0
:10094000D3F8AC30BDE81040184700F03DBC00F0D3
:1009500041BC00F065BC00F013BC00F06DBC00F0C1
:1009600075BC00F017BC08F06DBA10B57C210446C8
:100970001AF03BFD204610BD90F87A301BB140685C
:1009800003681B68184718467047000010B590F8B8
:10099000341090F878400C4B8C421A7809D03AB950
:1009A0000A4A0B491488088810800C8001221A70AA
:1009B00010BD002AFCD0054A05491488088810801B
:1009C0000C800022F3E700BF382A0120342A0120DE
:1009D000362A012070B50D46194635B9094B0A4A29
:1009E0000A4840F2D2211AF02FFDC0E90F52084BFD
:1009F000003A18BF01221A700368BDE87040D3F8AE
:100A00008C30184718C6010850C601089EC6010858
:100A10003E2A012008B5094B1B888B4203D8084B9E
:100A20001B88934205D9074B074A08489E211AF0B4
:100A30000BFD074B1980074B1A8008BD342A012093
:100A4000362A0120E3C6010846C701089EC60108F0
:100A50003A2A01203C2A0120012108B5002208463B
:100A600005F08FFE0A4B186028B90A4B0A4A282164
:100A70000A481AF0E9FC00220421012005F027FFB2
:100A8000074B186018B9074B034A2C21F0E708BD43
:100A9000AC01002064C80108ADC80108DCC8010829
:100AA000A801002024C90108024B4FF0FF3118684B
:100AB00005F0B1BEAC010020014B186805F0D6BEB0
:100AC000AC010020024B0021186805F0A4BE00BF55
:100AD000AC010020FFF7F0BF034804490068002381
:100AE0001A4605F02FBF00BFA80100200400002017
:100AF00013B5084C00231A4601A9206805F052FFDF
:100B000020684FF0FF33002201A905F04BFF02B02F
:100B100010BD00BFA801002003685B6C18470120CE
:100B2000704703689B6A184782B0002301930D4BFE
:100B30001A6B42F400021A631A6B02F4000201926B
:100B4000019A1A6942F400021A611A6922F4000239
:100B50001A61054B054A1A61054B4FF080629A6095
:100B600002B07047003802408C190020B50B000815
:100B700000E100E040F2EF3070470000054B0360F9
:100B8000054B4FF08062C3F88820BFF34F8FBFF34F
:100B90006F8F7047BCCA010800E100E010B5044641
:100BA0004FF45A61FFF7EAFF20461AF01EFC204678
:100BB00010BD0000024B1B68586803685B6918474A
:100BC000402A012070B5044625460A4B0C30002609
:100BD00060602672667245F8203B6022294609F063
:100BE00003F804F55A63EE602435AB42FBD120468E
:100BF00070BD00BFBCCA010808B50B290BD8DFE8DF
:100C000001F01206100A0A0A0A080808080801205A
:100C100008BD0520FCE7054B054A064865211AF08A
:100C200013FC0020F4E70220F2E700BF66C90108C8
:100C300081C90108CBC9010808B50A2909D8DFE82C
:100C400001F010060E080808080606060600012036
:100C500008BD054B054A064886211AF0F5FB002021
:100C6000F6E70220F4E700BF66C9010811CA0108CF
:100C7000CBC901082DE9F8434F7F0C463946814620
:100C8000FFF7BAFF94F81E80054641464846FFF735
:100C9000B3FF414606464846FFF7CEFFA18A628B66
:100CA000424B521A1A649A61228B521A1A61E28AD2
:100CB000586342EA01425A6420696268D863DA6084
:100CC000216894F81CC080294FEA0C6226D010D805
:100CD000202945EA020461D040295FD004295DD073
:100CE000324B2A4342F400324745DA615AD0304A47
:100CF00040E0B1F5807F07D0B1F5007FF0D142F43C
:100D0000003242F0090203E042F4003242F00A02EB
:100D1000DA61E2681A625E6258612AE0A4682A43D6
:100D200042F40032211DD962DA6122785E62586194
:100D300042B1012A21D01F4B1F4A20484FF488712D
:100D40001AF082FBDA69618822F47F42013922F0CD
:100D5000100242EA0122DA610120144BDA6942F002
:100D60002002DA61DA699206FCD410229A60002827
:100D7000BDD0134A1A60BDE8F8836288D969541E51
:100D800021F47F4222F0100242EA0422BCF1FF006B
:100D900042F0100218BF0120DA61DEE744F40034AB
:100DA000DC61B8E740F20122E4E700BF00B0024096
:100DB000010201005CCA010876CA0108CBC901081A
:100DC0000102020070B50C46897FFFF735FFA68A45
:100DD000E18A628B154B2569586341EA0641921BF3
:100DE0005964DD631A642668E168082E0DD19A61A2
:100DF0001A615862207F0E4A42EA0062DA610D4AA7
:100E000019625D61DD601A6070BD0022D8611A61EF
:100E100048090A0A02F4784200F4FC600243C1F374
:100E2000C4010A439A63044AEDE700BF00B00240E0
:100E300009000100010202000102030001207047C5
:100E40000C2070470C2303FB0100083070470C2373
:100E500003FB0100083070470120704740F26C70BE
:100E6000704740F26C7303FB01000830704740F29A
:100E70006C7303FB0100083070470120704710209D
:100E8000704700EB01100830704700EB011008308C
:100E90007047084601F008BB10B5034B03600446D9
:100EA00007F025FD204610BD74CB010810B504469F
:100EB000FFF7F2FF204614211AF097FA204610BDE2
:100EC00010B5034B0360044607F011FD204610BD2A
:100ED00040CB010810B50446FFF7F2FF204640F270
:100EE00074711AF082FA204610BD000010B5034B51
:100EF0000360044607F0FBFC204610BD0CCB010844
:100F000010B50446FFF7F2FF204618211AF06DFADB
:100F1000204610BD10B5084B0360044600F5F46090
:100F2000FFF7BAFF04F12C00FFF7CAFF04F1140029
:100F3000FFF7DCFF204610BDA8CB010808B502482A
:100F4000FFF7E8FF08BD00BFB401002010B504465C
:100F5000FFF7E0FF204640F614111AF046FA20464B
:100F600010BD00002DE9F34101F028F9054601F01C
:100F700029F90024014623462846224600940CF015
:100F8000E7FD254B254A264D1A60204602F024F93C
:100F900024480CF045FD2B78BFF35B8FDB0735D47D
:100FA00028461AF024FA88B31F4C204B236004F51E
:100FB000F76604F1140004F12C0804F5F46760608E
:100FC000C4F80880E760266107F092FC184B636163
:100FD000404607F08DFC174BE362384607F088FC6B
:100FE000154BC4F8A03704F2B47002F09FFB224600
:100FF00004F2B471304602F053F9304601F054FA6D
:101000000E481AF03FFA28461AF0FDF90C4802B0D3
:10101000BDE8F041FFF762BC9C2A0120E8180020DF
:10102000B001002008000020B4010020A8CB010876
:101030000CCB010840CB010874CB01083D0F000820
:101040006C180020704700000148FFF759BC00BF32
:101050006C18002070B5224E224C234D234B236088
:101060003046FFF7AFFD284611F03EF8204B2148EF
:10107000DC6000224FF48071C3E912121E491A8607
:10108000C3E91A121D4999671D4983F858200B605E
:10109000F02101801B485A6601801B4883F87020AC
:1010A0004FF4A071C3E90422C3E90622C3E9082270
:1010B000C3E90A22C3E90E22C3E91022C3E91422BC
:1010C000C3E917225A67C3E9016501800F4801800F
:1010D0000F490A70012283F834200E4A1A6070BD4D
:1010E000CC0A0020C80A0020EC18002008C601081D
:1010F0006C180020342A01200100000100000101C9
:10110000402A01203A2A0120362A01203C2A0120C7
:10111000382A012094C701080148FFF72FBD00BFFE
:10112000CC0A00200020704781807047C180704742
:101130000181704741817047704770477047704721
:10114000704710B4C4880368121B84885B6D091B48
:1011500012B25DF8044B09B218474FF6FF73838152
:101160004FF0FF3303621368C3611060704790F85B
:1011700025201AB190F8242002B1186070470000B1
:10118000034B902283F85A2383F85823704700BFFB
:1011900000E100E0094A0A49D3680A48C3F30A0398
:1011A000013B9BB20B801169C1F30A010139018037
:1011B0001364536B43F001035363704700680140AD
:1011C0007219002070190020014BD3F8AC00704751
:1011D00000680140024B0122C3F8AC105A6270470C
:1011E0000068014070B5044607F081FE23685D6E1B
:1011F0000AF026F801462046A8472368054AD3F896
:1012000088502046AC460023BDE87040A2F5163158
:10121000604700BF00B004D007F050BE07F05ABED0
:1012200007F016BE07F077BF90F8252012B10368CB
:101230005B69184770470000034B4FF080629A606B
:101240004FF080729A60704700E100E0084B4FF069
:101250008062C3F88820BFF34F8FBFF36F8F4FF0CA
:101260008072C3F88820BFF34F8FBFF36F8F704732
:1012700000E100E010B5144C236823B3134B144A6B
:101280001B6C11888B4213D1124B198803F0C6FDD9
:10129000226892F86A30013382F86A30FFF71CFC4A
:1012A000206808F063FBBDE810400020FFF75CBA3F
:1012B00003F0B4FD206803681B6A9847BDE810403E
:1012C0000020FFF77BBA10BD402A012000680140D2
:1012D000721900207019002007B5064BADF8060002
:1012E0001B68054801220DF1060104F0F3FA03B072
:1012F0005DF804FB10000020FC1A0020F7B5464CF6
:10130000464D474F0221204602F09CFF01280FD195
:10131000444E4C2330688DF8073005F072FB0128ED
:1013200006D83068C82300220DF1070105F00AFB3A
:101330000421204602F086FF01280FD1394E5223A6
:1013400030688DF8073005F05CFB012806D830685E
:10135000C82300220DF1070105F0F4FA4FF4005103
:10136000284602F06FFF01280FD12E4E552330681A
:101370008DF8073005F045FB012806D83068C823F2
:1013800000220DF1070105F0DDFA4FF480412846F7
:1013900002F058FF01280FD1224E442330688DF807
:1013A000073005F02EFB012806D83068C82300223C
:1013B0000DF1070105F0C6FA0121204602F042FFB7
:1013C00001280FD1174E412330688DF8073005F002
:1013D00018FB012806D83068C82300220DF1070148
:1013E00005F0B0FA0221384602F02CFF01280FD197
:1013F0000C4E532330688DF8073005F002FB0128AE
:1014000006D83068C82300220DF1070105F09AFACA
:10141000642005F0AAF975E70000024000180240B8
:10142000000802407C19002030B595B01022002140
:101430000AA81AF095F81422002103A81AF090F8CF
:1014400000241D4B01941A6C42F080521A641B6CEC
:1014500003F080530193019B184B02941A6842F4E5
:1014600040421A601B6803F4404302930122029B2E
:101470004FF48033CDE9082302254FF48003CDE9F2
:101480000E5308214FF4A873CDE9101308A80423C4
:101490001393129503F0E0FC0F23CDE903354FF4CD
:1014A000A0504FF48053CDE90603052103A805940D
:1014B00003F0B0FE15B030BD0038024000700040AF
:1014C00080B59AB002F0E4FBFFF7AEFF14220021D2
:1014D0000DA800241AF044F8C44B00941A6BC448B9
:1014E000C44D42F010021A631A6B02F0100200920F
:1014F000009A01941A6B42F020021A631A6B02F0F0
:1015000020020192019A02941A6B42F080021A633F
:101510001A6B02F080020292029A03941A6B42F054
:1015200004021A631A6B02F004020392039A0494F1
:101530001A6B42F001021A631A6B02F00102049264
:10154000049A05941A6B42F002021A631A6B02F0B5
:1015500002020592059A06941A6B42F040021A6341
:101560001A6B02F040020692069A07941A6B42F038
:1015700008021A631B6B03F00803079322463C2101
:10158000079B02F065FE9C482246042102F060FEA3
:1015900022469A484FF4405102F05AFE01263C235D
:1015A0004FF003089248CDF840800DA90227CDE9FD
:1015B0000D360F9402F060FD8F480F940DA94FF087
:1015C000040ACDE90D7402F057FD8B480DA94FF0C8
:1015D0000709CDE90DA6CDE90F4702F04DFD88487A
:1015E0000F940DA9CDE90D9402F046FD4FF4405340
:1015F00082480DA9CDE90D36CDE90F4702F03CFD3B
:101600000DA94FF4C0437F480F94CDE90D3402F08B
:1016100033FD7D487D4B036002F0CCFB7C4A7D4B63
:101620002C62C5E9002328464FF48043C5E9043401
:10163000C5E90244C5E9064402F0F4FF102128463A
:1016400003F030FA2146284603F04BFA72487349FA
:1016500084624FF48273C0E900134FF400751823BD
:10166000C0E906530A236E4DC362C0E90244C0E9D3
:101670000444C0E9084404F0D1F86A4B13974FF0D2
:10168000100CC5E900364023C5E904C34FF4C0730C
:10169000C5E906344FF40063C5E908340DA94FF4D9
:1016A00000532846AB62C5E9024ACDE90D79CDE980
:1016B0000FA9CDE911874FF0080903F0AFFF4FF6EE
:1016C000FF7209A92846CDE90A96089409960C9458
:1016D00003F0C4FF304602F007FB4FF6FF7209A982
:1016E0002846CDE90979CDE90B6403F0B7FF4FF641
:1016F000FF7209A92846CDE90989CDE90BA403F0B9
:10170000ADFF4FF40C730893089B0C934FF6FF72D8
:1017100009A92846CDE909A90B9603F09FFF40F2DD
:101720006A51284603F0B8FF342221460DEB02002F
:1017300019F016FF3C4D3D4BAC86C5E9003409233A
:10174000C5E905361D2340F20D1EC5E9073840F2F4
:101750004313C5E909E3284640F2471340F217183E
:10176000C5E90B83C5E902442C6185F8364003F0D6
:101770005DFAFF21F022CDE912144FF4806A0521B1
:101780004FF4A073CDE90E24CDE914A1CDE91642A2
:101790000DA922462846CDE91037254D18930D9402
:1017A000ADF864408DF8664003F00BFB214B2B60D5
:1017B0001B6898472B68204DDB6898471F4BC5E98D
:1017C0000A47C5E90C442846C5E90034C5E9027456
:1017D00002F056FB3146284602F00AFC1848194B25
:1017E00004614FF4E1370C252EE000BF00380240C1
:1017F00000100240CC19002000080240000C0240FA
:10180000000002400018024084190020003002400D
:10181000005C0040A0860100FC1A0020005001403E
:10182000C81A0020400100A0201A002000680140D2
:1018300078190020140000208C19002000B002400C
:10184000541B002000100140C0E90037C0E90244E9
:10185000C0E90554C46104F085FC154B1548C0E986
:101860000037C0E90244C0E90445C0E9064404F079
:1018700079FCFEF7B9FEFEF7B6FE04F001FF0E4A52
:101880003146484605F023F80C4B0D4A18602146B6
:101890000C4804F021FF0C4B0C4A186021460C4800
:1018A00004F01AFF0B4B186004F0FCFEFEE700BFCB
:1018B00000500040981B0020F4CB01087C19002048
:1018C0000CCC0108FD12000880190020D0CB0108C3
:1018D000F705000874190020704770477FB5094B61
:1018E0008DF817201B6802930DF117020123009257
:1018F00001930A460146044802F03CFF07B05DF838
:1019000004FB00BF0C000020CC1900207FB5002391
:101910008DF81730084B1B6802930A4601230DF11E
:101920001701009101930146044802F0B3FF9DF8AE
:10193000170007B05DF804FB0C000020CC19002054
:101940001FB5084C24680092CDE901340A460123F2
:101950000146054802F09EFF003818BF012004B080
:1019600010BD00BF0C000020CC19002002F0BCB953
:1019700008B506480022042102F06AFCBDE80840D0
:1019800002480122042102F063BC00BF00080240AB
:1019900038B50B4D044601220A484FF4005102F0BD
:1019A00057FC00220421284602F052FC2046FFF793
:1019B00093FC28460122BDE83840042102F048BCCF
:1019C00000080240000C024038B50B4D04460022CE
:1019D0000A484FF4005102F03BFC00220421284643
:1019E00002F036FC2046FFF777FC28460122BDE8CE
:1019F0003840042102F02CBC00080240000C0240D8
:101A0000F7B5144E144F05460C463046002204210B
:101A100002F01EFC00224FF40051384602F018FC80
:101A20002846FFF759FC0D4B0D481B68224601A9BB
:101A300004F0F2F8384601224FF40051019C02F004
:101A400007FC30460122042102F002FC204603B0CC
:101A5000F0BD00BF00080240000C02401000002052
:101A6000FC1A002002F040B90268034B9A4201D1EF
:101A700002F028B9704700BF001000407047000016
:101A800082B00E4B00220092596C41F4804159649F
:101A9000596C01F48041009100990192196C41F058
:101AA000805119641B6C03F080530193019B0F213B
:101AB0006FF0010002B002F03DB900BF00380240F3
:101AC0000268094B9A4282B00BD100230193074B65
:101AD0001A6B42F480521A631B6B03F48053019318
:101AE000019B02B0704700BF003002400038024046
:101AF00007B50F4B02689A4216D10022A3F5F043B6
:101B00000192196B41F4000119631B6B03F400038C
:101B1000019305215A20019B02F00CF95A2003B0D1
:101B20005DF804EB02F038B903B05DF804FB00BFC8
:101B300000B002402DE9F043044689B01422002190
:101B400003A819F00DFD2268244B9A4243D1244C7E
:101B5000244800250095236B43F004032363236B83
:101B600003F004030093009B0195236B43F00103F2
:101B70002363236B03F001030193019B4FF01209D0
:101B80004FF400734FF001080327042603A9CDE9A1
:101B90000339CDE90587079602F06EFA4FF480739A
:101BA0001148079603A9CDE90339CDE9058702F06D
:101BB00063FA0295236C43F400032364236C03F45B
:101BC00000030293029B236A43F400032362236A07
:101BD00023F40003236209B0BDE8F083005C0040F9
:101BE000003802400008024000000240F0B599B001
:101BF00004461422002107A819F0B2FC30220DEB94
:101C00000200002119F0ACFC22685E4B9A4240F0C1
:101C1000B78008230C93C0231093042312930CA8BD
:101C20004FF40033159303F0CFFB08B1FFF726FF05
:101C3000554B5648002400945A6C42F080625A6416
:101C40005A6C02F080620092009A01941A6B42F082
:101C500020021A631A6B02F020020192019A029488
:101C60001A6B42F001021A631A6B02F0010202922F
:101C7000029A03941A6B42F002021A631A6B02F082
:101C800002020392039A04941A6B42F040021A6310
:101C90001A6B02F040020492049A05941A6B42F007
:101CA00004021A631A6B02F004020592059A069464
:101CB0001A6B42F008021A631B6B03F008030693C9
:101CC00002250E26069B0B964FF4806307A9CDE9EB
:101CD0000735CDE9094502F0CFF941F658032C4804
:101CE0000B9607A9CDE907350927CDE9094502F08B
:101CF000C3F9032327480B9707A9CDE90735CDE999
:101D0000094502F0B9F94FF4706322480B9607A910
:101D1000CDE90735CDE9094502F0AEF94FF40C6382
:101D20001D480B9607A9CDE90735CDE9094502F015
:101D3000A3F9C02319480B9607A9CDE90735CDE9CA
:101D4000094502F099F9082315480B9607A9CDE932
:101D50000735CDE9094502F08FF94FF4A0530E483D
:101D60000B9707A9CDE90735CDE9094502F084F9BC
:101D700058202246052101F0DDFF582002F00CF822
:101D800019B0F0BD00680140003802400014024064
:101D90000000024000040240001802400008024017
:101DA000000C024010B5044688B01422002103A89C
:101DB00019F0D6FB2268144B9A4223D103F56843ED
:101DC000002101915A6C114842F480125A645A6CF5
:101DD00002F480120192019A02911A6B42F02002E1
:101DE0001A631B6B03F020030293029B4FF4607293
:101DF00002230321CDE903230523CDE9061303A91B
:101E000002F03AF908B010BD005001400014024041
:101E1000F0B514228BB0044600210DEB020019F03E
:101E20009FFB2368384A934240D1384B38480024FE
:101E300000941A6C42F480121A641A6C02F4801234
:101E40000092009A01941A6B42F004021A631A6B12
:101E500002F004020192019A02941A6B42F0080205
:101E60001A631B6B03F008030293029B02274FF4D3
:101E700080530326082505A9CDE90537CDE9086576
:101E800002F0FAF804232348099505A9CDE905379E
:101E9000CDE9074602F0F0F835202246052101F091
:101EA00049FF352001F078FF0BB0F0BD1A4A93428C
:101EB000FAD1164B1948002403945A6C42F01002D0
:101EC0005A645A6C02F010020392039A04941A6B3B
:101ED00042F001021A631B6B03F0010304934FF4F9
:101EE000C062049B0223CDE9052303210723CDE92A
:101EF000081305A902F0C0F825202246052101F0AB
:101F000019FF2520CEE700BF0050004000380240F6
:101F100000080240000C0240001001400000024096
:101F20002DE9F04186B0002303932B4B1C68002C55
:101F30004FD14FF00108C3F80080284B00949A6BF2
:101F4000274842EA08029A639B6B03EA080300935E
:101F5000022703260C25009B01A94FF63F03CDE97C
:101F60000137CDE9046502F087F81E48059501A9FF
:101F7000CDE90187CDE9034602F07EF848F233133C
:101F80001948059501A9CDE90137CDE9034602F0CD
:101F900073F84FF683731548059501A9CDE901370C
:101FA000CDE9034602F068F84CF20373104805953A
:101FB00001A9CDE90137CDE9034602F05DF86023C0
:101FC0000C48059501A9CDE90137CDE9034602F09A
:101FD00053F806B0BDE8F081DC1B00200038024059
:101FE00000140240000802400018024000100240A5
:101FF000000C02400004024070B588B00023029338
:10200000204B1A6C42F010021A641B6C03F0100390
:102010000293054601A903A8029B03F0B7F9069BAA
:102020004BBB03F093F9184E184B336040F2E73383
:10203000F360174BB0FBF3F3013B736030460023B2
:102040003361B360B36103F0D3FF044680B9304617
:1020500003F088FE044658B9362001F09DFE0F2D8E
:102060000DD822462946362001F064FE094B1D603A
:10207000204608B070BD03F069F94000D3E70124A1
:10208000F6E700BF00380240E01B002000100040CF
:1020900040420F007C0000207047FEE7FEE7FEE7AD
:1020A000FEE77047014804F0EDB800BF541B002064
:1020B000014804F0E7B800BF981B0020014803F076
:1020C0008FBE00BFE01B0020014802F01DBE00BF14
:1020D000201A0020014801F001BF00BF8C19002028
:1020E0000120704708B519F0E1F9162303604FF09D
:1020F000FF3008BD08B519F0D9F916230360FEE7D3
:1021000070B50D4614460E46731B9C4201DC2046FA
:1021100070BDAFF3008006F8010BF5E770B50D4612
:1021200014460E46731B9C4201DC204670BD16F817
:10213000010BAFF30080F5E74FF0FF3070474FF42D
:1021400000534B600020704701207047002070470B
:102150000A4A116808B5034609B9094911601068AF
:10216000694603448B4206D919F0A0F90C23036099
:102170004FF0FF3008BD1360FCE700BF281C0020B3
:1021800038350120704710B50421044619F02DF9A7
:10219000204610BD012908B506D0022908D059B93A
:1021A00001F058F8006808BD01F054F84068FAE7FB
:1021B00001F050F88068F6E70020F4E70048704727
:1021C00044CC01080820704713B5002451B10368BE
:1021D00001948DF8034001AA9C680DF10303A04708
:1021E00002B010BD0846FBE7C0897047008A7047FF
:1021F000C088704780887047807A00F07F00704701
:10220000807AC00970477047704700F59873086876
:10221000496803C370477047704741607047704713
:10222000064BC0F84C310023C0F8503100F5A273C2
:10223000C0F84801C0F84031704700BFE5220008EF
:102240000123037270477047704710B4C268416839
:102250005410034601EB6200D20748BF0A599B683D
:102260005DF8044B48BFD358184743682BB18368C7
:102270002BB9C06800F00100704718467047012074
:10228000704710B50C21044619F0AFF8204610BD78
:1022900010B51021044619F0A8F8204610BD10B55D
:1022A0004FF4AE71044619F0A0F8204610BD10B5E9
:1022B00008F0C6FF0368BDE81040DB6B184710B597
:1022C0000446D0F8400158B10368DB68984738B13C
:1022D000D4F8400103689B6898470023C4F8403154
:1022E00010BD00002DE9F14FD0E9555A0746A86806
:1022F00003681B6A984740F26B73984205D8464BB7
:10230000464AA321464819F09FF8686803681B6A8B
:1023100098470F2803D8434B404AA421F2E7E868C6
:1023200003681B6A98470B2803D83F4B3B4AA521FB
:10233000E8E708F085FFDFF8F890043008F0A5FF23
:10234000D9F8000010B10368DB689847D9F800009D
:1023500010B103681B689847DFF8D880D8F80000F0
:1023600010B103685B699847D7F83C0110B1036866
:102370005B689847D8F8000010B103681B6898475D
:10238000D7F83C0110B103689B689847E868036878
:1023900000215B6A98474FF0000B244B0360044612
:1023A000C0F804B080F808B0A868036859465B6AB2
:1023B0009847064600F0BEFF6868036859465B6AA6
:1023C00098473146054600F083FFC9F80040C7F83A
:1023D0003C51C8F80060E5B12B1DCAF800303368E5
:1023E000C5F808A03046DB68F56398472B68284697
:1023F0001B689847214630460AF00EFC23682046A9
:102400001B69984723685B69204601B0BDE8F04F1F
:1024100018472B46E1E700BFE4CC010872CD010864
:102420007CCE0108C3CE010866CF010880D0010828
:10243000802A01207C2A0120044B1B6893F8582035
:102440000AB1D86C00B99868704700BF402A0120D3
:1024500070B504460D46164608F0B4FF0E4A1460E7
:102460000E4A22600E4A0023C4E95123C4E95333C3
:10247000C4E94F330B4B1868036801219B68C4E91A
:1024800055659847FFF7D8FF11F05DFCFFF7D4FFC3
:1024900011F0D4FC204670BD8C2A01202CD00108FC
:1024A00014D00108402A0120064BC0F84C3100230B
:1024B000C0F8503100F5A273C0F84801C0F84031AF
:1024C000704700BFE52200087047704770477047AB
:1024D00070477047704710B540F2F461044618F039
:1024E00084FF204610BD2DE9F0411D460368BDF96B
:1024F00018701B6B044616469847236831462046E1
:102500005B6B98472368294620469B6B9847236856
:1025100039462046DB6BBDE8F04118474FF4807127
:102520000022818405490160C0E90122C0E903223B
:10253000C0E90522C0E907228262704728D4010859
:102540002DE9F04F2DED108B054697B00AF0B8F944
:102550002A460024DE4BEC6342F8403BDD4B2C6600
:10256000C5E910344FF4807305F16C0AA5F86430A6
:10257000FF234FF6FF7605F1980985F8663015A917
:10258000C5E91244C5E91444C5E91644AC66504691
:10259000139205F1C407ADF8546007F081FB15A94B
:1025A0004846ADF8546007F07BFB3846FFF7B6FFAE
:1025B00005F1F00315A9184609EE903AADF85460FC
:1025C00007F06EFB05F58E7315A918460AEE103A52
:1025D000ADF8546007F064FB05F5A47315A918461F
:1025E0000AEE903AADF8546007F05AFB05F5BA735D
:1025F000184608EE103AFFF791FF05F5D07315A9BC
:1026000018460BEE103AADF8546007F049FB05F59B
:10261000E67315A918460BEE903AADF8546007F032
:102620003FFB05F5FC7315A918460CEE103AADF802
:10263000546007F035FB05F5097305F5147815A905
:1026400018460CEE903AADF8546007F029FB40466E
:10265000FFF764FF05F51F7315A918460DEE103A34
:10266000ADF8546007F01CFB05F52A7315A9184650
:102670000DEE903AADF8546007F012FB05F5357396
:1026800015A918460EEE103AADF8546007F008FB95
:1026900005F5407315A918460EEE903AADF8546052
:1026A00007F0FEFA05F54B7315A918460FEE103A20
:1026B000ADF8546007F0F4FA05F5567318460FEEBE
:1026C000903AFFF72BFF05F5617315A918460293A1
:1026D000ADF8546007F0E4FA05F56C7315A91846D7
:1026E0000393ADF8546007F0DBFA05F577731846ED
:1026F00009EE103AFFF712FF05F5816315A9184698
:102700000493ADF8546007F0CBFA05F2344315A9F1
:1027100018460593ADF8546007F0C2FA05F58C63CE
:1027200015A918460693ADF8546007F0B9FA05F2FA
:102730008C43184608EE903AFFF7F0FE05F59763D4
:1027400015A918460793ADF8546007F0A9FA05F2E9
:10275000E44315A918460893ADF8546007F0A0FAB1
:1027600005F5A26315A918460993ADF8546007F062
:1027700097FA05F23C5305F5AD6B15A918460A9377
:10278000ADF8546007F08CFA5846FFF7C7FE05F223
:10279000945315A918460B93ADF8546007F080FACE
:1027A00005F5B86315A918460C93ADF8546007F009
:1027B00077FA05F2EC5315A918460D93ADF854605D
:1027C00007F06EFA05F5C36315A918460E93ADF828
:1027D000546007F065FA05F2446315A918460F9393
:1027E000ADF8546007F05CFA05F5CE631846109317
:1027F000FFF794FE05F29C6315A918461193ADF8F6
:10280000546007F04DFA05F5D96315A918461293DF
:10281000ADF8546007F044FA4FF4A07322461398C1
:1028200000932146F0232E1DFFF75DFE4FF07F43FE
:102830001399AB66304606F06FF8072315A950468A
:10284000ADF8543007F033FC4FF4A07322460093E8
:102850002146F0235046FFF746FE2146504607F03A
:10286000DAF95146304606F057F815A94846ADF852
:10287000544007F01CFCE6230093532248460521F0
:10288000FFF731FE2146484607F0C5F94946304674
:1028900006F042F8442300936FF0430217233846B2
:1028A0006FF021014FF017094FF0020AFFF71BFEEE
:1028B00019EE900A15A9ADF854A007F0F8FB4B46A5
:1028C000162219EE900A2146CDF8009004E000BFD0
:1028D000A4D001085CD50108FFF705FE19EE900AA7
:1028E000214607F098F919EE901A384606F014F8C8
:1028F0001AEE100A15A9ADF854A007F0D8FB4B4604
:1029000022461AEE100A2146CDF80090FFF7EBFDA3
:102910001AEE100A214607F07EF91AEE101A384610
:1029200005F0FAFF1AEE900A15A9ADF854A007F0C9
:10293000BEFB4B462C221AEE900A2146CDF80090A1
:10294000FFF7D1FD1AEE900A214607F064F91AEE5E
:10295000901A384605F0E0FF3946304605F0DCFFB6
:102960005A2318EE100A00936FF05B024B466FF08B
:102970006601FFF7B8FD1BEE100A15A9ADF854A0CB
:1029800007F095FB4B4616221BEE100A2146CDF8A8
:102990000090FFF7A8FD1BEE100A214607F03BF957
:1029A0001BEE101A18EE100A05F0B6FF1BEE900A87
:1029B00015A9ADF854A007F07AFB4B4622461BEE52
:1029C000900A2146CDF80090FFF78DFD1BEE900A8E
:1029D000214607F020F91BEE901A18EE100A05F0B8
:1029E0009BFF1CEE100A15A9ADF854A007F05FFB81
:1029F0004B462C221CEE100A2146CDF80090FFF722
:102A000072FD1CEE100A214607F005F91CEE101AA3
:102A100018EE100A05F080FF19271CEE900A15A980
:102A2000ADF854A007F043FB4B4643221CEE900A3E
:102A300021460097FFF757FD1CEE900A214607F04C
:102A4000EAF81CEE901A18EE100A05F065FF18EE71
:102A5000101A304605F060FF712300936FF0720288
:102A60004B4640466FF08601FFF73DFD1DEE100A14
:102A700015A9ADF854A007F01AFB4B4616221DEE1F
:102A8000100A2146CDF80090FFF72DFD1DEE100A2B
:102A9000214607F0C0F81DEE101A404605F03CFF35
:102AA0001DEE900A15A9ADF854A007F000FB4B46A7
:102AB00022461DEE900A2146CDF80090FFF713FD47
:102AC0001DEE900A214607F0A6F81DEE901A40462A
:102AD00005F022FF1EEE100A15A9ADF854A007F06C
:102AE000E6FA4B462C221EEE100A2146CDF8009045
:102AF000FFF7F9FC1EEE100A214607F08CF81EEED7
:102B0000101A404605F008FF1EEE900A15A9ADF810
:102B100054A007F0CCFA4B4643221EEE900A214601
:102B20000097FFF7E0FC1EEE900A214607F073F8CD
:102B30001EEE901A404605F0EFFE1FEE100A15A992
:102B4000ADF854A007F0B3FA4B465A221FEE100A14
:102B500021460097FFF7C7FC1FEE100A214607F039
:102B60005AF81FEE101A404605F0D6FE4146304690
:102B700005F0D2FE2C231FEE900A00936FF02D0279
:102B80004B466FF04301FFF7AEFC0298ADF854A03E
:102B900015A907F08CFA4B4622460298CDF8009012
:102BA0002146FFF7A0FC0298214607F034F802996D
:102BB0001FEE900A05F0B0FE0398ADF854A015A9D9
:102BC00007F075FA4B4616220398CDF8009021467F
:102BD000FFF789FC0398214607F01DF803991FEEC3
:102BE000900A05F099FE1FEE901A304605F094FE0B
:102BF00019EE100A44234822CDF800906FF04E01E0
:102C00004FF00308FFF76FFC0498ADF8548015A946
:102C100007F04DFA4B4622460498CDF800902C213F
:102C2000FFF761FC0498214606F0F5FF049919EEC0
:102C3000100A05F071FE0598ADF8548015A907F04B
:102C400036FA4B4622460598CDF800901621FFF73C
:102C50004AFC0598214606F0DEFF059919EE100A98
:102C600005F05AFE0698ADF8548015A907F01FFA32
:102C70004B4622460698CDF800902146FFF733FCDC
:102C80000698214606F0C7FF069919EE100A05F0CE
:102C900043FE19EE101A304605F03EFE18EE900A7B
:102CA0005A236F22CDF800906FF06501FFF71BFCEF
:102CB0000798ADF8548015A907F0F9F94B4622465C
:102CC0000798CDF800902C21FFF70DFC07982146BE
:102CD00006F0A1FF079918EE900A05F01DFE08986E
:102CE000ADF8548015A907F0E2F93B462246089852
:102CF000CDF800904221FFF7F6FB0898214606F038
:102D00008AFF089918EE900A05F006FE0998ADF8BA
:102D1000548015A907F0CBF94B4622460998CDF807
:102D200000901621FFF7DFFB0998214606F073FF9C
:102D3000099918EE900A05F0EFFD0A98ADF8548055
:102D400015A907F0B4F94B4622460A98CDF8009031
:102D50002146FFF7C8FB0A98214606F05CFF0A9956
:102D600018EE900A05F0D8FD18EE901A304605F0DE
:102D7000D3FD712395225846CDF800906FF07A016B
:102D8000FFF7B1FB0B98ADF8548015A907F08FF948
:102D90004B4622460B98CDF800902C21FFF7A3FB61
:102DA0000B98214606F037FF0B99584605F0B4FD05
:102DB0000C98ADF8548015A907F079F93B462246E6
:102DC0000C98CDF800904221FFF78DFB0C9821461E
:102DD00006F021FF0C99584605F09EFD0D98ADF8C0
:102DE000548015A907F063F93B4622460D98CDF8AB
:102DF00000905A21FFF777FB0D98214606F00BFF54
:102E00000D99584605F088FD0E98ADF8548015A927
:102E100007F04DF94B4622460E98CDF8009016214A
:102E2000FFF761FB0E98214606F0F5FE0E99584615
:102E300005F072FD0F98ADF8548015A907F037F929
:102E40004B4622460F98CDF800902146FFF74BFBEA
:102E50000F98214606F0DFFE0F99584605F05CFDFD
:102E60005946304605F058FD1098CDF800902C23B7
:102E700053220621FFF737FB1198ADF8548015A9AE
:102E800007F015F94B4622461198CDF8009016210F
:102E9000FFF729FB1198214606F0BDFEDDE9100180
:102EA00005F03AFD1298ADF8548015A907F0FFF827
:102EB0004B4622461298CDF800902146FFF713FBAF
:102EC0001298214606F0A7FE1299109805F024FDED
:102ED0003046109905F020FD284617B0BDEC108B48
:102EE000BDE8F08F406A7047806A704770478B88F2
:102EF000C0690A68DB0A50F823001044704710B517
:102F0000C2B1137BB3B1547BD27A240204F4E064DF
:102F10001443026A98B202EB840213888B4202D1F6
:102F200092F9020010BD05D8013880B204320028A1
:102F3000F3D1F7E70020F5E710B52C21044618F08F
:102F400054FA204610BD000030B58BB00446BDF8E1
:102F500060500895BDF85C5007959DF85050069557
:102F60009DF84C5005959DF8485004959DF84450A7
:102F700003959DF8405002959DF83C500195BDF891
:102F80003850009509F080FA064B2360159BE361E9
:102F9000169B2362199B63621A9BA36220460BB0A7
:102FA00030BD00BFD8D001087047000030B5164DC5
:102FB0002C78BFF35B8F14F001048FB020D128462A
:102FC00018F015FAE0B13F230993104B0893104B0A
:102FD000104911480A940122CDE906430423CDE9A2
:102FE00003320A230093CDE90B44CDE90144059453
:102FF000FFF7AAFF094818F045FA284618F003FA27
:1030000005480FB030BD00BF2C1C0020A8DC010813
:10301000B4DC010878DC0108301C0020A92F00086E
:103020007047000030B5164D2C78BFF35B8F14F05D
:1030300001048FB020D1284618F0D9F9E0B13F2320
:103040000993104B0893104B104911480A94012220
:10305000CDE906430423CDE9033214230093CDE9DF
:103060000B44CDE901440594FFF76EFF094818F0C1
:1030700009FA284618F0C7F905480FB030BD00BF5F
:103080005C1C0020ACDC0108B8DC010888DC01080D
:10309000601C0020213000087047000030B5164D3C
:1030A0002C78BFF35B8F14F001048FB020D1284639
:1030B00018F09DF9E0B13F230993104B0893104B92
:1030C000104911480A940122CDE906430423CDE9B1
:1030D000033228230093CDE90B44CDE90144059444
:1030E000FFF732FF094818F0CDF9284618F08BF9A0
:1030F00005480FB030BD00BF8C1C0020B0DC0108BB
:10310000BCDC010898DC0108901C00209930000804
:1031100000207047002070470EB403B503AB0021B8
:1031200053F8042B019308F0D7FF02B05DF804EBCD
:1031300003B070470CB407B504AB53F8042B0193EC
:1031400008F0CAFF03B05DF804EB02B0704700005E
:10315000436C10B5044673B3038F2BB9184B194A4F
:10316000C521194818F070F9C38E00EB43035B8C3E
:103170000BB30AF01AFA238F012B03D8134B144A0E
:10318000CB21EEE7E28E531C9BB2092B194688BF78
:10319000A3F10A0104EB410140F63F10498C814242
:1031A00009D10A2B04EB420228BF002304EB43039E
:1031B000508C588451842046BDE810400AF0F8B87D
:1031C00030D1010839D10108E4D101082ED201081B
:1031D0003CD201080AF0B3B838B518BB124B1348FB
:1031E0001B681349B3B11A689C681A4402605A6894
:1031F0001A440A601C440F4B00221A8000F02AF87F
:10320000054600F025F80C4B1C600C4B1D600C4B68
:10321000188007E00B4B03600B4B0B600B4B1C68DB
:10322000002CE8D138BD00BFBC1C0020C01C002011
:10323000C41C0020C81C0020902A0120982A0120CC
:10324000942A0120C4DC0108C0DC0108CCDC0108A0
:103250000020704700487047CC1C002010B5FFF7D5
:10326000E1FE044C2060FFF719FF6060FFF79EFE4F
:10327000A06010BDCC1C0020704710B54FF4AE719B
:10328000044618F0B2F8204610BD10B50446D0F838
:10329000580100F04EFA2046BDE8104008F052B840
:1032A00010B50446FFF7D4F8014B2360204610BD4B
:1032B00018D30108704704387047704710B51021C3
:1032C000044618F092F8204610BDA0F10400F5E77E
:1032D00010B500228260044AC16002F10804203265
:1032E0000460426010BD00BF64D301087047000055
:1032F00010B5034B03600446FFF7EBF8204610BD02
:1033000094D3010810B50446FFF7F2FF204640F2BF
:103310006C7118F06AF8204610BD70B50368044659
:103320001B6B154698472368294620465B6BBDE812
:103330007040184710B50446FFF702F9044B2360AC
:103340006422002104F5E16018F00AF9204610BD5E
:1033500094D3010890F8FE0628B10B44092BCCBF8A
:10336000002001207047D0180928F8E730B590F800
:10337000FE460A255CB905FB0122024421468B4228
:1033800015DB92F808070A3278B90131F7E702F540
:10339000E16205FB0122024400218B4205DB12F8A9
:1033A000010B08B90131F8E70024204630BD0124A3
:1033B000FBE710B50446FFF78DF804F5CE62C4F8BC
:1033C000002704F556720023C4F80427012284F86C
:1033D000FE36A4F8FC26C4F8F436C4F8F83610BD5E
:1033E000F7B58D4D0446002628688DF8076003F078
:1033F00008FB002800F00A814FF0FF3328683246AE
:103400000DF1070103F0CEFA9DF80730532B6FD171
:10341000D4F8F476D4F8F856B4F9FC362A4639468E
:103420002046FFF7A3FF002862D094F8FE260A2169
:103430005AB901FB07552544591C934205F10A0569
:103440000FDB85F8FE160132F7E705F5E16501FBB4
:10345000075525445A1CB34203DB05F8012B0136FE
:10346000F9E7012B11D1002304F57775C4F8F43680
:10347000C4F8F836532205212846FFF74EFF04F121
:10348000C403C4F80057C4F80437B4F9FC36022B5F
:1034900011D1002304F28C45C4F8F436C4F8F83690
:1034A000532205212846FFF738FF04F5BA73C4F804
:1034B0000057C4F80437B4F9FC36032B11D10023AC
:1034C00004F5AD65C4F8F436C4F8F8365322052186
:1034D0002846FFF722FF04F51473C4F80057C4F818
:1034E0000437B4F9FC36032BDCBF0133A4F8FC36F7
:1034F00094F8FE269DF80730002A40F08F804C2B70
:1035000017D1D4F8F436D4F80007013B002BC4F8E7
:10351000F436BEBFB4F9FC36C3F10903C4F8F4367F
:10352000D4F8F41617235943036805311B6B09B20D
:1035300098479DF80730522B18D1D4F8F436B4F9D7
:10354000FC26D4F800070133C2F109029342C4F803
:10355000F436C4BF0023C4F8F436D4F8F4161723A5
:103560005943036805311B6B09B298479DF8073032
:10357000552B11D1D4F8F836D4F80007013B48BFD9
:103580000923C4F8F836D4F8F8161723594303680A
:1035900053315B6B09B298479DF80730442B12D129
:1035A000D4F8F836D4F800070133092BC8BF00233C
:1035B000C4F8F836D4F8F816172359430368533182
:1035C0005B6B09B298479DF80730412B1ED1B4F9C7
:1035D000FC36D4F8F826D4F8F4162046FFF7BAFEE5
:1035E000A0B1D4F80037D4F80407B3F90620B3F932
:1035F0000410FFF792FED4F800076FF043026FF05B
:103600001F01FFF78AFE012384F8FE36201D08F013
:103610008DFE03B0F0BD00BF7C1900204C2B11D1F2
:10362000D4F8F436D4F80407013B48BF0923C4F8A2
:10363000F436D4F8F41617235943036805311B6B8D
:1036400009B298479DF80730522B12D1D4F8F436BE
:10365000D4F804070133092BC8BF0023C4F8F4369B
:10366000D4F8F41617235943036805311B6B09B2CC
:1036700098479DF80730552B17D1D4F8F836D4F871
:103680000407013B002BC4F8F836BEBFB4F9FC3682
:10369000C3F10903C4F8F836D4F8F81617235943D0
:1036A000036853315B6B09B298479DF80730442B90
:1036B00018D1D4F8F836B4F9FC26D4F8040701334D
:1036C000C2F109029342C4F8F836C4BF0023C4F81B
:1036D000F836D4F8F81617235943036853315B6B57
:1036E00009B298479DF80730412B8FD1B4F9FC36C9
:1036F000D4F8F826D4F8F4162046FFF72BFE00285D
:1037000084D0D4F80437D4F80007B3F90620B3F90D
:103710000410FFF702FED4F804076FF043026FF0C5
:103720001F01FFF7FAFD00236EE700BF00220260D1
:1037300070477047F02070474FF4A0707047292001
:10374000FEF742B92820FEF73FB908B5FEF710F999
:10375000CA20FEF739F9C320FEF71AF90820FEF750
:1037600017F95020FEF714F9CF20FEF72DF90020AD
:10377000FEF70EF9C120FEF70BF93020FEF708F92D
:10378000ED20FEF721F96420FEF702F90320FEF791
:10379000FFF81220FEF7FCF88120FEF7F9F8E82088
:1037A000FEF712F98520FEF7F3F80020FEF7F0F897
:1037B0007820FEF7EDF8CB20FEF706F93920FEF76A
:1037C000E7F82C20FEF7E4F80020FEF7E1F83420BB
:1037D000FEF7DEF80220FEF7DBF8F720FEF7F4F83C
:1037E0002020FEF7D5F8EA20FEF7EEF80020FEF7DD
:1037F000CFF80020FEF7CCF8B120FEF7E5F8002066
:10380000FEF7C6F81B20FEF7C3F8B620FEF7DCF87B
:103810000A20FEF7BDF8A220FEF7BAF8C020FEF796
:10382000D3F81020FEF7B4F8C120FEF7CDF8102031
:10383000FEF7AEF8C520FEF7C7F84520FEF7A8F85A
:103840001520FEF7A5F8C720FEF7BEF89020FEF77A
:103850009FF83620FEF7B8F8C820FEF799F8F22056
:10386000FEF7B2F80020FEF793F8B020FEF7ACF8B0
:10387000C220FEF78DF8B620FEF7A6F80A20FEF764
:1038800087F8A720FEF784F82720FEF781F80420A8
:10389000FEF77EF82A20FEF797F80020FEF778F86A
:1038A0000020FEF775F80020FEF772F8EF20FEF713
:1038B0006FF82B20FEF788F80020FEF769F800204B
:1038C000FEF766F80120FEF763F83F20FEF760F888
:1038D000F620FEF779F80120FEF75AF80020FEF7EF
:1038E00057F80620FEF754F82C20FEF76DF8C82094
:1038F000FEF7B8F82620FEF767F80120FEF748F833
:10390000E020FEF761F80F20FEF742F82920FEF7CD
:103910003FF82420FEF73CF80C20FEF739F80E2083
:10392000FEF736F80920FEF733F84E20FEF730F8A0
:103930007820FEF72DF83C20FEF72AF80920FEF744
:1039400027F81320FEF724F80520FEF721F81720AA
:10395000FEF71EF81120FEF71BF80020FEF718F8FE
:10396000E120FEF731F80020FEF712F81620FEF7EE
:103970000FF81B20FEF70CF80420FEF709F81120C1
:10398000FEF706F80720FEF703F83120FEF700F8EF
:103990003320FDF7FDFF4220FDF7FAFF0520FDF77C
:1039A000F7FF0C20FDF7F4FF0A20FDF7F1FF2820B8
:1039B000FDF7EEFF2F20FDF7EBFF0F20FDF7E8FFEF
:1039C0001120FEF701F8C820FEF74CF82920FDF77A
:1039D000FBFFBDE808402C20FDF7F6BF08B5FDF75A
:1039E000C7FF0321D320FEF70BF880B208BD10B546
:1039F000C4B2022203212046FDF770FF0A20FDF722
:103A0000B5FF204600220321FDF768FFBDE8104006
:103A10000220FDF7ABBF38B50446E4B2FDF75CFF0A
:103A200000212046FDF772FF012105462046FDF7E3
:103A30006DFF40EA052080B238BD10B5C4B2402108
:103A40002046FDF763FF030607D54C212046FDF70E
:103A50005DFF003818BF012010BD01224B21204618
:103A6000FDF73CFF204600224B21FDF737FF0020E9
:103A7000F2E773B50423C4B20E461546D7210DEB09
:103A800003022046FDF75CFF019B1BBA1A0DC3F32E
:103A90000B23328020462B8001224B21FDF71EFF95
:103AA00000224B212046FDF719FF02B070BD000037
:103AB00010B50A4B1A78904204460DD059788842C6
:103AC0000AD00AB141B901229C54FDF705FF2046F6
:103AD000BDE81040FFF78BBF10BD00BFD81C002011
:103AE00010B5C4B209212046FDF710FF40F00100D7
:103AF000C2B209212046BDE81040FDF7EFBE10B567
:103B0000C4B209212046FDF701FF092100F0FE02A1
:103B10002046BDE81040FDF7E1BE38B5C4B20D4601
:103B200020460A21FDF7F2FE2843C2B20A212046B0
:103B3000BDE83840FDF7D2BE07B50190FDF7CDFED8
:103B400001981F21FFF7E9FF019803B05DF804EB2E
:103B5000FFF7C6BF38B5C4B20D4620460A21FDF7AF
:103B6000D5FE20EA0500C2B20A212046BDE8384051
:103B7000FDF7B4BE10B50446FFF7C1FF20461F2174
:103B8000BDE81040FFF7E6BF10B5C0B20C460B21F0
:103B9000FDF7BCFE204010BD1F21FFF7F5BF0A4610
:103BA000C0B20B21FDF79ABE1F21FFF7F8BF38B551
:103BB000C4B20D4620461721FDF7A8FE20EA0500F5
:103BC000C2B217212046BDE83840FDF787BE70B568
:103BD000C4B2064604212046FDF798FE042100F0F9
:103BE000FB0205462046FDF779FE3046F021FFF73F
:103BF000DEFF05F0F80220460421FDF76FFE4922A2
:103C000020212046FDF76AFE0220FDF7AFFE204688
:103C100001222121FDF762FE20469A224121FDF773
:103C20005DFE204601224A21FDF758FE2046012272
:103C30004B21FDF753FE204600224B21FDF74EFE9F
:103C4000204601225621FDF749FE20460122582137
:103C5000FDF744FE204601224021FDF73FFE2046AD
:103C6000FF220B21FDF73AFEBDE870400220FDF770
:103C70007DBE0000054BD3F8882042F47002C3F8E3
:103C800088204FF000629A60704700BF00ED00E0AE
:103C900008B50B4B1A6842F400721A601A6842F4B5
:103CA00080621A601A6842F480721A60032000F081
:103CB0002FF80020FEF7A0F9FDF7E2FE002008BD76
:103CC000003C0240034A044B11681B780B4413600C
:103CD000704700BFDC1C002078000020014B1868F2
:103CE000704700BFDC1C002038B50446FFF7F6FF24
:103CF000631C1CBF054B1B78054618BFE418FFF773
:103D0000EDFF431BA342FAD338BD00BF780000206B
:103D10000749CA6822F4E0620302120403F4E06374
:103D2000120C134343F0BF6343F40033CB6070477E
:103D300000ED00E0164B30B5DC68C4F30224C4F19A
:103D40000705231D042D28BF0425062B4FF0FF3344
:103D50008CBF033C002403FA05F521EA0501A340CA
:103D600022EA0302A140002841EA0203ACBF00F1AD
:103D70006040084A4FEA0313B8BF00F00F00DBB2FF
:103D8000AABF00F56140135480F8003330BD00BF76
:103D900000ED00E014ED00E0002808DB42090123FB
:103DA00000F01F0003FA00F0014B43F822007047B7
:103DB00000E100E010B5044650B1437903F0FF0282
:103DC00013B90271FDF77CFE01236371002010BD61
:103DD0000120FCE770B50446866DFFF77FFF94F87D
:103DE0003530022B054606D080236365002384F816
:103DF0003430012070BD23681A6822F016021A6060
:103E00005A6922F080025A61226C0AB9A26C1AB176
:103E10001A6822F008021A601A6822F001021A6079
:103E200023681B6813F001030AD1E16D3F228A4029
:103E3000B260012284F8352084F834301846D9E77E
:103E4000FFF74CFF401B0528EAD9202363650320B8
:103E5000002384F8350084F83430CBE790F835300F
:103E6000022B03D08023436501207047026805239D
:103E700080F83530136823F0010313600020704789
:103E800010B5044630B390F8393003F0FF021BB987
:103E900080F83820FDF72CFE22686168022384F840
:103EA0003930136823F440330B431360536BA1681C
:103EB00023F007030B435363136CE16823F47F5330
:103EC00023F03F030B43136400200123E06384F8D5
:103ED000393010BD0120FCE770477047036870B5AA
:103EE0005E681D68F207044614D5E90512D51A6804
:103EF00022F480721A60C26B42F00102C263012296
:103F00009A60042380F83930002380F83830436900
:103F100003B19847B20616D5AB0414D523681A68C6
:103F200022F400521A6020229A60E36B43F00203ED
:103F3000E363042384F83930002384F8383063695C
:103F40000BB120469847300716D5290514D52368AC
:103F50001A6822F400621A6008229A60E36B43F048
:103F60000403E363042384F83930002384F83830F1
:103F700063690BB12046984772070BD56B0509D5CD
:103F800023681A6822F480621A6004229A6020462C
:103F9000FFF7A2FFB00714D5A90512D523681A6848
:103FA00022F400721A6002229A60E36BE363012339
:103FB00084F83930002384F8383023690BB1204667
:103FC0009847F20613D5EB0411D523681A6822F43A
:103FD00080521A6010229A60E36BE363012384F835
:103FE0003930002384F838302046FFF776FF70BD63
:103FF000F0B590F83830012B4FF002032BD001229E
:1040000080F8393080F8382000EB0113D3E90742FB
:104010005D6A184F44EA0242093C012C9CBF05F03E
:104020007F431A434FEA0116036888BF42EA0562DC
:1040300099B9596A39400A435A62012C82699A61D6
:1040400003D8426A22F07F429A62012380F8393015
:10405000002380F838301846F0BDD96939400A434A
:10406000DA618219012C92691A619CBF25F07F45A3
:104070001D62EAE7F0FFFC002DE9F74FDFF8C09181
:104080006D4A00230D6801249C4004EA050CAC43F2
:1040900040F0B9804D6805F003044FEA4308032659
:1040A000671E06FA08F6012F6FEA060634D88768FD
:1040B00007EA060ECF6807FA08F747EA0E07876097
:1040C000476827EA0C0EC5F300179F4047EA0E0722
:1040D0004760C76807EA060E8F6807FA08F747EADD
:1040E0000E07022CC76019D14FEAD30A00EB8A0AE7
:1040F00003F0070BDAF820704FEA8B0B4FF00F0E2E
:104100000EFA0BFE27EA0E0E0F6907FA0BF747EAC5
:104110000E07CAF8207001E0032CDAD1076804FA10
:1041200008F43E40264315F4403F06606BD04FF044
:10413000000ACDF804A0D9F84460404C46F480460B
:10414000C9F84460D9F8446006F480460196019E9F
:1041500023F0030606F1804606F59C3603F0030EB5
:10416000D6F808804FEA8E0E0F2707FA0EF7A04206
:1041700028EA07074ED004F58064A0424CD004F52D
:104180008064A0424AD004F58064A04248D004F57F
:104190008064A04246D004F58064A04244D004F577
:1041A0008064A04242D004F58064A04240D004F56F
:1041B0008064A0423ED004F58064A0420CBF092474
:1041C0000A2404FA0EF43C43B46094686FEA0C06C7
:1041D000EF0254BF34404CEA04049460D468AF0248
:1041E00054BF34404CEA0404D4605468AF0354BF55
:1041F00034404CEA040454601468ED0354BF344066
:104200004CEA040414600133102B7FF43BAF03B07D
:10421000BDE8F08F5446D4E70124D2E70224D0E76A
:104220000324CEE70424CCE70524CAE70624C8E724
:104230000724C6E70824C4E7003C01400000024010
:10424000003802400369194214BF01200020704762
:104250000AB1816170470904FBE7436901EA03027F
:1042600021EA030141EA02418161704701684B691B
:1042700013F480634FF0000210D06FF480634B6141
:104280002023026380F83D3080F83E20036C80F8E4
:104290003C2043F004030364012070471846704734
:1042A0002DE9F84606460F4691461D464FEA114A4B
:1042B0003368BAF1010F0CBF5C699C6927EA0404FA
:1042C000A4B2B4FA84F46409A14501D0002017E037
:1042D0006A1CEED0FFF702FD089BC01AA84201D865
:1042E000002DE5D100232022336386F83D2086F897
:1042F0003E30326C86F83C3042F0200232640120BD
:10430000BDE8F8862DE9F04104460F46164698466A
:104310002568686927EA000080B2B8B16B695A0560
:1043200016D52B6843F400732B606FF480636B61C8
:1043300020220023236384F83D2084F83E30226C41
:1043400042F00402226484F83C300120BDE8F08190
:10435000731CDED0FFF7C2FCA0EB0800B04201D80E
:10436000002ED5D100232022236384F83D2084F839
:104370003E30226C42F02002E4E770B504460D4660
:10438000164621684B6913F0400301D0002010E06D
:104390004A69D2060ED56FF010024A6120222363CB
:1043A00084F83D2084F83E30226C226484F83C304E
:1043B000012070BDFFF792FC801BA84201D8002DA0
:1043C000DFD100232022236384F83D2084F83E308F
:1043D000226C42F02002E8E770B504460D4616460E
:1043E00023685B695B0701D5002070BD2046FFF79D
:1043F0003DFFA8B96A1CF3D0FFF770FC801BA842F0
:1044000001D8002DECD100232022236384F83D2025
:1044100084F83E30226C84F83C3042F02002226462
:104420000120E2E770B504460D46164623685B6935
:104430001B0601D5002070BD2046FFF717FFA8B965
:104440006A1CF3D0FFF74AFC801BA84201D8002D5C
:10445000ECD100232022236384F83D2084F83E30F1
:10446000226C84F83C3042F0200222640120E2E712
:104470002DE9F0431546026885B0DDE90C789946D0
:10448000136843F4807313600E463B46CDF80080FA
:1044900000224FF001110446FFF702FF236838B1F4
:1044A0001B68DB0502D54FF40073236403200AE088
:1044B00006F0FE061E61194943463A462046FFF7BC
:1044C00021FF18B1012005B0BDE8F08323680390F7
:1044D0005A6903929B690393424639462046039BDF
:1044E000FFF7A0FF40B1236C042B01BF22681368C3
:1044F00043F400731360E5E7B9F1010F236802D1BB
:10450000EDB21D61DFE72A0A1A61394642462046AC
:10451000FFF788FF0028E6D12368F1E702000100D9
:104520002DE9FF479A46036815461A6842F48062EF
:104530001A601A68DDE90C7842F480721A600E463F
:104540003B46CDF8008000224FF001110446FFF7F2
:10455000A7FE236848B11B68DB0502D54FF4007342
:104560002364032004B0BDE8F0875FFA86F906F003
:10457000FE061E612A4943463A462046FFF7C2FE20
:1045800008B10120EEE7236803905A6903929B6902
:104590000393424639462046039BFFF743FF40B151
:1045A000236C042B01BF2268136843F4007313606B
:1045B000E7E7BAF1010F23681AD1EDB21D61424657
:1045C00039462046FFF72EFF0028E9D122681368FC
:1045D00043F4807313604FF001110246CDF8008060
:1045E0003B462046FFF75CFE226860B11368B3E7E4
:1045F0002A0A1A61394642462046FFF713FF00286F
:10460000CED12368D9E749F0010313610449434639
:104610003A462046FFF776FE003818BF0120A1E792
:104620000200010070B5044608B9012070BD90F881
:104630003D3003F0FF021BB980F83C20FDF77AFA09
:10464000242384F83D3023681A6822F001021A609E
:104650001A6842F400421A601A6822F400421A6092
:1046600000F074FE3F4B65689D4294BF3E4B3F4B4C
:1046700098428CBF00230123002BD6D12268394EEB
:1046800053683B49B0FBF1F123F03F030B43B542C4
:10469000536088BF4FF49676136A88BF714323F046
:1046A0003F0384BF4FF47A76B1FBF6F10131194331
:1046B0001162D169431E2B4821F44F41854221F0FC
:1046C000FF0132D86D0040F6FC70B3FBF5F3013307
:1046D000034242D0C3F30B030B43D361D4E9073049
:1046E0001168034321F0C0010B4313609168D4E9C2
:1046F000030321F40341034321F0FF010B439360C3
:10470000D4E90530D168034321F0FF010B43D360A6
:10471000136843F00103136000202023206484F811
:104720003D30206384F83E0080E7A06850B905EB77
:104730004505B3FBF5F30133C3F30B037BB143F43E
:104740000043C9E719204543B3FBF5F30133C3F335
:104750000B0323B143F44043BEE70423BCE701232A
:10476000BAE700BFA08601007F841E00FF083D005D
:1047700040420F002DE9F743044699460C9E0F4630
:104780009046FFF7ABFA94F83D30202B054603D056
:10479000022003B0BDE8F08300903C4919230122B8
:1047A0002046FFF77DFD0028F2D194F83C30012B24
:1047B000EED02068012384F83C300368D9075EBF3F
:1047C000036843F001030360036823F4006303609C
:1047D000212384F83D30402384F83E3000232364B5
:1047E0000A9B6362BDF82C306385638D2385284B5B
:1047F000E362CDE900654B46424639462046FFF765
:1048000037FE00282AD00120C3E7FFF70BFE40B196
:10481000236C042B01BF2268136843F400731360F8
:10482000F1E7636A27681A4612F8011B3961626270
:10483000628D218D013A92B262857A69481E80B2FA
:10484000520720850AD548B15A783A61023363622B
:10485000638D013B02399BB221856385238D2A46F6
:1048600031462046002BD0D1FFF7B6FD0028CFD12E
:104870002268136843F400731360202384F83D30EA
:1048800084F83C0084F83E0083E700BF020010007B
:104890000000FFFF2DE9F043044687B09946109FC2
:1048A0000D469046FFF71AFA94F83D30202B064645
:1048B00004D00225284607B0BDE8F0830090764971
:1048C000192301222046FFF7EBFC0028F1D194F8D0
:1048D0003C30012BEDD02068012384F83C30036884
:1048E000DB075EBF036843F001030360036823F442
:1048F00000630360222384F83D30402384F83E3077
:10490000002323640E9B6362BDF83C306385638D96
:104910002385624BE3622946CDE900764B46424649
:104920002046FFF7FDFD054608B10125C2E7228DAF
:104930002368B2B902905A6902929A690292029A65
:104940001A6842F400721A60DFF85481238D002B3C
:104950002CD1202284F83D2084F83C3084F83E306D
:10496000A8E7012A0AD11A6822F480621A6003902B
:104970005A6903929A690392039AE1E7022A0ED1D7
:104980001A6822F480621A601A6842F400621A609F
:1049900004905A6904929B690493049BD4E70590A0
:1049A0005A6905929B690593059BCDE7032B56D861
:1049B000012B15D1324639462046FFF7DEFC002890
:1049C000B3D123681A69636A1A70636A0133636238
:1049D000238D013B2385638D013B9BB26385B5E746
:1049E000022B00963B464FF000024146204619D16B
:1049F000FFF756FC002898D123681A6842F4007229
:104A00001A601A69636A1A70626A531C6362238DA2
:104A1000013B2385638D013B9BB2638523681B6942
:104A20005370D2E7FFF73CFC00287FF47EAF236889
:104A30001A6822F480621A601A69636A1A70636ADB
:104A4000009601336362238D013B2385638D013B17
:104A50009BB2638502463B4641462046C8E7324644
:104A600039462046FFF789FC00287FF45EAF2368B3
:104A70001A69636A1A70626A531C6362238D013B70
:104A80002385638D013B9BB2638523685969490780
:104A90007FF55CAFC3E700BF020010000000FFFF1E
:104AA0000400010010B590F83D30202BDCB216D187
:104AB000242380F83D3003681A6822F001021A604E
:104AC0005A6A22F010025A625A6A114359621A68ED
:104AD00042F001021A6080F83D40002010BD022023
:104AE000FCE730B590F83D30202BDCB216D10268DF
:104AF000242380F83D30136823F001031360556AC6
:104B00004FF6F0732B400B439BB25362136843F094
:104B10000103136080F83D40002030BD0220FCE717
:104B20000068D1F800C0D201843283182DE9F04327
:104B3000C6685D684C68D1F8189005F470455D60F2
:104B4000C5680CF10107C5F30B45C6F30B463D44A0
:104B5000264445EA06455D60C568CE68C5F30A058A
:104B60002E449D6805F470459D60C7688D68C7F345
:104B70000A0701353D4445EA06459D601D690E69F9
:104B800025F007051D614FF0000E1E619D6991F82B
:104B9000327091F83180C3F818E091F8305045EA4E
:104BA000096545EA082545EA07459D615D6925F0E7
:104BB000FF055D614D695D61DD6925F4E06525F006
:104BC0000705DD61D1E907573D43DD619D6A4D6A07
:104BD000C3F828E09D621EB3012E23D0B51E022D1E
:104BE00022D9072E0CBF02250125DE6A06F0E02639
:104BF000DE62A4EB0C048E6AC96A6C436E43033414
:104C000044EA0644DC621C6B24F4FF6424F00704CD
:104C10001C631963835843F001038350BDE8F0839C
:104C20000425E2E70325E0E70225DEE738B5044680
:104C3000002863D090F8A13003F0FF021BB980F880
:104C4000A020FCF7D3FF022384F8A13023689A69DF
:104C500022F070429A61D4E901200243E068996928
:104C60000243206902430A439A619A6824496069B1
:104C70000A409A609A6842EA0042A06902439A6038
:104C8000DA68E0690A40DA60DA6842EA0042206ADB
:104C90000243DA601A69606A0A401A611A6942EAD4
:104CA0000042A06A02431A615A69114059615A6967
:104CB000E16A42EA0142216B0A435A61D96A94F8D7
:104CC000360094F8355001F07F41D962D96A94F8E2
:104CD00034200A4342EA052242EA0042DA625A6B71
:104CE00042F006025A639A6942F001029A6100207A
:104CF0000123C4F8A40084F8A13038BD0120FCE7EA
:104D000000F800F070477047036870B59E6B5D6BEC
:104D10007207044614D5690712D55A6B22F00402B3
:104D20005A630422DA63D0F8A43043F00103C0F8D8
:104D3000A430002380F8A12080F8A030FFF7E2FF24
:104D4000B20716D5AB0714D523685A6B22F00202BE
:104D50005A630222DA63D4F8A4301343C4F8A430AF
:104D6000042384F8A130002384F8A0302046FFF704
:104D7000C9FFF00710D5E9070ED523685A6B22F05A
:104D800001025A630122DA63002384F8A12084F827
:104D9000A0302046FCF76EFA320711D52B070FD54D
:104DA00023685A6B22F008025A630822DA6301234F
:104DB00084F8A130002384F8A0302046FFF7A3FF39
:104DC00070BD2DE9F04190F8A030012B06460F464A
:104DD00094464FF002001FD04FF0010886F8A080E3
:104DE00086F8A10034240D4604FB02640FCD38344C
:104DF0000FC40FCD0FC40FCD0FC42B6823603046F6
:104E000062463946FFF78CFE33680020C3F82480E1
:104E100086F8A18086F8A000BDE8F08190F8A03067
:104E2000012B4FF0020312D080F8A13003685A6BB7
:104E300022F001025A63074A11645A6B42F00102E0
:104E40005A63012380F8A130002380F8A03018466F
:104E5000704700BF006801402DE9F341044640B3AC
:104E60000368DD0710D4236898075ED423681A0707
:104E700000F1A08023685B0700F1C080A0690028D2
:104E800040F0288100202BE08F4B9A6802F00C0242
:104E9000042A07D09A6802F00C02082A0BD15A683B
:104EA000510208D5884B1B689A03DCD56368002B38
:104EB000D9D1012014E06268B2F5803F13D11A689D
:104EC00042F480321A60FEF709FF7F4E05463368D0
:104ED0009B03C8D4FEF702FF401B6428F7D90320C8
:104EE00002B0BDE8F081784DB2F5A02F2B6807D154
:104EF00043F480232B602B6843F480332B60E2E77C
:104F000023F480332B602B6823F480232B60002A4A
:104F1000D9D1FEF7E3FE06462B689F03A3D5FEF723
:104F2000DDFE801B6428F7D9D9E7674B9A6812F039
:104F30000C0F07D09A6802F00C02082A11D15B68A6
:104F40005E020ED4604A13689D0702D5E368012B08
:104F5000AFD11368216923F0F80343EAC10313605A
:104F600084E7E268594BB2B101221A60FEF7B6FE3F
:104F7000554D06462B68980707D52B68226923F004
:104F8000F80343EAC2032B6070E7FEF7A7FE801B1D
:104F90000228EFD9A3E71A60FEF7A0FE4A4E0546A5
:104FA000336899077FF562AFFEF798FE401B022831
:104FB000F6D994E76269454B82B10122C3F8802E8D
:104FC000FEF78CFE404E0546736F9F073FF552AFCC
:104FD000FEF784FE401B0228F6D980E7C3F8802E36
:104FE000FEF77CFE384E0546736F98077FF542AF9B
:104FF000FEF774FE401B0228F6D970E7324B1A6C9C
:1050000012F0805228D101921A6C42F080521A6438
:105010001B6C03F080530193019B01272C4D2B68DF
:10502000D9051BD5A368284D012B27D12B6F43F041
:1050300001032B67FEF752FE234E054641F28838E6
:10504000336F9B0739D5002F3FF418AF1E4A136CFE
:1050500023F08053136411E70027DFE72B6843F444
:1050600080732B60FEF73AFE06462B68DA05D9D42A
:10507000FEF734FE801B0228F7D930E7052B04D158
:105080002B6F43F004032B67D0E72A6F22F0010255
:105090002A672A6F22F004022A67002BCAD1FEF782
:1050A0001DFE41F2883806462B6F9807CBD5FEF7D8
:1050B00015FE801B4045F7D911E7FEF70FFE401B98
:1050C0004045BDD90BE700BF003802400000474211
:1050D00000700040364DAB6803F00C03082B3DD048
:1050E000344B002202281A662BD1FEF7F7FD064644
:1050F0002B6899011FD4D4E907321343626A43EA4B
:105100008213E26A43EA0263A26A5208013A43EA5E
:1051100002436B60274B264D01221A66FEF7DEFD27
:1051200004462B689A013FF5ADAEFEF7D7FD001B94
:105130000228F6D9D3E6FEF7D1FD801B0228D7D985
:10514000CDE6FEF7CBFD04462B689B017FF59AAEBA
:10515000FEF7C4FD001B0228F6D9C0E601283FF483
:10516000BFAE6B68E26903F4800191427FF4A1AEA7
:10517000216A03F03F028A427FF49BAE616A47F6E0
:10518000C0721A40B2EB811F7FF493AEA26A52083C
:1051900003F44031013AB1EB024F7FF48AAEE26A88
:1051A00003F07063B3EB026F3FF46CAE81E600BFB7
:1051B0000038024000004742134908B58B6803F0ED
:1051C0000C03042B1CD0082B1CD14A684B6849687F
:1051D00013F4800314BF0D480D48C1F3881118BFA4
:1051E000002302F03F02A1FB0001FBF751F8064B40
:1051F0005B68C3F3014301335B00B0FBF3F008BD10
:105200000248FCE70248FAE70038024000127A0040
:105210000024F4002DE9F0410D46044610B90120A8
:10522000BDE8F081444B1A6802F00F028A4228D38D
:10523000226897072DD4D00741D43F4B1A6802F05B
:105240000F02AA4266D8226851076CD4130707D50B
:105250003A4A2169936823F4604343EAC1039360A7
:10526000FFF7AAFF354B364A9B68C3F30313D35CA1
:10527000D840344B1860344B1868FCF7BDFE002052
:10528000CEE7CAB21A701B6803F00F038B42C6D177
:10529000CEE72A4B12F0040F1EBF996841F4E0518B
:1052A0009960160742BF996841F4604199602349AB
:1052B000A0688B6823F0F00303438B60BBE7626850
:1052C0001E4B012A1CD11B6813F4003FA7D01B4EB4
:1052D000B36823F003031343B360FEF7FFFC41F20E
:1052E00088380746B368626803F00C03B3EB820F9B
:1052F000A3D0FEF7F3FCC01B4045F3D903208FE792
:10530000911E01291B6802D813F0007FDEE713F01D
:10531000020FDBE7EAB21A701B6803F00F03AB421F
:105320007FF47DAF8FE70549E0688B6823F4E05395
:1053300003438B608AE700BF003C02400038024014
:10534000C0D30108740000207C000020044B054AF3
:105350009B68C3F38223D35C034A1068D84070472C
:1053600000380240D0D3010874000020044B054AE5
:105370009B68C3F34233D35C034A1068D84070473C
:1053800000380240D0D30108740000200F230360CE
:105390000B4B9A6802F0030242609A6802F0F00236
:1053A00082609A6802F4E052C2609B68DB0803F4F2
:1053B000E0530361034B1B6803F00F030B6070475E
:1053C00000380240003C0240036813F0430FF7B579
:1053D000044640F08C80236813F00C0F45D08B4BB3
:1053E0008B4D00221A67FEF779FC06462B689F005A
:1053F00000F1CF8021684E0715D5D4E90403D5F814
:1054000088201B0602F0E04243EA80131343C5F8EC
:105410008830D5F88C30226A23F4F853013A43EAF5
:105420000223C5F88C300D0714D5794AA369D2F848
:10543000881020691B0701F0706143EA80130B4359
:10544000C2F88830D2F88C30616A23F440330B43C1
:10545000C2F88C306D4B6E4E01221A67FEF73EFC8F
:1054600005463368980040F19B8023689B0633D53E
:1054700000230193664B674D1A6C42F080521A6408
:105480001B6C03F080530193019B2B6843F48073E2
:105490002B60FEF723FC06462B68D90540F1878078
:1054A0005B4D2B6F13F4407340F08880A36A03F4C4
:1054B0004072B2F5407F564A40F0A480916823F0D4
:1054C000704021F4F81120F4407001439160116F95
:1054D000C3F30B030B431367206810F010001FBFCA
:1054E0004D4B94F82C20C3F8E02100204FE0474BAF
:1054F000474E00229A66FEF7F1FB054633681F010E
:105500003FD42168CD0741BFD4E901231B0743EAFB
:105510008213C6F88430880715D53D4AE368D2F86F
:10552000840065681B0600F0E04043EA85130343EE
:10553000C2F88430D2F88C00E36920F01F00013BF0
:105540000343C2F88C3049060AD5E36862681B063B
:1055500043EA8213A26843EA02732D4AC2F88430F8
:105560002A4B2B4E01229A66FEF7B8FB054633689C
:105570001A013FF530AFFEF7B1FB401B0228F6D908
:1055800004E0FEF7ABFB401B0228B7D9032003B0B1
:10559000F0BDFEF7A3FB801B02287FF627AFF5E7DF
:1055A000FEF79CFB401B02287FF65BAFEEE7FEF7A1
:1055B00095FB801B02287FF66FAFE7E7A26A02F433
:1055C000407293423FF472AF2B6F104A0121C2F830
:1055D000401E23F440730021C2F8401E2B672B6F3E
:1055E000DA077FF563AFFEF779FB41F288370646AD
:1055F0002B6F9B073FF55AAFFEF770FB801BB8423D
:10560000F6D9C3E7916821F4F8115FE7000047423B
:1056100000380240007000400010474238B50D4687
:105620000446C8B190F82C3003F0FF021BB980F893
:105630002D20FCF775FC022384F82C30211D2068F6
:1056400000F070FF62682068294600F0A6FF012381
:1056500084F82C30002038BD0120FCE770B590F8AC
:105660002C30022B05460E46D8B212D000F0FB04B7
:10567000012C0FD1022385F82C30286800F0C3FFDD
:105680003368022B06BF052385F82C3085F82C40A3
:10569000002070BD0120FCE738B590F82C30022BBB
:1056A0000446D8B20DD094F82C30012BDDB209D1CC
:1056B0000223206884F82C3000F0CBFF84F82C50B3
:1056C000002038BD0120FCE72DE9F3411D461746B7
:1056D00088460646FEF702FB3D442C1AFEF7FEFA0A
:1056E000224B1B68C3F3CB330546634332680193F7
:1056F000936838EA030301D000202DE07B1CF7D02B
:10570000FEF7ECFA401BA04229D333685A6822F016
:10571000E0025A607268B2F5827F0AD1B268B2F5CF
:10572000004F02D0B2F5806F03D11A6822F0400218
:105730001A60B26AB2F5005F07D11A6822F400520B
:105740001A601A6842F400521A60012386F8513038
:10575000002386F85030032002B0BDE8F081019BA1
:10576000002B019B08BF0024013BBFE77400002011
:1057700038B513464268B2F5827F04461FD182686D
:10578000B2F5004F02D0B2F5806F07D125682868C6
:10579000B2F5806F20F04000286007D00A468021D3
:1057A0002046FFF791FF20B9002038BD0A460121AD
:1057B000F6E7636D43F0200363650320F5E70A46CF
:1057C0000121EEE737B51346124A1568124AB5FBB8
:1057D000F2F54FF47A72554342680195B2F5827F33
:1057E00004460BD10A468021FFF76EFF78B1636D46
:1057F00043F020036365032003B030BD019B33B148
:10580000019B013B019323689B681B06F6D4002093
:10581000F2E700BF7400002000366E0110B50446A8
:10582000002855D0436A002B4ED14268B2F5827FE2
:1058300000D0C3610023A36294F8513003F0FF024B
:1058400023B984F850202046FCF7ACFA2168A06800
:10585000A269022384F851300B6823F040030B60E7
:10586000636800F4044003F482730343E06800F4C7
:1058700000600343206900F002000343606900F008
:105880000100034302F400700343E06900F03800B4
:105890000343206A00F080000343A06A00F4005034
:1058A00003430B60636A120C03F0100302F004025E
:1058B0001A434A60CB6923F40063CB6100200123C3
:1058C000606584F8513010BD0023C0E90433B1E7AE
:1058D0000120F8E72DE9F3411E4690F85030012BE6
:1058E00004460D46174600F0A180012380F8503091
:1058F000FEF7F4F994F85130012B8046D8B240F00D
:105900009380002D5ED0002F5CD0A2682563032316
:1059100084F85130B2F5004F4FF000036365C4E9DD
:105920001033E786A363A387E387A786236807D19D
:105930001A6822F040021A601A6842F480421A6023
:105940001A68E16852065EBF1A6842F040021A60A7
:10595000B1F5006F626841D10AB1012F07D135F866
:10596000022BDA602563E38E013B9BB2E386E38E74
:105970009BB2A3B9424631462046FFF723FF0028D9
:105980004FD1A36833B901932368DA6801929B6809
:105990000193019B606D003818BF012012E022685E
:1059A0009368980705D5236B33F8021BD1602363F6
:1059B000D9E7FEF793F9A0EB0800B0420BD3711CB6
:1059C000D5D00320012384F85130002384F85030CF
:1059D00002B0BDE8F081002EC9D1F2E70AB1012F73
:1059E00008D12A781A73236B01332363E38E013BBA
:1059F0009BB2E386E38E9BB2002BBBD023689A68F0
:105A0000920702D5226B1278ECE7FEF767F9A0EB5C
:105A10000800B04202D3731CECD0D2E7002EE9D1CB
:105A2000CFE720236365ACE70220CBE70220CFE776
:105A30002DE9F7431E4690F850300A9F012B04468B
:105A40000D46914600F0E680012380F85030FEF7C5
:105A500045F994F851306268012B8046D9B20AD0DA
:105A6000B2F5827F40F0D480A368002B40F0D08054
:105A7000042940F0CD80002D40D0B9F1000F3DD079
:105A8000002E3BD094F85130C4F83890042B1CBF42
:105A9000052384F8513000236365C4E9103323687B
:105AA000E687E6861968A687490658BF1968256300
:105AB00058BF41F04001A68658BF1960E168B1F5B2
:105AC000006F52D10AB1012E07D135F8022BDA60EE
:105AD000E38E2563013B9BB2E3860125E38E9BB2F7
